:020000040800F2
:10000000D8080020ED010008F5010008F7010008FC
:10001000F9010008FB010008FD01000800000000D4
:10002000000000000000000000000000FF010008C8
:100030000102000800000000030200080502000899
:10004000070200080702000807020008070200086C
:10005000070200080702000807020008070200085C
:10006000070200080702000807020008070200084C
:10007000070200080702000807020008070200083C
:10008000070200080702000807020008070200082C
:10009000070200080702000807020008070200081C
:1000A000070200080702000807020008070200080C
:1000B00007020008070200080702000807020008FC
:1000C00007020008070200080702000807020008EC
:1000D00007020008070200080702000807020008DC
:1000E00007020008070200080702000800000000DD
:1000F0000000000000000000000000000000000000
:1001000000000000000000000702000807020008CD
:10011000070200080702000807020008070200089B
:10012000070200080702000807020008070200088B
:10013000070200080702000807020008070200087B
:10014000070200080702000807020008070200086B
:1001500000F002F800F03AF80AA090E8000C82449F
:100160008344AAF10107DA4501D100F02FF8AFF27C
:10017000090EBAE80F0013F0010F18BFFB1A43F085
:10018000010318476420000084200000103A24BFB7
:1001900078C878C1FAD8520724BF30C830C144BFEC
:1001A00004680C607047000000230024002500262E
:1001B000103A28BF78C1FBD8520728BF30C148BFCA
:1001C0000B6070471FB51FBD10B510BD01F055FF86
:1001D0001146FFF7F7FF00F029F801F073FF03B4B1
:1001E000FFF7F2FF03BC01F077FF000009488047EA
:1001F00009480047FEE7FEE7FEE7FEE7FEE7FEE709
:10020000FEE7FEE7FEE7FEE704480549054A064B20
:1002100070470000011F000851010008D8020020AB
:10022000D8080020D8040020D804002000F016F8D8
:1002300000F028F800F055F800F07CF800F02EF8F7
:100240000121002000F0CEF80121102000F0DBF8A1
:100250000121880701F0EEFA00BFFEE710B501F0BA
:100260004FFE0121022000F019FD0121042000F0C1
:1002700022FD0121480700F02BFD0121084600F076
:1002800027FD10BD08B53020ADF8000000208DF826
:1002900003006946364800F0A3F908BD10B535489B
:1002A00000F06EFD3448354908603548486010203C
:1002B00088608020C860002008618020486180003C
:1002C00088618000C8612020086200024862002026
:1002D0008862284800F0F6FD0121264800F01DFE46
:1002E00010BD10B524202749086000204860022076
:1002F000C860002000F059F82249102000F055F89D
:1003000000202149087010E020481F49097830F882
:10031000110000EB00401A491B4A127841F82200F4
:1003200019480078401C1849087017480078802840
:10033000EADB10BD10B5164801F04CFA42F6F13078
:100340001349888000200880C88048804FF0804092
:1003500000F014FF2021480601F0E5FC10BD01B5B6
:1003600002E00098401E009000980028F9D108BDD6
:100370000008014044040240207400403C0000207A
:10038000740000202C00002000000020E62000085F
:100390006800002010B50121480700F0C0FC0021D2
:1003A0004FF0005000F0BBFC10BD30B50022002320
:1003B0005A4C226840F6FE748440A243D1E90045BD
:1003C0002C438D682C43CD6844EA050303FA00F4FE
:1003D0002243524C226030BD0021016041608160A7
:1003E000C160704739B14D4A1268012383401A43F6
:1003F0004A4B1A6006E0494A1268012383409A4337
:10040000464B1A60704741B1444A12684FF480531A
:1004100083401A43414B1A6007E0404A12684FF488
:10042000805383409A433D4B1A60704710B551B1D9
:100430003A4A121D126804090123A3401A43374B9C
:100440001B1D1A6009E0354A121D126804090123B8
:10045000A3409A43314B1B1D1A6010BD40B12F4978
:10046000091D096841F003012C4A121D116007E0C3
:100470002A49091D096821F00301284A121D11604B
:10048000704710B53AB1254B1B6801FA00F42343BD
:10049000224C236006E0214B1B6801FA00F4A343C1
:1004A0001E4C236010BD08B5002200921B4A00922A
:1004B00000F10802009B1A440092009A116008BDE6
:1004C00008B500220092154A009200F11402009B28
:1004D0001A440092009A116008BD30B50024002330
:1004E000082802D142EA012401E042EA01440B4B10
:1004F00000F120052B441C6030BD08B501460020EA
:100500000090064800902C2000EB9100009A1044C7
:1005100000900098006880B208BD000000740040A0
:1005200010B50446CC48844208D10121042000F0D3
:10053000E9FB0021042000F0E5FB46E0C7488442C7
:1005400008D10121082000F0DDFB0021082000F087
:10055000D9FB3AE0C248844208D10121102000F0C2
:10056000D1FB0021102000F0CDFB2EE0BD488442DD
:1005700008D10121202000F0C5FB0021202000F03F
:10058000C1FB22E0B848844208D10121402000F09C
:10059000B9FB0021402000F0B5FB16E0B3488442CF
:1005A00008D10121802000F0ADFB0021802000F067
:1005B000A9FB0AE0AE48844207D10121801500F072
:1005C000A1FB0021A01500F09DFB10BD10B501217D
:1005D000084600F097FB0021012000F093FB10BDBE
:1005E0002DE9F041024600250026002000230024CA
:1005F000002791F803C00CF00F0591F803C00CF030
:10060000100CBCF1000F03D091F802C04CEA0505B4
:1006100091F800C0BCF1000F31D0146800202BE02D
:100620004FF0010C0CFA00F3B1F800C00CEA03061D
:100630009E4220D183004FF00F0C0CFA03F7BC430D
:1006400005FA03FC4CEA040491F803C0BCF1280F3E
:1006500006D14FF0010C0CFA00FCC2F814C00AE0FD
:1006600091F803C0BCF1480F05D14FF0010C0CFA12
:1006700000FCC2F810C0401C0828D1D31460B1F8A7
:1006800000C0BCF1FF0F34DD546800202EE000F103
:10069000080C4FF0010808FA0CF3B1F800C00CEA9E
:1006A00003069E4221D183004FF00F0C0CFA03F792
:1006B000BC4305FA03FC4CEA040491F803C0BCF106
:1006C000280F05D100F1080C08FA0CF8C2F81480C4
:1006D00091F803C0BCF1480F07D100F1080C4FF0AE
:1006E000010808FA0CF8C2F81080401C0828CED384
:1006F0005460BDE8F0814FF6FF71018002218170E6
:100700000421C17070470246002093680B400BB172
:10071000012000E0002070470146886880B27047E1
:1007200002460020D3680B400BB1012000E00020FE
:1007300070470146C86880B27047016170474161E7
:1007400070470AB1016100E041617047C1607047C4
:100750004FF480320A4382618161826182698269D9
:10076000704702460020434B18684FF680731840CC
:1007700040EA021008433F4B186070473E49C86189
:100780007047F0B50A46002300240021002500F040
:100790000046B6F1004F02D1364EF16901E0354E08
:1007A0007168C0F3034583B200F44016B6F5401FEC
:1007B00008D121F070612F4E766826F070662D4FBB
:1007C0007E6012E000F48016B6F5801F06D1032685
:1007D00006FA05F4A14341F0706106E0460D3601CA
:1007E00003FA06F6B14341F0706122B1460D3601BD
:1007F00003FA06F6314300F00046B6F1004F02D18D
:100800001C4EF16101E01B4E7160F0BD30B500225D
:100810008B071C0F0F2303FA04F2164B08338C10BE
:1008200053F824309343134C08348D1044F825308A
:1008300023468C1053F824308C07240F00FA04F45C
:1008400023430C4C08348D1044F8253030BD0A4940
:10085000DC3108607047000000080140000C0140D6
:10086000001001400014014000180140001C01402C
:10087000002001400000014000002042FB480068C9
:1008800040F00100F949086008464068F84908400E
:10089000F649486008460068F6490840F349086090
:1008A0000846006820F4802008600846406820F46C
:1008B000FE0048600846006820F0A05008604FF431
:1008C0007F0088600020C8627047E849096821F409
:1008D0008031E64A11601146096821F480211160D7
:1008E000B0F5803F03D0B0F5802F0ED106E0DF4990
:1008F000096841F48031DD4A116007E0DB4909688D
:1009000041F4A021D94A116000E000BF00BF704748
:1009100010B501460022002300204A11012A02D10D
:10092000D24C236806E0022A02D1D04C236A01E0AF
:10093000CE4C636A01F01F02012494401C400CB1AC
:10094000012000E0002010BD38B5002000900024F8
:10095000002500BF3120FFF7DBFF05460098401C53
:1009600000900098B0F5A06F01D0002DF2D031209A
:10097000FFF7CEFF08B1012400E00024204638BD77
:1009800001460020B94A106820F0F80040EAC10092
:1009900010607047B8490860704702460020B34BAA
:1009A000586820F4741042EA01031843AF4B5860B2
:1009B0007047B1490866704702460020AB4BD86AC1
:1009C000AE4B184042EA01031843A84BD862704767
:1009D00001460020A54AD06A20F0F0000843D0620A
:1009E000704701460020A14AD06A20F47060084395
:1009F000D0627047A04988667047014600209B4A34
:100A0000D06A20F470400843D06270479A49086762
:100A1000704701460020954A506820F003000843C3
:100A2000506070479148406800F00C0070470146E4
:100A300000208E4A506820F0F00008435060704754
:100A400001460020894A506820F4E0600843506065
:100A5000704701460020854A506820F4605040EA03
:100A6000C1005060704729B1804A527A02437F4BDF
:100A70005A7204E07D4A527A82437C4B5A72704724
:100A80007D49D8310860704701460020774A506898
:100A900020F440400843506070477949086070472F
:100AA0007749091D086070470021704A2032117093
:100AB0006E4A82F82010012802D004280AD104E0EE
:100AC00001216A4A2032117005E00521674A20326F
:100AD000117000E000BF00BF70476A4908607047AE
:100AE0006249096A0143614A1162704765494439A4
:100AF000086070472DE9F041002100220025002305
:100B00000026002400278C46DFF86081D8F8048096
:100B100008F00C0121B1042907D0082959D109E0B6
:100B2000DFF86481C0F8008058E0DFF86081C0F829
:100B3000008053E0DFF83481D8F8048008F47012A4
:100B4000DFF82881D8F8048008F48035920C0D2A4B
:100B500001D0921C00E0062235B9DFF8348102FB97
:100B600008F8C0F8008033E0DFF80081D8F82C8066
:100B700008F48036DFF8F480D8F82C8008F00F08ED
:100B800008F1010446B9DFF80481B8FBF4F808FB6A
:100B900002F8C0F800801BE0DFF8D080D8F82C8085
:100BA000C8F3031808F10107DFF8C080D8F82C80DB
:100BB000C8F3032808F1020CDFF8D080B8FBF7F87F
:100BC00008FB0CF8B8FBF4F808FB02F8C0F800804A
:100BD00004E0DFF8B480C0F8008000BF00BFDFF899
:100BE0008C80D8F8048008F0F0010909DFF8A480AF
:100BF00018F80130D0F8008028FA03F8C0F8048013
:100C0000DFF86880D8F8048008F4E061090ADFF8AA
:100C1000848018F80130D0F8048028FA03F8C0F86E
:100C20000880DFF84880D8F8048008F46051C90AC9
:100C3000DFF8608018F80130D0F8048028FA03F853
:100C4000C0F80C80DFF82480D8F8048008F4404114
:100C5000890BDFF8448018F80130D0F80C80B8FB1D
:100C6000F3F8C0F81080BDE8F081000000100240E9
:100C70000000FFF0FFFFF6FE00004242F0FFFEFF23
:100C8000C40542428004424200127A0040787D014D
:100C900000093D00010000201100002029B1354A63
:100CA00052690243334B5A6104E0324A526982432B
:100CB000304B5A61704729B12E4A926902432D4B3D
:100CC0009A6104E02B4A926982432A4B9A617047E9
:100CD00029B1284AD2690243264BDA6104E0254A49
:100CE000D2698243234BDA61704729B1214A926A63
:100CF0000243204B9A6204E01E4A926A82431D4BD3
:100D00009A62704729B11B4AD2680243194BDA60D4
:100D100004E0184AD2688243164BDA60704729B162
:100D2000144A12690243134B1A6104E0114A126912
:100D30008243104B1A6170470F49086070470F4992
:100D4000C86470470B49C87170470A48406A40F050
:100D5000807008494862704701460020054A926841
:100D60000A400AB1012000E0002070470149887262
:100D7000704700000010024040044242000042421E
:100D800001684FF6FE721140016000210160416070
:100D90008160C1608D49884208D18C490839496811
:100DA00041F00F01894A083A51608AE087491431BD
:100DB000884208D185490839496841F0F001834AE1
:100DC000083A51607DE081492831884208D17F4945
:100DD0000839496841F470617C4A083A516070E012
:100DE0007A493C31884208D178490839496841F448
:100DF0007041764A083A516063E074495031884244
:100E000008D172490839496841F470216F4A083A9B
:100E1000516056E06D496431884208D16B49083908
:100E2000496841F47001694A083A516049E06749EC
:100E30007831884208D165490839496841F07061C4
:100E4000624A083A51603CE06149884206D1011F7C
:100E5000096841F00F01021F116032E05C49143152
:100E6000884208D15A49091F096841F0F001584ADF
:100E7000121F116025E056492831884208D1544993
:100E8000091F096841F47061514A121F116018E08E
:100E90004F493C31884208D14D49091F096841F446
:100EA00070414B4A121F11600BE049495031884292
:100EB00007D14749091F096841F47021444A121FAC
:100EC0001160704710B50022026847F6F0739A432C
:100ED0000C6A8B6823430C6923434C6923438C6958
:100EE0002343CC6923434C6A23438C6A23431A432C
:100EF0000260CB6843600B6883604B68C36010BDC1
:100F00000021016041608160C160016141618161D6
:100F1000C161016241628162704721B1026842F0A1
:100F20000102026004E002684FF6FE731A4002609C
:100F300070471AB103680B43036002E003688B43F8
:100F400003607047416070470146486880B270474F
:100F500001460020002201F080531BB11C4B083BCE
:100F60001A6802E0194B083B1A6802EA01030BB148
:100F7000012000E00020704700F0805119B11449B1
:100F8000091F086002E011490839486070470146AE
:100F90000020002201F080531BB10D4B083B1A6862
:100FA00002E00A4B083B1A6802EA01030BB1012078
:100FB00000E00020704700F0805119B10449091F7A
:100FC000086002E0014908394860704708000240A3
:100FD0000804024010B50446FE48844208D10121AD
:100FE000C014FFF78FFE0021E014FFF78BFEC4E072
:100FF000B4F1804F08D101210846FFF790FE00218F
:101000000120FFF78CFEB8E0F348844208D10121AB
:101010000220FFF784FE00210220FFF780FEACE0F3
:10102000EE48844208D101210420FFF778FE002118
:101030000420FFF774FEA0E0E948844208D10121B2
:101040000820FFF76CFE00210820FFF768FE94E0FF
:10105000E448844208D101211020FFF760FE0021FE
:101060001020FFF75CFE88E0DF48844208D10121B0
:101070002020FFF754FE00212020FFF750FE7CE0E7
:10108000DA48844208D101214014FFF73BFE0021D9
:101090006014FFF737FE70E0D548844209D1012182
:1010A000C804FFF72FFE00214FF40020FFF72AFEAF
:1010B00063E0D048844209D101210805FFF722FEF0
:1010C00000214FF48010FFF71DFE56E0CA4884420D
:1010D00009D101214805FFF715FE00214FF400104A
:1010E000FFF710FE49E0C548844208D101214020A5
:1010F000FFF715FE00214020FFF711FE3DE0C0483C
:10110000844208D101218020FFF709FE00218020C0
:10111000FFF705FE31E0BB48844208D1012180156C
:10112000FFF7FDFD0021A015FFF7F9FD25E0B6480A
:10113000844209D101210804FFF7E4FD00214FF4A6
:101140008030FFF7DFFD18E0B048844209D101216B
:101150004804FFF7D7FD00214FF40030FFF7D2FD20
:101160000BE0AB48844208D101218804FFF7CAFD97
:1011700000214FF48020FFF7C5FD10BD002202883A
:10118000944B98420ED0994B98420BD0B0F1804FBF
:1011900008D0914B984205D0904B984202D0904B8A
:1011A000984204D14FF68F731A404B881A438D4BE7
:1011B000984207D08C4B984204D04FF6FF431A4018
:1011C000CB881A4302808B8883850B880385814BEB
:1011D00098420BD0854B984208D08B4B984205D053
:1011E0008A4B984202D08A4B984201D10B7A0386EF
:1011F00001238382704770B5002400220023058CF0
:101200004FF6FE7635400584028C8388048B4FF6BA
:101210008F752C40B51E2C400D882C43751E2A401E
:101220000D892A434D882A436A4DA8420BD06F4D41
:10123000A84208D0744DA84205D0744DA84202D0EF
:10124000734DA84213D14FF6F7752A404D892A43B2
:101250004FF6FB752A408D882A434FF6FF652B40D9
:101260004FF6FF552B408D892B43CD892B4383802F
:101270000483CD888586028470BD70B50024002269
:101280000023058C4FF6EF7635400584028C838869
:10129000048B48F6FF752C404FF6FF452C400D8817
:1012A0004FF6FF7606EA05252C434FF6DF752A40F8
:1012B0000D8906EA05152A434D8806EA05152A43D5
:1012C000444DA84202D0494DA8421DD14FF67F752A
:1012D0002A404D894FF6FF7606EA05152A434FF658
:1012E000BF752A408D8806EA05152A434FF6FF355B
:1012F0002B404FF2FF752B408D8906EA85052B4365
:10130000CD8906EA85052B4383800483CD88058734
:10131000028470BD70B5002400220023058C4FF6B6
:10132000FF6635400584028C8388848B4FF68F7569
:101330002C404FF6FC752C400D882C434FF6FF5582
:101340002A400D894FF6FF7606EA05252A434D8887
:1013500006EA05252A431F4DA84202D0234DA84284
:101360001DD14FF2FF752A404D894FF6FF7606EAF0
:1013700005252A434FF6FF352A408D8806EA0525C4
:101380002A434EF6FF752B404DF6FF752B408D8995
:1013900006EA05152B43CD8906EA05152B43838004
:1013A0008483CD888587028470BD70B500220023B8
:1013B0000024058C4EF6FF7635400584038C848826
:1013C000828B48F6FF752A404FF6FF452A400D886C
:1013D00020E00000002C0140000400400008004014
:1013E000000C004000100040001400400034014098
:1013F000004C0140005001400054014000180040E2
:10140000001C00400020004000400140004401401A
:10141000004801404FF6FF7606EA05252A434DF6BF
:10142000FF752B400D8906EA05352B434D8806EAEA
:1014300005352B43FA4DA84202D0FA4DA84208D1F7
:101440004BF6FF752C408D894FF6FF7606EA851521
:101450002C4384808283CD88A0F84050038470BDE3
:10146000828B4FF2FF331A408283828B4FF6FF73D9
:1014700003EA01231A4382837047F0B50C461546F0
:10148000002200210026078C4EF6FF7C07EA0C079D
:101490000784828B018C4FF6FF7707EA043640F60B
:1014A000FF473A404FF6FF7707EA05273A434FF6E2
:1014B000FF7707EA03373A43D94FB8420ED0D94FE6
:1014C000B8420BD0B0F1804F08D0D74FB84205D00A
:1014D000D64FB84202D0D64FB84206D14DF6FF776C
:1014E000394046F48057394305E047F6FF57394005
:1014F00044F48057394382830184F0BD828B4FF6D8
:10150000F3731A408283828B0A4382837047F0B55B
:101510000C461546002200210026078C4FF6FF6C72
:1015200007EA0C070784828B018C4FF6FF7707EAE6
:1015300004264FF60C773A404FF6FF7707EA031779
:101540002F433A43B64FB8420ED0B64FB8420BD0F5
:10155000B0F1804F08D0B44FB84205D0B34FB84275
:1015600002D0B34FB84206D14FF6FF57394046F488
:101570008077394305E04FF2FF57394044F48077D4
:10158000394382830184F0BD028B4FF2FF331A404E
:101590000283028B4FF6FF7303EA01231A4302838F
:1015A0007047F0B50C461546002200210026078C36
:1015B0004FF6EF7C07EA0C070784028B018C4FF68D
:1015C000FF7707EA041640F6FF473A404FF6FF77E9
:1015D00007EA03373A434FF6FF7707EA05273A430E
:1015E0008F4FB8420ED08F4FB8420BD0B0F1804F22
:1015F00008D08D4FB84205D08C4FB84202D08C4FE6
:10160000B84206D14FF6DF77394046F0100739432C
:1016100005E04FF65F77394044F010073943028305
:101620000184F0BD028B4FF6F3731A400283028BE4
:101630000A4302837047F0B50C461546002200218C
:10164000068C4FF6FE773E400684028B018C4FF6E7
:101650000C7632407E1C06EA03162E433243704E4F
:10166000B0420ED06F4EB0420BD0B0F1804F08D0D8
:101670006D4EB04205D06D4EB04202D06C4EB042BD
:1016800006D14FF6FD76314044F00106314305E0C6
:101690004FF6F576314044F0010631430283018470
:1016A000F0BD70B505460C465D4885420ED05D48DC
:1016B00085420BD0B5F1804F08D05B48854205D0FC
:1016C0005A48854202D05A48854200D100E000BF06
:1016D000208850B92389A28861882846FFF7ABFF8C
:1016E000E1882846FFF79EFF25E0208804280AD1DC
:1016F0002389A28861882846FFF753FFE18828469E
:10170000FFF742FF17E0208808280AD12389A28822
:1017100061882846FFF7FBFEE1882846FFF7EEFECA
:1017200009E02389A28861882846FFF7A6FEE188A0
:101730002846FFF795FE70BD2DE9F04105460C46A1
:1017400000260127608808B9022600E00026A0884C
:10175000012801D1022700E001272088A0B92389B0
:10176000A28861882846FFF766FFE1882846FFF7D0
:1017700059FF23893A4631462846FFF712FFE18890
:101780002846FFF701FF13E02389A28861882846D5
:10179000FFF707FFE1882846FFF7F6FE23893A4660
:1017A00031462846FFF747FFE1882846FFF73AFF12
:1017B000BDE8F0810A884B881A438B881A43CB888E
:1017C0001A430B891A434B891A438B891A43A0F891
:1017D000442070474FF6FF71818000210180C18055
:1017E0004180017270470021018041808180C18069
:1017F000018141818181C181704700210180418047
:10180000012181800021C180018170470021018078
:1018100041808180C18001814181818170470000C8
:10182000002C01400034014000040040000800404A
:10183000000C004021B1028842F00102028004E065
:1018400002884FF6FE731A400280704731B1B0F83B
:10185000442042F40042A0F8442005E0B0F84420BF
:10186000C2F30E02A0F8442070471AB183890B43DB
:10187000838102E083898B43838170478182704733
:1018800041EA0203A0F8483070471AB183890B433C
:10189000838102E083898B438381704701894FF6FE
:1018A000F8721140018170470A46002101894FF604
:1018B0008F73194011430181704730B504460D46BE
:1018C00029462046FFF7F0FF208940F007002081DD
:1018D00030BD2DE9F04104460D4616461F46602DE9
:1018E00006D13B46012231462046FFF75AFE05E06D
:1018F0003B46012231462046FFF79DFE2946204601
:10190000FFF7D2FF208940F007002081BDE8F08179
:1019100030B50C4600210189C9B24FF6FF7505EAC2
:101920000325154325432943018130BD2DE9F041AD
:1019300005460E4617469846002443463A46314629
:101940002846FFF7E5FF2C894FF6F870044044F075
:1019500007044FF68F70044044F070042C81BDE8FA
:10196000F081F0B504460D4616461F463B4632460A
:1019700029462046FFF7CCFF208940F48040208193
:10198000F0BD0185828270470A46002101884FF62A
:101990008F731940114301807047F0B50C4615460E
:1019A0001E460021002200230189028B038C4FF682
:1019B000F877394021434FF6FC473A4040F201178F
:1019C0003A434FF6DD773B404FF6FF7707EA0617BD
:1019D0002F433B43018102830384F0BD0A4600216B
:1019E000018B4FF68F7319401143018370470A46EC
:1019F0000021018B48F6FF7319404FF6FF7303EA8D
:101A000002231943018370470A460021818B4FF658
:101A10008F7319401143818370470A460021818BDF
:101A200048F6FF7319404FF6FF7303EA0223194388
:101A30008183704721B1028842F08002028004E075
:101A400002884FF67F731A400280704721B1828866
:101A500042F00402828004E082884FF6FB731A4051
:101A60008280704721B1828842F00802828004E0BF
:101A700082884FF6F7731A408280704721B18288BE
:101A800042F00102828004E082884FF6FE731A4021
:101A9000828070470A460021018B4FF6F773194088
:101AA0001143018370470A460021018B4FF2FF73F7
:101AB00019404FF6FF7303EA02231943018370476D
:101AC0000A460021818B4FF6F77319401143818339
:101AD00070470A460021818B4FF2FF7319404FF681
:101AE000FF7303EA02231943818370470A460021EA
:101AF000018B4FF6FB7319401143018370470A466F
:101B00000021018B4FF6FF3319404FF6FF7303EAB4
:101B100002231943018370470A460021818B4FF647
:101B2000FB7319401143818370470A460021818B62
:101B30004FF6FF3319404FF6FF7303EA02231943B0
:101B4000818370470A460021018B4FF67F7319404D
:101B50001143018370470A460021018BC1F30E0136
:101B60004FF6FF7303EA02231943018370470A46C5
:101B70000021818B4FF67F73194011438183704799
:101B80000A460021818BC1F30E014FF6FF7303EA71
:101B900002231943818370470A460021018C4FF6C6
:101BA000FD7319401143018470470A460021018CDE
:101BB0004FF6F77319401143018470470A4600211C
:101BC000018C4FF6DF7319404FF6FF7303EA0213DF
:101BD0001943018470470A460021018C4FF67F7338
:101BE00019404FF6FF7303EA02131943018470474B
:101BF0000A460021018C4FF6FF5319404FF6FF7340
:101C000003EA02231943018470470A460021018C2C
:101C10004FF2FF7319404FF6FF7303EA0223194393
:101C2000018470470A460021018C4DF6FF7319406C
:101C30004FF6FF7303EA023319430184704730B54E
:101C4000002301248C40A3B2048C9C430484048CA4
:101C500002FA01F5ADB22C43048430BD30B5002347
:101C600004248C40A3B2048C9C430484048C02FAA8
:101C700001F5ADB22C43048430BD70B5034600209D
:101C800000241846183001258D40ACB21D8CA543A8
:101C90001D8409B1082909D100EB6100056825F010
:101CA000700505600568154305600EE00D1FC5F35E
:101CB0004E052844056825F4E045056005684FF6A3
:101CC000FF7606EA02263543056070BD21B1028821
:101CD00042F00202028004E002884FF6FD731A40CF
:101CE0000280704721B1028842F00402028004E0C1
:101CF00002884FF6FB731A400280704721B1828838
:101D000042F08002828004E082884FF67F731A409E
:101D10008280704702884FF6F7731A40028002886B
:101D20000A430280704782884FF68F731A40828080
:101D300082880A438280704702894FF6F8731A40FE
:101D4000028102890A430281704702894FF67F733C
:101D50001A40028102890A430281704781847047D8
:101D600081857047818670470187704781877047FA
:101D7000A0F84010704702884FF6FF431A400280D7
:101D800002880A43028070470146888E70470146E8
:101D9000088F70470146888F70470146B1F84000B0
:101DA00070470146888C70470146088D704702468F
:101DB0000020138A0B400BB1012000E00020704787
:101DC000CA430282704730B5024600200023002437
:101DD000158A05EA0103958905EA010413B10CB1DE
:101DE000012000E0002030BDCA430282704700009D
:101DF0000CB50020019000909248006840F48030BB
:101E00009049086000BF8F48006800F400300090DF
:101E10000198401C0190009818B90198B0F5A06F86
:101E2000F1D18848006800F4003010B10120009022
:101E300001E000200090009801285CD182480068F1
:101E400040F01000804908600846006820F0030058
:101E500008600846006840F0020008607948406861
:101E6000784948600846406848600846406840F441
:101E7000806048600846C06A744908407149C86279
:101E80000846C06A724908436E49C862084600683D
:101E900040F08060086000BF6A48006800F00060A1
:101EA0000028F9D06748406820F47C1065494860F4
:101EB0000846406840F4E81048600846006840F072
:101EC0008070086000BF5F48006800F00070002864
:101ED000F9D05C48406820F003005A494860084641
:101EE000406840F00200486000BF5648406800F07B
:101EF0000C000828F9D10CBD10B5FFF779FF10BD13
:101F000010B55048006840F001004E49086008468E
:101F10004068504908404B494860084600684E49AF
:101F20000840484908600846006820F4802008609E
:101F30000846406820F4FE0048600846006820F02B
:101F4000A05008604FF47F0088600020C862FFF74F
:101F5000D3FF4FF000604149086010BDF0B500218B
:101F6000002000230024002200250026354F7F6832
:101F700007F00C0121B1042908D008294BD10BE04E
:101F8000374FDFF8E0C0CCF800704AE0364FDFF89A
:101F9000D4C0CCF8007044E02A4F7F6807F470107A
:101FA000284F7F6807F48033800C0D2801D0801CF7
:101FB00000E0062033B92D4F4743DFF8A8C0CCF826
:101FC000007027E01F4FFF6A07F480341D4FFF6A3F
:101FD00007F00F077A1C44B9234FB7FBF2F74743CA
:101FE000DFF880C0CCF8007014E0164FFF6AC7F32A
:101FF00003177D1C134FFF6AC7F30327BE1C1A4F3C
:10200000B7FBF5F77743B7FBF2F74743DFF854C068
:10201000CCF8007005E0124FDFF848C0CCF8007033
:1020200000BF00BF074F7F68C7F30317DFF840C04A
:102030001CF807100B4F3F68CF40DFF828C0CCF8E2
:102040000070F0BD001002400020024000F0FEFFD2
:10205000440601000000FFF0FFFFF6FE08ED00E07F
:1020600000127A001800002040787D0100093D0030
:102070001C000020704770477047754600F028F834
:10208000AE4605006946534620F00700854618B065
:1020900020B5FEF7B9F8BDE820404FF000064FF03C
:1020A00000074FF000084FF0000B21F00701AC468D
:1020B000ACE8C009ACE8C009ACE8C009ACE8C009AC
:1020C0008D4670470446AFF300802046FEF787F840
:1020D000004870477402002001491820ABBEFEE79B
:1020E00026000200704700086408C8082C098F0900
:1020F000F109520AB10A0F0B6B0BC50B1C0C710CCA
:10210000C30C120D5F0DA70DED0D2E0E6C0EA60E5D
:10211000DC0E0D0F3A0F630F870FA70FC20FD80FFA
:10212000E90FF50FFD0FFF0FFD0FF50FE90FD80FAA
:10213000C20FA70F870F630F3A0F0D0FDC0EA60E0D
:102140006C0E2E0EED0DA70D5F0D120DC30C710C54
:102150001C0CC50B6B0B0F0BB10A520AF1098F094E
:102160002C09C808640800089B073707D3067006C7
:102170000E06AD054E05F00494043A04E3038E0305
:102180003C03ED02A00258021202D1019301590151
:102190002301F200C5009C00780058003D00270094
:1021A00016000A000200000002000A0016002700C4
:1021B0003D00580078009C00C500F2002301590141
:1021C0009301D10112025802A002ED023C038E03DA
:1021D000E3033A049404F0044E05AD050E067006C0
:1021E000D30637079B0700000822000800000020E4
:1021F0002C0000008C010008342200082C00002074
:10220000AC080000A8010008000000000001020363
:10221000040102030406070809020406080000007E
:1022200000A24A04000000000000000001020304B4
:04223000060708098C
:04000005080001519D
:00000001FF
