:020000040800F2
:10000000082C0020612E0008692E00086B2E0008C5
:100010006D2E00086F2E0008712E000800000000F1
:10002000000000000000000000000000C102000805
:10003000752E000800000000390300087503000851
:100040007B2E00087B2E00087B2E00087B2E0008EC
:100050007B2E00087B2E00087B2E00087B2E0008DC
:100060007B2E00087B2E00087B2E00080B2B00083F
:100070001D2B0008312B0008452B0008592B0008C8
:100080006D2B0008812B00087B2E00087B2E0008BA
:100090007B2E00087B2E00087B2E00087B2E00089C
:1000A0007B2E00087B2E00087B2E00087B2E00088C
:1000B0007B2E00087B2E00087B2E00087B2E00087C
:1000C0007B2E00087B2E00087B2E0008B32600083C
:1000D0007B2E00087B2E00087B2E00087B2E00085C
:1000E0007B2E00087B2E00087B2E000800000000FD
:1000F0000000000000000000000000000000000000
:1001000000000000000000007B2E0008F12600081F
:100110007B2E00087B2E00087B2E00087B2E00081B
:10012000952B0008AB2B0008C32B00087B2E000882
:10013000DB2B00087B2E00087B2E00087B2E00089E
:100140007B2E00087B2E00087B2E00087B2E0008EB
:1001500000F002F800F05FF80AA090E8000C82447A
:100160008344AAF10107DA4501D100F054F8AFF257
:10017000090EBAE80F0013F0010F18BFFB1A43F085
:100180000103184780CC0000A0CC0000103A24BF27
:1001900078C878C1FAD8520724BF30C830C144BFEC
:1001A00004680C607047000000230024002500262E
:1001B000103A28BF78C1FBD8520728BF30C148BFCA
:1001C0000B6070476E2903F05381702903F098810A
:1001D000642903F01181782903F08581632903F0F4
:1001E000C886732903F0CD86002070471FB59DE8AF
:1001F000030004F039FA04F01AFA04000020002188
:100200000AF018FD401C606004F028F91FBD10B50D
:1002100004F09CF910BD04F039FE1146FFF7E6FF2B
:100220000FB400F00BF80FBC00F098FD03F038FCA1
:1002300003B4FFF7ECFF03BC04F022FE04B009F0A6
:10024000E5F80448002109F071F909F0F1F803F02C
:1002500027FC00001000002080F309887047EFF3AE
:1002600009807047684680F3098804480078C00711
:1002700014BF0220032080F3148870479CC7000835
:10028000DFF818C0EFF305831B0618BF6047EFF3D4
:100290001483DB0708BF604700DF7047DF99000861
:1002A000DFF818C0EFF305831B0618BF6047EFF3B4
:1002B0001483DB0708BF604700DF7047C59B000859
:1002C000EFF30980816911F8021CF1B990E80F1071
:1002D000E047EFF3098C8CE80700144B93E8060025
:1002E00091420FD039B12CE9F00FC1F828C00CB4FD
:1002F00009F0F8FF0CBC1A60D2F828C0BCE8F00F77
:100300008CF309886FF0020E704710B5084A126826
:10031000914209D8074C54F8214090E80F10A047AB
:10032000EFF3098C8CE80F0010BD0000580000208E
:10033000305100083051000809F0A6FE0C4B93E83C
:100340000600914210D0EFF3098C2CE9F00FC1F8B0
:1003500028C00CB409F0C6FF0CBC1A60D2F828C043
:10036000BCE8F00F8CF309886FF0020E70470000B4
:10037000580000200AF07EF8E0E7000009F00EF9CE
:100380000AF078F8DAE7000030B50024234605E0EB
:100390000D553A2D00D1631C641C23B918B1055DBD
:1003A0000DB19442F4D3934200D100230022CA54E9
:1003B000184430BD70B5002520242E4638B9086099
:1003C00070BD222A01D12224012500F8016B027898
:1003D000202AF6D0222AF4D0024606E015B1222BBC
:1003E0000FD001E0202B0CD0521C13780D2B08D01D
:1003F0000A2B06D0002BF1D103E0167005B154B1E1
:10040000521C1378A342F8D00D2BF6D00A2BF4D04F
:1004100013781BB901E0521CFAE700220A6070BD94
:100420002DE9F0471446F94ADFF8D883F64E821AD0
:100430004FF47A7571F1E80216D3F44AE82302F01A
:10044000D9FE174602469946F1A1204602F06EFFFA
:100450000444384649464246002302F0CBFE174684
:1004600098460246EBA10CE0E64A821A71F10002BE
:1004700023D34246002302F0BDFE174698460246AB
:10048000E3A1204602F052FF04443846414632467A
:10049000002302F0AFFE16461F460246DDA12046AD
:1004A00002F044FF0444304639462A46002302F055
:1004B000A1FE13460246D9A11AE0D34A821A71F16D
:1004C000000208D33246002302F094FE16461F466F
:1004D0000246CFA1E3E74FF47A72821A71F100026B
:1004E0000BD32A46002302F085FE13460246CEA116
:1004F0002046BDE8F04702F019BF02462046BDE89D
:10050000F047CBA102F012BF38B56946FFF752FFA2
:10051000040011D00098002598B16946FFF74AFF02
:100520000546C4A103F0C2FB40B1C3A1284603F0B5
:10053000BDFB18B1C1A023E0C5A021E00125C9A0E1
:1005400000E0CEA0214602F0DBFED3A002F0D8FEF0
:100550000DB1D7A100E0D7A1204603F06BFA04004B
:1005600011D0A021D44800F09BFE05462146D24878
:1005700004F0F2FC002DF4D1204603F08DF9CFA059
:1005800002F0BEFE38BDD1A0FAE77CB54FF47A7117
:1005900001916946FFF70EFF050011D0009838B1B0
:1005A0006946FFF707FF01AAA1A103F077F848B158
:1005B000C0A1284603F03EFA060005D0002414E04E
:1005C000A3A019E09DA017E0C0A015E02B4622468D
:1005D000C4A1304602F0A0FEA00502D18EA002F018
:1005E0008FFEC84802F0A5FD641C01988442EDDB33
:1005F000304603F051F9B1A002F082FE7CBD38B55F
:100600006946FFF7D7FE04000AD00146BEA002F0FB
:1006100077FEC4A1204603F00DFA040002D006E0E4
:100620008BA00DE0C0A00BE0B64903F0FDF820461A
:1006300003F022F9411CF7D1204603F02DF99FA0C9
:1006400002F05EFE38BDF8B56946FFF7B3FE040060
:1006500014D069460098FFF7ADFE050010D00146A2
:10066000204603F023FB68B10026204603F037FA4A
:10067000204410F8010C5C2806D006E074A016E0B7
:10068000AEA014E0B3A012E001262946204607F0F0
:1006900055FB10B156B1B5A009E02A4621460EB16E
:1006A000B9A000E0C0A002F02BFEF8BDC4A002F08B
:1006B00027FEF8BD2DE9F047ADF5027D80A9FFF7D3
:1006C00079FE07000DD080A98098FFF773FE050022
:1006D00009D080A98098FFF76DFE040005D001269F
:1006E00005E05BA028E095A026E000262C462146E8
:1006F000384603F0DBFAF0B126B12146284603F074
:10070000D5FAC0B187A1384603F094F95FEA000832
:1007100018D0D6B123462A463946AFA002F0F0FDE4
:1007200064A1204603F086F95FEA000913D0002493
:100730004FF400771EE087A002F0E2FD0DF5027D88
:10074000BDE8F0873946ABA048E022463946AFA065
:1007500002F0D6FDE4E72146B2A002F0D1FD40460A
:1007600003F09AF8EAE702464B460121684604F096
:100770000EFC544443463A460121684604F0B0FA60
:100780005FEA000AEFD1404603F086F8E6B165A1C2
:10079000284603F04FF906000BD1294695A002F038
:1007A000AFFD11E002464B460121684604F0EFFB25
:1007B0002C4433463A460121684604F091FA05007C
:1007C000F0D1304603F068F8484603F065F86A4611
:1007D00020460021FFF724FE69469BA002F090FD11
:1007E000ACE738B56946FFF7E5FD040007D000998E
:1007F00002F09DFC10B10D2802D02FE136E132E16C
:1008000036E1000000CA9A3B40420F000010A5D418
:1008100025642E00253033642E000000253033641B
:100820002E2530336400000025642E25303364000B
:10083000256400002F4100002F6100000A436F6D06
:100840006D616E64206572726F722E0A0000000086
:100850000A46696C656E616D65206D697373696EBA
:10086000672E0A000A417070656E642064617461CD
:1008700020746F2066696C65202573000A436170DF
:1008800074757265206461746120746F2066696C90
:1008900065202573000000000A50726573732045BF
:1008A000534320746F2073746F702E0A0000000091
:1008B00061000000770000008C0000200A46696C8F
:1008C0006520636C6F7365642E0A00000A43616ED5
:1008D000206E6F74206F70656E2066696C65210AEA
:1008E0000000000054686973206973206C696E65AC
:1008F000202320256420696E2066696C652025739D
:100900000A0000005C1F00200A52656164206461D7
:1009100074612066726F6D2066696C652025730AAC
:1009200000000000720000000A46696C65206E6FCE
:100930007420666F756E64210A0000000A4E6577A8
:100940002046696C656E616D65206D697373696EB3
:10095000672E0A000A4E6577206E616D6520697307
:10096000207468652073616D652E0A000A446972FF
:100970006563746F72792072656E616D6520657252
:10098000726F722E0A0000000A4469726563746F08
:1009900072792025732072656E616D656420746FB5
:1009A0002025730A000000000A46696C6520257343
:1009B0002072656E616D656420746F2025730A0076
:1009C0000A46696C652072656E616D65206572729C
:1009D0006F722E0A000000000A436F70792066696A
:1009E0006C652025732C20257320746F2025730AD5
:1009F000000000000A46696C65202573206E6F7444
:100A000020666F756E64210A000000000A436F7053
:100A1000792066696C6520257320746F2025730A20
:100A2000000000000A4661696C656420746F206FE5
:100A300070656E20257320666F7220777269746905
:100A40006E67210A000000000A2573206279746530
:100A50007320636F706965642E0A0000F5A000BF03
:100A600002F04EFC38BDAFF21820F9E7F6A0F7E728
:100A70002146FBA002F044FC38BD2DE9F04FD1B077
:100A80004FA9FFF797FC04004FF0000505D06278EE
:100A90002A202E213A2A02D003E0F7A410E0A278FF
:100AA0001AB1A2783A2A05D00AE0A070E17020714C
:100AB000657105E0E2781AB9E07021716071A57185
:100AC000EEA002F01DFC00208246814680464E903A
:100AD000ADF80C010DF1080B68E000BF9DF80E01A8
:100AE000C0062BD500260BE095F82970002085F86C
:100AF00029002946E8A002F003FC85F82970293670
:100B00000BEB0600054602F0EAFF2928ECD80BEBB8
:100B10000601E3A002F0F4FB9DF811119DF810010D
:100B2000CDE90001BDF816319DF814219DF813118F
:100B3000E1A002F0E5FB0AF1010A37E046AA002134
:100B40004298FFF76DFC00260CE000BF95F8297075
:100B5000002085F829002946CFA002F0D1FB85F8B6
:100B6000297029360BEB0600054602F0B8FF29284C
:100B7000ECD80BEB060146AAD6A002F0C1FB9DF80B
:100B800011119DF81001CDE90001BDF816319DF855
:100B900014219DF81311C8A002F0B2FB429B4E989D
:100BA00013EB090948F10008401C4E9002A92046A9
:100BB00006F07AFC002891D0BDF80C01D0B146AA0D
:100BC00048464146FFF72CFC46AAC6A04E9902F0C3
:100BD00097FB204606F006FD46AAFFF721FC5FEAD8
:100BE0000A000BD0014646AAC9A002F089FB51B009
:100BF000BDE8F08FD2A002F083FBEAE746A9D4A0BB
:100C000002F07EFBF3E71FB5042203A9FFF7BCFB4C
:100C10000446D4A002F074FBD94802F003FE792800
:100C200003D0592801D0D7A005E0214603A806F03B
:100C3000ADFC18B1D9A002F063FB1FBDDCA002F02F
:100C40005FFB0022694603A807F0ACFA0028F4D144
:100C50009DF800000028F0D06946DAA002F050FBB1
:100C60001FBDF8B504460546202600906946009849
:100C7000FFF7A0FB0146009851EA000210D028B10E
:100C800002782B2A0FD02D2A0DD0044609B1002856
:100C9000ECD12946204606F0B5FB38B1CFA006E0DE
:100CA000AFF2684003E000F8016CEFE7D4A002F077
:100CB00027FBF8BD10B588B0042206A9FFF764FB36
:100CC00006A807F031F9040002D407F043F920B177
:100CD000D2A002F015FB08B010BD02AA04212046E4
:100CE00007F002F930B1D5A002F00AFB204607F068
:100CF00059F9F0E79DF80E10D7A00A4602F000FB64
:100D0000BDF80C00C2B2010ADBA002F0F9FA9DF8AE
:100D100016109DF81500CDE900019DF814309DF8DE
:100D200013209DF81210DBA002F0EAFA9DF80F00E4
:100D300000F00F020109DEA002F0E2FAE3A002993E
:100D400002F0DEFABDF81000020900F00F01E7A082
:100D500002F0D6FACAE7ED4802F0D2BA08B500F0C0
:100D600044F8EA489D3802F0CBFAE84802F0C8FAA5
:100D700000F012FAE64FE7A002F0C2FAE74802F0EC
:100D8000D8F9A021E64800F08BFA0028F3D0694694
:100D9000E348FFF70FFB064600780028EBD0354606
:100DA00004E000BF02F09DFA05F8010B287808B1B5
:100DB0002028F7D15FF0000404EB440007EB80012A
:100DC000304602F073FF40B1641C0C2CF4D30C2CA1
:100DD000D1D1D4A002F094FACDE704EB440007EBA4
:100DE0008000816800988847F1E710B500F0A9FB02
:100DF0001F2000F097FE4FF6FF7000F08FFE00F00E
:100E000095FECC4800F0ADFE0021CBA2084600F0D4
:100E100081FFCFA21821002000F07CFFD2A2482140
:100E2000002000F077FF6021BDE81040D4A2002030
:100E300000F070BF0A44656C657465206661696C7A
:100E400065642E0A000000000A44656C6574652024
:100E50007375636365737366756C2E0A000000001A
:100E60000A46696C65202573206E6F7420666F7565
:100E70006E642E0A000000002A2E2A000A46696CC1
:100E8000652053797374656D204469726563746F6E
:100E900072792E2E2E0000000A252D3431730000A9
:100EA0000A252D343173202020203C4449523E2015
:100EB00020202020202000002020253032642E25F4
:100EC0003032642E253034642020253032643A25B7
:100ED000303264000A252D343173202531347320DB
:100EE000000000000A202020202020202020202098
:100EF0002020202539642046696C6528732920202C
:100F0000202025323173206279746573000000005F
:100F10000A202020202020202020202020202025E2
:100F2000396420446972287329202020202025322A
:100F3000317320627974657320667265652E0A00CC
:100F40000A4E6F2066696C65732E2E2E000000001D
:100F50000A2535367320627974657320667265657B
:100F60002E0A00000A50726F636565642077697409
:100F70006820466F726D6174205B592F4E5D0A00C8
:100F8000081F0020466F726D617474696E6720637C
:100F9000616E63656C65642E0A000000466F726DB9
:100FA000617474696E67206661696C65642E0A00FD
:100FB000466F726D617420636F6D706C65746564EB
:100FC0002E0A0000566F6C756D65206C6162656C51
:100FD00020697320222573220A0000004661696C93
:100FE000656420746F206368616E67652066696C54
:100FF0006520617474726962757465732E0A0000ED
:1010000046696C65206174747269627574657320D9
:101010006368616E6765642E0A0000005370656343
:10102000696669656420647269766520646F6573BA
:101030006E277420657869737473210043494420D6
:101040007265676973746572207265616420666198
:10105000696C65642E0A00004D616E75666163748B
:10106000757265722049443A20256420283078251D
:101070002E3258290A0000004F454D2F4170706CE8
:1010800069636174696F6E2049443A202563256362
:101090000A00000050726F64756374206E616D65A4
:1010A0003A20256325632563256325630A00000034
:1010B00050726F64756374207265766973696F6EC0
:1010C0003A2025642E25640A0000000050726F64E7
:1010D0007563742073657269616C206E756D6265ED
:1010E000723A20307825580A000000004D616E7574
:1010F000666163747572696E6720646174653A2015
:1011000025642F252E32640A00000000FDAC000883
:10111000E8B100080A436D643E2000005C1F002017
:101120008C0000200A436F6D6D616E6420657272E1
:101130006F720A0078C700082020202020204D432D
:101140004253544D33324320202020200000000021
:1011500020204576616C756174696F6E20426F6105
:1011600072642020000000002020202020204D4418
:101170004B2D41524D202020202020200000000037
:101180002046696C655F44656D6F206578616D70A0
:101190006C6520200000000010B512A002F0B0F82D
:1011A0001CA006F0A3FA40B11BA000BF02F0A8F8F3
:1011B000BDE8104021A002F0A3B816A006F0BAFACC
:1011C000010005D00B2905D01EA002F099F8EFE729
:1011D00027A0EBE72BA002F093F80EA0FFF713FD7A
:1011E000E6E70000496E697469616C697A696E6747
:1011F00020616E64206D6F756E74696E6720656E18
:1012000061626C6564206472697665732E2E2E0AA5
:101210000A0000004D303A004472697665204D3076
:1012200020696E697469616C697A6174696F6E2096
:101230006661696C6564210A000000000A446F6EF3
:1012400065210A004472697665204D30206D6F7506
:101250006E74206661696C656420776974682065C6
:1012600072726F7220636F64652025640A0000004B
:101270004472697665204D30207265616479210A77
:10128000000000004472697665204D30206E6F7456
:1012900020666F726D6174746564210A000000003D
:1012A0002DE9F0410025884604462F461F4802F0EC
:1012B000B9FAC6B2132E30D006DC082E08D00D2E97
:1012C0001DD0112E1FD128E01B2E14D07F2E1AD135
:1012D0001DB317490820641E6D1E02F0A5FA1449BB
:1012E000202002F0A1FA1249082002F09DFA1048CD
:1012F00001F01FFF11E027700020BDE8F08104F825
:10130000016B0A266D1C30462670094902F08CFAE2
:10131000074801F00EFF641C6D1CA8F10200854215
:1013200001DA0A2EC2D127700120E6E7081F00204B
:101330005C1F00202DE9F05F0026FF4C0F4683461E
:10134000012925D0002301220C21204601F025FD92
:1013500007254FF080694FF4806A4FF0010800BF05
:10136000C4F81090012000F03CFD012F13D0A068BC
:10137000C0F30030A84030435FFA80F6C4F810A0F4
:10138000012000F02EFD6D1EEAD53046BDE8F09F2D
:1013900003230022D8E708FA05F010EA0B0000D07A
:1013A0000120C00702D04FF4805001E04FF0805080
:1013B0002061E3E738B5E14C05460121626A13205C
:1013C000904770208DF8000000208DF801008DF806
:1013D00002506269032168469047A06A8047C007AF
:1013E000FBD10021626A1320904738BD38B50D4605
:1013F00070218DF80010010A8DF80110CF4C8DF886
:1014000002000121626A1320904762690321684645
:101410009047A06A8047C007FBD10021626A132071
:10142000904772208DF80000280A8DF801008DF891
:1014300002500121626A13209047626903216846C5
:101440009047A06A8047C007FBD10021626A132041
:10145000904738BD70B5B84E032300220A213046AC
:1014600001F09BFC002301220B21304601F095FC8A
:10147000032300220C21304601F08FFCB04D3415BF
:101480002C61346126042E6101217020FFF752FF88
:1014900001210020FFF74EFF2C612E6101217320F6
:1014A000FFF748FF00210846FFF744FF2C6170BD9D
:1014B0002DE9F0410746A348BD180E460078CC1828
:1014C00020B3C7F30F210220641E6D1EFFF78EFFAD
:1014D000F9B20320FFF78AFFC5F30F210420FFF7BD
:1014E00085FFE9B20520FFF781FFC6F30F21062033
:1014F000FFF77CFFF1B20720FFF778FFC4F30F215D
:101500000820FFF773FFE1B2092017E0B1B25020C5
:10151000FFF76CFF641EA1B25120FFF767FFB9B25D
:101520005220FFF763FF6D1EA9B25320FFF75EFF45
:10153000B1B22020FFF75AFFB9B22120BDE8F04137
:1015400054E72DE9F0477E4D0121284601F090FB3C
:101550000121794801F08CFB032300220A2128464F
:1015600001F01BFC012728152861002203231146E6
:10157000284601F012FC38044FF000092861FFF7FB
:1015800069FF6E4E04460020B16888473169022029
:101590008847726A6C496D489047E4B90020FFF7AC
:1015A00009FF0121726A13209047732000F02AFC82
:1015B000002000F027FC002000F024FC4FF6FF7113
:1015C00001EA0028002000F01DFC40EA0804002188
:1015D000726A132090475B48472C7DD080F80090BA
:1015E0004FF480710120FFF701FF4FF4E06102200A
:1015F000FFF7FCFE00210420FFF7F8FE40F2072170
:101600000820FFF7F3FE00210920FFF7EFFE00217D
:101610000A20FFF7EBFE00210C20FFF7E7FE002178
:101620000D20FFF7E3FE00210F20FFF7DFFE002172
:101630001020FFF7DBFE00211120FFF7D7FE00216D
:101640001220FFF7D3FE00211320FFF7CFFEC820A2
:1016500000F0C7FB41F2B0211020FFF7C7FE0721C1
:101660001120FFF7C3FE322000F0BBFB40F2BD119A
:101670001220FFF7BBFE322000F0B3FB4FF4A05165
:101680001320FFF7B3FE0E212920FFF7AFFE322013
:1016900000F0A7FB00212020FFF7A8FE0021212059
:1016A000FFF7A4FEA4F5A840083840F207687CD0F4
:1016B000E33040F20776B0F5804F77D00621302036
:1016C000FFF794FE40F201113120FFF78FFE032156
:1016D0003220FFF78BFE00E01EE04FF483713520CF
:1016E000FFF784FE40F602313620FFF77FFE40F21E
:1016F00002313720FFF77AFE31463820FFF776FEB9
:1017000007213920FFF772FE4FF4C0613C20FFF73C
:101710006DFE40F20B2188E107700021EA20FFF7FF
:1017200065FE2021EB20FFF761FE0C21EC20FFF786
:101730005DFEC721ED200BE000100140A0C80008AD
:10174000000C01400000002080A812010183080065
:10175000FFF74CFE3821E820FFF748FE1021E92072
:10176000FFF744FE0121F120FFF740FE1021F22097
:10177000FFF73CFE01214020FFF738FE0021412009
:10178000FFF734FE00214220FFF730FE10214320F6
:10179000FFF72CFE0E214420FFF728FE24214520D0
:1017A000FFF724FE0421462001E0C8E015E1FFF721
:1017B0001DFE50214720FFF719FE02214820FFF7A8
:1017C00015FE13214920FFF711FE19214A20FFF7CA
:1017D0000DFE19214B20FFF709FE16214C20FFF7C3
:1017E00005FE1B215020FFF701FE31215120FFF79C
:1017F000FDFD2F215220FFF7F9FD3F215320FFF778
:10180000F5FD3F215420FFF7F1FD3E215520FFF764
:10181000EDFD2F215620FFF7E9FD7B215720FFF733
:10182000E5FD09215820FFF7E1FD06215920FFF7CA
:10183000DDFD06215A20FFF7D9FD0C215B20FFF7C3
:10184000D5FD1D215C20FFF7D1FDCC215D20FFF7E8
:10185000CDFD1B210846FFF7C9FD01211A20FFF726
:10186000C5FD2F212420FFF7C1FD57212520FFF7BB
:10187000BDFD88212320FFF7B9FD36211820FFF791
:10188000B5FD01211920FFF7B1FD00210120FFF76F
:10189000ADFD88211F20FFF7A9FDC82000F0A1FAA7
:1018A00082211F20FFF7A2FD322000F09AFA922138
:1018B0001F20FFF79BFD322000F093FAD2211F205A
:1018C000FFF794FD322000F08CFA55211720FFF726
:1018D0008DFD00210846FFF789FD11212F20FFF71C
:1018E00085FD00213120FFF781FD00213220FFF727
:1018F0007DFD38212820FFF779FDC82000F071FA1E
:101900003C212820FFF772FDA8211620FFF76EFD6D
:1019100000210E20FFF76AFD00210F20FFF766FD72
:1019200001211020FFF762FD40211120FFF75EFD2D
:1019300000211220FFF75AFD00211320DBE040F6C2
:101940000D313020FFF752FD41F623113120FFF712
:101950004DFD41F626413220FFF748FD42F21C6161
:101960003320FFF743FD42F219413420FFF73EFDDB
:1019700040F60B513520FFF739FD41F206013620C4
:10198000FFF734FD4FF4C2613720FFF72FFD40F21F
:1019900006713820FFF72AFD4FF441713920FFF717
:1019A00025FD40F605613A20FFF720FD40F6016174
:1019B0003B20FFF71BFD4FF487713C20FFF716FD1E
:1019C00040F20E513D20FFF711FD40F203413E2051
:1019D000FFF70CFD41463F2028E000213020FFF7B3
:1019E00005FD41463120FFF701FD40F2053132206F
:1019F000FFF7FCFC00213520FFF7F8FC41F2046101
:101A00003620FFF7F3FC4FF401713720FFF7EEFCAF
:101A100001213820FFF7EAFC31463920FFF7E6FCC8
:101A200000213C20FFF7E2FC0F213D20FFF7DEFC08
:101A300000215020FFF7DAFCEF215120FFF7D6FC00
:101A400000215220FFF7D2FC40F23F115320FFF754
:101A5000CDFC04F6F834B4F5C04406D0E334B4F554
:101A6000804F02D04FF4274101E04FF41C51602019
:101A7000FFF7BCFC01216120FFF7B8FC00216A20C0
:101A8000FFF7B4FC00218020FFF7B0FC002181208B
:101A9000FFF7ACFC00218220FFF7A8FC0021832087
:101AA000FFF7A4FC00218420FFF7A0FC0021852083
:101AB000FFF79CFC10219020FFF798FC002192205A
:101AC000FFF794FC03219320FFF790FC4FF48871FB
:101AD0009520FFF78BFC00219720FFF787FC002162
:101AE0009820FFF783FC41F238010320FFF77EFCCA
:101AF00040F237110720FFF779FC2F610020BDE885
:101B0000F08710B5D64C002021698847E0688047EF
:101B1000D4494FF480300861002010BDD24948807C
:101B200000207047D04988800020704770B50021A0
:101B3000F0234FF4A0720846FFF7BAFC2220FFF70B
:101B400039FC00F06EF9C84D00244FF49636A88891
:101B500000F076F9641CB442F9D300F06CF900206F
:101B600070BDC149886000207047F8B5BE4E05467B
:101B70000C46307810B3C5F30F210F460220FFF753
:101B800035FCE9B20320FFF731FC39460420FFF7AA
:101B90002DFCE9B20520FFF729FCC4F30F210D4607
:101BA0000620FFF723FCE1B20720FFF71FFC2946C0
:101BB0000820FFF71BFCE1B2092005E089B22020D4
:101BC000FFF714FCA9B22120FFF710FC2220FFF739
:101BD000F1FBA34D012174886A6A1320904772209B
:101BE0008DF80000200A8DF801008DF802406A6926
:101BF000032168469047A86A8047C007FBD10021AF
:101C00006A6A132090470020F8BD70B5144601237E
:101C1000FFF74EFC2220FFF7CDFB00F002F9924DBA
:101C200002E0688800F00CF9641EFAD200F003F9B3
:101C3000002070BD70B5144613460122FFF738FC32
:101C40002220FFF7B7FB00F0ECF8874D02E0688830
:101C500000F0F6F8641EFAD200F0EDF8002070BD36
:101C60002DE9F0411C4616460D460746FFF7CDFF0D
:101C7000291932463846FFF7C8FF2246294638461A
:101C8000FFF7D8FFB81922462946FFF7D3FF0020F7
:101C9000BDE8F0812DE9F041734CA36893B15D6814
:101CA000DF68551B1A885B88D61DF608754303FB51
:101CB0000576FFF7FDFB2220FFF77CFB00F0B1F873
:101CC00000271FE04FF0FF30E2E7002514E03078F6
:101CD00005F00701C840C00701D0608800E0A08877
:101CE00000F0AEF8E843400705D1A0680088401E28
:101CF000A84200D0761C6D1CA0680088A842E6D8D7
:101D0000761C7F1CA0684088B842DED800F093F8AB
:101D10000020BDE72DE9F04114460F460546524E1E
:101D200007E039462846641CFFF7B4FFB068008816
:101D300005442278002AF4D10020A9E72DE9F047D4
:101D40001646089A984672436423B2FBF3F743465B
:101D50003246FFF7ADFB2220FFF72CFB00F061F8C5
:101D60000025DFF804910EE0002409E0BC4202D314
:101D7000B9F8040001E0B9F8020000F061F8641C51
:101D8000B442F3D36D1C4545EED300F054F8002067
:101D9000B5E62DE9F0411C461646069FFFF788FB85
:101DA0002220FFF707FB00F03CF8641E74430AE0B2
:101DB000002505E0601937F8100000F041F86D1CAF
:101DC000B542F7D3A41B002CF2DA00F034F800205F
:101DD0005EE74FF0FF3070474FF0FF307047002054
:101DE0007047224942F210720968B1FBF2F1414397
:101DF00005E000BF00BF00BF00BF00BF00BF491E1D
:101E0000F7D2704711B5164C81B00122E3696946DB
:101E100001A89847A06A8047C007FBD19DF8000041
:101E20001CBD0F4810B50121426A13209047BDE840
:101E300010407220E6E70A480021426A132010474A
:101E400038B5010A8DF80010054C8DF8010002210B
:101E5000626968469047A06A8047C007FBD138BDD9
:101E6000A0C80008000C014000000020380000203D
:101E7000FEE7FEE71A4810B5007848B108F076FC96
:101E800030B1184900EB400001EB4010603810BD44
:101E9000154810BD154A10B511680346082900D32E
:101EA000FEE71048603000EB0110491C186011601B
:101EB00008F042F8012010BD09490978002905D031
:101EC00000684FF6FF71DFF828C000DF7047044953
:101ED0000978002903D00068DFF818C000DF7047D8
:101EE00051000020B4070020A81E00202C00002074
:101EF00021A00008499F000830B5FD4BFD4CFE4A6B
:101F0000FE49984204D1CD6845F48055CD600BE080
:101F1000A04203D10D6945F4804504E0904203D10D
:101F20000D6945F400450D6100BF00BF00BF00BF53
:101F3000984204D1C86820F48050C86030BDA042E7
:101F400003D1086920F4804004E09042F6D108698A
:101F500020F40040086130BDE94800687047E84857
:101F60004068704710B50C46896ACA79D20737D1E4
:101F70000860A16A00200871A16A4871A16A88718D
:101F80001C21E06A01F06BFE608B00F037FF606996
:101F90000121006800F06CFE60690323022203C87F
:101FA00000F0FBFEC0B1A16851B10868012100F04A
:101FB0005FFEA0680323022203C800F0EEFE58B1C2
:101FC000E16849B10868012100F052FEE068002391
:101FD000022203C800F0E1FEA26A0121D17108B11A
:101FE000002010BD4FF0FF3010BD10B50446406911
:101FF00000231A4603C800F0D0FEE06820B103C8F1
:1020000000231A4600F0C9FEA06820B103C80023CF
:102010001A4600F0C2FE206920B103C800231A4608
:1020200000F0BBFE208B00F0E9FEA16A0020C87121
:1020300010BD2DE9F047AE4FB04DDFF8B882DFF8A4
:10204000B8920C4600264FF0010A20B1022831D088
:10205000301FBDE8F0872068FFF74EFF94F91C00A1
:1020600000F01F020AFA02F14009800000F1E020AE
:10207000C0F880112068B84204D1A86920F48050CB
:10208000A8610BE0404503D1E86920F4804004E0FA
:10209000484503D1E86920F40040E861A06A067170
:1020A000A06A4671A06A8671A06AC17921F0020116
:1020B000C17143E0A06AC179CA0715D089073DD430
:1020C0000671A06A4671A06A8671E06A0683A06AFA
:1020D000C17941F00201C1712068B84207D1A869F5
:1020E00040F48050A8610EE04FF0FF30B1E740456A
:1020F00003D1E86940F4804004E0484503D1E86931
:1021000040F40040E8612068FFF7F6FE94F91C10E7
:1021100001F01F020AFA02F24909890001F1E021E7
:10212000C1F8802294F91C1001F01F020AFA02F093
:102130004909890001F1E021C1F80001002088E788
:1021400030B550B149B1936ADC7965074FF0FF347F
:1021500010D51D7925B1600030BD6FF0040030BD91
:10216000956815B11D7A012D06D0D56815B11D7A77
:10217000022D01D0204630BD01241C71946A002339
:102180006371946AA371D46A6360D46AA060D06AF0
:102190000160D06AC360D06A03611068818841F031
:1021A000400181801068818841F080018180002099
:1021B00030BD30B550B149B1936ADC7965074FF055
:1021C000FF3410D51D7925B1600030BD6FF00400DB
:1021D00030BDD56815B11D7A012D06D0956815B1B1
:1021E0001D7A022D01D0204630BD01241C71946A55
:1021F00000236371946AA371D46A6060D06A8360BB
:10220000D06A0160D06AC360D06A036110688188B7
:1022100041F0400181801068818841F08001818017
:10222000002030BD70B558B151B14AB19C6AE57912
:102230006E074FF0FF3522D5267926B1680070BDB4
:102240006FF0040070BDDE68CEB19E68BEB101259E
:1022500025719D6A00246C719D6AAC71DD6A6960AC
:10226000D96A8860D86A0260D86AC460D86A046192
:102270001868818841F0C0018180002070BD284627
:1022800070BD2DE9F0470F46916A14460026CA79C1
:1022900035469307B1464FF0FF3277D500F0FF0C7B
:1022A0004FF00008BCF1140F03D00B79FBB15000C4
:1022B000CFE6606A00282068818809D021F00201F9
:1022C0008180606A0068016821F00101016002E01C
:1022D00021F080018180206A00282068818815D043
:1022E00021F001018180206A006801680AE018E09D
:1022F0000030014000380040003C00400010024027
:10230000CCC7000821F00101016002E021F040018A
:1023100081801C21E06A01F0A2FCA16A81F804809E
:102320007BE06FF006086FF0070A4FF40023BCF162
:10233000040F2CD00CDCBCF1000F1CD0BCF1010F41
:1023400015D0BCF1020F15D0BCF1030F0CD11EE06B
:10235000BCF1100F1DD0BCF1110F32D0BCF1120F27
:1023600037D0BCF1130F37D06FF0030071E60126B0
:10237000042500E0022600F4E061B1F5007F5BD0A7
:1023800052DC81B3B1F5807F51D152E04AE0404642
:102390005FE6D4F80410012021FA00F2BA4202D913
:1023A000401C0828F8D321680A8822F040020A80DD
:1023B000226811880AEBC00021F038010143118026
:1023C000DBE0D4E900100988C1F3C201491CC84010
:1023D0003FE6E06A078320E08868C1B2012903D0A4
:1023E00002290FD01EE02CE000F4C0112069C8B112
:1023F000994217D102680079012107B1103081405C
:1024000011610AE000F4001098420BD12068012FFE
:10241000018804D021F480710180002019E641F484
:102420008071F9E7104614E6B1F5407F07D05046B9
:102430000FE645F0010504E045F0020501E045F036
:10244000030500F47C31B1F5004F07D0B1F5803FB2
:1024500002D06FF00800FCE545F40065410301D5AA
:1024600045F080056FF00A01012E02D0022E44D003
:1024700062E010F4C01008D098421ED0B0F5801F62
:102480002BD0B0F5C01F7ED109E0206920B103C870
:1024900000231A4600F081FC45F440754CE02069A9
:1024A00090B30068012100F0E3FB206903230222BE
:1024B00003C800F072FC964E3EE0206920B300682D
:1024C000012100F0D5FB20690323002203C800F09E
:1024D00064FC45F440758F4E2EE02069A0B1006881
:1024E000012100F0C5FB20690323022203C800F08C
:1024F00054FC4FF00409884E1EE010F4001004D084
:10250000B0F5001F3FD10DE03CE02069D0B300687A
:10251000012100F0ADFB20690323022203C800F073
:102520003CFC09E0206920B103C800231A4600F0F2
:1025300034FC7A4E45F400756168012021FA00F2FE
:10254000BA4202D9401C0828F8D3A16A0AEBC0009D
:1025500028438E6021680A8822F040020A8022689F
:1025600049F02001918021680880A06A16F0FF0FD1
:10257000C1790AD041F00401C1712068018841F09D
:10258000400149E7FFE7084663E521F00401F3E76E
:10259000F0B401680A89002154064FF0010302D506
:1025A000816A4B710221140703D5846A41F002014C
:1025B0006371940603D5846A41F00401A371D307C3
:1025C0002CD003689C88640628D59C89C56A2B6832
:1025D00013B36E685EB1731C6B60347005682D8830
:1025E0002D0504D5250AC46A5E1C66601D70C46A88
:1025F000E3685B1CE360C46A2468A3420ED10368ED
:102600009C8824F040049C80C46A002341F00101AE
:102610002360846A237101E041F00201920729D509
:1026200002689288120625D5C26A136803B39468BB
:102630006CB1631C9360227804682488240507D554
:10264000C46A5D1CA5601B7842EA032200E0128B7D
:1026500003689A81C36A1A69521C1A61C36A1B68AB
:102660009A4207D10268938823F08003938001E0A7
:1026700041F00201002906D0806A0268002A02D0D7
:10268000F0BC08461047F0BC704725496AE424486E
:10269000ABE42349CDE4224A52E5214A89E5204BA7
:1026A000C0E52048C06870471D4AEAE51C4800F0B4
:1026B00022B81B486CE71A49303153E418483030CF
:1026C00093E417493031B4E4154A303238E5144AFE
:1026D00030326EE5124B3033A4E512481C30C0682E
:1026E00070470F4A3032CCE50D48303000F003B867
:1026F0000B4830304CE7826A107960F300010846DD
:10270000517961F34100917961F3820070470000D3
:102710000100180001000800010010000200200064
:10272000D4C70008A00800205B490968C9070AD07F
:10273000594980390968C90705D04FF060410A68D6
:10274000002AFCD00870704754494FF0FF300B68E6
:10275000534A934201D008680A60704770B504007C
:102760004FF0FF3516D020783A2804D02046BDE837
:10277000704002F077BD4BA1204601F097FA58B1A6
:102780004AA1204601F092FA48B14AA1204601F040
:102790008DFA38B1284670BD48F2010070BD48F28C
:1027A000020070BD48F2030070BD6FF40041411893
:1027B00005D0012903D0022901D002F0BBBC0020C2
:1027C000704710B50C466FF400411346411808D00D
:1027D000012909D002290ED02146BDE8104002F09F
:1027E00003BE4FF0FF3010BD63B114F8010BFFF7CB
:1027F0009BFF5B1EF8E72BB114F8010BFFF794FF6A
:102800005B1EF8E7002010BD70B50D4614466FF44E
:10281000004142180AD00914012A13D0022A11D00B
:1028200022462946BDE8704002F064BDFFF78CFFE8
:10283000411CFBD0002802DA44F0004070BD287033
:10284000601E70BD084670BD00BE70476FF4004149
:10285000401805D0012802D0022801D0002070477E
:10286000012070476FF4004283184FF0FF3205D00B
:10287000012B03D0022B01D002F07EBD1046704721
:102880006FF40041411805D0012903D0022901D07D
:1028900002F0B6BC00207047800E00E0300000203F
:1028A000A55AA55A3A535444494E00003A53544449
:1028B0004F5554003A535444455252002DE9F047C5
:1028C0000F2301241F020022DFF89483F0268C409E
:1028D000E44D4FF470494FF4702C01280FD00228BA
:1028E0002ED1D8F8140040F00200C8F81400DE48D9
:1028F000062964D2DFE801F063505967707AD8F88E
:10290000140040F00100C8F81400D848082914D277
:10291000DFE801F013040B181F272F388260436093
:102920000B2000F092F90B2005E0C26146600C20FC
:1029300000F08BF90C2000F072F9287804432C7019
:10294000BDE8F087026347600D2000F07EF90D209E
:10295000F1E74264C0F804900E2000F076F90E20F2
:10296000E9E78265C0F804C00F2000F06EF90F207F
:10297000E1E7C2664FF470014160102000F065F994
:102980001020D8E7C0F880204FF07061416011201E
:1029900000F05BF91120CEE7B349091D0A6003601E
:1029A000382000F052F9382007E0AF4918310A60AA
:1029B0000660392000F049F9392000F030F96878D4
:1029C00004436C70BCE7A8492C310A6007603A20C8
:1029D00000F03BF93A20F0E7A34940310A60C0F823
:1029E00000903B2000F031F93B20E6E79E4954314E
:1029F0000A60C0F800C03C2000F027F93C20DCE76A
:102A00002DE9F041012700248F40DFF85482954DD5
:102A100001280BD0022858D16878002855D0062903
:102A200049D2DFE801F0483C42545A602878002837
:102A30004BD08E4E082928D2DFE801F02704090E7A
:102A400013181D220B2000F0F5F8B4601DE00C20D7
:102A500000F0F0F8F46118E00D2000F0EBF83463BA
:102A600013E00E2000F0E6F874640EE00F2000F092
:102A7000E1F8B46509E0102000F0DCF8F46604E049
:102A8000112000F0D7F8C6F880402878B8432870A5
:102A90001BD1D8F81410404621F0010114E0382071
:102AA00000F0C8F87048001D04E0392000F0C2F8BA
:102AB0006D48183004606878B843687005D1D8F85C
:102AC0001410404621F002014161BDE8F0813A2036
:102AD00000F0B0F864482C30ECE73B2000F0AAF896
:102AE00061484030E6E73C2000F0A4F85E485430EE
:102AF000E0E770477047704770477047704770470E
:102B000070477047704770477047584910B508685C
:102B100000F00F004860FFF7ECFF10BD534910B5FF
:102B20000868C0F3031002014A60FFF7E3FF10BD1D
:102B30004E4910B50868C0F3032002024A60FFF74F
:102B4000DAFF10BD494910B50868C0F3033002032D
:102B50004A60FFF7D1FF10BD444910B50868C0F3C3
:102B6000034002044A60FFF7C8FF10BD3F4910B59B
:102B70000868C0F3035002054A60FFF7BFFF10BDAD
:102B80003A4910B50868C0F3036002064A60FFF7CF
:102B9000B6FF10BD344810B5001F0068324900F080
:102BA0000F000860FFF7ACFF10BD2F4810B5001FE5
:102BB00000682D4AC0F3031001011160FFF7A1FF67
:102BC00010BD294810B5001F0068274AC0F3032034
:102BD00001021160FFF796FF10BD234810B5001FDA
:102BE0000068214AC0F3034001041160FFF78CFF25
:102BF00010BD70B51C4D2D1F28682C1DC0F303306F
:102C000018B101032160FFF77EFF2868C0F303407D
:102C1000002803D001042160FFF776FF70BD00F0AB
:102C20001F02012191404009800000F1E020C0F81E
:102C30000011704700F01F020121914040098000FF
:102C400000F1E020C0F88011704700F01F02012160
:102C500091404009800000F1E020C0F880127047E8
:102C60000010024034000020040402400000024032
:102C7000F0B5724A724B734C734D744E744FDFF85B
:102C8000D4C1DFF8D4E151B3704503D1906940F06D
:102C9000040004E0984204D1906940F0080090617B
:102CA000F0BDA04203D1906940F01000F7E7A842C0
:102CB00003D1906940F02000F1E7B04203D1906960
:102CC00040F04000EBE7B84203D1906940F080004B
:102CD000E5E76045E4D1906940F48070DFE7704536
:102CE00003D1906920F00400D9E7984203D190699C
:102CF00020F00800D3E7A04203D1906920F0100033
:102D0000CDE7A84203D1906920F02000C7E7B04288
:102D100003D1906920F04000C1E7B84203D1906927
:102D200020F08000BBE76045BAD1906920F4807044
:102D3000B5E7494A4149904203D18869C0F3800010
:102D400070473F4A904203D18869C0F3C000704782
:102D50003C4A904203D18869C0F3001070473A4A58
:102D6000904203D18869C0F340107047374A9042BF
:102D700003D18869C0F380107047354A904203D16F
:102D80008869C0F3C0107047324A904203D1886905
:102D9000C0F30020704700207047F0B51F4616466C
:102DA0000D4604460F2901D90020F0BDFFF7C1FFF1
:102DB00018B901212046FFF75BFF6FB90120A84039
:102DC000022E02D0032E03D006E0E168814302E028
:102DD000E16802260143E160082D01D3241D083D6E
:102DE0002168A8000F2282409143216047EA8601B2
:102DF00081402068014321600120F0BD10B500280A
:102E00001BD00E498A69D20703D18A6942F00102B8
:102E10008A61C10401D5114901E010491839C0F394
:102E200042120C68C0F3032300F01F008240944359
:102E30000C600A6883401A430A6010BD001002400B
:102E4000000C014000100140001401400018014036
:102E5000001C014000200140000801401C0001400E
:102E60000948804709480047FEE7FEE7FEE7FEE71E
:102E7000FEE7FEE7FEE7FEE7FEE7FEE7044805495A
:102E8000054A064B704700005F2F000851010008FB
:102E900008200020082C00200828002008280020F6
:102EA0000CB50021644801910091026842F480321F
:102EB00002604FF4A063026802F400320092019AAB
:102EC000521C0192009A12B9019A9A42F3D10268F7
:102ED000920342D50121009158490A6842F010023C
:102EE0000A600A6822F003020A600A6842F00202DD
:102EF0000A604168416041684160416841F4806115
:102F00004160C16A4E4A1140C162C16A4D4A1143D3
:102F1000C162016841F08061016001680901FCD56E
:102F2000416821F47C114160416841F4E81141603D
:102F3000016841F08071016001688901FCD5416838
:102F400021F003014160416841F0020141604168A4
:102F5000C1F381010229FAD10CBD00910CBD3648A4
:102F600010B5016841F0010101604168364A114025
:102F700041600168354A11400160016821F48021F7
:102F80000160416821F4FE014160016821F0A05117
:102F900001604FF47F0181600021C162FFF780FF73
:102FA0002B494FF00060086010BD70B522484168A1
:102FB000284B294A11F00C0104D0284D042903D0D4
:102FC000082903D0136029E0156027E041684368B1
:102FD0000F2404EA914103F480330D2901D0891CA8
:102FE00000E00621BBB1C36A13F4803FC36A03F05B
:102FF0000F0303F101031BD0C46AC66AC4F30314B0
:10300000641CB5FBF4F4C6F30326B61C7443B4FB8E
:10301000F3F34B43D6E7124B5943116040680E4916
:10302000C0F30310091D085C1168C140116070BD38
:10303000B5FBF3F3EDE70000001002400020024072
:1030400000F0FEFF440601000000FFF0FFFFF6FE67
:1030500008ED00E000127A003800002040787D0181
:1030600000093D0006F026BA10B50024611E06F0E6
:1030700051FA00B10124204610BD10B5002406F01D
:103080003DFA00B10124204610BD10B5002406F021
:1030900029FA00B10124204610BD4FF47A70704720
:1030A00010B506F0A7F9002010BD06F0F7B94949A0
:1030B000494A098812884143504301EB1040704748
:1030C000464905F017BD454905F0F7BE434B05F0ED
:1030D000E2BE424B05F00DBF404905F0CFBE3F4A6E
:1030E00005F082BC3D4905F001BD10B501784D29C0
:1030F0001CD14078302819D13948FFF7B3FF374940
:10310000364A843901F1A40348603548001D8860BF
:103110000820C1E904300020486250779360314BA9
:103120001360314B53608862A1F8800010BD02F03B
:1031300095B910B5044600F0EEFB08B1012010BDB2
:103140006069BDE8104002F027B84FF0FF307047CB
:10315000012070470120704701207047012070470F
:103160000120704701207047002070474FF0FF306A
:103170007047012070474FF0FF30704701207047C3
:1031800001207047012070470120704700207047E0
:1031900001207047012070474FF0FF300146704713
:1031A00001207047012070470120704701207047BF
:1031B00000207047002070470020704701207047B2
:1031C00001207047002070470120704700207047A1
:1031D0000120704794C7000896C70008240A002001
:1031E000E8C8000874C80008E530000800487047C7
:1031F000A81E002053EA020C00F069802DE9F04B74
:103200004FF00006002B1FBFB3FA83F503FA05F455
:1032100024FA05F65E4012BF1643B2FA82F502FAAE
:1032200005F4C5F120051EBF22FA05FC44EA0C0492
:10323000203556EA044C4FEA144418BF641C4FF082
:1032400000084FF00009904271EB030C39D30029BC
:1032500019BFB1FA81F701FA07F6B0FA80F700FA60
:1032600007F6C7F120071EBF20FA07FC46EA0C0646
:103270002037B6FBF4FCA7EB0507103F07F01F0B48
:10328000CBF120060CFA0BFB2CFA06F644BFB34632
:103290000026202FA4BF5E464FF0000B5BEA060C11
:1032A00008BF4FF0010B19EB0B09ABFB027C48EB9D
:1032B0000608C01B06FB02CC0BFB03CC71EB0C0118
:1032C000C1E70B46024641464846BDE8F08B13B5C0
:1032D0004FF000004FF00001AFF30080BDE81C404C
:1032E000704710B5044600F025FD0068005D00073A
:1032F00004D5DF2C02D0A4F1200010BD204610BD63
:103300000FB4044910B503AA029801F005FE10BCE1
:103310005DF814FB5C1F00200FB4014610B504AA31
:10332000039801F0F9FD10BC5DF814FB0FB41CB557
:10333000084B06AA7B4469460090059800F0F7FD0B
:1033400004460020694600F005FE20461CBC5DF8DE
:1033500014FB00001D0C000070B504468569006870
:10336000C10601D5302600E02026C00707D070BD79
:10337000D4E9012130469047206A401C20626D1E2E
:10338000F6D570BD70B5044685690078C00707D1D1
:1033900070BDD4E9012120209047206A401C2062A2
:1033A0006D1EF6D570BD70B50C460546012A05D0D8
:1033B0002878800600D5EA69002302E0012305E0B1
:1033C0005B1C934202D2E05C0028F9D1A869E618A0
:1033D000C01AA861286A184428622846FFF7BCFF73
:1033E00004E0D5E9012114F8010B9047B442F8D369
:1033F0002846FFF7C7FF70BD2DE9F04106460024BF
:1034000010687529314616A510D0AFF3008000284A
:1034100002DA404213A507E031688A0701D512A5F8
:1034200002E0490704D511A5012401E0AFF30080B3
:1034300000210A2206F1240709E0B0FBF2FCB0FBF0
:10344000F2F302FB1C00303078541846491C002867
:10345000F3D123462A463046BDE8F04100F009BDCD
:10346000000000002D0000002B00000020000000E4
:1034700011680268006A530501D508700AE0D30597
:1034800001D5088006E0130603D5C217C1E9000282
:1034900000E0086001207047F0B40D46018809057E
:1034A00002D51B4C7C4402E0194C7C440E340021B4
:1034B00000F1240305E002F00F061209A65D5E5438
:1034C000491C002AF7D102780023120704D5702D79
:1034D00006D009B1022311342246F0BC00F0C9BC69
:1034E00001231034F8E770B504460D4621461068F4
:1034F000AFF30080024629462046BDE87040CBE786
:103500000368126843F0200303600823C361C3E724
:10351000209900002DE9F05F894604464FF0000A2B
:10352000DFF874B1FB44C0F820A02046E16888476A
:10353000002874D0252806D0D4E901219047206ABC
:10354000401C2062F1E700265F462046E16888477C
:103550002028054607DB312D05D2781910F8200CFC
:1035600008B10643F1E7B00701D526F00406C4F818
:103570001CA00027C4F818A02A2D09D0284601F065
:10358000BEFF38B304EB8708303DC8F8185019E087
:1035900059F8041B204604EB87029161E1688847D3
:1035A000012F054618D1E069002820DA26F0200610
:1035B0001DE0D8F8180000EB800005EB4000303823
:1035C000C8F818002046E1688847054601F097FFD3
:1035D0000028EED1012F0AD02E2D08D12046E16817
:1035E00088477F1C0546022F46F02006C4DBA069F1
:1035F000002803DA404246F00106A061F00701D03E
:1036000026F010066C2D0BD0682D09D04C2D39D02A
:103610006A2D35D0742D35D07A2D33D016E038E0B0
:10362000E1682F4620468847B842054609D16C2FED
:1036300026D04FF48060E16806432046884705465F
:1036400004E06C2F1AD04FF4807006430DB3A5F13F
:103650004100192802D8203546F400664A4629461A
:10366000204626604E46FCF7ADFD80B101280BD008
:10367000F61D26F0070000F1080956E74020E4E7B0
:103680008020D8E70020D6E706F104094DE7284658
:1036900052E7206ABDE8F09FC89800000FB400B55B
:1036A0008DB010A9099000910B904FF0FF300A9057
:1036B00000200C90064878440690064878446A46F4
:1036C00007900F9909A800F075FC0DB05DF814FB88
:1036D0001B090000330900002DE9FF5F1D464FF074
:1036E000FF3B91464FF000085F46D5E90146A969C6
:1036F00001987F1C8847296A824688470028F6D1AE
:10370000BAF1FF3F0CD0002E24F4C06419DD60062E
:1037100014D5BAF12B0F09D0BAF12D0F0ED103E059
:10372000584604B0BDE8F09F44F48064A96901984C
:103730007F1C8847761E8246002E02DDBAF1300FCC
:1037400003D0B9F1000F26D032E0A969761E0198A6
:103750007F1C44F400748847002E824605DDBAF1D0
:10376000780F06D0BAF1580F03D0B9F1000F10D07E
:103770001EE0B9F1000F02D0B9F1100F18D1A969FC
:10378000761E01987F1C24F400748847824610201E
:1037900002E0082000E00A20814609E0A96908FB50
:1037A0000908761E01987F1C44F4007488478246FD
:1037B000002E05DD4946504600F0E7FB0028EDDA13
:1037C000E96901988847A00502D46FF00100A8E7D5
:1037D000E00725D1600613D5600502D5C8F10000C9
:1037E00000E0404629680A1D2A600968220501D5C3
:1037F000087015E0220701D5088011E008600FE08D
:103800002868011D29600068210502D580F8008024
:1038100006E0210702D5A0F8008001E0C0F8008092
:1038200038467EE700F028B800F006BE2DE9F047E4
:1038300004464FF000094FF0FF37C568D4E904860D
:10384000A80707D0204600F0B3FD3046FEF7ADFFD5
:10385000002802DA3846BDE8F087280502D5404640
:1038600000F0F0FA4C21204600F0F9F9206D20F02C
:10387000010020654846EEE770B5044600F14C05AE
:103880002846FEF719FB204603F0D8FE04462846DA
:10389000FEF71DFB204670BD70B505460A4E30464A
:1038A000FEF70AFB05F14C042046FEF705FB28460F
:1038B000FFF7BCFF05462046FEF709FB3046FEF742
:1038C00006FB284670BD0000880000202DE9F0416D
:1038D000044600F14C073846FEF7EEFAE06881072F
:1038E00012D0800601D5A66A04E0A1696068084488
:1038F0002169461A204600F05BFD0022054631464C
:10390000204600F0A5FC00E000253846FEF7DFFA6F
:103910002846BDE8F0812DE9F04118B1BDE8F0413D
:10392000FFF7D4BF0B4E00253046FEF7C5FA0A4C10
:103930006F1E07E02046FFF7C9FF00B13D46206D2E
:1039400020F00104002CF5D13046FEF7C0FA2846DD
:10395000DFE7000088000020081F00202DE9F04765
:1039600016468846814602F14C073846FEF7A4FA0F
:103970003046FFF75BFF18F8010B61280AD0722868
:1039800002D077283FD102E00125002405E002257E
:10399000042402E0082448F2020518F8010B2B2841
:1039A00006D0622809D018F8010C74280AD00BE060
:1039B00045F0030544F00204EFE745F0040544F048
:1039C0000104EAE744F0100448462146FEF7C6FE2B
:1039D000411C18D00021316171604FF40071F56015
:1039E000F1617061200704D530460222002100F009
:1039F0002FFC306D40F0010030653846FEF767FA65
:103A00003046BDE8F0870026F7E72DE9F04115467E
:103A10000E460746204C2046FEF74EFA2A4631460F
:103A20003846FFF79BFF05462046FEF750FA28462A
:103A3000BDE8F0812DE9F0410E468046164D28463E
:103A4000FEF73AFA154C206DC10704D0410804D0A6
:103A500020F00104F7E7224612E0542000F0B7F905
:103A6000070017D0206D47F001010843542120655D
:103A7000384600F0F4F807F14C00FEF70BFA3A462E
:103A800031464046FFF76AFF04462846FEF71FFA14
:103A90002046CDE70024F8E788000020081F00201A
:103AA0000446AFF300802046FCF7C2FB2DE9F0414D
:103AB000054690460E460020044600E0641C44453E
:103AC0000BD2285D00F0C8F90746305D00F0C4F95C
:103AD000381A02D1295D0029F0D1BDE8F08110B576
:103AE000431C02E010F8011B71B18107FAD14FF0BD
:103AF000013202C88C1A8C4314EAC211F9D0C01AE0
:103B00000A0603D0C01E10BDC01A10BD0A0401D0A1
:103B1000801E10BD0902FCD0401E10BD032A40F2D9
:103B2000308010F0030C00F0158011F8013BBCF15F
:103B3000020F624498BF11F801CB00F8013B38BF77
:103B400011F8013BA2F1040298BF00F801CB38BF85
:103B500000F8013B11F0030300F02580083AC0F0A3
:103B6000088051F8043B083A51F804CBA0E808104B
:103B7000F5E7121D5CBF51F8043B40F8043BAFF37E
:103B80000080D20724BF11F8013B11F801CB48BFD8
:103B900011F8012B24BF00F8013B00F801CB48BF0E
:103BA00000F8012B704710B5203AC0F00B80B1E847
:103BB0001850203AA0E81850B1E81850A0E8185062
:103BC000BFF4F5AF5FEA027C24BFB1E81850A0E86B
:103BD000185044BF18C918C0BDE810405FEA827C85
:103BE00024BF51F8043B40F8043B08BF7047D2079C
:103BF00028BF31F8023B48BF11F8012B28BF20F83D
:103C0000023B48BF00F8012B704702F0FF0343EA74
:103C1000032242EA024200F002B84FF000020429F7
:103C2000C0F0128010F0030C00F01B80CCF1040CEB
:103C3000BCF1020F18BF00F8012BA8BF20F8022B1F
:103C4000A1EB0C0100F00DB85FEAC17C24BF00F8C5
:103C5000012B00F8012B48BF00F8012B70474FF0F3
:103C6000000200B5134694469646203922BFA0E8CC
:103C70000C50A0E80C50B1F12001BFF4F7AF0907D8
:103C800028BFA0E80C5048BF0CC05DF804EB8900C9
:103C900028BF40F8042B08BF704748BF20F8022B0C
:103CA00011F0804F18BF00F8012B70474FF0013C16
:103CB00050F8042B51F8043B9A4221D1A2EB0C039B
:103CC000934313EACC1317D150F8042B51F8043B5B
:103CD0009A4215D1A2EB0C03934313EACC130BD1F8
:103CE00050F8042B51F8043B9A4209D1A2EB0C0383
:103CF000934313EACC13DBD04FF00000704700BFB2
:103D0000D01A01BAB1FA81F101F0180122FA01F0DA
:103D1000CB40C1F12001DBB2C0B2C01A2CFA01F3D2
:103D2000D11A914311EAC311E6D170477047704729
:103D30007047000010B500F07AFC001D10BD00BFF8
:103D4000F56E00000B3020F0070070472DE9F041C0
:103D500017460E460446FFF7F5FFA042054633D945
:103D6000002F1CBF06F10C00FEF7A6F83046746861
:103D7000F4B12168A94217D305F1080291423CBF72
:103D80006168416007D3626861194A602268521B0A
:103D90000A6041602560002F1CBF06F10C00FEF791
:103DA00096F8201DBDE8F08120466468002CE0D123
:103DB0002946304600F044FC0028D7D1002F1CBF14
:103DC00006F10C00FEF783F80020BDE8F08110B585
:103DD000044600F027FC01682046BDE8104001229F
:103DE000B4E770B516460D46041F002808BF70BD25
:103DF000002E1CBF05F10C00FEF75EF82B4658683C
:103E0000002818BFA04238BF0346F8D31968CA1863
:103E1000A24218BF5C6003D122681C46114419609D
:103E200021680A19824218BF606004D1426862604A
:103E3000006808442060002E1CBF05F10C00FEF74E
:103E400046F870BD10B5044600F0ECFB0168204652
:103E5000BDE810400122C4E710B50446FFF76AFF31
:103E60000068005DC00602D504F1200010BD2046A8
:103E700010BD2DE9F0470D4699469246044600F1E3
:103E800024080168880604D5E06921F0100121604A
:103E900000E00120A84201DD471B00E00027A169E6
:103EA0007A1902EB0900081AA0612078C00602D432
:103EB0002046FFF751FA002608E0D4E901211AF85C
:103EC00006009047206A401C761C20624E45F4DBB9
:103ED0002078C0060AD52046FFF73EFA06E0D4E96E
:103EE000012130209047206A401C2062381EA7F133
:103EF0000107F4DC07E0D4E9012118F80500904738
:103F0000206A401C2062281EA5F10105F3DC204632
:103F1000FFF738FA2078000602D50220BDE8F087C6
:103F20000120FBE701694A1C02610878704700B56F
:103F30008FB0CDE901310021059105497944CDE9E2
:103F4000031011466846FFF7E5FA0FB000BD000008
:103F5000E5FFFFFF0A6802F8010B0A60704710B521
:103F6000436913B1AFF3008001E0FFF71CFA0120B1
:103F700010BD127800F124010A7000224A7001225B
:103F8000EDE711684FF0FF32E9E73A2800D2303808
:103F900020F02002412A01D3A2F13700884201D348
:103FA0004FF0FF3070470000026811441378016041
:103FB00018467047D16005497944516104497944F4
:103FC000116200211161114600F090BBEDFFFFFF6F
:103FD00017070000426842B1016811F8013B23B1A4
:103FE000521EC0E90012184670470121C160881EA8
:103FF000704742685AB1C368016843B983688B420D
:1040000005D0491E521CC0E90012002070474FF035
:10401000FF30704770B50D4601461446D3685069AD
:104020002A46FEF7F1FB002807DA411C07D0E168B9
:1040300020F0004041F48041E160281A70BD204624
:1040400000F082F94FF0FF3070BDC16800220260BD
:1040500021F4805141F0400111F4C06FC16001D0E2
:104060008260704702694168891AC269891A816051
:1040700070472DE9F0470446C06840F48000E060D6
:10408000010312D520F40020E060810606D4E26A24
:1040900061688A4200D80A46511A216040F4001033
:1040A000E06094F82500BDE8F08720F40010E0609F
:1040B000800602D5204600F09EF9E06842F28101B8
:1040C0004FF0FF390140012903D0204600F03CF9B0
:1040D000B6E02168002600290ADAC94340F480507E
:1040E0002160C4E902606068411C61600078DAE721
:1040F00044F2400108420CD020F4A04040F04000BF
:104100002660E06021696068401AE169401AA06099
:1041100096E0216991B9C00310D4E069FFF757FE1A
:104120002061B0B1E06840F4006010F4407FE060CE
:1041300002D140F48070E06020696060E068D4F8EB
:1041400014A0C1061AD5C0030ED5204600F030F9E0
:1041500014E004F1240020610120E061E06820F413
:10416000407040F48060E6E721696068401AA16908
:1041700001445046FEF776FB0028A6DBE068C0034A
:104180002AD56168E06A884200D808462169451A44
:10419000E069471B1BD02046D4F8188000F008F9CE
:1041A00008EB05015046C4F81880FEF75BFB0028B9
:1041B0008BDBE06840F40030E060000202D5A069CB
:1041C0002844A061E1692069C91B45180DE020461B
:1041D00000F0EEF8E769F5E725696168D4E90607BC
:1041E000491BE56208446560A061E06820F01000AA
:1041F00010F4C06FE06002D0204600F00BFEE068D3
:1042000040F48050C4E90260000205D52069E062F4
:1042100060606FF0010046E7224639462846FFF706
:10422000F9FE411C0CD02918E16258B1401E2060F3
:10423000681C6060E06840F40030E060287832E795
:10424000484630E765602046FFF7FFFEF8E70000CC
:104250002DE9F041044616460D464769007B80076C
:104260002ED03846FEF7F2FA50BB3EB3012E02D0F4
:10427000022E25D104E0204600F0DDFC05441DE0BF
:104280003846FEF7FDFAE168002841F01001E160D0
:1042900005DA204600F058F80120BDE8F081C90396
:1042A0000BD56268E16A914200D81146A2691144B7
:1042B0002269891A814200DD08460544002D01DA91
:1042C0000220EAE7E16A6068E268814206D291036F
:1042D000E06203D522F4003141F01002A669002704
:1042E000AE4213DCE16A814201D90B4600E003468D
:1042F00003EB060C2369ACEB030CAC4506DD8142F5
:1043000001D98C4600E084469C4505D1A760276012
:1043100042F02000A5620DE0AD1BE669AE1B8142B4
:10432000A66000D90846C01A281A20605819606093
:1043300022F0200003490840E060002084F8487023
:10434000ABE70000BFCFD7FFC16821F4001141F0F7
:104350008001C16000218160016070472DE9F04754
:10436000814614460E464FF0FF383248D5685769EB
:10437000054209D03846A169FEF774FA002811DB1E
:104380002C48C0430540E5602B4632464946384636
:10439000FEF717FAA16920F00042B21A1144002872
:1043A000A16103D02046FFF7CFFF4046BDE8F0876C
:1043B00070B504460569C06A6168884200D808463D
:1043C000E16821F42011E160C90312D5A84208D0A8
:1043D0002246411B2846FFF7C1FF10B14FF0FF30C6
:1043E00070BD0020E562C4E90150E06820F480302F
:1043F000E060002070BD10B50446C06820F02000C9
:10440000E060A16AA06988420DD02046FFF7D0FF86
:10441000E06820F4405040F01000E060A06AA06125
:104420002069E062606044F24001E0688843E06037
:1044300010BD00001000020070B50C46064601F1E8
:104440004C052846FDF738FD2146304603F0C9F9F2
:1044500004462846FDF73BFD204670BD10B5654873
:104460005421FFF7FCFB64485421FFF7F8FB634835
:104470005421FFF7F4FB62485E49624A624B0160D7
:104480005D4810605D4A1A60431C0B65511C016554
:104490000120106557484C30FDF7FCFC56484C3065
:1044A000FDF7F8FC55484C30FDF7F4FC5748FDF794
:1044B000F1FC58484F4A56A17844FFF7A6FA20B9B4
:1044C000544878440A3800F0D3FC54484A4A52A170
:1044D0007844FFF79AFA20B9504878440A3800F037
:1044E000C7FC4F48454A4CA17844FFF78EFA20B9E3
:1044F0004B4878440A3800F0BBFC40233D48DC00C0
:104500000021224600F0B8FB20B1424878445438DC
:1045100000F0AEFC384822464023002100F0ACFBFE
:1045200020B13E487844543800F0A2FC334822467B
:104530001023002100F0A0FB002806D03848784462
:10454000BDE81040563800F093BC10BD2B482DE953
:10455000F041006D2D4E20F001043046FDF7ACFC1B
:10456000244D4C352846FDF7A7FC2248FFF75EF99D
:104570002846FDF7ACFC2846AFF300801E4D4C35B5
:104580002846FDF799FC1C48FFF750F92846FDF72F
:104590009EFC2846AFF30080184D4C352846FDF7A9
:1045A0008BFC1648FFF742F92846FDF790FC284699
:1045B000AFF3008014E0206D20F0010504F14C0001
:1045C0000746FDF779FC2046FFF730F93846FDF73E
:1045D0007EFC3846AFF300802046FFF733FC2C46C4
:1045E000002CE8D13046FDF772FC0848AFF300809C
:1045F000BDE8F081081F00205C1F0020B01F0020D4
:104600007C00002080000020840000208800002022
:10461000720000001084000077000000FF8300009B
:10462000EF83000010B5FEF7E1FD083010BD10B5B6
:10463000FEF7DCFD203010BD7047704770477047B3
:1046400038B504460A4600206946AFF300800028CA
:1046500008BF38BD02460099204600F03EFC01200C
:1046600038BD012000F01ABDF8B5AFF30080054653
:1046700000200C46102000BF0646A819A0420DD904
:10468000324669460020AFF30080070008BF00F003
:1046900005FD0098A04218BF0546C419FFF7C2FFE8
:1046A00005600746F01D20F007004619284600F077
:1046B0000AF8B44208BFF8BDA21B31463868BDE80D
:1046C000F84000F00ABC00210160C0E901100C3084
:1046D000FDF7E0BB1020704710B50446FFF72AFB3A
:1046E0000068005D00F0010010BD00002DE9F34FEF
:1046F0004FF0000A0C4656468DB001200C9001F197
:104700000C000B9062690B980121904705002DD099
:10471000252D2CD0216A8847C0B162690B980121F0
:104720009047216A88470028F7D16269411E0B989B
:10473000904700E0761CA1690D988847216A884758
:104740000028F7D1E1690D988847DBE7A1690D984A
:104750008847A842074601D1761CD3E7E1690D9846
:1047600088477F1C02D1BAF1000F6FD06BE16269FC
:104770000B9800273D46394690472A2804D16269A4
:104780000B98012190470125DFF8D08262690B98D0
:1047900001219047A0F130010A290AD24745E5DC02
:1047A00007EB870100EB4107303FDFD445F01005F0
:1047B000ECE7E90601D46FF000476C280AD04C28DA
:1047C00014D0682815D06A280DD074281CD07A28F7
:1047D0001AD01DE062690B98012190476C2802D025
:1047E00045F0040514E045F002050DE045F0200514
:1047F0000AE062690B9801219047682802D045F0D1
:10480000080505E045F4006562690B9801219047B1
:10481000C4E9015765283DD019DC58287AD00CDC52
:10482000452837D004DC252826D041289ED131E008
:1048300046282FD0472899D12CE05B2877D06128D3
:1048400028D063287CD0642823D15AE0F6E06F2872
:1048500048D008DC66281DD067281BD0692821D0E5
:104860006E2816D127E0702845D0732868D07528A7
:1048700047D078280DD14DE0A1690D9888472528AB
:1048800005463FF469AFE1690D9888476D1C3FF418
:104890006AAFD8E00D9923466A466FF00100AFF386
:1048A0000080C5E045F0400023464FF00002606004
:1048B000A80736D43EE0E8077FF447AF2068011D23
:1048C00021600068290501D506701BE7290701D57D
:1048D000068017E7A90703D5F117C0E9006111E7C2
:1048E00006600FE745F0400023464FF00802606085
:1048F000A80716D41EE040F60E0125EA010060600C
:1049000016E045F0400023464FF00A026060A80719
:1049100007D40FE045F040006060A80708D52346A3
:1049200010220D996FF00100AFF3008080E007E0E6
:10493000102223460D996FF00100FEF7CDFE77E0BF
:104940004FF0000963284F46C8464B46CB4602D07D
:104950005B2806D038E0E80601D40120A0600127DA
:1049600032E06269D4F80CB00B98012190475E28C0
:1049700007D14FF0010949466269D4F80CB00B9891
:104980009047216939B900210A4603AB43F8212039
:10499000491C0829FADBD8B3216949B308F1010899
:1049A00062690B98012190475D28F4D1B9F1000F9D
:1049B00009D0002003A951F82020D24341F820203B
:1049C000401C0828F7DB03AB2069002820794FEA58
:1049D00040701ED05B462246CDF80080CDE901979D
:1049E0000D9900286FF0010020DAAFF300801FE07E
:1049F000C11703AA00EBD1614B1121F01F0102EB9B
:104A00008302411A13680120884003431360C7E7FB
:104A100019E00D99224600286FF00100009702DA94
:104A2000AFF3008004E0AFF3008001E0AFF300805B
:104A300000280ADA401C06D10C9820B14FF0FF3054
:104A40000FB0BDE8F08F5046FAE7E90701D10AF14F
:104A5000010A064400200C9054E60000CCCCCC0C9B
:104A60002DE9F04705460C46C86820F4201040F4B4
:104A70008000C860800602D50846FFF7BCFCE068ED
:104A800041F282014FF0FF390140022903D0204654
:104A9000FFF75AFCB5E000F42041B1F5004F0FD10B
:104AA000C00306D56168E06A884200D808466060A5
:104AB00006E02069E06260606069FDF7E1FEA061E8
:104AC000A0680022EEB200280DDAE1688B050AD456
:104AD000C043A06041F490302260E0606068411CF7
:104AE00061600670A5E0E0689046226040F40050E6
:104AF000E060206968BB6069FDF7A8FE012704F14A
:104B00002405A0B1A08910F4407F08D0E069FFF728
:104B10005EF9206118B1E06840F4006016E0E761DA
:104B20002561E06820F4407040F480600EE0E069A8
:104B3000FFF74DF900282061F1D0E06840F40060F3
:104B400010F4407FE06002D140F48070E0602069A2
:104B50006060E06825696FF0010AC1051FD56168D2
:104B6000E06A884200D80846411B04D02246284605
:104B7000FFF7F4FBF0BBE068010203D5E562C4E98E
:104B8000015854E0691CE1626160E16940F48030E1
:104B9000491EC4E9021030462E70BDE8F0870102BC
:104BA00002D500F480320AE06068411C6160067042
:104BB000E0680A2E40F48030E06006D00022E16A0E
:104BC0006068814203D90B4602E00122F7E7034601
:104BD000A7895B1B7F0503D4E7699F4200DDE2B133
:104BE000814200D80146E5620F1AC4E90158002B42
:104BF00009DD00E005E0224619462846FFF7AEFB36
:104C000008B14846C9E747B1A069E5626560C01BC5
:104C1000A061E06840F01000E060E068000208D5A4
:104C20006168A069E562491B08446560A06150465F
:104C3000B3E73046B1E710B50146C268900703D02C
:104C4000900607D5886A0AE000F045F90121016065
:104C5000881E10BD8B69486818440B69C01A91F80A
:104C600048301BB191F84910401A10BD1103FCD512
:104C70000028FADD401E10BD2DE9F04704461E460F
:104C800090460D46C7684C308146FDF715F9B807C8
:104C900014D0780212D44046B8F5807F09D0B0F520
:104CA000007F06D0B8F5806F08D1012604F12405F5
:104CB00006E0701E6FF07F41884201D3012409E0B5
:104CC0002561E6616560E06820F4706040EA0800F4
:104CD000E06000244846FDF7FAF82046BDE8F0877A
:104CE0002DE9FF4F06461C468B4681B003F14C0070
:104CF0000090FDF7E1F8BBF1000F06D0039927689B
:104D0000002528460BFB01F963E000247AE0002F20
:104D100061DCE06948453FDABAF1000F3CD0207B06
:104D2000800601D5A06A04E0A16960680844216991
:104D3000401A2246A9EB050180463046FFF76AF982
:104D4000002812DD8044A8F101010644A161226916
:104D500016F8011C0027054411702169491CE16205
:104D60006160E16841F40031E160411C03D010B1A1
:104D7000207B400642D52046FFF767F9C4F818802B
:104D800020696060E062E068276020F40030E06045
:104D9000E0694042A06018E0484503DAE06840F46A
:104DA0000000E0602046FFF764F9E16821F40001AB
:104DB000E160411C08D0811C0AD02768002807DB6D
:104DC0006D1C06F8010B19E02760B5FBFBF419E038
:104DD0000120824612E0A9EB0500B846B84200DA8D
:104DE0008046304642466168FEF798FE6168A7EB50
:104DF0000807464401EB0800454460604D4586DBEA
:104E00002760039C0098FDF762F805B02046BDE8D6
:104E1000F08F00002DE9F047074613488146FDF763
:104E20004BF8124C40F2022817E094F85000C007EB
:104E300010D0BC420ED004F14C052846FDF73CF8DA
:104E4000E6682846FDF743F838EA060002D1204616
:104E5000FEF73CFD206D20F00104002CE5D1484612
:104E6000FDF735F8BDE8F08788000020081F002016
:104E700010B500F0F9F8BDE8104000F0F0B80000FF
:104E800001491820ABBEFEE7260002007546FEF77A
:104E9000ADF9AE4605006946534620F00700854649
:104EA00018B020B5FDF7EAFFBDE820404FF000063E
:104EB0004FF000074FF000084FF0000B21F0070102
:104EC000AC46ACE8C009ACE8C009ACE8C009ACE845
:104ED000C0098D467047FCF7CDBF30B404468C4600
:104EE0004368002B18BF634538BF1846F8D30368E2
:104EF0001844604507D0C81C20F0070000F1040CDE
:104F0000ACEB0100121A2146CCF8002030BC002284
:104F10000CF10400FEF765BF2DE9F04114460D4683
:104F2000074601F14C063046FCF7C6FF094B7B44AF
:104F3000224629463846FEF7FAFF0446287B00063B
:104F400001D54FF0FF343046FCF7C1FF2046BDE8E5
:104F5000F0810000B128000070B50E46044601F152
:104F60004C052846FCF7A8FF04E0314602F039FC66
:104F7000401C09D014F8010B0028F6D10024284663
:104F8000FCF7A5FF204670BD4FF0FF34F7E72DE991
:104F9000F05F0E4680461C46924602FB06F503F182
:104FA0004C008346FCF788FF16B3A768002041E059
:104FB000002F41DCE069A8421CDAB9F1000F19D0DA
:104FC000224629464046FFF7C9F908B1A76029E003
:104FD000E06810F4C06F01D0002008E02269616829
:104FE000891AE269511AC003A16001D44842A06045
:104FF000544618E0A84203DAE06840F40000E0609C
:10500000214698F80000FFF72BFDE16821F400012C
:10501000E160411C06D0A76800280ADB6D1E08F17C
:10502000010818E000245846FCF751FF2046BDE86F
:10503000F09F012081460EE0AF423E4600DD2E4645
:10504000414632466068FEF769FD6068BF1BAD1BD4
:105050003044B0446060002DAADCA760C8E7002897
:1050600001D0FFF70DBF704710B5014602A000F058
:105070001DF8012010BD00005349475254524544C9
:105080003A2052656469726563743A2063616E27E1
:1050900074206F70656E3A200000000010B500F0BB
:1050A0001FF8BDE81040FFF7DABF704770B505463E
:1050B0000C460A2000E06D1CFDF7C6FB35B12878D0
:1050C0000028F8D102E0641CFDF7BEFB14B1207883
:1050D0000028F8D1BDE870400A20FDF7B5BB0000FC
:1050E00010B5012805D0002103A0FFF7DFFF012044
:1050F00010BD09A1F8E7000053494752544D454DF2
:105100003A204F7574206F662068656170206D6568
:105110006D6F7279000000003A2048656170206D63
:10512000656D6F727920636F72727570746564005B
:105130000000000070B5C1030FD520F4803514497C
:1051400005EBC50051F82000446814B12046FDF776
:105150008BFF284600F0E6FE10E0810315D520F411
:1051600000350C49C5EBC50051F82000446814B166
:105170002046FDF779FF2846FDF7F4FF002514B11E
:105180002046FDF77AFF284670BD0025FBE70000AA
:10519000F40800208409002070B5C1034FF0FF35EA
:1051A0000FD520F48036144906EBC60051F82000D4
:1051B000446814B12046FDF757FF304601F0D8F897
:1051C00010E0810316D520F400360C49C6EBC6006A
:1051D00051F82000446814B12046FDF745FF3046E1
:1051E000FDF7C7FF00B9002514B12046FDF745FFC4
:1051F000284670BD0025FBE7F40800208409002044
:1052000070B5C1030FD520F48035144905EBC500F6
:1052100051F82000446814B12046FDF725FF2846C8
:1052200001F096F810E0810315D520F400350C4903
:10523000C5EBC50051F82000446814B12046FDF7C5
:1052400013FF2846FDF797FF054614B12046FDF7EA
:1052500014FF284670BD4FF0FF35FAE7F408002030
:10526000840900202DE9F3410F466946009802F0B9
:10527000E7FD4FF0FF36002801DA354630E01B49E4
:1052800001EBC005E8794007286844680FD514B1E0
:105290002046FDF7E9FE286801F022FB05463A4664
:1052A000009901F059FCB0B945F4803514E014B10F
:1052B0002046FDF7D9FE2868FDF747FF05463A4628
:1052C0000099FDF74DFF70B1094AC5EBC50102EB2E
:1052D000810100208881354614B12046FDF7CDFEBE
:1052E0002846BDE8FC8145F40035F5E704C900080F
:1052F000840900202DE9F0410E461546C10319D559
:1053000020F480371A4907EBC70051F820004468A1
:1053100014B12046FDF7A8FE2A463146384601F072
:10532000FFFC002803D018DDA5EB000015E045F0D8
:10533000004012E0810318D520F400370D49C7EB77
:10534000C70051F82000446814B12046FDF78CFED8
:105350002A4631463846FDF707FF054614B1204678
:10536000FDF78BFE2846BDE8F0810025FAE7000036
:10537000F4080020840900202DE9F0410E46C10305
:105380004FF0FF3510D520F48037154907EBC700E3
:1053900051F82000446814B12046FDF765FE3146FF
:1053A000384601F0F7FD11E0810315D520F40037F0
:1053B0000C49C7EBC70051F82000446814B12046DF
:1053C000FDF752FE31463846FDF7D8FE00B90025FC
:1053D00014B12046FDF751FE2846BDE8F0810000DB
:1053E000F4080020840900202DE9F04117460E0042
:1053F0004FF0FF352BD0C10311D520F4803515496E
:1054000005EBC50051F82000446814B12046FDF7B3
:105410002BFE3A463146284601F032FF12E0810366
:1054200015D520F400350C49C5EBC50051F8200016
:10543000446814B12046FDF717FE3A463146284627
:10544000FDF794FE054614B12046FDF716FE2846EA
:10545000BDE8F081F40800208409002073B50E46F1
:105460006946009802F0ECFC002802DA4042C4B21F
:105470001EE0104901EBC004E07940072068456850
:1054800009D515B12846FDF7EFFD31462268009891
:1054900000F0F4FD07E015B12846FDF7E5FD2168B1
:1054A0000098FDF771FE044615B12846FDF7E5FDAD
:1054B00020467CBD04C9000810B5002A06DA22F097
:1054C0000042D21D22F00703102203E0D21C22F07A
:1054D00003030C2213B19C188C4201D9012010BD8A
:1054E000024401448360C0E90021C91AD0188842EF
:1054F00002D810600246F9E70020106010BD303875
:105500000A2801D20120704700207047F8B50646EE
:105510004FF0FF3000900C46CD6909E02246694605
:10552000284600F028F8002809D0009840B16D1CEA
:10553000E06C801CA842F1D8009808B10020F8BDAA
:1055400094F8360002F058FE01462246284600F044
:105550005FF80028F3D0681CE06194F83600032857
:1055600006D1A069401EA061E06840F48070E06050
:1055700001203560F8BD2DE9F04188460546014619
:10558000144602F12C0002F048FE06460146204671
:1055900000F0F0F9002808D094F83600012806D071
:1055A000022824D0032829D00020BDE8F08105EB93
:1055B0004500C0F34800B0F5FF7F04D8616E084491
:1055C00002F04CFE0CE0606E711C90F8FF712046FA
:1055D00000F0D0F90028E8D0606E007847EA00209B
:1055E000E90701D000090FE0C0F30B000CE0616E89
:1055F000280601EBD05002F031FE05E0616E68062E
:1056000001EBD05002F032FEC8F800000120CCE7D8
:105610002DE9F0470D4606460146144602F12C00DE
:1056200002F0FBFD81460146204600F0A3F9002868
:105630000BD094F8360029464FF00108012806D017
:10564000022843D0032847D00020BDE8F08706EBAE
:105650004600C0F34807C5F30B05B7F5FF7F12D826
:10566000606E384402F0FAFDF10702D065F31F10B6
:1056700002E000F4704028430146606E00EB070032
:1056800005F07CF82EE0F007606E06D090F8FF1170
:1056900065F31F1180F8FF1101E080F8FF5184F8D5
:1056A000688009F10101204600F064F90028CCD09F
:1056B000F00703D0616E2809087013E0606E01786E
:1056C00001F0F00141EA152101700BE0626E300635
:1056D000A9B202EBD050D3E7626E700602EBD05055
:1056E00005F050F884F868800120AEE710B5044654
:1056F000816B04F04BF9002809D0606F00F5FF7052
:1057000002F0ACFDA0F52A41553901D0002010BDB2
:10571000606F417B84F837100B3002F09FFDA4F8D6
:105720004A00606F0E3002F099FDE087606F017CE7
:1057300084F85C10113002F091FDA4F84800606F0D
:10574000133002F08BFD2064606F163002F086FD8E
:10575000A087216CD9B9A8B9606F283002F07EFD0E
:105760002086606F2C3002F081FDE062606F303087
:1057700002F074FD6086606F323002F06FFDA0862B
:10578000206C20B9606F203002F070FD2064A08F83
:1057900020B9606F243002F069FDA087012010BDA0
:1057A0002DE9F04104464FF40075DFF88881406F21
:1057B0002946FEF732FA616FE9200870616F002018
:1057C0004870616F902088705BA1606F0A6840F834
:1057D000032F49684160606F29460B3004F0CEFF0B
:1057E000616F94F837004873616F94F83E008873D6
:1057F000616F0220087494F83600032804D0606FAB
:105800002946113004F0BAFF216CB1F5803F05D272
:10581000606F89B2133004F0B1FF03E0606F203095
:1058200004F0B0FF616FF8204875616F3F20087683
:10583000616FFF208876606FA16B1C3004F0A2FFBF
:1058400094F836008025292620270328A18F606F31
:1058500037D0163004F092FF606F414680F8245034
:10586000606F80F82660606F273004F08BFF35A1F1
:10587000606F0A6840F82B2F4A68426009890181ED
:10588000877294F836000128606F18D030A10A683A
:1058900040F8362F49684160606F4AF6552100F59F
:1058A000FF7004F06BFF00222046A16B05F0A9F900
:1058B00000283CD094F8360003282FD036E027A1EA
:1058C000E5E7243004F05EFF606F02212C3004F025
:1058D00059FF606F0121303004F050FF606F0621E6
:1058E000323004F04BFF606F414680F84050606FEB
:1058F00080F84260606F433004F044FF11A1606F94
:105900000A6840F8472F4A68426009890181877216
:1059100015A1606F0A6840F8522FBBE7A16B002207
:105920002046891D05F06DF9002800D00120BDE852
:10593000F0810000785634124D5357494E342E31C1
:10594000000000004E4F204E414D452020202000F9
:105950004641543136202020000000004641543199
:105960003220202000000000464154333220202005
:105970000000000070B50446006E0D46A84240D0FD
:1059800094F8681001292AD1A66A86B1217B4906BC
:105990000DD594F85C10022906D00022014630464D
:1059A000636EFDF707FC15E0A18F4218F6E7A268C9
:1059B000616ED36801229847002821D094F85C00DA
:1059C000022809D1A268A18F206ED3680844616EB5
:1059D00001229847002813D0002084F8680085B180
:1059E00094F86900A18FA268484328449368616EC7
:1059F00001229847012806D04FF0FF302066002092
:105A000070BD012070BD2566FBE70021A0F12002DA
:105A1000012A16D9D21E062A13D92D2823D02E28C2
:105A200021D00D3A092A0CD940281CD0113A192A44
:105A300007D91D3A1D2A04D97D2814D07E2812D0FA
:105A400000E001212B280BD02C2809D03B2807D0BF
:105A50003D2805D05B2803D05D2801D07F2800D9E0
:105A60000221084670470121FBE770B50D4601464B
:105A700005F12C0000F01BF806464FF40071686F2A
:105A8000FEF7CBF8002406E03119284605F062F84D
:105A900000280BD0641C95F83700A042F4D80021F0
:105AA000284605F057F8002800D0012070BD436A51
:105AB000C2681A44837A41B1032B01D0838D1A4402
:105AC000C07A891E01FB00207047032BF8D01046D6
:105AD000704700002DE9F04186B00D4604460020D5
