:020000040800F2
:10000000586B002065010008DB1A0008ED19000894
:10001000D91A0008ED0200080D3C0008000000009D
:100020000000000000000000000000000B1B0008A2
:100030003903000800000000091B00080D1B000820
:100040007F0100087F0100087F0100087F01000890
:100050007F0100087F0100087F0100087F01000880
:100060007F0100087F0100087F0100087F01000870
:100070007F0100087F0100087F0100087F01000860
:100080007F0100087F0100087F0100087F01000850
:100090007F0100087F0100087F0100087F01000840
:1000A0007F0100087F0100087F0100087F01000830
:1000B0007F0100087F0100087F0100087F01000820
:1000C0007F0100087F0100087F0100087F01000810
:1000D0007F0100087F0100087F0100087F01000800
:1000E0007F0100087F0100087F0100080000000078
:1000F0000000000000000000000000000000000000
:1001000000000000000000007F0100087F010008DF
:100110007F0100087F0100087F0100087F010008BF
:100120007F0100087F0100087F0100087F010008AF
:100130007F0100087F0100087F0100087F0100089F
:100140007F0100087F0100087F010008FD1A0008F8
:10015000DFF80CD000F0B8F8004800474154000820
:10016000586B00200648804706480047FEE7FEE738
:10017000FEE7FEE7FEE7FEE7FEE7FEE7FEE7FEE757
:100180008D1B0008510100082DE9F05F0546002095
:1001900092469B4688460646814640241BE02846F8
:1001A00041464746224600F020F853465A46C01AB8
:1001B000914110D311461846224600F075F82D1AC9
:1001C00067EB01084F4622460120002100F06CF841
:1001D00017EB00094E41201EA4F10104DFDC484664
:1001E00031462A464346BDE8F09F202A04DB203AE8
:1001F00021FA02F00021704721FA02F3D040C2F147
:100200002002914008431946704740EA01039B07CA
:1002100003D009E008C9121F08C0042AFAD203E07B
:1002200011F8013B00F8013B521EF9D27047D2B2DF
:1002300001E000F8012B491EFBD270470022F6E7CF
:1002400010B513460A4604461946FFF7F0FF20464C
:1002500010BD421E12F8013F002BFBD111F8013BEB
:1002600002F8013B002BF9D17047034611F8012B2E
:1002700000F8012B002AF9D11846704730B50B461B
:10028000014600202022012409E021FA02F59D42C6
:1002900005D303FA02F5491B04FA02F52844151E9A
:1002A000A2F10102F1DC30BD202A04DB203A00FA81
:1002B00002F1002070479140C2F1200320FA03F3BD
:1002C0001943904070470000064C074D06E0E06877
:1002D00040F0010394E8070098471034AC42F6D38D
:1002E000FFF73AFFD8590008F8590008FEE7000068
:1002F00010B500224FEA020100EB8203521CC3F842
:100300007C130F2AF8D300224FF400738418521C78
:1003100084F81C119A42F9D3017041700122827055
:10032000C0F8B813027640238371417680F81C131D
:1003300080F81D23002010BD7047704770B50D4632
:10034000ADF5147D0146684604F006FB040042D07A
:1003500049E088A9684604F03EFC040040D19DF8BD
:10036000290288B32E2836D00DF22926314690A8CE
:10037000FFF77BFF012D02D0022D02D004E01CA06C
:1003800000E01DA003F044FC9DF828021DA100F030
:100390003F00102890A80CD0FFF75BFF90A91AA08F
:1003A00003F036FC9DF8280200F03F00102812D11F
:1003B0000BE0FFF74EFF90A913A003F029FC0221E8
:1003C0003046FFF7BBFFEDE70AE0022D03D1022123
:1003D0003046FFF7B3FF0D4802F0E4FA0028B8D129
:1003E000684604F066F80DF5147D204670BD0000E7
:1003F0002020207C5F5F00002020207C2020207CAB
:100400005F5F00000A00000025730000E804002080
:10041000002200F001B8000030B50E4B0546012067
:100420005C7A012C15D8587A00241C54587A03EBB6
:10043000800045605D7A03F108002A54587A421C16
:100440005A72303008703A2048702F208870CC7073
:10045000002030BD4C0B002070B5044600F0F2F8CF
:100460000546601C02D004480078044400F0EAF815
:10047000401BA042FAD370BD0C0000202DE9F84FBC
:10048000DFF890A100220AF1040B144601274FF077
:100490000F090BF1040E00BF0B6807FA04F52B409F
:1004A000AB4274D1DFF870C14E68A6EB0C0866450C
:1004B0002BD00DDC032E34D005DC36B3012E19D041
:1004C000022E2FD11BE0112E16D0122E2AD119E0A8
:1004D000B8F5881F19D006DCB8F5803F15D0B8F5FF
:1004E000801F1FD111E0B8F5001F0ED0B8F5041F12
:1004F00018D10AE0CA6815E0CA68121D12E0CA687D
:1005000008320FE0CA680C320CE08A682AB1012A6E
:100510004FF0080203D0456104E0042202E00561C7
:1005200000E00022FF2B01D8064601E000F104069E
:100530004FEA840501D9A5F12005D6F800C009FAD3
:1005400005F82CEA080C02FA05F54CEA050CC6F889
:1005500000C04D68ED0057D5304DAE6946F001063C
:10056000AE61AD6924F0030605F0010500952C4D40
:1005700006EB050CDCF80850A6074FEA167809FAD6
:1005800008F6B543274EB04202D1002610E03BE00A
:10059000254EB04201D101260AE0244EB04201D1DD
:1005A000022605E0224EB04201D1032600E00426D7
:1005B00006FA08F62E43CCF808604D68DAF80060B9
:1005C000ED03554601D51E4300E09E432E604D6865
:1005D000DBF80060AD035D4601D51E4300E09E439D
:1005E0002E604D68DEF80060ED02754601D51E43B1
:1005F00000E09E432E604D68AD020E4D2E6801D581
:100600001E4300E09E432E60641C102CFFF444AF98
:10061000BDE8F88F000401400000111000100240F6
:100620000000014000080140000C014000100140A2
:10063000001401400C0401400AB101617047090433
:10064000FBE7000001488068704700000C000020B4
:10065000D0F8800201F08ABED0F8800201F09ABE84
:10066000006802F0DDBF006802F0DEBF01EB81012F
:1006700000EBC10090F84800704701EB810100EBEE
:10068000C100806B704710B5044690F87C020128C9
:1006900009D0012084F87C02206802F0D0FF0020FD
:1006A00084F87C0210BD022010BDFEB50546DDE9D0
:1006B000096095F87C42089F012C1ED0012485F822
:1006C0007C4201EB810405EBC40402F07F0C04F8CA
:1006D000243F20816170E67184F802C04FEAD21C89
:1006E00084F803C027710097CDE90160286803F002
:1006F00063F8002185F87C12FEBD0220FEBD704724
:100700002DE9F00301EB8104DDE90689DDE908C785
:1007100000EBC404022684F8272084F82B30B8F1BB
:10072000000F0AD084F82E60002553B1012B3ED073
:10073000022B1DD0032B2AD120E0032584F82E5054
:10074000F2E7B8F1010F22D10ABBBCF1000F10D1C2
:10075000012284F83D2002E084F82E5001E084F864
:100760002E6094F84820022A11D084F829700EE0F7
:100770002AB994F83D20002AF1D1EDE712B194F89E
:100780003C2001E094F83D208AB184F82E60C4E951
:100790000C9C84F84850A56384F8251084F84950CF
:1007A00004F124010068BDE8F00303F075B884F893
:1007B0002E50ECE72DE9F04104460068002506467E
:1007C00002F039FF01287DD1206803F072F900287A
:1007D00078D0206803F06DF9800203D521684FF4CA
:1007E00000104861206803F064F9C00203D5216855
:1007F0004FF480104861206803F05BF9400103D595
:1008000021684FF080604861206803F052F980074A
:1008100002D5216802204861206803F04AF980006F
:1008200010D5D6F8400420F02E00C6F8400420462B
:10083000FFF712FF0121206803F020F921684FF033
:1008400000504861206803F034F9C00102D5204609
:1008500001F048F8206803F02CF9000705D5204680
:1008600000F093F8216808204861206803F021F91E
:10087000800120D5206803F008F807464FF00108F2
:1008800012E000BF08FA05F038420CD006EB451024
:10089000D0F80005E9B20004204602D500F0FBFDC7
:1008A00001E000F008FF6D1CA068A842EAD82168AA
:1008B0004FF000704861206803F0FBF8C0060ED5C9
:1008C000206800E00BE0816921F010018161204681
:1008D00001F054F82068816941F010018161BDE8A0
:1008E000F08130B585B0040003D094F87D0218B1D2
:1008F00008E0012005B030BD002084F87C022046CD
:1009000000F024F8032084F87D02206802F044FE01
:1009100004F1100114220D466846FFF776FC94E8B6
:100920000F0002F005FE0121206803F0ECF814220C
:1009300029466846FFF769FC94E80F0003F044F885
:10094000012084F87D020020D4E7000008B500688B
:10095000B0F1A04F12D10A48416941F48051416180
:100960004069002200F4805000901146432000F0BE
:100970009DF8BDE80840432000F08CB808BD000099
:1009800000100240006803F0A8B8D0F8800201F01F
:100990004BBD10B5044690F87C0201280DD0012013
:1009A00084F87C02206802F013FE0121206802F026
:1009B000F9FD002084F87C0210BD022010BD10B5A6
:1009C000044690F87C02012809D0012084F87C02BA
:1009D000206803F0AEF8002084F87C0210BD0220ED
:1009E00010BD0000024881680278114481607047A0
:1009F0000C000020074810B5016841F010010160AB
:100A0000032000F073F8002000F006F800F024F84E
:100A1000002010BD0020024070B50D4D04464FF47B
:100A20007A712878B1FBF0F00A490968B1FBF0F05F
:100A300000F04EFC48B9102C07D200222146501E6F
:100A400000F034F800206C6070BD012070BD000023
:100A50000C000020180000200C4808B5816941F006
:100A600001018161816901F001010091C16941F0D9
:100A70008051C161C06900F0805000900448416815
:100A800021F0E06141F00071416008BD00100240BA
:100A90000000014000F01F02012191404009800048
:100AA00000F1E020C0F8001170470000F0B40E4BD8
:100AB0001B680C46C3F30223C3F10705042D00D9BC
:100AC0000425191D072901D2002300E0DB1E0126A1
:100AD00006FA05F1491E214099409E40761E1640B7
:100AE0003143F0BC00F0FABF0CED00E0064900F025
:100AF000070208684FF6FF03184040EA0220034A45
:100B000010430860704700000CED00E00000FA059B
:100B10002DE9F843044600785B4DC0074FF001090A
:100B200051D0E8690026C00008D4E86940F0805040
:100B3000E861E869012600F08050009053480168A0
:100B4000C90512D40168804641F480710160FFF745
:100B500079FD074605E000BFFFF774FDC01B642860
:100B600077D8D8F80000C005F6D5286A10F4407090
:100B70001ED0A18801F44071814219D0286A4449ED
:100B800020F44070C1F8009000220A602862C0077B
:100B90000ED0FFF757FD074641F2883805E000BF49
:100BA000FFF750FDC11B414553D8286A8007F7D590
:100BB000286A616820F44070084328621EB1E86921
:100BC00020F08050E8612078800705D56868A1682A
:100BD00020F44040084368602078400705D5E86A63
:100BE000E16820F400300843E8622078000705D56A
:100BF000E86A216920F480200843E862E86A8003FB
:100C000002D4E86A400333D52868C00028D4286895
:100C1000400105D5E86AA16900F0F000884225D1BD
:100C2000E86AA16920F0F0000843E862E86A6169B7
:100C300020F470400843E8621649C1F87090FFF74D
:100C400001FD064608E004E0FFF7FCFC801B642879
:100C500002D90320BDE8F88328688000F4D507E0B6
:100C6000E86A616900F47040884201D00120F1E730
:100C70002078C00605D56868E16920F48000084343
:100C800068600020E6E700000010024000700040AD
:100C900040044242000042422DE9F047DFF854810F
:100CA00005460E46D8F8000000F00700B0420CD20E
:100CB000D8F8001021F007013143C8F80010D8F827
:100CC000000000F00700B0426FD128684A4C81074D
:100CD00012D5400703D5606840F4E0606060287872
:100CE000000703D5606840F4605060606068A968E0
:100CF00020F0F000084360602878C00744D068689E
:100D0000012816D02168022816D0890700294CDA5C
:100D1000616821F0030101436160FFF793FC69689A
:100D2000074641F2883001290ED00229814618D0A9
:100D300026E021688903E9E78901E7E7FFF782FCFC
:100D4000C11B494501D918E081466068C0F38100A4
:100D50000128F3D118E000BFFFF774FCC11B49451F
:100D60000BD86068C0F381000228F5D10CE000BF09
:100D7000FFF768FCC11B494502D90320BDE8F08795
:100D8000606810F00C0FF3D1D8F80010404601F065
:100D90000701B1420BD9016821F00701314301601D
:100DA000006800F00700B04201D00120E6E7287893
:100DB000400705D56068E96820F4E060084360609A
:100DC0002878000706D56068296920F4605040EA59
:100DD000C100606000F036F86168084AC1F3031191
:100DE000515CC840064908600020FFF715FE00204E
:100DF000C4E700000020024000100240FC58000838
:100E0000180000200448054900684968044AC1F3F5
:100E10000221515CC84070471800002000100240B9
:100E20000C5900080448054900684968044AC1F3A0
:100E3000C221515CC84070471800002000100240D9
:100E40000C590008F0B524A289B00FCA04AC84E89C
:100E50000F0025A10FC98DE80F002748416801F058
:100E60000C02042A04D0082A04D0244809B0F0BD9A
:100E70002348FBE704AAC1F38343C903D45C28D504
:100E8000C16AC26A01F00F011DF80110D20316D524
:100E9000C26AC06AC2F30312521CA2FB0123C0F350
:100EA0000320801CA0FB0415154F0026A1FB070C96
:100EB00005FB07C501FB0651FFF766F903E0104883
:100EC0006043B0FBF1F09DF81D10A142CED1400867
:100ED000CCE70C486043C9E7000004050607080991
:100EE00000000000000D00000102030405060708D1
:100EF000090A0B0C0D0E0F100010024000127A00B0
:100F000040787D0100093D002DE9F84F0446007846
:100F1000EA4DC00748D06868C0F38100012807D0B7
:100F20006868C0F38100022809D16868C00306D54B
:100F30002868800338D5A06800286FD034E0A06806
:100F4000B0F5803F0BD010B1B0F5A02F11D02868BC
:100F500020F480302860286820F4802002E028688F
:100F600040F480302860A06888B1FFF76BFB06462C
:100F700009E0286840F480202860F0E7FFF762FB72
:100F8000801B642878D828688003F7D50CE0FFF729
:100F900059FB064605E000BFFFF754FB801B6428A1
:100FA000F0D828688003F7D42078C54E80074FF02A
:100FB00001094FF000073CD5686810F00C0F07D00E
:100FC0006868C0F38100022809D16868C00306D4AC
:100FD0002868800715D5606901281FD111E0606974
:100FE000B8B1C6F80090FFF72DFB804606E000BFC1
:100FF000FFF728FBA0EB08000228C3D82868800769
:10100000F6D52868A16920F0F80040EAC100286000
:101010000FE03760FFF716FB804607E02DE100BFC9
:10102000FFF710FBA0EB08000228ABD82868800768
:10103000F6D4207800072ED5A248E169E9B1C0F8BE
:101040000090FFF7FFFA804606E000BFFFF7FAFACC
:10105000A0EB0800022895D8686A8007F6D59A4860
:101060004FF4FA510068B0FBF1F0009000BF009817
:10107000411E0091FAD20EE0B0E00760FFF7E2FAFD
:10108000804605E0FFF7DEFAA0EB0800022887D8CB
:10109000686A8007F6D42078400763D5E8694FF086
:1010A0000008C00009D4E86940F08050E861E869B0
:1010B0004FF0010800F08050009084480168C90595
:1010C00012D40168834641F480710160FFF7BAFAD7
:1010D000824605E0FFF7B6FAA0EB0A0064287DD847
:1010E000DBF80000C005F5D5206901280AD008B159
:1010F000052813D0286A20F001002862286A20F011
:10110000040002E0286A40F001002862206941F2F0
:10111000883B98B1FFF796FA82460BE0286A40F0C8
:1011200004002862EEE700BFFFF78CFAA0EB0A018B
:10113000594553D8286A8007F6D50CE0FFF782FAA4
:10114000824605E0FFF77EFAA0EB0A01594545D833
:10115000286A8007F6D4B8F1000F03D0E86920F0C0
:101160008050E861E06AD0B36968C90307D569684F
:10117000C1F38101022902D1E96AC9037DD40228A1
:1011800008D0E86A20F48030E862B766FFF75AFAC0
:1011900080463BE02868C00005D5E86A616B00F036
:1011A000F000884269D1B766FFF74CFA804605E047
:1011B000FFF748FAA0EB0800642874D828680001FB
:1011C000F6D4E86A616B20F0F0000843E862E86A50
:1011D000216B20F470600843E86201E063E018E0EE
:1011E000C6F86890FFF72EFA804605E0FFF72AFA66
:1011F000A0EB0800642856D828680001F6D508E05E
:10120000FFF720FAA0EB080064284CD828680001FA
:10121000F6D4206A90B36968C1F3810102294AD0EB
:101220000228376603D0FFF70DFA04463EE0FFF7C9
:1012300009FA074605E000BFFFF704FAC01B0228C1
:1012400031D828688001F7D4606AB0F5803F09D1B1
:10125000E86A61680843E862E86AE16820F00F0024
:101260000843E862D4E909010843696821F474116C
:1012700008436860C6F8609001E01CE019E0FFF7E1
:10128000E1F9044605E000BFFFF7DCF9001B022886
:1012900009D828688001F7D50BE000BFFFF7D2F925
:1012A000001B022802D90320BDE8F88F28688001BE
:1012B000F4D40020F8E70120F6E700000010024017
:1012C00000004242800442421800002000700040AA
:1012D00010B5401EB0F1807F01D3012010BD4FF04A
:1012E000E02460610F21601700F0F8FB0020A0618E
:1012F00007202061002010BD70B5040004D094F8D0
:101300003900002510B106E0012070BD84F8385086
:10131000204600F023F8242084F839002068C168B2
:1013200021F40051C160204600F05AFC2068016998
:1013300021F4904101612068416921F02A01416155
:101340002068C16841F40051C160E563202084F841
:10135000390084F83A00002070BD000030B585B037
:101360000024009401940294039400681749884271
:101370002AD11748C16941F40031C161C16901F442
:1013800000310491816941F0200181618069114D32
:1013900000F0200004902020009002200190032003
:1013A000039069462846FFF769F84020CDE900041C
:1013B000694628460294FFF761F80748416841F002
:1013C000E06141F00801416005B030BD00440040DB
:1013D0000010024000140140000001402DE9F843D4
:1013E000044690F839001F4616460D46202850D175
:1013F000A5B19EB194F8380001284AD0012084F8A4
:1014000038004FF00008C4F83C80212084F83900EF
:10141000FFF718F9A6848146E68426E00120BDE89E
:10142000F883E08C401EE084A0684B46B0F5805FF6
:101430004FF000024FF080012046009703D000F0EB
:1014400087FCE8B90DE000F083FCC8B92888216862
:10145000C0F308004860206908B16D1C05E0AD1CB0
:1014600003E0216815F8010B4860E08C0028D8D112
:101470004B46002240212046009700F069FC08B14D
:101480000320CCE7202084F8390084F8388000203D
:10149000C5E70220C3E72DE9F05F064600688846ED
:1014A00000EB4814D4F808054FF0040B410708EB93
:1014B00088004FF0050A4FF0100706EBC00508D56D
:1014C000C4F808B5D4F80C0540F00200C4F80C05C7
:1014D00032E0D4F80805800601D520202AE0D4F8AF
:1014E00008054FF00809000710D5D4F80C0540F0A6
:1014F0000200C4F80C0585F849A0C4F80875C4F8C2
:1015000008954146306802F09AF815E0D4F80805CD
:10151000400511D5D4F80C0540F00200C4F80C05C4
:101520004146306802F08BF8C4F8087585F8499098
:101530004FF48060C4F80805D4F8080580050ED57E
:10154000D4F80C0540F00200C4F80C05414604F53F
:10155000A164306802F073F84FF4007084E0D4F8AE
:1015600008054FF00001C0074FF001022DD085F8AB
:1015700049206964C4F8082595F82B0020B1022899
:1015800002D003280ED019E0D4F80C0540F0020078
:10159000C4F80C05414604F5A164306802F04FF828
:1015A00027600BE0D4F8000540F00050C4F80005B7
:1015B00085F8482041463046FFF7A1F815F83C0F62
:1015C00080F001002870BDE8F09FD4F8080580077E
:1015D00033D5D4F80C0520F00200C4F80C0595F8BA
:1015E00049000223012806D0052807D0062808D084
:1015F000082806D018E085F8482015E085F848A0AE
:1016000012E0686C421C6A64032803D9696485F897
:1016100048B001E085F84830D4F8000520F080405B
:1016200040F00040C4F80005C4F8083595F848209B
:1016300041463046FFF763F8C5E7D4F808050006D1
:1016400014D5D4F80C0540F00200C4F80C05686C01
:101650004146401C6864062085F8490004F5A164F1
:10166000306801F0ECFF80202060ACE7D4F808057A
:10167000C006A8D595F82B00032803D068B102282E
:101680000BD012E0D4F80C0540F00200C4F80C05B1
:101690004146306801F0D3FF07E0D4F8000520F0A0
:1016A000804040F00040C4F80005032085F8490060
:1016B000C4F8087587E72DE9F047026802EB41148A
:1016C000D4F808254FF0040C520709D5C4F808C512
:1016D000D4F80C0540F00200C4F80C05BDE8F08712
:1016E000D4F8082501EB810392064FF0020600EBC7
:1016F000C30514D52022C4F8082595F82920012A0D
:10170000ECD185F849C0D4F80C2542F00202C4F8A7
:101710000C25006801F093FF85F84860DEE7D4F8F7
:1017200008254FF0000352060FD585F849C06B64B9
:10173000D4F80C2542F00202C4F80C25006804F528
:10174000A16401F07CFF402010E0D4F80825920548
:101750000ED5D4F80C2542F00202C4F80C2500681E
:1017600004F5A16401F06BFF4FF400702060B5E751
:10177000D4F808254FF00108D20710D06B64D4F8D4
:101780000C2542F00202C4F80C25006804F5A1649F
:1017900001F055FFC4F8008085F849809EE7D4F831
:1017A00008254FF0080912074FF0050A0DD5C4F8B7
:1017B0000895D4F80C2542F00202C4F80C25006804
:1017C00001F03DFF85F849A088E7D4F808254FF0DF
:1017D0001007D20610D56B64D4F80C2542F0020233
:1017E000C4F80C25006804F5A16401F028FF03206B
:1017F00085F84900276071E7D4F8082512060FD54F
:10180000D4F80C2542F00202C4F80C25006804F557
:10181000A16401F014FF062085F849008020A5E7A7
:10182000D4F80825520511D5D4F80C2542F002024F
:10183000C4F80C25006804F5A16401F000FF2760DE
:101840004FF48060206085F8499047E7D4F8082578
:1018500092078CD5D4F80C2522F00202C4F80C258E
:1018600095F84920012A0AD0032A15D0042A16D057
:10187000052A19D0062A1AD0082A18D02AE085F895
:10188000488095F82B20022A24D195F83D2082F03B
:10189000010285F83D201DE085F848601AE085F8D2
:1018A000486085F8293015E085F848A012E06A6C98
:1018B000571C6F64032A03D96B6485F848C001E0A4
:1018C00085F84860D4F8002522F0804242F00042BA
:1018D000C4F80025C4F8086595F84820FEF70FFF06
:1018E000FCE600007CB504680546D4F8400401908D
:1018F000D4F8400420F02E000090019880070DD508
:101900000198C00706D0A06920F00051A1612846C7
:10191000FEF79EFE009840F002000090019800073C
:1019200021D5009840F008000090019840070FD59D
:101930000198C0F341400228286807D05FF00101F8
:1019400002F09CF82846FEF783FE0CE00221F7E740
:10195000D4F8400420F02E00C4F8400428688169BF
:1019600041F00051816101988006009802D540F055
:1019700020000090C4F840047CBD00002DE9F04137
:10198000024600680646016AC1F3434301F00F07AF
:10199000C1F30A14022B25D1002C23D007EB8701B9
:1019A00002EBC105296B00291CD0224602F085F804
:1019B000286B20442863A86B2044A86306EB4710DB
:1019C000D0F81015084A11420CD0D0F8001521F0BB
:1019D000804141F00041C0F8001515F83C0F80F03F
:1019E00001002870BDE8F0810000F81FFEE700004C
:1019F00010B504490448FEF70BFD0249491E087062
:101A000010BD000005000020C059000870B586B068
:101A100000241C480094019402940394816941F0CD
:101A200010018161816901F010010491816941F027
:101A300040018161816901F040010491816941F0B7
:101A400004018161816901F004010491816941F01F
:101A5000200181618069012200F020000A4E950377
:101A6000049029463046FEF7E7FD01200095CDE9B8
:101A700001040220039069463046FEF7FFFC06B0E1
:101A800070BD0000001002400018014010B5012296
:101A90000B490C4800F049FC08B1FEF74EFC0A491E
:101AA000084801F073FC08B1FEF747FC054801F057
:101AB000A2FC002803D0BDE81040FEF73EBC10BDDC
:101AC0000D340008E80400201C000020014801F04B
:101AD000A9BB0000E8040020FEE770470907090ED3
:101AE000002806DA00F00F0000F1E02080F8141D55
:101AF000704700F1E02080F8001470470148FEF7BD
:101B000059BE0000B008002070477047FEF76ABF5A
:101B100030B59BB038216846FEF790FB14210EA823
:101B2000FEF78CFB202113A8FEF788FB012420047C
:101B30000421CDE902010225CDE90850009401906D
:101B400005944FF4E010CDE90A054FF4C0600C9005
:101B500040200D906846FFF7D7F90F20CDE90E051C
:101B60000025A002CDE9105002210EA81295FFF722
:101B700093F8102013901A9513A8FEF7C9FF024896
:101B800004671BB030BD00000000424210480168ED
:101B900041F00101016041680E4A11404160016855
:101BA0000D4A11400160016821F480210160416803
:101BB00021F4FE014160016821F0A05101604FF461
:101BC0007F0181600021C1620449C0030860704741
:101BD000001002400000FFF0FFFFF6FE08ED00E0FD
:101BE0002DE9F041044600680169E26821F44051A2
:101BF000114301612169A0680843616908432168B4
:101C0000CA6841F20C639A430243CA602068416982
:101C1000A26921F44071114341614C492068642557
:101C2000322688423CD1FFF7FDF800EBC00101EB02
:101C3000001061688900B0FBF1F7FFF7F3F800EBE3
:101C4000C00101EB00106168B0468900B0FBF1F003
:101C5000B0FBF5F06FF01801484307EB800106EB8D
:101C60000110B0FBF5F000F0F006FFF7DBF800EB39
:101C7000C00101EB001061688900B0FBF1F0B0FB1E
:101C8000F5F006EB0016FFF7CDF800EBC00101EB15
:101C9000001061688900B0FBF1F7FFF7C3F83BE083
:101CA000FFF7B0F800EBC00101EB0010616889009C
:101CB000B0FBF1F7FFF7A6F800EBC00101EB001055
:101CC0006168B0468900B0FBF1F0B0FBF5F06FF051
:101CD0001801484307EB800106EB0110B0FBF5F05B
:101CE00000F0F006FFF78EF800EBC00101EB0010EA
:101CF00061688900B0FBF1F0B0FBF5F006EB00166F
:101D0000FFF780F800EBC00101EB0010616889006B
:101D1000B0FBF1F7FFF776F800EBC00101EB001024
:101D200061688900B0FBF1F0B0FBF5F06FF01801CD
:101D3000484307EB800108EB0110B0FBF5F0216888
:101D400000F00F0030448860BDE8F08100380140A9
:101D50002DE9F041984617460E460446069D1DE0C3
:101D6000681C1BD02DB1FEF76DFCA0EB0800A8424B
:101D700014D92068C16821F4D071C160206841691C
:101D800021F001014161202084F8390084F83A00F3
:101D9000002084F838000320BDE8F0812068006846
:101DA00036EA000004D00020B842D9D00020F3E782
:101DB0000120F9E710B500224FF6FF7300EB820413
:101DC000B4F87C43240409D49A4205D000EB820085
:101DD00041F40041C0F87C13D0B210BD521CD2B205
:101DE0000B2AEBD31A46F7E77FB51C46012501AE57
:101DF0000023009586E80E0002232A46214600F0C3
:101E000083FB04B0002070BD7FB51D4690F81D33E4
:101E1000089C03B100240123CDE90031CDE902245F
:101E200002230022294600F06FFB04B0002070BDA1
:101E300010B500F092FA002010BD8278012A07D177
:101E40000222027401224274002242828182C282F2
:101E50000022114600F00FB87FB51C46012501AEE7
:101E60000023009586E80E002A46214600F04CFB30
:101E700004B0002070BD70B504460120A37805466B
:101E8000012B09D0022B06D1204600F016F948B1EB
:101E9000022800D1A57070BDA160A2812576022123
:101EA000A17070BDA5700021217670BD7FB51D4663
:101EB00090F81D33089C03B100240123CDE90031C3
:101EC000CDE9022400231A46294600F01DFB04B088
:101ED000002070BD1FB500231446CDE90031082253
:101EE000CDE902231A46214600F00EFB04B0002083
:101EF00010BDFEF7B1BA70B5002400F2323004EB29
:101F0000840505EBC40500EB4505EE7B0A358E42E2
:101F100001D0FF2909D1AE79964201D0FF2A04D120
:101F2000ED799D4207D0FF2B05D0641C64B2022CD2
:101F3000E5D3FF2070BDE0B270BD0B2907D200EBE6
:101F40008100B0F87C13C1F30E01C0F87C130020AF
:101F5000704730B48578029C012D0FD141F080018B
:101F600001740621417403214282B1EB122F02D188
:101F700040F2094100E000218182C482224630BC47
:101F80001946FFF778BF0A8803781A440A80017857
:101F900008447047F8B50E4600F11C050091044650
:101FA0002B464FF400720021FFF7D3FF070005D145
:101FB0003246294604F2323001F0C0F83846F8BD06
:101FC00038B50D460091044600F58E734FF48072CB
:101FD0000021FFF7BEFF01003DD104F5487094F8E1
:101FE0001C21027094F81D21427094F81E2194F86F
:101FF0001F31082D02EB0322428094F82021027148
:1020000094F82121427194F82221827194F82321BD
:10201000C27120D994F8242194F8253102EB0322CF
:10202000028194F8262194F8273102EB03224281A1
:1020300094F8282194F8293102EB0322828194F844
:102040002A21827394F82B21C27394F82C210274F4
:1020500094F82D214274084638BDF8B51C46164642
:10206000009341F4407200F58E731D460021FFF786
:1020700070FF002814D16978032911D129788A1EAC
:10208000A24200DC14460021A2B2AD1C04E06B5C4D
:10209000891C06F8013B89B29142F8D300213170C6
:1020A000F8BD01004FF0000004D0012901D0022941
:1020B00001D002207047012070472DE9F84F0446F7
:1020C0000125007E0B262F464FF009084FF0070927
:1020D0004FF0050B4FF00D0A0C281ED2DFE800F080
:1020E000A9060E212C38445C67788495627904F146
:1020F00010012046FFF7EEFE02200DE06179204638
:1021000000F08EF9012877D1207CE18A00F0800070
:1021100021B180283BD1032020768AE0802814D08A
:102120002FE0D4F8B803E0812379A2892046A16882
:10213000FFF792FE0420EFE72179204600F070F9C6
:10214000012802D0052841D056E084F8188070E0BC
:1021500000976379A2892046A168FFF7A7FED4F80B
:10216000B803E0810620D7E76179204600F058F9EE
:10217000012806D0052807D0022808D0042809D055
:1021800057E084F8189054E00C2020761EE084F884
:1021900018B04EE026764BE0002223791146204607
:1021A000FFF75AFED4F8B803E0810820B4E721799C
:1021B000204600F035F9012804D0042823D0052852
:1021C00004D036E084F818A0002532E0032530E082
:1021D00000970022637911462046FFF767FED4F886
:1021E000B803E0810A2097E76179204600F018F9EA
:1021F000012804D00228A8D0042804D019E0002522
:1022000084F818A015E0267613E0607E401CC0B26A
:102210006076022805D8204600F06DF92776A77071
:1022200007E0D4F8C42306212046904700206076BA
:1022300002252846BDE8F88FFEB504460126407801
:102240000025374604F58E7208286CD2DFE800F0CE
:1022500004161D434A53576208212046FFF7B0FE7B
:10226000002860D194F82703A071677094F81D13BB
:102270000091CDE9015094F81C3319E01221204659
:10228000FFF79EFE30BB022033E00121204601F023
:1022900096F8F8B90220FFF72CFE84F81C7303208F
:1022A0006070A07994F81D13CDE900153B460290AB
:1022B00021798022204600F037FFA07994F81D1381
:1022C0000091CDE9015094F81C3361790022204639
:1022D00000F02AFF27E009212046FFF75BFE10BB34
:1022E000042006E0B4F834132046FFF753FED0B9BB
:1022F0000520607017E094F82E13062502E094F88C
:102300002F13072521B1FF232046FFF7A6FE50B962
:10231000657008E094F8301321B1FF232046FFF7E1
:102320009CFE00B900263046FEBD70B50D46040087
:1023300011D084F8BC230020C4F87403C4F87803D7
:102340002046FDF7D5FF0DB1C4F8C453204600F078
:102350007BF8002070BD022070BD10B5D0F8C0031E
:10236000FEF791F9BDE81040FFF79BBE10B501786C
:1023700019B10178012909D00AE0012180F81E1362
:10238000D0F8C42322B10421904701E0022101705A
:10239000002010BD10B5044600F0ADF821792046AC
:1023A000FFF7CBFD61792046FFF7C7FD002084F8D9
:1023B0001E03D4F8C42312B10521204690472046BD
:1023C00000F090F803202070002010BD10B5C82048
:1023D000FEF742F8002010BDD0F8C003FEF74DB95B
:1023E00010B50124D0F8C003FEF73DF920B1012853
:1023F00005D0022803D101E0002400E00224204699
:1024000010BDD0F8C00301EB810100EBC10090F8D2
:10241000271011B190F83C00704790F83D007047CC
:10242000D0F8C003FEF722B9D0F8B813491CC0F8A1
:10243000B81301780A2905D1D0F87413002901D006
:10244000896908477047000010B5044690F8BC033E
:10245000012819D10D484FF0A041C0F88042C4F8BE
:10246000C0030160082181600321C1600021416136
:10247000FEF737FA08B1FDF760FF0448FEF7F0F801
:102480000146204600F01BF8002010BDB0080020D7
:10249000FEB508AF97E870008DE87000D0F8C00373
:1024A000FEF703F9BDE8FE40FFF7FBBD10B5D0F81D
:1024B000C003FEF767FABDE81040FFF7F2BDC0F8B1
:1024C000B8137047D0F8C00301EB810100EBC100E5
:1024D00090F8271011B180F83C2001E080F83D20F1
:1024E0000020704710B5D0F8C003FEF752FABDE8DF
:1024F0001040FFF7D6BD10B5D0F8C003FEF75FFA65
:10250000BDE81040FFF7CDBD2DE9FF410DF12808D2
:1025100098E8F0008DE8F000D0F8C003FEF7F0F87E
:1025200004B0BDE8F041FFF7BCBD03460220D3F87C
:102530007413C9692AB1012A05D189791846FFF7B0
:102540007CBCC979FAE77047D0F874030549C069C3
:10255000416505498165012100F8501F8170002007
:102560007047000055534243504030202DE9F84F4A
:102570000746D0F8740301263546C4694FF00B0AAC
:102580004FF00A0B94F850004FF009094FF007087C
:102590000C2845D2DFE800F0D20611252E485275EE
:1025A0007EA7AFCB84F86110022084F8500000951C
:1025B00063791F2204F1540159E061793846FFF72D
:1025C0002FFF012802D002287ED03FE0E06D0028D6
:1025D00029D094F86000000601D503204BE00520C7
:1025E00049E0237962893846D4F88C10FFF7FCFB68
:1025F000042040E021793846FFF712FF01284FD12F
:102600006289E06D90420CD9D4F88C10801A114484
:10261000C4F88C10E0656BD023793846FFF7E4FBF3
:102620008CE00020E06563E00095637922893846FC
:10263000D4F88C10FFF7E8FB06201CE061793846DF
:10264000FFF7EEFE012804D00228C8D0052815D0D7
:1026500074E02289E06D9042E3D9D4F88C10801A9E
:102660001144C4F88C10E06542D000956379384677
:10267000FFF7CAFB62E084F850005FE084F850B0D6
:102680005CE023790D2204F178013846FFF7ACFBBA
:102690000820F0E721793846FFF7C2FE012802D072
:1026A00005281DD04AE004F8505F3846A570D7F8D9
:1026B0007413CC692179FFF78FFE0D280CD12149C5
:1026C000A06F884208D100E036E0A16DE06F88423B
:1026D00002D194F8840008B102262FE000262DE0F4
:1026E00084F850902AE000223846FFF71EFF38B9E0
:1026F00084F8508022E001223846FFF716FF10B11F
:10270000042811D01AE061793846FFF77AFEC0F14B
:102710000100C2B261793846FFF7D4FE2179002268
:102720003846FFF7CFFEDBE784F850A006E03846D6
:1027300000F015F8060001D184F850503046BDE88D
:10274000F88F000055534253A1220274FE224274B6
:102750000022428282820122C282FFF78CBB2121A9
:102760000174FF214174002141828182C1820A46A5
:10277000FFF781BB70B5D0F874130125CC69A17B3C
:1027800021B1022902D0032928D121E02146FFF7F7
:10279000DBFF00210546032801D015B11EE000250E
:1027A00021602078401C2060002002230CE000BF44
:1027B00000EB800202EBC00204EB8202401C82F8B4
:1027C000923082F8C110C0B222688242F0D805E08F
:1027D0000021FFF732FB08B9E07BA073284670BDEB
:1027E00010B51446D0F874230078D3690A2801D0B4
:1027F000022010BD01EB810000EBC10003EB800162
:10280000342220469031FDF700FD002010BD70B548
:102810000546D0F874030026C469617939B12846A9
:10282000FFF706FB61792846FFF787FB6671217980
:1028300039B12846FFF7FCFA21792846FFF77DFBDE
:102840002671D5F87403C06920B102F0CDFCD5F82B
:102850007403C661002070BDFEB50546D0F8740350
:1028600002245023017906222846FFF744FB014643
:10287000FF287DD0284600F097FDE00102F05EFEC3
:10288000D5F874130446C86195F81F0300EB800166
:1028900001EBC00005EB400090F8480301060CD5A1
:1028A000E07195F81F0300EB800101EBC00005EB20
:1028B0004000B0F84A0360810BE0A07195F81F0357
:1028C00000EB800101EBC00005EB4000B0F84A03CB
:1028D000208195F81F0300EB800101EBC00005EBA0
:1028E000400090F8500301060CD5E07195F81F03E5
:1028F00000EB800101EBC00005EB4000B0F8520393
:1029000060810BE0A07195F81F0300EB800101EBE3
:10291000C00005EB4000B0F8520320810020A4F86D
:10292000F800A4F8FA0020736073A073A179284618
:10293000FFF740FA6071E1792846FFF73BFA207112
:102940002846FFF701FE682104F19000FDF776FCB0
:10295000208995F81D1302260091CDE9016095F8B4
:102960001C33A2796179284600F0DEFB608900E023
:1029700016E095F81D130091CDE9016095F81C3320
:10298000E2792179284600F0CFFB21790022284600
:10299000FFF798FD617900222846FFF793FD002498
:1029A0002046FEBDD0F874130078C9690A2802D108
:1029B000087B012800D0002070472DE9F04707462A
:1029C000D0F874034FF0010AC469207B10B10128CC
:1029D0007DD135E1B4F8F800216801254FF00008F9
:1029E000884275D200EB800101EBC00004EB80004F
:1029F000022680F89150B4F8F8004FF0050900EB7A
:102A0000800101EBC00104EB810292F890100929CA
:102A10005DD2DFE801F0055C26910CBA5C5CF20047
:102A2000042082F89000D7F8B803C4F8FC00B4F88A
:102A3000F80000EB800101EBC00104EB8102C1B2A0
:102A400038469F3200F08EF940B9B4F8F80000EB38
:102A5000800101EBC00004EB8000B8E002287DD0CB
:102A60009BE0C1B2384600F0A1FA10B1022833D081
:102A700093E0B4F8F80000EB800101EBC00004EB38
:102A8000800090F8921011B180F8C15001E080F8F8
:102A9000C180B4F8F820032002EB820101EBC201EF
:102AA00004EB810181F89000B4F8F81001EB810289
:102AB00002EBC10104EB810181F89180B4F8F810B8
:102AC00001EB810202EBC10104EB810101E0B9E0FD
:102AD000ADE081F89280B5E0B4F8F80000EB800139
:102AE00001EBC00004EB800090F89210022902D0A4
:102AF00080F8C15001E080F8C180B4F8F81001EB13
:102B0000810202EBC10104EB810181F89090B4F8DD
:102B1000F80000EB800101EBC00004EB800080F8BE
:102B20009150B4F8F80000EB800101EBC00004EB19
:102B3000800080F8926085E0C1B23846943200F09F
:102B4000AFF900288AD1B4F8F80000EB800101EB5E
:102B5000C00004EB800080F8905000E00AE0B4F878
:102B6000F81001EB810202EBC10104EB810181F855
:102B7000918031E0B4F8F81001EB810202EBC10161
:102B800004EB810181F890905CE0C1B238469C3240
:102B900000F0C3F920B1022823D004282ED051E040
:102BA000B4F8F80000EB800101EBC00004EB8000FA
:102BB00090F89C10062901D002290BD1D7F8B81340
:102BC000D4F8FC20891A42F21072914202D280F8A5
:102BD000906037E080F8905034F8F80F401C208067
:102BE00030E0B4F8F810082001EB810202EBC101DB
:102BF00004EB810181F8900024E014E0B4F8F800BF
:102C000000EB800101EBC00004EB800080F89050E5
:102C1000B4F8F80000EB800101EBC00004EB800089
:102C200080F891600EE0401CA4F8F8000AE0A4F8D7
:102C3000F8802573D7F8C42302213846904701E075
:102C40004FF0000A5046BDE8F08700002DE9F84338
:102C5000D0F8742301EB810303EBC103D269012592
:102C600002EB8304082794F890302E46052B22D0DF
:102C700000224FF00508062B02D0072B2AD10CE0CA
:102C8000002300921A4600F0CDF80BE002280FD086
:102C900018E000BF84F890701BE0002300921A46F1
:102CA00000F0AAF90028F1D184F89060002511E025
:102CB00084F890800EE004F19C0200F02EF920B11F
:102CC000022807D00428E5D004E004F8906F022021
:102CD000607002252846BDE8F8832DE9F8430446D4
:102CE000D0F87403089E0F46C56994F81E0360B1BE
:102CF00020780A2809D107EB870000EBC70005EB15
:102D0000800090F89010012902D00220BDE8F883DD
:102D10000621297380F89010A5F8FA7039462046EC
:102D2000009600F07FF8D4F8B88340F271204FF09D
:102D30000109464309E0D4F8B813A1EB0800B0EB51
:102D4000061F0CD894F81E0348B139462046FFF7F9
:102D50007DFF0128EFD085F80C900020D6E785F89C
:102D60000C90D2E770B51546D0F874230226D469CA
:102D700094F85220012A02D0022A51D128E02422BC
:102D80008020E26584F860000A2084F86200002058
:102D9000C4F86300C4F86700A4F86B00122384F839
:102DA0006330490184F8641084F8650084F8660093
:102DB00084F8672084F86800012084F8500002201D
:102DC00084F8520004F110000126C4F88C0027E0BA
:102DD000FFF7CCFB060023D122212846FDF72EFA6F
:102DE00054F88C0F1022007800F01F0068702068E3
:102DF00000784009287020684078C009A8702068D1
:102E00008168C5F80310C068C5F80700216805F19E
:102E10000C001031FDF7F9F92068006AC5F81D00B3
:102E2000304670BD2DE9F041154602461F46D2F8E6
:102E300074330220069EDC6994F85230012B06D0D0
:102E4000022B2BD1BDE8F0411046FFF78FBB70027B
:102E5000E065802084F860000A2084F86200102178
:102E600004F16300FDF7EAF9282084F86300280ED6
:102E700084F86500280C84F86600280A84F8670046
:102E800084F86850300A84F86A0084F86B60012086
:102E900004F8500F0220A0700120E763BDE8F08124
:102EA00070B51646D0F874230125D46994F85220E1
:102EB000012A02D0022A2ED11AE00820E0658020E3
:102EC00084F860000A2084F86200102104F1630095
:102ED000FDF7B4F9252084F86300012084F8500040
:102EE000022084F8520004F11000C4F88C0012E0B3
:102EF000FFF73CFB05000ED154F88C0F4188427857
:102F000049BA007862F31F4141EA006030602068EE
:102F1000C08840BAB080284670BD70B515460246DC
:102F20000E46D2F874130220CC6994F8521001298D
:102F300014D0022911D131461046FFF717FB0028A3
:102F40000BD154F88C1F897801F00F01297021688A
:102F5000097B69702168497BA97070BD0E258020AE
:102F6000E56584F860000A2084F86200102104F10D
:102F70006300FDF763F9032084F86300700184F8AF
:102F80006400002084F8650084F8660084F86750C7
:102F900084F86800012084F85000022084F8520070
:102FA00004F11000C4F88C00012070BD70B5024619
:102FB0000220D2F87433DC6994F85230012B06D029
:102FC000022B18D1BDE870401046FFF7CFBA00259C
:102FD000E56584F860500A2084F86200102104F14D
:102FE0006300FDF72BF984F86350012004F8500FBB
:102FF0000220A070012070BD2DE9F0411546024667
:103000001F46D2F874330220069EDC6994F85230D1
:10301000012B06D0022B2BD1BDE8F0411046FFF763
:10302000A5BA7002E065002084F860000A2084F8E8
:103030006200102104F16300FDF700F92A2084F8F2
:103040006300280E84F86500280C84F86600280ABE
:1030500084F8670084F86850300A84F86A0084F8BD
:103060006B60012004F8500F0220A0700120E7637C
:10307000BDE8F08100207047D0F874230078D26951
:103080000A2808D101EB810000EBC10002EB8000AF
:1030900090F8910008B100207047012070472DE999
:1030A000F8430446D0F87403089E0F46C56994F8A7
:1030B0001E0360B120780A2809D107EB870000EBD6
:1030C000C70005EB800090F89010012902D0022083
:1030D000BDE8F8830721297380F89010A5F8FA70ED
:1030E000394620460096FFF787FFD4F8B88340F2B0
:1030F00071204FF00109464309E0D4F8B813A1EB61
:103100000800B0EB061F0CD894F81E0348B13946EE
:103110002046FFF79BFD0128EFD085F80C9000209A
:10312000D6E785F80C90D2E7FEB508AF97E87000B7
:103130008DE87000FFF7ACF90020FEBD2DE9F841E5
:1031400005460B782B704B786B708B78CC780846E3
:1031500003EB04236B800B792B714B796B718B79AB
:10316000AB71CB79EB710027017A2972092A57D903
:103170000921ADF800104EE06946FEF704FF4178E2
:10318000042946D107EB870101EBC70105EB410894
:10319000017888F80A10417888F80B10817888F84F
:1031A0000C10C17888F80D10017988F80E1041795B
:1031B00088F80F10817988F81010C17908F10A0495
:1031C00088F81110017A2172002618E06946FEF78E
:1031D000DAFE4178052912D108EBC60102780A759A
:1031E00042784A7582788A75C278CA7502794379BD
:1031F000761C02EB03220A8382798A7676B22179E1
:10320000B14204DD6988BDF800209142DED87F1C00
:103210007FB2022F04D26A88BDF800108A42ABD870
:10322000BDE8F881FEB5044602208DF80000217843
:10323000002008270C2605460B2913D2DFE801F0F1
:1032400006A41399A4428250575F920094F81E037B
:10325000002807D001202070C820FEF74AFE204633
:10326000FFF724F990E06420FEF743FE2046FFF7C5
:10327000B7F884F81D030520207000212046FEF7D2
:1032800099FD607180212046FEF794FD2071014672
:10329000A07994F81D230092CDE9015094F81C33D5
:1032A00080222046FFF740FFA07994F81D1300917B
:1032B000CDE9015094F81C33617900222046FFF7D4
:1032C00033FF61E02046FEF7B7FFD0BB84F81F5301
:1032D00094F83103012801D007203FE0277053E024
:1032E000D4F8C4236AB3012120469047F6E794F846
:1032F0003713204600F071F818BB09202EE0D4F8EF
:103300007813F1B1C4F8745394F8412304EB8001AD
:10331000D1F870130B79934201D1C4F87413401C97
:1033200010F0FF00F2D0D4F87403C8B181682046D1
:103330008847A8B906202070D4F8C423032120466A
:10334000904721E0D4F8740350B1016920468847C2
:103350008DF800009DF80000B0B90A20207013E03D
:10336000267011E0D4F8740370B141692046884793
:103370000AE02046FCF7BCFFD4F8740320B1C16812
:1033800020468847C4F874530020FEBD002211B1C6
:10339000D0F8783313B10222104670470123C0F8E9
:1033A0007833C0F87013F7E70246002092F83633FE
:1033B0008B4202D982F81F1370470220704782782F
:1033C000012A06D1002202740523437441828282BD
:1033D000C28200221146FEF74EBD8278012A06D134
:1033E000002202740923437441828282C282002235
:1033F0001146FEF740BD10B50446FFF773F80121F2
:103400002046FEF7E3FF002010BD000001290AD08E
:103410000548022906D0042903D0052903D1032138
:1034200000E0012101707047090000200020704772
:1034300030B58DB01546012449B1012909D00229C2
:1034400010D003290ED004240DB0204630BD002436
:10345000FAE701466A460948FFF7C2F90028F3D1A6
:10346000019808E001466A460448FFF7B9F90028C8
:10347000EAD1BDF808002860E9E70000E804002070
:1034800030B5054601248FB0880717D100930B464D
:1034900029460C48FFF721FC68B101AA29460948D2
:1034A000FFF79EF99DF81100042806D0282804D0C3
:1034B0003A2803D101E0002400E003240FB02046A5
:1034C00030BD0000E804002010B501460124034887
:1034D000FFF7D2FD00B10024204610BDE804002013
:1034E00030B5054601248FB088071BD100930B46E9
:1034F00029460E48FFF7D3FD78B101AA29460B48AB
:10350000FFF76EF99DF8110004280AD0272806D08D
:10351000282806D03A2805D103E0002402E002243E
:1035200000E003240FB0204630BD0000E804002076
:1035300010B50446C06840F04000E060204600F04E
:1035400005F84FF48030A063002010BD0146002232
:1035500000BF501C02460F4B984201D90320704710
:10356000086900F000400028F3D00022086940F00C
:103570000100086100BF501C0246064B984201D969
:103580000320ECE7086900F001000028F3D100BF38
:10359000E5E70000400D0300816821F00101816032
:1035A0000020704708B5D0F8402422F02E02009287
:1035B000D20405D4012909D1009941F4805103E0D6
:1035C00021B9009921F48051C0F84014002008BDB1
:1035D000816841F0010181600020704700211022C4
:1035E0000261054A491C914201D9032070470369D1
:1035F000DB06F7D400207047400D03000022202393
:1036000043EA811101610549521C8A4201D9032014
:10361000704703699B06F7D400207047400D0300F4
:10362000D0F8080480B2704708B5D0F84004009084
:10363000C0F3414008BD406900F00100704710B57B
:103640000246002302F5A06000EB41100068C0F3C1
:10365000814040B102F5A06000EB41100068C0F36A
:103660008140022852D102F5A06000EB41100068B1
:1036700040F0804402F5A06000EB41100460D06A85
:1036800080B2A8BB02F5A06000EB4110006820F0FA
:10369000004402F5A06000EB4110046002F5A06058
:1036A00000EB4110006840F0004402F5A06000EB20
:1036B0004110046002F5A06000EB4110006820F4A6
:1036C000004402F5A06000EB4110046000BF581CEC
:1036D0000346B0F57A7F00D909E002F5A06000EB5F
:1036E0004110006800F00040B0F1004FEFD061E001
:1036F000FFE702F5A06000EB4110006840F00044D5
:1037000002F5A06000EB4110046053E002F5A060F8
:1037100000EB4110006840F0804402F5A06000EB2F
:10372000411004604FF48260805880B2A8BB02F55B
:10373000A06000EB4110006820F0004402F5A0609A
:1037400000EB4110046002F5A06000EB411000683E
:1037500040F0004402F5A06000EB4110046002F567
:10376000A06000EB4110006820F4004402F5A06066
:1037700000EB4110046000BF581C0346B0F57A7F8F
:1037800000D909E002F5A06000EB4110006800F0EC
:103790000040B0F1004FEFD00CE0FFE702F5A06071
:1037A00000EB4110006840F0004402F5A06000EB1F
:1037B00041100460002010BDF0B5DDE906564FF061
:1037C000FF3C00EB4114059FC4F808C535B1012D3D
:1037D00015D0022D02D0032D1ED108E040F29D4CE1
:1037E00007E000BFD4F80CC54CF4807C12E040F236
:1037F0009D6CC4F80CC55FEA026CF3D40CE040F297
:10380000252CC4F80CC55FEA026C05D5D4F80CC5AC
:103810004CF4C07CC4F80CC5D0F818C44FF0010EAD
:103820000EFA01FE4CEA0E0CC0F818C4816941F092
:10383000007181614FF0FE5000EA83504FF4F04177
:1038400001EAC22108434FF4004101EA0221084382
:10385000022F10D05FF0000140EA41404FF44021B8
:1038600001EA85410843C6F30A010843C4F800058C
:10387000032D02D007E00121EEE7D4F8000540F067
:103880000050C4F800050020F0BD014640F214408D
:10389000405880B2704700002DE9F04705460C46BD
:1038A0004FF0000AD14600264FF48077B0462069D9
:1038B00068B1218920690844401EB0FBF1F086B24E
:1038C000BE4205DD3E4620897043206100E00126AE
:1038D000E07810B12089704320612069C0F31200A4
:1038E000384901EAC6410843A17A4FF0C04202EAD2
:1038F00041710843617805F5A06202EB411108614E
:103900004FF48160405900F0010080F0010A6078B6
:10391000114601EB4010006820F00052607801EB86
:1039200040100260607801EB4010006840EA4A7283
:10393000607801EB40100260607801EB4010D0F835
:10394000008028F0804848F00048607801EB401083
:10395000C0F80080E07888BB206978B3E07930B1A6
:10396000012813D0022803D003281ED10DE000BF88
:103970002069C01CC0F38F09E86A80B2484503D2B1
:10398000A86940F02000A86110E000BF2069C01CB9
:10399000C0F38F094FF48260405980B2484503D28A
:1039A000A86940F08060A86100E000BF00BF208AE5
:1039B00083B262782846E16800F016F90020BDE87D
:1039C000F08700000000F81F2DE9F0471746044675
:1039D00000252E46C0F8005E806B20F48020A06396
:1039E000A06B20F40020A0634FF0A049032B06D168
:1039F0004C4504D0D4F8000440F0040003E0D4F8AF
:103A0000000420F00400C4F8000410212046FFF751
:103A1000F5FD2046FFF7E2FD4FF0FF3807E000BF5D
:103A200004EB4510C0F80885C0F80C656D1CAF426A
:103A3000F6D801212046FFF7B5FDC820FCF70CFDA4
:103A4000A661C4F814804C4506D180206062084805
:103A5000A0620848C4F80001A06940F01000A0610D
:103A6000A06905490843A0610020BDE8F087000077
:103A700080006000E0004000080020A3D0F800248F
:103A800022F00302C0F80024D0F8002401F0030360
:103A90001A43C0F80024012902D0022903D006E00D
:103AA0004BF6803101E041F27071C0F8041400203F
:103AB0007047416980690840704710B5034600208F
:103AC000D21C920803F5805303E01C6841F8044BB4
:103AD000401C9042F9D3084610BD38B50446D0F8D2
:103AE000400420F02E00009040F48070C4F84004A0
:103AF0000A2004F58864FCF7AFFC009820F480707D
:103B00002060002038BD10B5C26822F0C042C260FB
:103B1000012901D021B107E0C16841F0005102E064
:103B2000C16841F08041C1603220FCF795FC002063
:103B300010BDF0B5054600270026A86820F001005A
:103B4000A86010212846FFF759FD2846FFF746FDDB
:103B5000002411E005F5A06000EB4410066846F073
:103B6000804626F0004626F4004605F5A06000EBEE
:103B700044100660601CC4B20F2CEBDD002423E06F
:103B800005F5A06000EB4410066846F0804646F05C
:103B9000004626F4004605F5A06000EB44100660E0
:103BA00000BF781C0746B0F57A7F00D909E005F51B
:103BB000A06000EB4410006800F00040B0F1004F3E
:103BC000EFD000BF601CC4B20F2CD9DD4FF0FF3125
:103BD00040F21440415108466861A86840F0010075
:103BE000A8600020F0BD000010B50024DB1C9B087D
:103BF00000EB023000F5805004E000BF51F8042BC8
:103C00000260641C9C42F9D3002010BDFEE7000056
:103C10000FB4054B10B503A9044A029800F02CF824
:103C200010BC5DF814FB0000D1510008000000201A
:103C30000FB4084B10B504A902AA039800F01CF8B1
:103C4000044602A9002000F0F3F8204610BC5DF8FD
:103C500014FB0000313E000802E008C8121F08C132
:103C6000002AFAD170477047002001E001C1121FFD
:103C7000002AFBD1704700002DE9FF4F8BB09A4618
:103C80000F460546002606E025280BD052460D9922
:103C900090476D1C761C28780028F5D10FB030466F
:103CA000BDE8F08F0024A0460122604900E00443F3
:103CB00015F8013F203B02FA03F00842F7D12878BB
:103CC0002E2817D115F8010F44F004042A280ED02D
:103CD0006FF02F022878A0F1300109290AD808EBEB
:103CE000880102EB410100EB01086D1CF2E757F877
:103CF000048B6D1C287869283ED006DC0028CDD0C6
:103D000063280BD0642804D136E0732810D07528BE
:103D10004BD052460D999047761C85E017F8040B5E
:103D20008DF8000000208DF80100E946012003E035
:103D300057F8049B4FF0FF3061074FF0000401D4A7
:103D40000AE0641C44450DDA8442FADB19F80410D9
:103D50000029F6D106E0641C8442FCDB19F804104B
:103D60000029F8D1264404E019F8010B52460D99B8
:103D70009047641EF8D257E001CF4FF00A0B00289D
:103D800002DA40422D2102E0210504D52B218DF8D5
:103D90002410012103E0E10705D02021F7E70DF110
:103DA000200908910CE00021F9E701CF4FF00A0B40
:103DB000F9E75946FCF762FA01F1300209F8012DE2
:103DC0000028F6D1ADEB090000F1200B600701D40B
:103DD0004FF00108D84502DDA8EB0B0000E0002001
:103DE0008046002406E009A85246005D0D999047E0
:103DF000641C761C08988442F5DB04E030205246AF
:103E00000D999047761CB8F10001A8F10108F5DC86
:103E100005E019F8010B52460D999047761CBBF14D
:103E20000001ABF1010BF4DC6D1C34E70928010043
:103E30000A68531C0B6010707047000010B50446F0
:103E4000002084F80402401EC4F82C02204601F031
:103E5000BBFB08B1032010BDB4F8FE01A0F52A4158
:103E6000553901D0022010BD94F83600B4F837104F
:103E700040EA01210848B0EB012F08D094F8521015
:103E8000B4F8532041EA0221B0EB012F01D1002008
:103E900010BD012010BD000000464154F0B50022C5
:103EA000184B144602EB420653F8265085B1D0F861
:103EB0000072BD420DD103EB8605D0F808626F6831
:103EC000B74206D12D89B0F80662B54204D000E0B1
:103ED0000124521C022AE5D3022A01D079B904E058
:103EE0005CB9022909D01220F0BD02EB420003EBBD
:103EF00080004089B0F5807F01D00020F0BD102007
:103F0000F0BD0000340B002030B50021064A0C46FD
:103F100001EB410352F82350854201D142F823407E
:103F2000491C0229F4D330BD340B0020D0F82422E0
:103F3000D0F80002490A90F80202B1FBF0F0121D1D
:103F400002CA19B1884203D3401AF8E7002070472B
:103F5000116808447047D0F81422891E921E8A42C4
:103F600001D800207047D0F8282290F8020201FB07
:103F7000002070472DE9F0410F00054606D001F002
:103F80005BF902280BD20120BDE8F081D5F80C6264
:103F90001EB1D5F81402B04208D8012606E0411C33
:103FA000F2D0D5F814128142EED83E463446D5F808
:103FB0001402641CA04202D80224022E0AD3214615
:103FC000284601F039F938B1411CDDD00128DBD099
:103FD000B442ECD10020D7E76FF07042214628466A
:103FE00001F00DFB30B957B122463946284601F0A1
:103FF00006FB20B1012812D001242046C4E7C5F8F1
:104000000C42D5F81002411CF7D0401EC5F8100232
:1040100095F8050240F0010085F80502EDE74FF044
:10402000FF34EAE72DE9F04789460C6800E0641C9C
:1040300021782F29FBD05C29F9D0D0F818520B2217
:104040002021284601F0B9FA002001460B46082637
:10405000E25C5B1C202A35D92F2A33D05C2A31D070
:104060002E2A01D0B04208D3082E38D12E2A36D1BC
:1040700008200B268906090EEAE7802A05D3244F7B
:1040800041F003013A4412F8802C22A700E07F1C83
:1040900097F800C0BCF1000F02D09445F7D11EE0A4
:1040A000A2F14107192F02D841F0020107E0A2F165
:1040B0006107192F03D8203A41F00101D2B22A54E6
:1040C000401CC5E71C44C9F80040202A01D804223E
:1040D00000E0002218B12878E52803D004E006208B
:1040E000BDE8F08705202870082E01D18806010E52
:1040F00001F00300012801D142F01002C1F3810058
:10410000012801D142F00802EA720020E8E700002D
:1041100014590008222A2B2C3A3B3C3D3E3F5B5D64
:104120007C7F0000401E022815D20C4B00EB4002A1
:1041300003EB82014889B0F5807F05D008B1401EAD
:1041400080B2488110B104E00020FAE7002043F873
:10415000220000207047022070470000340B00202E
:104160002DE9F041B0F806620446761C30040F4693
:10417000000C37D0D4F8100298B3310773D1401C2B
:10418000C4F81002D4F80C12D4F8000231B190F83F
:104190000222521E12EA161F05D064E0B0F808028F
:1041A000B0421FD95FE001F047F8054601281ED94B
:1041B000681C3AD0D4F80002D0F81412A94249D8A9
:1041C0007FB1D4F80C12FFF7D5FE05000DD0012DFC
:1041D0000DD0681C29D0D4F8000201F049FB20BBA7
:1041E00007E0FFE70420BDE8F0810720FBE702209D
:1041F000F9E74FF400720021D4F8000201F0DDF974
:104200002946D4F80002FFF7A6FED4F800120027D2
:104210004FF00108C1F82C0211E000BF80F80482C1
:10422000D4F8000201F024FB08B10120DBE7D4F848
:104230000002D0F82C12491C7F1CC0F82C12D4F8B4
:10424000000290F80212B942E8D8D0F82C12C91B2B
:10425000C0F82C12C4F80C522946D4F80002FFF71B
:104260007AFEC4F81002A4F80662D4F8000206F040
:104270000F0100EB4110C4F814020020B3E7000066
:1042800070B504460D46042023E000BFD4F80002B8
:1042900001F09AF918BBD4F814120A78AAB1C97AB5
:1042A000E52A01F03F010AD02E2A08D00F2906D0B6
:1042B00021F0200108290AD00021A94212D00021B2
:1042C0002046FFF74DFF20B109E0042007E001215F
:1042D000F3E7D4F810120029D8D1002802D0002129
:1042E000C4F8101270BD70B50446002100F036F815
:1042F00010E0D4F81012D4F8000201F065F958B9B2
:10430000D4F814020078E52809D040B101212046F4
:10431000FFF726FF0028ECD0042809D009E0D4F8E4
:104320001012D4F8000201F04FF9050003D013E099
:104330000720054610E0D4F814022022002104F5DD
:10434000007401F03AF9D4E905010B2201F02CF9CF
:104350002168012081F80402284670BD70B5A0F8DC
:104360000612D0F808320D460446012B40D0D4F88E
:104370000002D0F8141299423AD933B990F80012D9
:10438000032906D1D0F824321BB190F802020601AD
:1043900014E0B0F80812A9422AD9D0F8240214E097
:1043A00000F04AFF0346401C20D0022B20D3D4F853
:1043B0000002D0F8140298421AD9AD1BD4F80002BA
:1043C000B5421946ECD2FFF7C6FDC4F80C3278B1FD
:1043D00000EB1510C4F81002D4F8000205F00F012C
:1043E00000EB4110C4F81402002070BD012070BD24
:1043F000022070BD084910B50B5C002253B90122A0
:104400000A540A1801EB8000127A406801681046CD
:1044100088470246104610BD4C0B002030B4054CB6
:10442000231804EB80001B7A406804691846A446F0
:1044300030BC60474C0B002030B4054D2C1805EB08
:104440008000247A406885682046AC4630BC6047CE
:104450004C0B0020044A111802EB8000097A4068D6
:1044600042680846104700004C0B002030B4054D50
:104470002C1805EB8000247A4068C5682046AC46BD
:1044800030BC60474C0B002010B5044600F0CCFB5C
:1044900000280DD1204601F01BFA002808D1D4F8DD
:1044A0002802FFF73FFE002802D10021C4F80012C5
:1044B00010BD10B5044601F00BFA00280AD1D4F85B
:1044C0001C1221B10846FFF72DFE002802D1002161
:1044D000C4F8001210BD00002DE9FC5F0D46044633
:1044E00001F0F6F95FEA000973D194F80702002899
:1044F0006FD1D4F8240201274FF0020A002869D0B6
:10450000691C33D0D4F80C02A84200D20546C4F886
:104510000852002D5CD02046691EFFF707FD0146BA
:10452000C4F81402D4F80002FFF715FD00287CD06F
:10453000D4F800126D1E91F80222521E02EA552292
:104540001518B4F80802C005E4D0D4F81822AA421D
:10455000E0D094F80602400646D591F80102012306
:104560002146FFF783FF002874D137E002C800918D
:10457000D4F810128346022509B30026AD1C019120
:104580008846761CD4F8000200F056FE0146012849
:104590004BD9481C5ED008F101008142F0D0009850
:1045A000854206D8CBF800600BF10400019A04C0E4
:1045B0008346D4F80002D0F814028842DDD8D4F83B
:1045C000240205600098854205D80021CBF8001030
:1045D000C2E09DE016E04FF01109BDE094F806023C
:1045E00020F0400084F80602D4F8000201232A4695
:1045F00090F801022146FFF71FFF00282AD1C4F8D6
:104600001852A9E0D4F80C02A84204D294F8061279
:10461000890700D405464FF00008D4F80802C4F812
:1046200008824DB3D4F8002200E06EE092F8021246
:104630004E0280B1691E401EB1FBF6F1B0FBF6F3ED
:10464000994208D3711E8843C4F808022D1AD4F881
:10465000141210E06EE0D4F8101251B90021104687
:10466000FFF788FC014601284FD0481C62D0C4F8EF
:104670001012C4F8141211BB31E000BF94F8060206
:104680008007D4F8000205D5FFF774FC010004D1BF
:10469000354616E000F0D0FD0146481C4AD00129FD
:1046A00033D9D4F80002D0F8140288422DD9C4F8C6
:1046B0001412D4F80802AD1B3044C4F80802B54205
:1046C000DCD8D4F808022844C4F80802E80506D06B
:1046D000D4F80002FFF73FFCB8B100EB5528B4F85E
:1046E0000802C0052CD0D4F81822424528D094F8EE
:1046F0000602400614D5D4F800020123214690F8A2
:104700000102FFF7B3FEA8B904E084F807A2022073
:10471000BDE8FC9F94F8060220F0400084F80602F1
:10472000D4F800020123424690F801022146FFF727
:1047300083FE18B184F807720120E9E7C4F81882F3
:10474000D4E98201884207D9C4F80C0294F8060221
:1047500040F0200084F806024846D9E72DE9F741E9
:1047600081B0904602980090684600F0F0FD040089
:1047700003D50B2004B0BDE8F0810E4E002756F89B
:10478000245025B12846FFF7BFFB85F80072019839
:10479000002801D080F8007246F8240002D0B8F159
:1047A000010F01D00020E5E7002202A901A800F0D6
:1047B00083FBDFE7400000202DE9F747ADF50B7DD7
:1047C00006000ED04FF0000802F01F0727F001028C
:1047D0008CA980A8C6F8008200F06EFB040005D00A
:1047E000B4E009200DF50E7DBDE8F08788A886901D
:1047F00068468C9900F08CFC859D04000BD11DB19E
:10480000780803D0012102E0062404E00021684674
:10481000FFF744FB044617F01C0F5FD04FF0010A6E
:10482000D4B1042C13D100204A4902E0401C0228D4
:1048300005D200EB400251F82220002AF6D10228CE
:1048400004D06846FFF74FFD044600E01224859D22
:1048500047F0080754B179E0E87A10F0110F01D061
:10486000072473E0780701D508246FE0380743D5A3
:1048700000F043FDA873010AE973010C2974000ECE
:10488000687485F80B8085F81C8085F81D8085F894
:104890001E8085F81F802946809800F0C7FD81465C
:1048A0000021284600F081FF8099B9F1000F81F8BE
:1048B00004A21FD080984946D0F82CA200F03EFFF9
:1048C000040043D18099A9F10100C1F80C025146BE
:1048D000809800F079FE04000AD037E0B4BBE87A93
:1048E000C10601D5042431E0B90701D5C007B7D10D
:1048F000380701D547F020078098D0F82C02C6E988
:104900008705780801D0012100E00021684600F009
:104910003DFDC6F82802D8B186F8067286F80782EF
:104920004746294606F50076809800F07FFD306105
:10493000287FD5F81D1040EA0120C6E90270B76152
:10494000776280983060B0F80602B080204649E770
:104950000224FBE7340B002073B584B0050009D0B6
:10496000002205A9684600F0A7FA04004FF00006EF
:1049700003D037E0092006B070BD0098C5F80002EA
:1049800001A8C5F818022846059900F0C1FB0400EB
:1049900015D1D5F8141239B1C87AC00621D50098BE
:1049A00000F044FDC5F8080200980021B0F80602A6
:1049B000A5F804022846FFF7D1FC040002D0042C1D
:1049C0000FD00FE0D5F8080240B10021284600F0D2
:1049D000DDFCC5F81C0238B9122403E0C5F81C62DE
:1049E00002E00524C5F800622046C4E70FB42DE9B3
:1049F000F0479AB00DF190090290002003900DF15C
:104A000054080490239810F8011B2390002976D0B5
:104A1000252903D002A800F06EFEF3E7002510F868
:104A2000011B2E462390302902D02D2902D010E000
:104A3000012500E0022510F8011B239009E000BFCA
:104A400006EB860001EB40062398303E10F8011B70
:104A50002390A1F130000928F2D96C2901D04C290A
:104A600005D1239845F0040510F8011B2390002977
:104A700045D0A1F161000A46192801D8203AD2B2E6
:104A80004F2A42D006DC422A3DD0432A38D0442A5D
:104A9000C0D13CE0532A0DD0552A38D0582AB9D17C
:104AA0001023680701D4442A33D059F8040B442A50
:104AB00031D035E059F8047B002400E0641C385DF7
:104AC0000028FBD1A80704D50CE0202102A800F0A3
:104AD00012FE2046641CB042F7D303E002A87F1CFC
:104AE00000F009FE39780029F8D103E0202102A85E
:104AF00000F001FE2046641CB04283D2F6E753E08A
:104B000019F8041B86E70223CBE70823C9E70A2329
:104B1000C7E759F8040B002802DA404245F00805BF
:104B200000244746B0FBF3F203FB1202B0FBF3F0A4
:104B3000D2B2092A05D9782914D04FF0070C624463
:104B4000D2B230323A55641C08B1102CEAD328078F
:104B500003D52D2008F80400641C2746E80704D07C
:104B6000302003E04FF0270CE9E72020824603E0E5
:104B7000514602A800F0BFFDA80703D438467F1CA9
:104B8000B042F5D34546641E02A8295D00F0B3FD8E
:104B9000002CF8D103E0514602A800F0ACFD3846E5
:104BA0007F1CB042A9D2F6E70398002810DB02462A
:104BB00001AB05A9029800F093F848B90199039850
:104BC000884205D104981AB0BDE8F0075DF814FBDF
:104BD0004FF0FF30F7E7FEB50E46044600F078FED2
:104BE000002818D1C6B1C4F818D200212046FFF71A
:104BF00047FB0025042814D000280CD1314620465C
:104C000000F07DFB00212046FFF7AAFA042802D11C
:104C10000020C4F81052FEBD00212046FFF79EFB85
:104C2000FEBDC4F81052E9E770B5044600F050FE2E
:104C3000002811D194F806128A060DD5480612D51F
:104C4000D4F800020123214690F80102D4F818227A
:104C5000FFF70CFC08B1012070BD94F8060220F0AB
:104C6000400084F80602D4F81C12D4F8000200F0C8
:104C7000ABFC0028F0D1D4F82052E87A40F02000B4
:104C8000E87294F80C022877B4F80C02000A6877EE
:104C9000D4F80C02000CA877D4F80C02000EE877C8
:104CA000D4F81012284604F5007400F07EFD00F0E0
:104CB00024FBA875010AE975010C2976000E6876B7
:104CC0000020A874E874A07920F02000A071216869
:104CD000012081F804022068BDE8704000F06DBD3D
:104CE0002DE9F84F8846002199461546044619607B
:104CF00000F0EEFD002808D194F80702002804D146
:104D000094F80602800702D40720BDE8F88FD4F893
:104D10000802012741194FF0020A81427BD3B9E012
:104D2000D4F80812C80577D1D4F8002292F802020C
:104D3000401E00EA512010F0FF061ED131B1D4F818
:104D4000240240B12046FFF7F1F809E0D4F8100240
:104D500040B9002101E0D4F814121046FFF70AF917
:104D6000002858D001283DD0411C6CD0C4F8140252
:104D7000D4F8101209B9C4F8100294F806024006DB
:104D800010D5D4F800020123214690F80102D4F88E
:104D90001822FFF76BFBE8BB94F8060220F04000F6
:104DA00084F80602D4F81412D4F80002FFF7D3F8FE
:104DB000C0B130440090680A5FEA000B30D0D4F8EC
:104DC000000206EB0B0290F802128A4201D9A1EB15
:104DD000060B90F801025B464146009AFFF746FB3E
:104DE000C0B903E084F807A202208EE7D4F81812B5
:104DF0000098081A58450CD208EB40214FF4007275
:104E0000204600F0D1FB94F8060220F0400084F820
:104E1000060202E017E040E01CE04FEA4B262DE0DE
:104E2000D4F818120098814211D0D4E98201884246
:104E30000DD2D4F800020123214690F80102009A15
:104E4000FFF7FAFA18B184F8077201205DE70098BD
:104E5000C4F81802B4F80802C0F30800C0F50076E0
:104E6000AE4200D92E4620443246414600F09CFB1B
:104E700094F8060240F0400084F80602D4F80802D4
:104E8000B0443044C4F80802D9F800008119AD1BC1
:104E9000C9F80010002D7FF443AFD4E982018842A5
:104EA00001D9C4F80C0294F8060240F0200084F8FE
:104EB0000602002029E700002DE9FF474FF0000916
:104EC0000746C0F800901646084600F040FA050074
:104ED00003D50B2004B0BDE8F0878A4850F8254080
:104EE000A4B13C6094F8000228B194F80102FFF7E5
:104EF000B1FAC1070CD084F80092E8B284F801023C
:104F0000FFF778FAC10708D00320E3E70C20E1E7B8
:104F10000EB1400704D40020DCE71EB1400701D5E4
:104F20000A20D7E7002529462046FEF787FF0128FB
:104F300023D100204FEA0D0704EB001191F8C221A4
:104F400001F5DF712AB10A7AD1F8091042EA01218C
:104F500000E0002147F82010401C0428ECD3002674
:104F600057F826502DB129462046FEF767FF08B9AD
:104F700009E00220761C042EF2D3032801D0E0BB06
:104F800001E00120A6E7B4F80B00B0F5007F60D186
:104F9000E28A2AB994F82400D4F8251040EA0122C4
:104FA000C4F81822217C84F80312012901D00229B7
:104FB0004FD1607B514384F80202F0B1431E184286
:104FC00047D1B4F81130A4F808321E0741D1B4F823
:104FD00013602EB994F82060D4F8217046EA0726B1
:104FE000B4F80EC0BCF1000F33D00CEB010707EB97
:104FF0001317BE422DD3F61B00E02AE0B6FBF0F0FB
:1050000038B3012640F6F678404500D302264FF625
:10501000F678404500D30326801C2F44C4F828723C
:10502000AC44C4F81402C4E9875C032E13D083B1E6
:105030006144C4F82412022E19D000F0010100EBE3
:10504000400001EB500000BF00F2FF10B2EB502F08
:105050000FD20D203EE7002BFBD194F82C10D4F892
:105060002D30800041EA0321C4F82412ECE740000F
:10507000EAE74FF0FF30C4F81002C4F80C028020B9
:1050800084F80502032E30D1208E01282DD1204630
:10509000691C00F099FA40BB84F80592B4F8FE014F
:1050A000A0F52A41553920D12078D4F8011040EAE2
:1050B00001201549884218D194F8E401D4F8E5118B
:1050C00040EA0120114988420FD194F8E801D4F850
:1050D000E91140EA0120C4F8100294F8EC01D4F878
:1050E000ED1140EA0120C4F80C02064984F8006280
:1050F000091F0888401C0880A4F806022046FEF715
:1051000003FF08E740000020525261417272416182
:1051100073B50446019908782F2801D05C2801D185
:10512000491C01910025C4F80852019800782028F4
:1051300006D200212046FFF711F9C4F814527CBDB5
:1051400001A92046FEF76EFF0028F8D10021204675
:10515000FFF704F920BB00BFD4F81012D4F8000206
:1051600000F032FAE0B9D4F814120A7832B1CA7AEF
:1051700012070FD40A23D4F8182203E004200FE00A
:105180005B1E06D311F8015B12F8016BAD1BF7D063
:1051900000E02DB100212046FEF7E2FF0028DBD021
:1051A000D4F81812C97A28B10428C8D14907C6D43E
:1051B00005207CBD4907FCD4D4F81412C87AC00677
:1051C000F6D5D4F8000200F031F9C4F80802B7E7C8
:1051D00013B54FF47A73012269460248FCF7FEF8D2
:1051E0001CBD00004C00002010B5002821D0114B40
:1051F0000022001F196803E0814203D80A4649686B
:105200000029F9D152B11368841A9C4204D1006874
:1052100018441060104602E0506000E0186039B198
:1052200002680B1A934203D10B681A440260496862
:10523000416010BD440000202DE9F0410D460446B8
:1052400002290DD3D4F81402A84209D994F8000217
:105250004FF0FF36012807D002282AD0032836D085
:1052600001263046BDE8F081D4F8200205EB550751
:1052700000EB5721204600F0A7F90028F1D1C7F331
:1052800008007F1C14F80080D4F8200200EB57219E
:10529000204600F099F90028E3D1C7F30800215C0B
:1052A00048EA0120E90701D00609DAE7C0F30B0656
:1052B000D7E7D4F8200200EB1521204600F084F94E
:1052C0000028CED1E8B204EB40000688C9E7D4F844
:1052D000200200EBD511204600F076F90028C0D15D
:1052E00040F2FF1000EA850020440178D0F8010068
:1052F00041EA002020F07046B3E70020704730B547
:10530000D0F8103201F10902F3B1D0F814020023F1
:105310002E25C45C5B1C202C08D0052C00D1E52474
:10532000092B01D102F8015B02F8014B0B2BF0D3E2
:10533000C37A0B72037FD0F81D4043EA04230B604D
:10534000038B8B80C08AC8800020107030BD10B5E0
:1053500004464FF0FF302268002A13D0114600E0C7
:10536000491C0B78212B0ED33A2BF9D112F8013BB3
:10537000303B0A2B06D28A4204D1002B02D1491CB1
:105380001846216010BD002010BD0000F0B5034696
:10539000254AD3F80042002000EB400552F8256072
:1053A000A6420BD102EB8505D3F808626F68B742BD
:1053B00004D12D89B3F80662B54202D0401C022800
:1053C000EAD302281AD1002002E0401C022805D2AC
:1053D00000EB400552F82550002DF6D1022815D0DB
:1053E00000EB400542F8254002EB8504D3F8086243
:1053F0006660B3F80632238100236381002900EB45
:10540000400102EB8101498902D019B10020F0BDB1
:10541000491C01E04FF4807100EB400302EB830272
:10542000401C5181F0BD0000340B00200246488B27
:1054300092F80022032A02D1898A40EA014070478B
:105440009AB00024FBF7D6FAFCF762FBFCF7DEFA11
:10545000FCF71CFBFCF7CCFA25482449002201602C
:105460004FF4E131C0E901120C21C260C0E904210E
:105470008261C261FBF740FF1EA0FEF7C9FB00225C
:105480001E491F48FFF76AF902E000BFFCF71EFB48
:105490001C48FDF787FA0028F8D001211AA0FAF776
:1054A0004DFF1A4DFCF712FB122219A11748FFF706
:1054B00083F9B0B91548D5F80C12FFF70DF822465C
:1054C000611CCCB215A16846FEF7B2FB69460F48D5
:1054D000FFF78CFA0D48FEF7D7FF214613A0FEF721
:1054E00097FB6420FAF7B8FFDCE7000000440040B7
:1054F0004C00002073616C616D000000050000200D
:105500008C000020E8040020303A2F00BC0200206C
:10551000746573742E747874000000000D0A6E7543
:105520006D626572203D20256400000066696C652F
:10553000207072696E742025640D0A00F0B50B307E
:10554000154D20F007010024144A0FE003688B4238
:105550000BD38B4205D95E1A43184768C3E900672D
:1055600000E04368136002C004E0021D10680028D8
:10557000ECD12046002802D1286808B10020F0BDF7
:10558000064A07481060074A121A22F00702C0E9CB
:10559000002401202860D7E74800002044000020B4
:1055A0005C0B0020582B002004E000BF11F8013BE9
:1055B00000F8013B521EF9D27047C9B201E000F871
:1055C000011B521EFBD2704770B50546D0F82C0265
:1055D0000C460026A04210D0284600F049F90600EB
:1055E0000BD195F80102012322462946FEF724FF3C
:1055F00008B1741E0126C5F82C42304670BD2DE955
:10560000F04717460D460446022903D3D4F8140286
:10561000A84202D80220BDE8F08794F8001207F0F3
:10562000FF084FF00109012920D0022950D0032999
:10563000F0D1D4F8200200EBD5112046FFF7C4FFCB
:105640000028E8D140F2FF1101EA85010A194FF064
:105650007043D2F8011003EA0121394311700B0A9B
:1056600053700B0C9370090ED17041E0D4F82002F6
:1056700005EB550600EB56212046FFF7A5FF002855
:10568000C9D1C6F30800761C2044E90703D001788D
:1056900068F31F1100E03946017084F80492D4F8D1
:1056A000200200EB56212046FFF78EFF0028B2D1E2
:1056B000C6F308012144EA0702D0C7F3071205E048
:1056C0000A78C7F3032302F0F0021A430A700FE0CE
:1056D000D4F8200200EB15212046FFF775FF0028C3
:1056E00099D1E9B204EB41013A0A81F800804A708D
:1056F00084F804928FE7F8B50E4604460A2902D1D1
:105700000D21FFF7F8FF6568002D16DB60196D1C91
:1057100006733D2D0DDB6B462A4604F10C01206813
:10572000FFF7DEFA0098A84201D1002501E04FF012
:10573000FF356560A068401CA060F8BD2DE9F04110
:105740000F460646022917D3D6F81402B84213D9D9
:10575000002523E039463046FFF76EFD040021D0D6
:10576000012C09D0601C09D0002239463046FFF7D1
:1057700046FF050016D103E0022513E0012511E0E4
:10578000D6F81002411C08D0401CC6F8100296F84A
:10579000050240F0010086F805022746D6F81402FB
:1057A000B842D7D82846BDE8F08181760A0AC27689
:1057B0000A0C0275090E4175704770B5044600F079
:1057C00057F8050052D194F80002032846D194F806
:1057D0000502012842D1420200212046FFF7EDFEDA
:1057E000552084F8FE01AA2084F8FF015220207081
:1057F00060706120A0704121E170722284F8E42180
:1058000084F8E52184F8E61184F8E701D4F8100261
:1058100084F8E801010A84F8E911010C84F8EA111E
:10582000000E84F8EB01D4F80C0284F8EC01010AB4
:1058300084F8ED11010C84F8EE11000E84F8EF01EC
:10584000D4F81C220123521CC4F82C2294F8010223
:105850002146FEF70BFE002084F80502002294F892
:1058600001021146FEF7DAFD00B10125284670BDA0
:105870002DE9F041044690F80402002728B3D4F83B
:105880002C5294F8010201232A462146FEF7EEFD30
:1058900008B1012719E0002084F80402D4F820029E
:1058A000D4F81812281A88420FD294F803620AE03A
:1058B000D4F818020123054494F801022A4621462F
:1058C000FEF7D4FD761E022EF2D23846BDE8F081F6
:1058D00010B588B1D0F8001271B191F800225AB118
:1058E000B1F80622B0F80402824205D191F8010213
:1058F000FEF7B0FDC00700D0092010BD0000000079
:10590000000000000102030406070809000000006F
:1059100001020304809A90B68EB78F80D2D3D4D878
:10592000D7DE8E8F909292E299E3EAEB59999A9D95
:105930009C9D9E9FB5D6E0E9A5A5A6A7A8A9AAAB60
:10594000AC21AEAFB0B1B2B3B4B5B6B7B8B9BABBAB
:10595000BCBDBEBFC0C1C2C3C4C5C7C7C8C9CACB0E
:10596000CCCDCECFD0D1D2D3D4D5D6D7D8D9DADBFF
:10597000DCDDDEDFE0E1E2E3E5E5E6E7E7E9EAEBEF
:10598000EDEDEEEFF0F1F2F3F4F5F6F7F8F9FAFBDE
:10599000FCFDFEFF0004000200018000400020002A
:1059A00010000800040002000000008000400020F9
:1059B0000010000800400020001000080004000251
:1059C0002D340008C934000881340008E13400088F
:1059D000313400084D534300F859000800000020FE
:1059E0004C000000583C0008445A00084C000020BD
:1059F0000C6B0000683C0008000000000000000084
:105A00000000000001000000100000000000000085
:105A100000A24A04D45900080800000059280008D0
:105A20000F28000875270008BB29000875300008FA
:105A30000000000000000000000000000000000066
:045A40000000000062
:04000005080001519D
:00000001FF
