:020000040800F2
:1000000090060020ED010008F5010008F701000846
:10001000F9010008FB010008FD01000800000000D4
:10002000000000000000000000000000FF010008C8
:100030000102000800000000030200080502000899
:10004000070200080702000807020008070200086C
:10005000070200080702000807020008070200085C
:10006000070200080702000807020008070200084C
:10007000070200080702000807020008070200083C
:10008000070200080702000807020008070200082C
:10009000070200080702000807020008070200081C
:1000A000070200080702000807020008070200080C
:1000B00007020008070200080702000807020008FC
:1000C00007020008070200080702000807020008EC
:1000D00007020008070200080702000807020008DC
:1000E00007020008070200080702000800000000DD
:1000F0000000000000000000000000000000000000
:1001000000000000000000000702000807020008CD
:10011000070200080702000807020008070200089B
:10012000070200080702000807020008070200088B
:10013000070200080702000807020008070200087B
:10014000070200080702000807020008070200086B
:1001500000F002F800F03AF80AA090E8000C82449F
:100160008344AAF10107DA4501D100F02FF8AFF27C
:10017000090EBAE80F0013F0010F18BFFB1A43F085
:10018000010318476816000088160000103A24BFC3
:1001900078C878C1FAD8520724BF30C830C144BFEC
:1001A00004680C607047000000230024002500262E
:1001B000103A28BF78C1FBD8520728BF30C148BFCA
:1001C0000B6070471FB51FBD10B510BD01F0D2FA0E
:1001D0001146FFF7F7FF00F047F801F0F0FA03B41B
:1001E000FFF7F2FF03BC01F0F5FA00000948804771
:1001F00009480047FEE7FEE7FEE7FEE7FEE7FEE709
:10020000FEE7FEE7FEE7FEE704480549054A064B20
:1002100070470000A9090008510100089000002063
:1002200090060020900200209002002070B5044645
:100230000D462B464FF404722146012000F01FFAB0
:100240002146012000F06FFA70BD70B504460D46DE
:100250000121204600F0C1F82B464FF404722146DC
:10026000012000F051F970BDADF5047D00F09CFB5C
:100270000121084601F01BF800F01EF800F08DF88F
:1002800040224FF40471684601F020FA69460A20C2
:10029000FFF7CCFF4FF40471684601F01FFA69467E
:1002A0000A20FFF7D2FF0A2000F0CBFA69460A20A5
:1002B000FFF7CBFF00BFFEE700B587B0012130207C
:1002C00000F0F5FF0121C80300F0FEFF0121FC480A
:1002D00000F053FD4FF4E050ADF8040018208DF805
:1002E000070003208DF8060001A9F64800F076FC0F
:1002F0004FF40060ADF8040010208DF8070001A94C
:10030000F14800F06BFC4FF40061EF4800F011FD84
:100310000020ADF808004FF48270ADF80A0000200C
:10032000ADF80C000220ADF80E000120ADF8100071
:100330004002ADF812000820ADF814000020ADF81E
:1003400016000720ADF8180002A9E04801F03AF8BD
:100350000121DE4801F0FCF807B000BD70B504468D
:1003600000252146D94801F024F900BF0121D748D2
:1003700001F072F90028F9D0D44801F01CF9C5B297
:10038000284670BD10B5FF20FFF7E8FF10BD10B57F
:1003900004462046FFF7E2FF10BD70B54FF4006140
:1003A000C94800F0C6FC4FF40061C74800F0C3FC28
:1003B0005720FFF7ECFF0446FF20FFF7E8FF044655
:1003C000C4F3C205C248405DC24908704FF40061E1
:1003D000BD4800F0AEFC204670BD70B504460D4629
:1003E0004FF40061B84800F0A4FC4FF40061B64837
:1003F00000F0A1FC012D17D15320FFF7C8FFB5492C
:100400000978C1F1100124FA01F1C8B2FFF7BFFF6A
:10041000B0490978083904FA01F1C8B2FFF7B7FF0B
:100420000020FFF7B4FF18E0022D16D15520FFF78A
:10043000AEFFA8490978C1F1100124FA01F1C8B250
:10044000FFF7A5FFA3490978083904FA01F1C8B2FA
:10045000FFF79DFF0020FFF79AFF4FF400619A48D5
:1004600000F067FC4FF40061974800F064FC00BFA7
:10047000FFF793FF10F0800FFAD04FF4006192481D
:1004800000F057FC70BD70B505460C464FF4006196
:100490008D4800F04EFC4FF400618B4800F04BFC9F
:1004A000012D14D15420FFF772FF0020FFF76FFFDA
:1004B000C4F30720FFF76BFFE0B2FFF768FF0020EF
:1004C000FFF765FF0020FFF762FF064615E0022DEB
:1004D00013D15620FFF75BFF0020FFF758FFC4F34E
:1004E0000720FFF754FFE0B2FFF751FF0020FFF7AE
:1004F0004EFF0020FFF74BFF06464FF400617248A5
:1005000000F017FC304670BD2DE9F04107460D465E
:1005100090461E464FF400616B4800F00AFC4FF411
:100520000061694800F007FC012F1AD15420FFF741
:100530002EFF0020FFF72BFFC5F30720FFF727FF53
:10054000E8B2FFF724FF0020FFF721FF002405E0B9
:100550000020FFF71CFF3070761C641C4445F7D365
:100560001BE0022F19D15620FFF711FF0020FFF7E3
:100570000EFFC5F30720FFF70AFFE8B2FFF707FFFA
:100580000020FFF704FF002405E00020FFF7FFFE36
:100590003070761C641C4445F7D34FF400614A4820
:1005A00000F0C7FBBDE8F08170B505460C464FF47E
:1005B0000061454800F0BDFB4FF40061424800F087
:1005C000BAFB012D0DD18420FFF7E1FE0020FFF7DB
:1005D000DEFEC4F30720FFF7DAFEE0B2FFF7D7FE36
:1005E0000EE0022D0CD18720FFF7D1FE0020FFF78F
:1005F000CEFEC4F30720FFF7CAFEE0B2FFF7C7FE46
:100600004FF40061304800F094FB70BD70B50546B2
:100610000C4616464FF400612B4800F08AFB4FF45D
:100620000061294800F087FB012D10D18420FFF7DD
:10063000AEFE0020FFF7ABFEC4F30720FFF7A7FED6
:10064000E0B2FFF7A4FE3046FFF7A1FE11E0022D55
:100650000FD18720FFF79BFE0020FFF798FEC4F321
:100660000720FFF794FEE0B2FFF791FE3046FFF758
:100670008EFE4FF40061144800F05BFB70BD2DE965
:10068000F04107460D4690461E464FF400610E4865
:1006900000F04FFB4FF400610B4800F04CFB012FC2
:1006A00022D18420FFF773FE0020FFF770FEC5F310
:1006B0000720FFF76CFEE8B2FFF769FE002410E0A8
:1006C000001120000010014000140140003C0040D7
:1006D000E2170008000000203078FFF758FE761C73
:1006E000641C4445F8D317E0022F15D18720FFF78B
:1006F0004EFE0020FFF74BFEC5F30720FFF747FE35
:10070000E8B2FFF744FE002404E03078FFF73FFE34
:10071000761C641C4445F8D34FF400615D4800F03A
:1007200008FBBDE8F08170B505460C464FF400614A
:10073000584800F0FEFA4FF40061564800F0FBFA0A
:10074000012D17D18320FFF722FE53490978C1F10B
:10075000100124FA01F1C8B2FFF719FE4E490978D9
:10076000083904FA01F1C8B2FFF711FE0020FFF7C3
:100770000EFE18E0022D16D18620FFF708FE46492E
:100780000978C1F1100124FA01F1C8B2FFF7FFFDA9
:1007900041490978083904FA01F1C8B2FFF7F7FDB9
:1007A0000020FFF7F4FD4FF400613A4800F0C1FA71
:1007B0004FF40061374800F0BEFA00BFFFF7EDFDCF
:1007C00010F0800FFAD04FF40061324800F0B1FA17
:1007D00070BD70B504460D464FF400612D4800F021
:1007E000A8FA4FF400612B4800F0A5FA6820FFF743
:1007F000CEFD29490978C1F1100124FA01F1C8B2EE
:10080000FFF7C5FD24490978083904FA01F101EB25
:100810001521C8B2FFF7BBFDE8B2FFF7B8FD002015
:10082000FFF7B5FD0020FFF7B2FD0020FFF7AFFD99
:100830000020FFF7ACFD4FF40061164800F07BFA92
:1008400070BD10B504464FF40061124800F071FA13
:100850004FF400610F4800F06EFA8120FFF797FD1A
:100860000D490978C1F1100124FA01F1C8B2FFF76E
:100870008EFD09490978083904FA01F1C8B2FFF779
:1008800086FD0020FFF783FD4FF40061014800F072
:1008900050FA10BD00140140000000200CB50020EB
:1008A000019000909148006840F480308F490860C2
:1008B00000BF8E48006800F4003000900198401C92
:1008C0000190009818B90198B0F5A06FF1D1874850
:1008D000006810F4003F02D00120009001E00020E9
:1008E0000090009801285AD18148006840F010001B
:1008F0007F4908600846006820F003000860084649
:10090000006840F002000860784840687749486015
:100910000846406848600846406840F48060486087
:100920000846C06A734908407049C8620846C06AF0
:10093000714908436D49C8620846006840F080600C
:10094000086000BF6948006810F0006FFAD067487F
:10095000406820F47C10654948600846406840F4CF
:10096000E81048600846006840F08070086000BFEA
:100970005E48006810F0007FFAD05C48406820F0C4
:1009800003005A4948600846406840F00200486049
:1009900000BF5648406800F00C000828F9D10CBD93
:1009A00010B5FFF77BFF10BD10B55048006840F050
:1009B00001004E49086008464068504908404B49CC
:1009C0004860084600684E490840484908600846A3
:1009D000006820F4802008600846406820F4FE008B
:1009E00048600846006820F0A05008604FF47F007F
:1009F00088600020C862FFF7D3FF4FF000604149D4
:100A0000086010BDF0B50021002000230024002262
:100A100000250026354F7F6807F00C0121B104291D
:100A200008D008294BD10BE0374FDFF8E0C0CCF8F5
:100A300000704AE0364FDFF8D4C0CCF8007044E0D4
:100A40002A4F7F6807F47010284F7F6807F48033BF
:100A5000800C0D2801D0801C00E0062033B92D4FFA
:100A60004743DFF8A8C0CCF8007027E01F4FFF6AAB
:100A700007F480341D4FFF6A07F00F077A1C44B952
:100A8000234FB7FBF2F74743DFF880C0CCF8007084
:100A900014E0164FFF6AC7F303177D1C134FFF6A5C
:100AA000C7F30327BE1C1A4FB7FBF5F77743B7FB15
:100AB000F2F74743DFF854C0CCF8007005E0124F5E
:100AC000DFF848C0CCF8007000BF00BF074F7F6858
:100AD000C7F30317DFF840C01CF807100B4F3F683F
:100AE000CF40DFF828C0CCF80070F0BD0010024005
:100AF0000020024000F0FEFF440601000000FFF06D
:100B0000FFFFF6FE08ED00E000127A00040000206E
:100B100040787D0100093D000800002010B5044622
:100B2000CA48844208D10121042000F0E7FB0021DB
:100B3000042000F0E3FB46E0C548844208D10121CF
:100B4000082000F0DBFB0021082000F0D7FB3AE092
:100B5000C048844208D10121102000F0CFFB0021C1
:100B6000102000F0CBFB2EE0BB48844208D10121CD
:100B7000202000F0C3FB0021202000F0BFFB22E07A
:100B8000B648844208D10121402000F0B7FB002183
:100B9000402000F0B3FB16E0B148844208D10121A7
:100BA000802000F0ABFB0021802000F0A7FB0AE0D2
:100BB000AC48844207D10121801500F09FFB002141
:100BC000A01500F09BFB10BD10B50121084600F0F8
:100BD00095FB0021012000F091FB10BD2DE9F041B3
:100BE000024600250026002000230024002791F85B
:100BF00003C00CF00F0591F803C01CF0100F03D0D8
:100C000091F802C04CEA050591F800C0BCF1000F54
:100C100031D0146800202BE04FF0010C0CFA00F3E7
:100C2000B1F800C00CEA03069E4220D183004FF0C9
:100C30000F0C0CFA03F7BC4305FA03FC4CEA04045E
:100C400091F803C0BCF1280F06D14FF0010C0CFA4B
:100C500000FCC2F814C00AE091F803C0BCF1480FD0
:100C600005D14FF0010C0CFA00FCC2F810C0401C7A
:100C70000828D1D31460B1F800C0BCF1FF0F34DDF7
:100C8000546800202EE000F1080C4FF0010808FA2B
:100C90000CF3B1F800C00CEA03069E4221D1830098
:100CA0004FF00F0C0CFA03F7BC4305FA03FC4CEAB7
:100CB000040491F803C0BCF1280F05D100F1080C21
:100CC00008FA0CF8C2F8148091F803C0BCF1480F80
:100CD00007D100F1080C4FF0010808FA0CF8C2F82F
:100CE0001080401C0828CED35460BDE8F0814FF638
:100CF000FF710180022181700421C170704702469A
:100D0000002093680B4201D0012000E000207047D2
:100D10000146886880B2704702460020D3680B42C3
:100D200001D0012000E0002070470146C86880B271
:100D3000704701617047416170470AB1016100E08D
:100D400041617047C16070474FF480320A4382614D
:100D50008161826182698269704702460020424B4C
:100D600018684FF68073184040EA021008433E4B63
:100D7000186070473D49C8617047F0B50A460023C6
:100D800000240021002500F00046B6F1004F02D1FA
:100D9000354EF16901E0344E7168C0F3034583B20A
:100DA00000F44016B6F5401F08D121F070612E4EB8
:100DB000766826F070662C4F7E6012E000F4801694
:100DC000B6F5801F06D1032606FA05F4A14341F0CB
:100DD000706106E0460D360103FA06F6B14341F0B4
:100DE000706122B1460D360103FA06F6314300F078
:100DF0000046B6F1004F02D11B4EF16101E01A4EE0
:100E00007160F0BD30B500228B071C0F0F2303FA71
:100E100004F2154B08338C1053F824309343124CD2
:100E200008348D1044F8253023468C1053F82430B4
:100E30008C07240F00FA04F423430B4C08348D1064
:100E400044F8253030BD0A49086070470008014069
:100E5000000C014000100140001401400018014046
:100E6000001C014000200140000001400000204221
:100E7000DC002042F948006840F00100F7490860B2
:100E800008464068F6490840F4494860084600684A
:100E9000F4490840F14908600846006820F48020C1
:100EA00008600846406820F4FE0048600846006874
:100EB00020F0A05008604FF47F0088600020C862D6
:100EC0007047E649096821F48031E44A116011460F
:100ED000096821F480211160B0F5803F03D0B0F59E
:100EE000802F0ED106E0DD49096841F48031DB4AEC
:100EF000116007E0D949096841F4A021D74A11607F
:100F000000E000BF00BF704710B50146002200237B
:100F100000204A11012A02D1D04C236806E0022A9F
:100F200002D1CE4C236A01E0CC4C636A01F01F026F
:100F3000012494401C4201D0012000E0002010BD9B
:100F400038B5002000900024002500BF3120FFF7B5
:100F5000DBFF05460098401C00900098B0F5A06F9C
:100F600001D0002DF2D03120FFF7CEFF08B10124CF
:100F700000E00024204638BD01460020B74A106832
:100F800020F0F80040EAC10010607047B6490860E0
:100F9000704702460020B14B586820F4741042EAB2
:100FA00001031843AD4B58607047AF49086670475E
:100FB00002460020A94BD86AAC4B184042EA010314
:100FC0001843A64BD862704701460020A34AD06A56
:100FD00020F0F0000843D0627047014600209F4A8D
:100FE000D06A20F470600843D06270479E498866DA
:100FF000704701460020994AD06A20F470400843A7
:10100000D062704798490867704701460020934AAC
:10101000506820F003000843506070478F484068D4
:1010200000F00C007047014600208C4A506820F008
:10103000F00008435060704701460020874A50681E
:1010400020F4E06008435060704701460020834A66
:10105000506820F4605040EAC1005060704729B1E8
:101060007E4A527A02437D4B5A7204E07B4A527A9E
:1010700082437A4B5A7270477D4908607047014637
:101080000020764A506820F4404008435060704782
:101090007849086070477749091D0860704700214A
:1010A000754A11706D4A82F82010012802D0042878
:1010B00008D103E00121704A117004E005216E4A55
:1010C000117000E000BF00BF70476C4908607047B6
:1010D0006249096A0143614A1162704767494439AC
:1010E000086070472DE9F04100210022002500230F
:1010F0000026002400278C46DFF86081D8F80480A1
:1011000008F00C0121B1042907D0082959D109E0C0
:10111000DFF86C81C0F8008058E0DFF86881C0F823
:10112000008053E0DFF83481D8F8048008F47012AE
:10113000DFF82881D8F8048008F48035920C0D2A55
:1011400001D0921C00E0062235B9DFF83C8102FB99
:1011500008F8C0F8008033E0DFF80081D8F82C8070
:1011600008F48036DFF8F480D8F82C8008F00F08F7
:1011700008F1010446B9DFF80C81B8FBF4F808FB6C
:1011800002F8C0F800801BE0DFF8D080D8F82C808F
:10119000C8F3031808F10107DFF8C080D8F82C80E5
:1011A000C8F3032808F1020CDFF8D880B8FBF7F881
:1011B00008FB0CF8B8FBF4F808FB02F8C0F8008054
:1011C00004E0DFF8BC80C0F8008000BF00BFDFF89B
:1011D0008C80D8F8048008F0F0010909DFF8AC80B1
:1011E00018F80130D0F8008028FA03F8C0F804801D
:1011F000DFF86880D8F8048008F4E061090ADFF8B5
:101200008C8018F80130D0F8048028FA03F8C0F870
:101210000880DFF84880D8F8048008F46051C90AD3
:10122000DFF8688018F80130D0F8048028FA03F855
:10123000C0F80C80DFF82480D8F8048008F440411E
:10124000890BDFF84C8018F80130D0F80C80B8FB1F
:10125000F3F8C0F81080BDE8F081000000100240F3
:101260000000FFF0FFFFF6FE00004242F0FFFEFF2D
:10127000D8004242C405424220100240800442424B
:1012800000127A0040787D0100093D00180000201E
:101290002800002029B1354A52690243334B5A6174
:1012A00004E0324A52698243304B5A61704729B197
:1012B0002E4A926902432D4B9A6104E02B4A9269AF
:1012C00082432A4B9A61704729B1284AD269024366
:1012D000264BDA6104E0254AD2698243234BDA6166
:1012E000704729B1214A926A0243204B9A6204E076
:1012F0001E4A926A82431D4B9A62704729B11B4A6B
:10130000D2680243194BDA6004E0184AD26882437B
:10131000164BDA60704729B1144A12690243134B25
:101320001A6104E0114A12698243104B1A61704736
:101330000F49086070470F49C86470470B49C8716E
:1013400070470A48406A40F0807008494862704718
:1013500001460020054A92680A4201D0012000E0BF
:101360000020704701498872704700000010024059
:10137000400442420000424210B50446CE48844236
:1013800008D101218014FFF7B9FF0021A014FFF755
:10139000B5FF16E0C948844208D101210014FFF7C7
:1013A000BAFF00212014FFF7B6FF0AE0C4488442C8
:1013B00007D10121C013FFF7AEFF0021E013FFF7B3
:1013C000AAFF10BD10B50022028802F441520B881A
:1013D0004C8823438C882343CC8823430C892343A4
:1013E0004C8923438C892343CC8923431A430280AD
:1013F000838B4FF2FF74234083830B8A038210BDDB
:101400002DE9F04F85B006460C464FF0000A022742
:101410004FF000084FF0010B0025A946B08B4FF2AA
:1014200040010840B08302203084B6F81CA0A068B8
:10143000022801D100BF59E0A08810B94FF0010B7C
:1014400001E04FF0020B9D48864202D14FF4003577
:1014500001E04FF480259B48C06A284219D0994882
:10146000C06AC0F30335052D03D90F2D01D2AD1C81
:1014700002E00F2D00D114259248C06AC0F303107A
:1014800000F101099048B0FBF9F068434FEA4009C8
:1014900004E06846FFF726FEDDF80090E088B0F52E
:1014A000007F0AD14FEA192000EB80004000A168BC
:1014B000B0FBF1F0401D85B20BE04FEA4B10B9FBD9
:1014C000F0F000EB80004000A168B0FBF1F0401D9F
:1014D00085B20A20B5FBF0F505F00108A5EB080080
:1014E000C0F34F074FF6FF7000EA0828022F01DB18
:1014F000FF2F02DD02274FF00008E08840EA0800D5
:1015000038433084A088A189084361880843218832
:10151000084340F4006040EA0A0AA6F81CA005B09F
:10152000BDE8F08F0021018041808180C180018170
:1015300041818181C18107210182704700210180A1
:1015400041808180C18002218160002181817047BA
:1015500021B1028842F04002028004E002884FF686
:10156000BF731A400280704721B1828B42F48062BF
:10157000828304E0828B4FF6FF331A4082837047E8
:1015800030B5002400230C110125A540ABB21AB1DF
:1015900085881D43858002E085889D43858030BD18
:1015A0001AB183880B43838002E083888B43838056
:1015B000704781817047014688897047A1F57E4256
:1015C000FF3A04D0028842F48072028004E002886C
:1015D0004FF6FF631A400280704721B1828842F0C3
:1015E0000402828004E082884FF6FB731A408280F6
:1015F000704702884FF2FF731A40028002880A4344
:1016000002807047018841F480510180704721B108
:10161000028842F40052028004E002884DF6FF7313
:101620001A400280704702460020012901D0108B29
:1016300000E0908A70470146088A7047B1F5804FF4
:1016400004D1028842F48042028004E002884BF612
:10165000FF731A40028070470246002013890B4234
:1016600001D0012000E000207047CA43028170478A
:10167000F0B50246002000240023002501F00F07EA
:101680000126BE40B4B20B1101269E40B3B296882B
:1016900006EA03051689264202D00DB1012000E0BA
:1016A0000020F0BD10B5002201F00F040123A3407B
:1016B0009AB2D343038110BD00300140003800408E
:1016C000003C00400010024040787D0102F0FF0322
:1016D00043EA032242EA024200F02CB84FF0000233
:1016E00000B5134694469646203922BFA0E80C5018
:1016F000A0E80C50B1F12001BFF4F7AF090728BFF3
:10170000A0E80C5048BF0CC05DF804EB890028BF6E
:1017100040F8042B08BF704748BF20F8022B11F097
:10172000804F18BF00F8012B704770477047704713
:101730004FF000020429C0F0128010F0030C3FF4B7
:10174000CFAFCCF1040CBCF1020F18BF00F8012B95
:10175000A8BF20F8022BA1EB0C01FFF7C1BF5FEA85
:10176000C17C24BF00F8012B00F8012B48BF00F812
:10177000012B7047754600F029F8AE460500694612
:10178000534620F00700854618B020B5FEF73CFD13
:10179000BDE820404FF000064FF000074FF0000872
:1017A0004FF0000B21F00701AC46ACE8C009ACE8F3
:1017B000C009ACE8C009ACE8C0098D4670470446D2
:1017C000AFF300802046FEF70AFD00000048704796
:1017D0002C00002001491820ABBEFEE726000200C5
:1017E000704709090909090A0A0B00000C180008CA
:1017F000000000202C0000008C01000838180008B0
:101800002C00002064060000A80100080000000071
:1018100000A24A04000000000000000001020304CE
:101820000607080900000000010203040102030486
:0818300006070809020406087E
:04000005080001519D
:00000001FF
