:020000040800F2
:10000000B0060020ED010008F5010008F701000826
:10001000F9010008FB010008FD01000800000000D4
:10002000000000000000000000000000FF010008C8
:100030000102000800000000030200080502000899
:10004000070200080702000807020008070200086C
:10005000070200080702000807020008070200085C
:10006000070200080702000807020008070200084C
:10007000070200080702000807020008070200083C
:10008000070200080702000807020008070200082C
:10009000070200080702000807020008070200081C
:1000A000070200080702000807020008070200080C
:1000B00007020008070200080702000807020008FC
:1000C00007020008070200080702000807020008EC
:1000D00007020008070200080702000807020008DC
:1000E00007020008070200080702000800000000DD
:1000F0000000000000000000000000000000000000
:1001000000000000000000000702000807020008CD
:10011000070200080702000807020008070200089B
:10012000070200080702000807020008070200088B
:10013000070200080702000807020008070200087B
:10014000070200080702000807020008070200086B
:1001500000F002F800F03AF80AA090E8000C82449F
:100160008344AAF10107DA4501D100F02FF8AFF27C
:10017000090EBAE80F0013F0010F18BFFB1A43F085
:1001800001031847801B0000A01B0000103A24BF89
:1001900078C878C1FAD8520724BF30C830C144BFEC
:1001A00004680C607047000000230024002500262E
:1001B000103A28BF78C1FBD8520728BF30C148BFCA
:1001C0000B6070471FB51FBD10B510BD01F063FD7A
:1001D0001146FFF7F7FF00F029F801F081FD03B4A5
:1001E000FFF7F2FF03BC01F085FD000009488047DE
:1001F00009480047FEE7FEE7FEE7FEE7FEE7FEE709
:10020000FEE7FEE7FEE7FEE704480549054A064B20
:1002100070470000A504000851010008B00000204C
:10022000B0060020B0020020B002002000F006F866
:1002300000F00EF800F020F800BFFEE710B5012135
:10024000212000F006FC0121042000F00FFC10BD6D
:1002500008B54FF4E040ADF8000018208DF8030019
:1002600003208DF802006946414801F0C5FB0121D9
:10027000080301F090FC08BD10B53E48006844F644
:100280002061B0FBF1F0401E3B4908800846008821
:10029000401E00EB80000A21B0FBF1F037490880D6
:1002A00035480088401E40F2771148434FF47A7178
:1002B000B0FBF1F0324908802F480088401E00EB67
:1002C000C00101EB00106421B0FBF1F02D49088062
:1002D00029480088401E00EB4001C1EBC0104FF4DC
:1002E0007A71B0FBF1F02849088001202749088085
:1002F000002048802048008888800020C88008723C
:10030000234800F0DFFC702022490880012048804B
:100310000420888019480088C880022008810020B5
:1003200048814FF4807088810020C881184800F00F
:1003300006FD134800881749C880154800F041FDA4
:10034000104800881349C880114800F087FD0E4806
:1003500000881049C8800E4800F0CBFD01210C48F0
:1003600001F00CF801210A4801F014F810BD00005A
:10037000001401400C0000200000002002000020BA
:1003800004000020060000200800002034000020A7
:10039000000800403E0000200CB5002001900090B5
:1003A0009148006840F480308F49086000BF8E4853
:1003B000006800F4003000900198401C0190009803
:1003C00018B90198B0F5A06FF1D18748006810F412
:1003D000003F02D00120009001E000200090009832
:1003E00001285AD18148006840F010007F49086018
:1003F0000846006820F0030008600846006840F0E6
:1004000002000860784840687749486008464068BC
:1004100048600846406840F4806048600846C06A0A
:10042000734908407049C8620846C06A7149084368
:100430006D49C8620846006840F08060086000BFEF
:100440006948006810F0006FFAD06748406820F4EF
:100450007C10654948600846406840F4E8104860F0
:100460000846006840F08070086000BF5E48006881
:1004700010F0007FFAD05C48406820F003005A4931
:1004800048600846406840F00200486000BF564897
:10049000406800F00C000828F9D10CBD10B5FFF73A
:1004A0007BFF10BD10B55048006840F001004E4978
:1004B000086008464068504908404B494860084673
:1004C00000684E490840484908600846006820F422
:1004D000802008600846406820F4FE004860084616
:1004E000006820F0A05008604FF47F008860002072
:1004F000C862FFF7D3FF4FF000604149086010BDAC
:10050000F0B5002100200023002400220025002651
:10051000354F7F6807F00C0121B1042908D0082964
:100520004BD10BE0374FDFF8E0C0CCF800704AE069
:10053000364FDFF8D4C0CCF8007044E02A4F7F6813
:1005400007F47010284F7F6807F48033800C0D2863
:1005500001D0801C00E0062033B92D4F4743DFF85F
:10056000A8C0CCF8007027E01F4FFF6A07F4803462
:100570001D4FFF6A07F00F077A1C44B9234FB7FBE2
:10058000F2F74743DFF880C0CCF8007014E0164F54
:10059000FF6AC7F303177D1C134FFF6AC7F30327D6
:1005A000BE1C1A4FB7FBF5F77743B7FBF2F747438B
:1005B000DFF854C0CCF8007005E0124FDFF848C0F7
:1005C000CCF8007000BF00BF074F7F68C7F3031768
:1005D000DFF840C01CF807100B4F3F68CF40DFF832
:1005E00028C0CCF80070F0BD00100240002002408E
:1005F00000F0FEFF440601000000FFF0FFFFF6FEE2
:1006000008ED00E000127A000C00002040787D0127
:1006100000093D0010000020F948006840F001008A
:10062000F749086008464068F6490840F4494860C0
:1006300008460068F4490840F14908600846006827
:1006400020F4802008600846406820F4FE004860DE
:100650000846006820F0A05008604FF47F008860D2
:100660000020C8627047E649096821F48031E44AF5
:1006700011601146096821F480211160B0F5803FB6
:1006800003D0B0F5802F0ED106E0DD49096841F4B2
:100690008031DB4A116007E0D949096841F4A021A3
:1006A000D74A116000E000BF00BF704710B5014697
:1006B0000022002300204A11012A02D1D04C2368D5
:1006C00006E0022A02D1CE4C236A01E0CC4C636AD8
:1006D00001F01F02012494401C4201D0012000E0DF
:1006E000002010BD38B5002000900024002500BF78
:1006F0003120FFF7DBFF05460098401C0090009872
:10070000B0F5A06F01D0002DF2D03120FFF7CEFF61
:1007100008B1012400E00024204638BD0146002035
:10072000B74A106820F0F80040EAC1001060704736
:10073000B6490860704702460020B14B586820F463
:10074000741042EA01031843AD4B58607047AF493B
:100750000866704702460020A94BD86AAC4B184087
:1007600042EA01031843A64BD862704701460020B5
:10077000A34AD06A20F0F0000843D06270470146D7
:1007800000209F4AD06A20F470600843D06270470E
:100790009E498866704701460020994AD06A20F435
:1007A00070400843D0627047984908677047014617
:1007B0000020934A506820F00300084350607047BF
:1007C0008F48406800F00C007047014600208C4ABA
:1007D000506820F0F0000843506070470146002048
:1007E000874A506820F4E060084350607047014633
:1007F0000020834A506820F4605040EAC1005060F5
:10080000704729B17E4A527A02437D4B5A7204E006
:100810007B4A527A82437A4B5A7270477D4908600C
:10082000704701460020764A506820F44040084353
:10083000506070477849086070477749091D086023
:1008400070470021754A11706D4A82F82010012806
:1008500002D0042808D103E00121704A117004E09D
:1008600005216E4A117000E000BF00BF70476C495F
:10087000086070476249096A0143614A1162704722
:1008800067494439086070472DE9F0410021002292
:10089000002500230026002400278C46DFF8608115
:1008A000D8F8048008F00C0121B1042907D00829E8
:1008B00059D109E0DFF86C81C0F8008058E0DFF81A
:1008C0006881C0F8008053E0DFF83481D8F80480F4
:1008D00008F47012DFF82881D8F8048008F4803515
:1008E000920C0D2A01D0921C00E0062235B9DFF8E7
:1008F0003C8102FB08F8C0F8008033E0DFF800819B
:10090000D8F82C8008F48036DFF8F480D8F82C80F2
:1009100008F00F0808F1010446B9DFF80C81B8FBB4
:10092000F4F808FB02F8C0F800801BE0DFF8D08084
:10093000D8F82C80C8F3031808F10107DFF8C0804D
:10094000D8F82C80C8F3032808F1020CDFF8D8800F
:10095000B8FBF7F808FB0CF8B8FBF4F808FB02F852
:10096000C0F8008004E0DFF8BC80C0F8008000BF61
:1009700000BFDFF88C80D8F8048008F0F001090986
:10098000DFF8AC8018F80130D0F8008028FA03F8BE
:10099000C0F80480DFF86880D8F8048008F4E061CB
:1009A000090ADFF88C8018F80130D0F8048028FAA2
:1009B00003F8C0F80880DFF84880D8F8048008F40D
:1009C0006051C90ADFF8688018F80130D0F8048057
:1009D00028FA03F8C0F80C80DFF82480D8F80480E7
:1009E00008F44041890BDFF84C8018F80130D0F84A
:1009F0000C80B8FBF3F8C0F81080BDE8F08100006F
:100A0000001002400000FFF0FFFFF6FE000042422F
:100A1000F0FFFEFFD8004242C405424220100240CF
:100A20008004424200127A0040787D0100093D00B6
:100A3000200000203000002029B1354A52690243CD
:100A4000334B5A6104E0324A52698243304B5A6157
:100A5000704729B12E4A926902432D4B9A6104E0F6
:100A60002B4A926982432A4B9A61704729B1284ADE
:100A7000D2690243264BDA6104E0254AD2698243F7
:100A8000234BDA61704729B1214A926A0243204B15
:100A90009A6204E01E4A926A82431D4B9A62704732
:100AA00029B11B4AD2680243194BDA6004E0184AA4
:100AB000D2688243164BDA60704729B1144A126932
:100AC0000243134B1A6104E0114A12698243104B2E
:100AD0001A6170470F49086070470F49C864704732
:100AE0000B49C87170470A48406A40F08070084955
:100AF0004862704701460020054A92680A4201D0C8
:100B0000012000E000207047014988727047000012
:100B100000100240400442420000424210B5044628
:100B2000FE48844208D10121C014FFF7B9FF00211B
:100B3000E014FFF7B5FFC4E0B4F1804F08D1012104
:100B40000846FFF7BAFF00210120FFF7B6FFB8E023
:100B5000F348844208D101210220FFF7AEFF0021B3
:100B60000220FFF7AAFFACE0EE48844208D1012141
:100B70000420FFF7A2FF00210420FFF79EFFA0E062
:100B8000E948844208D101210820FFF796FF00219F
:100B90000820FFF792FF94E0E448844208D1012145
:100BA0001020FFF78AFF00211020FFF786FF88E062
:100BB000DF48844208D101212020FFF77EFF002179
:100BC0002020FFF77AFF7CE0DA48844208D1012137
:100BD0004014FFF765FF00216014FFF761FF70E02C
:100BE000D548844209D10121C804FFF759FF0021EB
:100BF0004FF40020FFF754FF63E0D048844209D14E
:100C000001210805FFF74CFF00214FF48010FFF78A
:100C100047FF56E0CA48844209D101214805FFF741
:100C20003FFF00214FF40010FFF73AFF49E0C548AD
:100C3000844208D101214020FFF73FFF00214020DE
:100C4000FFF73BFF3DE0C048844208D101218020EE
:100C5000FFF733FF00218020FFF72FFF31E0BB4873
:100C6000844208D101218015FFF727FF0021A0153C
:100C7000FFF723FF25E0B648844209D1012108048B
:100C8000FFF70EFF00214FF48030FFF709FF18E057
:100C9000B048844209D101214804FFF701FF002137
:100CA0004FF40030FFF7FCFE0BE0AB48844208D164
:100CB00001218804FFF7F4FE00214FF48020FFF7A4
:100CC000EFFE10BD00220288944B98420ED0994B43
:100CD00098420BD0B0F1804F08D0914B984205D08C
:100CE000904B984202D0904B984204D14FF68F73AC
:100CF0001A404B881A438D4B984207D08C4B984230
:100D000004D04FF6FF431A40CB881A4302808B88E9
:100D100083850B880385814B98420BD0854B984285
:100D200008D08B4B984205D08A4B984202D08A4B10
:100D3000984201D10B7A038601238382704770B5F4
:100D4000002400220023058C4FF6FE7635400584F2
:100D5000028C8388048B4FF68F752C40B51E2C4077
:100D60000D882C43751E2A400D892A434D882A433D
:100D70006A4DA8420BD06F4DA84208D0744DA842CE
:100D800005D0744DA84202D0734DA84213D14FF63E
:100D9000F7752A404D892A434FF6FB752A408D8806
:100DA0002A434FF6FF652B404FF6FF552B408D89A8
:100DB0002B43CD892B4383800483CD888586028491
:100DC00070BD70B5002400220023058C4FF6EF762D
:100DD00035400584028C8388048B48F6FF752C40CF
:100DE0004FF6FF452C400D884FF6FF7606EA0525A5
:100DF0002C434FF6DF752A400D8906EA05152A4374
:100E00004D8806EA05152A43444DA84202D0494DB3
:100E1000A8421DD14FF67F752A404D894FF6FF76C7
:100E200006EA05152A434FF6BF752A408D8806EA63
:100E300005152A434FF6FF352B404FF2FF752B4027
:100E40008D8906EA85052B43CD8906EA85052B4366
:100E500083800483CD880587028470BD70B500242B
:100E600000220023058C4FF6FF6635400584028C76
:100E70008388848B4FF68F752C404FF6FC752C4081
:100E80000D882C434FF6FF552A400D894FF6FF760B
:100E900006EA05252A434D8806EA05252A431F4D03
:100EA000A84202D0234DA8421DD14FF2FF752A401F
:100EB0004D894FF6FF7606EA05252A434FF6FF35A2
:100EC0002A408D8806EA05252A434EF6FF752B40F9
:100ED0004DF6FF752B408D8906EA05152B43CD890C
:100EE00006EA05152B4383808483CD888587028499
:100EF00070BD70B5002200230024058C4EF6FF76ED
:100F000035400584038C8488828B48F6FF752A401F
:100F10004FF6FF452A400D8820E00000002C0140DC
:100F20000004004000080040000C00400010004099
:100F30000014004000340140004C014000500140CA
:100F40000054014000180040001C004000200040F8
:100F50000040014000440140004801404FF6FF7648
:100F600006EA05252A434DF6FF752B400D8906EA52
:100F700005352B434D8806EA05352B43FA4DA8422B
:100F800002D0FA4DA84208D14BF6FF752C408D894E
:100F90004FF6FF7606EA85152C4384808283CD8840
:100FA000A0F84050038470BD828B4FF2FF331A408B
:100FB0008283828B4FF6FF7303EA01231A438283F5
:100FC0007047F0B50C461546002200210026078C1C
:100FD0004EF6FF7C07EA0C070784828B018C4FF6E4
:100FE000FF7707EA043640F6FF473A404FF6FF77AF
:100FF00007EA05273A434FF6FF7707EA03373A43F4
:10100000D94FB8420ED0D94FB8420BD0B0F1804F73
:1010100008D0D74FB84205D0D64FB84202D0D64FED
:10102000B84206D14DF6FF77394046F48057394330
:1010300005E047F6FF57394044F48057394382832F
:101040000184F0BD828B4FF6F3731A408283828B4A
:101050000A4382837047F0B50C46154600220021F2
:101060000026078C4FF6FF6C07EA0C070784828B7B
:10107000018C4FF6FF7707EA04264FF60C773A40CB
:101080004FF6FF7707EA03172F433A43B64FB842AC
:101090000ED0B64FB8420BD0B0F1804F08D0B44F4D
:1010A000B84205D0B34FB84202D0B34FB84206D1D0
:1010B0004FF6FF57394046F48077394305E04FF249
:1010C000FF57394044F48077394382830184F0BD6F
:1010D000028B4FF2FF331A400283028B4FF6FF73ED
:1010E00003EA01231A4302837047F0B50C46154604
:1010F000002200210026078C4FF6EF7C07EA0C0740
:101100000784028B018C4FF6FF7707EA041640F63E
:10111000FF473A404FF6FF7707EA03373A434FF667
:10112000FF7707EA05273A438F4FB8420ED08F4F1B
:10113000B8420BD0B0F1804F08D08D4FB84205D0E7
:101140008C4FB84202D08C4FB84206D14FF6DF77B1
:10115000394046F01007394305E04FF65F773940D4
:1011600044F01007394302830184F0BD028B4FF62F
:10117000F3731A400283028B0A4302837047F0B56F
:101180000C46154600220021068C4FF6FE773E40A5
:101190000684028B018C4FF60C7632407E1C06EAE8
:1011A00003162E433243704EB0420ED06F4EB04203
:1011B0000BD0B0F1804F08D06D4EB04205D06D4ECF
:1011C000B04202D06C4EB04206D14FF6FD763140AF
:1011D00044F00106314305E04FF6F576314044F026
:1011E0000106314302830184F0BD70B505460C460B
:1011F0005D4885420ED05D4885420BD0B5F1804FE9
:1012000008D05B48854205D05A48854202D05A48EA
:10121000854200D100E000BF208850B92389A28810
:1012200061882846FFF7ABFFE1882846FFF79EFF5D
:1012300025E0208804280AD12389A28861882846CD
:10124000FFF753FFE1882846FFF742FF17E02088A9
:1012500008280AD12389A28861882846FFF7FBFE67
:10126000E1882846FFF7EEFE09E02389A28861881D
:101270002846FFF7A6FEE1882846FFF795FE70BDD9
:101280002DE9F04105460C4600260127608808B983
:10129000022600E00026A088012801D1022700E0F4
:1012A00001272088A0B92389A28861882846FFF7F2
:1012B00066FFE1882846FFF759FF23893A46314601
:1012C0002846FFF712FFE1882846FFF701FF13E0E9
:1012D0002389A28861882846FFF707FFE18828460E
:1012E000FFF7F6FE23893A4631462846FFF747FFC7
:1012F000E1882846FFF73AFFBDE8F0810A884B886D
:101300001A438B881A43CB881A430B891A434B899B
:101310001A438B891A43A0F8442070474FF6FF7197
:10132000818000210180C1804180017270470021CD
:10133000018041808180C180018141818181C181A1
:101340007047002101804180012181800021C180FE
:10135000018170470021018041808180C18001812D
:101360004181818170470000002C01400034014020
:101370000004004000080040000C004021B1028839
:1013800042F00102028004E002884FF6FE731A4028
:101390000280704731B1B0F8442042F40042A0F816
:1013A000442005E0B0F84420C2F30E02A0F8442027
:1013B00070471AB183890B43838102E083898B4391
:1013C000838170478182704741EA0203A0F8483068
:1013D00070471AB183890B43838102E083898B4371
:1013E0008381704701894FF6F8721140018170477F
:1013F0000A46002101894FF68F731940114301817C
:10140000704730B504460D4629462046FFF7F0FFE9
:10141000208940F00700208130BD2DE9F0410446CD
:101420000D4616461F46602D06D13B460122314629
:101430002046FFF75AFE05E03B4601223146204692
:10144000FFF79DFE29462046FFF7D2FF208940F096
:1014500007002081BDE8F08130B50C4600210189EC
:10146000C9B24FF6FF7505EA032515432543294305
:10147000018130BD2DE9F04105460E4617469846DC
:10148000002443463A4631462846FFF7E5FF2C89BB
:101490004FF6F870044044F007044FF68F70044094
:1014A00044F070042C81BDE8F081F0B504460D468F
:1014B00016461F463B46324629462046FFF7CCFFDC
:1014C000208940F480402081F0BD018582827047F0
:1014D0000A46002101884FF68F731940114301809D
:1014E0007047F0B50C4615461E4600210022002329
:1014F0000189028B038C4FF6F877394021434FF670
:10150000FC473A4040F201173A434FF6DD773B4043
:101510004FF6FF7707EA06172F433B43018102830B
:101520000384F0BD0A460021018B4FF68F731940EA
:101530001143018370470A460021018B48F6FF736F
:1015400019404FF6FF7303EA0223194301837047E2
:101550000A460021818B4FF68F7319401143818316
:1015600070470A460021818B48F6FF7319404FF6F9
:10157000FF7303EA022319438183704721B1028874
:1015800042F08002028004E002884FF67F731A4026
:101590000280704721B1828842F00402828004E018
:1015A00082884FF6FB731A408280704721B182888F
:1015B00042F00802828004E082884FF6F7731A40F6
:1015C0008280704721B1828842F00102828004E06B
:1015D00082884FF6FE731A40828070470A460021C7
:1015E000018B4FF6F77319401143018370470A4688
:1015F0000021018B4FF2FF7319404FF6FF7303EA8E
:1016000002231943018370470A460021818B4FF65C
:10161000F77319401143818370470A460021818B7B
:101620004FF2FF7319404FF6FF7303EA0223194389
:10163000818370470A460021018B4FF6FB731940E6
:101640001143018370470A460021018B4FF6FF3397
:1016500019404FF6FF7303EA0223194301837047D1
:101660000A460021818B4FF6FB7319401143818399
:1016700070470A460021818B4FF6FF3319404FF621
:10168000FF7303EA02231943818370470A4600214E
:10169000018B4FF67F7319401143018370470A464F
:1016A0000021018BC1F30E014FF6FF7303EA022301
:1016B0001943018370470A460021818B4FF67F73DF
:1016C00019401143818370470A460021818BC1F381
:1016D0000E014FF6FF7303EA02231943818370471B
:1016E0000A460021018C4FF6FD7319401143018415
:1016F00070470A460021018C4FF6F77319401143D9
:10170000018470470A460021018C4FF6DF731940AF
:101710004FF6FF7303EA02131943018470470A4628
:101720000021018C4FF67F7319404FF6FF7303EAD7
:1017300002131943018470470A460021018C4FF6B9
:10174000FF5319404FF6FF7303EA02231943018444
:1017500070470A460021018C4FF2FF7319404FF683
:10176000FF7303EA02231943018470470A460021EC
:10177000018C4DF6FF7319404FF6FF7303EA0233F5
:1017800019430184704730B5002301248C40A3B273
:10179000048C9C430484048C02FA01F5ADB22C4302
:1017A000048430BD30B5002304248C40A3B2048CE3
:1017B0009C430484048C02FA01F5ADB22C430484EA
:1017C00030BD70B5034600200024184618300125AE
:1017D0008D40ACB21D8CA5431D8409B1082909D1E7
:1017E00000EB6100056825F070050560056815438C
:1017F00005600EE00D1FC5F34E052844056825F46D
:10180000E045056005684FF6FF7606EA0226354397
:10181000056070BD21B1028842F00202028004E03E
:1018200002884FF6FD731A400280704721B102888A
:1018300042F00402028004E002884FF6FB731A4073
:101840000280704721B1828842F08002828004E0E9
:1018500082884FF67F731A408280704702884FF665
:10186000F7731A40028002880A4302807047828818
:101870004FF68F731A40828082880A4382807047B5
:1018800002894FF6F8731A40028102890A430281E5
:10189000704702894FF67F731A40028102890A431A
:1018A00002817047818470478185704781867047C7
:1018B0000187704781877047A0F840107047028801
:1018C0004FF6FF431A40028002880A4302807047A5
:1018D0000146888E70470146088F70470146888F01
:1018E00070470146B1F8400070470146888C704748
:1018F0000146088D704702460020138A0B4201D032
:10190000012000E000207047CA430282704730B5D2
:101910000246002000230024158A05EA0103958968
:1019200005EA010413B10CB1012000E0002030BD34
:10193000CA4302827047000010B50446CA48844278
:1019400008D101210420FFF7ABF800210420FFF7A4
:10195000A7F846E0C548844208D101210820FFF7D6
:101960009FF800210820FFF79BF83AE0C048844226
:1019700008D101211020FFF793F800211020FFF774
:101980008FF82EE0BB48844208D101212020FFF7C8
:1019900087F800212020FFF783F822E0B648844230
:1019A00008D101214020FFF77BF800214020FFF7FC
:1019B00077F816E0B148844208D101218020FFF772
:1019C0006FF800218020FFF76BF80AE0AC488442F2
:1019D00007D101218015FFF763F80021A015FFF75B
:1019E0005FF810BD10B501210846FFF759F8002136
:1019F0000120FFF755F810BD2DE9F0410246002502
:101A00000026002000230024002791F803C00CF0DA
:101A10000F0591F803C01CF0100F03D091F802C01D
:101A20004CEA050591F800C0BCF1000F31D01468F4
:101A300000202BE04FF0010C0CFA00F3B1F800C0CD
:101A40000CEA03069E4220D183004FF00F0C0CFAE3
:101A500003F7BC4305FA03FC4CEA040491F803C005
:101A6000BCF1280F06D14FF0010C0CFA00FCC2F8B3
:101A700014C00AE091F803C0BCF1480F05D14FF043
:101A8000010C0CFA00FCC2F810C0401C0828D1D38D
:101A90001460B1F800C0BCF1FF0F34DD54680020C1
:101AA0002EE000F1080C4FF0010808FA0CF3B1F831
:101AB00000C00CEA03069E4221D183004FF00F0CB8
:101AC0000CFA03F7BC4305FA03FC4CEA040491F852
:101AD00003C0BCF1280F05D100F1080C08FA0CF87E
:101AE000C2F8148091F803C0BCF1480F07D100F18F
:101AF000080C4FF0010808FA0CF8C2F81080401CDE
:101B00000828CED35460BDE8F0814FF6FF71018004
:101B1000022181700421C170704702460020936841
:101B20000B4201D0012000E0002070470146886888
:101B300080B2704702460020D3680B4201D00120DA
:101B400000E0002070470146C86880B2704701611C
:101B50007047416170470AB1016100E0416170471F
:101B6000C16070474FF480320A43826181618261B3
:101B700082698269704702460020424B18684FF61E
:101B80008073184040EA021008433E4B18607047CB
:101B90003D49C8617047F0B50A4600230024002182
:101BA000002500F00046B6F1004F02D1354EF16934
:101BB00001E0344E7168C0F3034583B200F440166F
:101BC000B6F5401F08D121F070612E4E766826F0E0
:101BD00070662C4F7E6012E000F48016B6F5801F10
:101BE00006D1032606FA05F4A14341F0706106E030
:101BF000460D360103FA06F6B14341F0706122B199
:101C0000460D360103FA06F6314300F00046B6F100
:101C1000004F02D11B4EF16101E01A4E7160F0BD20
:101C200030B500228B071C0F0F2303FA04F2154B6B
:101C300008338C1053F824309343124C08348D1021
:101C400044F8253023468C1053F824308C07240F99
:101C500000FA04F423430B4C08348D1044F825306B
:101C600030BD0A490860704700080140000C01407F
:101C7000001001400014014000180140001C014008
:101C8000002001400000014000002042DC00204212
:101C9000704770477047754600F028F8AE4605005B
:101CA0006946534620F00700854618B020B5FEF778
:101CB000ABFABDE820404FF000064FF000074FF0B0
:101CC00000084FF0000B21F00701AC46ACE8C0095A
:101CD000ACE8C009ACE8C009ACE8C0098D46704763
:101CE0000446AFF300802046FEF779FA00487047BB
:101CF0005000002001491820ABBEFEE7260002007C
:101D000070470000241D000800000020340000007F
:101D10008C010008581D0008340000207C060000DB
:101D2000A80100080000F401E803DC05D00700006A
:101D300000A24A04000000000000000001020304A9
:101D40000607080900000000010203040102030461
:081D5000060708090204060859
:04000005080001519D
:00000001FF
