:020000040800F2
:10000000484D0020ED010008F5010008F701000847
:10001000F9010008FB010008FD01000800000000D4
:10002000000000000000000000000000FF010008C8
:100030000102000800000000030200080502000899
:10004000070200080702000807020008070200086C
:10005000070200080702000807020008070200085C
:10006000070200080702000807020008070200084C
:10007000070200080702000807020008070200083C
:10008000070200080702000807020008070200082C
:10009000070200080702000807020008070200081C
:1000A000070200080702000807020008070200080C
:1000B00007020008070200080702000807020008FC
:1000C00007020008070200080702000807020008EC
:1000D00007020008070200080702000807020008DC
:1000E00007020008070200080702000800000000DD
:1000F0000000000000000000000000000000000000
:1001000000000000000000000702000807020008CD
:10011000070200080702000807020008070200089B
:10012000070200080702000807020008070200088B
:100130000702000829030008070200080702000858
:10014000070200080702000807020008070200086B
:1001500000F002F800F03AF80AA090E8000C82449F
:100160008344AAF10107DA4501D100F02FF8AFF27C
:10017000090EBAE80F0013F0010F18BFFB1A43F085
:1001800001031847CC2A0000EC2A0000103A24BFD3
:1001900078C878C1FAD8520724BF30C830C144BFEC
:1001A00004680C607047000000230024002500262E
:1001B000103A28BF78C1FBD8520728BF30C148BFCA
:1001C0000B6070471FB51FBD10B510BD00F074F86F
:1001D0001146FFF7F7FF01F0FBFA00F092F803B4C5
:1001E000FFF7F2FF03BC00F097F8000009488047D2
:1001F00009480047FEE7FEE7FEE7FEE7FEE7FEE709
:10020000FEE7FEE7FEE7FEE704480549054A064B20
:100210007047000099040008510100084847002079
:10022000484D0020484900204849002040EA010389
:10023000024630B59B0710D14FF0013400E008C2F0
:1002400008C91D1B9D4315EAC41FF8D013F0FF0118
:1002500002F8011B0DD01B0AF8E711F8013B002B37
:1002600002F8013B05D011F8013B002B02F8013BDD
:10027000F3D130BD10B5431C02E010F8011B71B181
:100280008107FAD14FF0013202C88C1A8C4314EA6C
:10029000C211F9D0C01A0A0603D0C01E10BDC01A80
:1002A00010BD0A0401D0801E10BD0902FCD0401E02
:1002B00010BD704770477047754600F029F8AE468C
:1002C00005006946534620F00700854618B020B562
:1002D000FFF79AFFBDE820404FF000064FF00007FF
:1002E0004FF000084FF0000B21F00701AC46ACE8DE
:1002F000C009ACE8C009ACE8C009ACE8C0098D464B
:1003000070470446AFF300802046FFF768FF000007
:1003100000487047E446002001491820ABBEFEE7C4
:1003200026000200704700002DE9F047DFF88880C2
:10033000224F49F21A0998F8014007EB0415286882
:1003400010EA090F1ED12868C0F30120032819D133
:100350002868C0F30D4640F2EA50361F864211D895
:1003600046F0004000F0C6F860B1A968021D21F017
:100370000303F61CB10803D040CB491E40C2FBD199
:1003800001F0AAFB4FF000402860641C042C00D14F
:10039000002407EB041000680028CEDA084888F82B
:1003A00001404169090603D5802141610021816036
:1003B00004494161BDE8F0870100002038000020B9
:1003C00000900240400001000CB500222E4800922F
:1003D0000192016841F4803101604FF4A06301682B
:1003E00001F4003101910099491C0091019911B962
:1003F00000999942F3D10168890342D50121019105
:1004000022490A6842F010020A600A6822F00302D8
:100410000A600A6842F002020A604168416041686D
:100420004160416841F480614160C16A184A1140ED
:10043000C162C16A174A1143C162016841F080611B
:10044000016001680901FCD5416821F47C1141601B
:10045000416841F4E8114160016841F08071016038
:1004600001688901FCD5416821F0030141604168C0
:1004700041F0020141604168C1F381010229FAD1D2
:100480000CBD01920CBD0000001002400020024093
:1004900000F0FEFF44060100124810B5016841F06B
:1004A000010101604168104A1140416001680F4A32
:1004B00011400160016821F480210160416821F44C
:1004C000FE014160016821F0A05101604FF47F01FD
:1004D00081600021C162FFF777FF05494FF000609E
:1004E000086010BD001002400000FFF0FFFFF6FEA4
:1004F00008ED00E02DE9F0412A4D0646E87B18B1F1
:10050000B00F32D103202EE026F040400F3020F013
:100510000307002E03DB00F08CFF0120E873B00F0F
:100520004FF000080BD0286869683844884206D923
:10053000E87BD0B185F80F8000F082FF15E01A4803
:10054000046820686268011B891AB94210D2044607
:1005500000680028F5D1E87B18B185F80F8000F01D
:100560006FFFB00F01D101F04EFB0020BDE8F0811C
:10057000100014D0101921680160206000F10804F7
:100580004760286838442860E87B18B185F80F80F8
:1005900000F056FF2680A4F802802046E6E7676058
:1005A0000834EEE788460020F82B00082DE9F041DA
:1005B0008846074600F0D2F900284CD0274D002687
:1005C0002C680BE0207838B10422394604F10A0087
:1005D00001F070F9012833D00E34761C2879B0422E
:1005E000F0DC1F49384601F0D9F8B0B91C48001DAD
:1005F00001F05CFA00282ED000262C680AE0207852
:1006000030B106224146201D01F054F901281CD0CA
:100610000E34761C2879B042F1DC012000F022F87B
:10062000002818D0C0EBC0006FF00D0202EB4000B4
:10063000296804220C18394604F10A0001F046F931
:1006400006224146201D01F041F96879E070A87941
:10065000A07003202070BDE8F0810000082C000885
:1006600098460020F0B520490446012005460A6856
:1006700003E013784BB1401C0E320B798342F8DA59
:1006800000204E7901220B680CE015705470F0BD0B
:100690005F78012F04D1DF78B74201D83E4610467B
:1006A000521C0E330F799742F2DA90B94E7901223B
:1006B0000B6809E05F78022F04D1DF78B74201D8D8
:1006C0003E461046521C0E330F799742F2DA00284C
:1006D000DDD00968C0EBC0026FF00D0303EB4202EE
:1006E00011440D704C70F0BD082C00082DE9F0414C
:1006F000224C88460646002725680BE0287838B14A
:100700000422314605F10A0001F0D4F8012832D064
:100710000E357F1C2079B842F0DC304600F01EF91F
:10072000002828D01649304601F038F8002822D099
:100730000120FFF797FF05001DD0114A3146002028
:1007400000F06CFAC5EBC5016FF00D0202EB410140
:10075000206804224518314605F10A0001F0B6F878
:1007600006224146281D01F0B1F8E079E870A07931
:10077000A87003202870BDE8F0810000082C000854
:10078000984600202DE9F04788468146274901F028
:1007900005F848B9254C201D01F088F900283AD009
:1007A00004F104094FF00008214D002702262C68AF
:1007B0000BE0207838B10422494604F10A0001F028
:1007C00079F8012829D00E347F1C2879B842F0DC52
:1007D0004046FFF747FF04001CD0144A494600205A
:1007E00000F01CFAC4EBC4016FF00D0202EB4101F2
:1007F000286804224418494604F10A0001F066F80A
:1008000006220C49201D01F061F8A879A070E87952
:10081000E07026700020BDE8F08720780328F9D327
:100820006078012800D166702046F4E798460020E1
:10083000082C00084A2C00082DE9F041374D3849B2
:10084000287810B90A7B920766D50122401C8A736A
:1008500028700027334E5AE0C0EBC0006FF00D0245
:10086000316802EB40000C182078D8B3E07820B152
:10087000401E10F0FF00E07046D1607878B104228D
:10088000294904F10A0001F015F8012806D0607822
:1008900001280FD018B1022801D035E06770207808
:1008A000032823D0A07870B3401E10F0FF00A07082
:1008B00029D01DE02078032825D0A07818B3401E49
:1008C00010F0FF00A0701ED002202070F079E070C0
:1008D00004F10A00054601F0E9F8134A121F10B1AD
:1008E00029460BE010E00021201D08E004202070C4
:1008F0000D4AF079E070121F04F10A010020BDE8F2
:10090000F04100F08BB927702878401C28703179AD
:10091000C0B28142A0D22F70BDE8F0811C0000203F
:10092000D4460020082C00089C46002030B5094B16
:1009300000210A460124186805E000BF00F8012BD9
:10094000491C00F80D4B1D798D42F7DC02484260CE
:1009500030BD0000082C00081C00002001787F2911
:1009600012D00E22B2EB111F0ED0006860B1411CF4
:100970000AD006490A68896842400A4202D1014306
:10098000491C01D001207047002070479846002084
:100990000649002048600648007A002804D0054A2D
:1009A0000020114600F03AB9704700001C000020FA
:1009B000082C0008984600202DE9F0471F4E0546F8
:1009C000002700F1080A00F10E094FF00908346809
:1009D0001DE02078012818D9E98898FA88F0B1EB51
:1009E000104F0AD10622211D504600F063FF60B16E
:1009F0000422494604F10A0011E0042204F10A012C
:100A0000484600F057FF012806D00E347F1C30798D
:100A1000B842DEDCBDE8F08706225146201D00F01A
:100A200055FF6078022801D1012060707079E07074
:100A3000B079A07003202070ECE70000082C0008BB
:100A40002DE9F04101882A2953D3418A012212BAA3
:100A5000B1EB124F4DD1818A4FF4006212BAB1EB63
:100A6000124F46D1817D062943D1C17D042940D151
:100A7000018B00F1240309BA0A0C9D1D00F1120438
:100A800000F1200800F11A060A2A32D2DFE802F04B
:100A900031054A313131313139690422334928462F
:100AA00000F008FF28B131464046FFF77FFD0221E4
:100AB00033E004224146284600F0FCFE002818D00E
:100AC0002B4D00272C6818E02078032813D306222A
:100AD0003146201D00F0EEFE68B10422414604F1CB
:100AE0000A0000F0F3FE6879E070A879A070032096
:100AF0002070BDE8F0810E347F1C2879B842E3DC19
:100B0000F7E706221B49184600F0D4FE0028F0D073
:100B100031464046FFF74AFD09212046BDE8F04135
:100B200000F02CB8284600F0C1FF60B104220F4944
:100B30004FEA050000F0BEFE0028DAD02046BDE8EE
:100B4000F041FFF739BF0C4C61680029D1D0042275
:100B5000404600F0AFFE0028CBD06168002008704E
:100B6000C7E7062203491846E4E70000984600203C
:100B7000082C0008130000201C0000202DE9F04183
:100B800005460E462A20FFF7B5FC044605F108018C
:100B900006220F46001D00F099FE06221D4904F1B1
:100BA0000A0000F093FE40F6060000BA000C208216
:100BB000012000BA000C60824FF4006000BA000C03
:100BC000A0820620A0750420E07530BA000C2083B6
:100BD0000622394604F1240000F078FE042205F1D3
:100BE0000E0104F12A0000F071FE0622094904F109
:100BF0001A0000F06BFE0422074904F1200000F007
:100C000065FE204600F0C4FF2046BDE8F04100F03C
:100C10007FB9000013000020984600202DE9F04124
:100C2000054616460F462A20FFF764FC04460DB120
:100C3000294600E024490622201D00F047FE062236
:100C4000224904F10A0000F041FE40F6060000BA15
:100C5000000C2082012001BA090C6182C10209BA8C
:100C6000090CA1820621A1750421E17505B10820B6
:100C700000BA000C20830622144904F11A0000F087
:100C800025FE05B9124D0622294604F1240000F084
:100C90001DFE0EB1314600E00D49042204F1200092
:100CA00000F014FE0FB1394600E00949042204F1B6
:100CB0002A0000F00BFE204600F06AFF2046BDE847
:100CC000F04100F025B900004A2C00081300002074
:100CD000342C0008054901EB80000A684068824214
:100CE00001D2012070470020704700008846002094
:100CF00000B5002200F006F8C04380B200BA000C34
:100D000000BD000005E000BF30F8023B891E5BBA61
:100D10001A440129F8DC11B1007802EB002290B2EC
:100D200000EB124000EB104080B27047084400EB2B
:100D3000104080B27047002242F21073002100E0A0
:100D4000491C8142FCD9521C9A42F7D970470000D5
:100D500006220249001D00F0ADBD00001300002076
:100D600010B500F066FB00F037FA0748002101706B
:100D7000417000F065FBFFF7D9FD0621034800F044
:100D8000B0FD0349486010BD044600201300002058
:100D9000D446002070B5AFF30080FFF74DFD2E491B
:100DA0000A784878824255D02C4B01229A7301EB85
:100DB0008002401C546800F01F004870208A00BA6E
:100DC000000CB0F5006F07D0A0F5006006383CD1EC
:100DD0002046FFF735FE38E00021204600F038FBC2
:100DE00038B3201D054606221D4900F063FD68B991
:100DF000284600F05BFE1B49B1EB102F06D004F132
:100E00000A0104F11E00FFF771FC05E004F10A017C
:100E100004F11E00FFF7CAFBE07E012806D002287D
:100E200008D006280ED011280FD107E0204600F088
:100E3000D9F80AE0204600F0B5F906E0204601F0B6
:100E4000BFFD02E0204601F035F92046BDE87040C4
:100E500000F05EB870BD000004460020D4460020BB
:100E60004A2C00085E00010070B5044600F122051E
:100E7000234E04222349284600F01CFD50BB04F1F8
:100E80001E0000F013FE002838D02A780E23002020
:100E90000121B3EB121F0CD1217160715E20A07192
:100EA000687800F07F00E071A8782072E8786072BE
:100EB00015E015482968026880684A40024202D15C
:100EC0000843401C06D001212846FFF75BFC0028A0
:100ED00014D0061D06223146201D00F0F7FC062224
:100EE0000A4904F10A0000F0F1FC4FF4006000BA76
:100EF000000C2082204600F04BFE012070BD000057
:100F00004A2C00083A2C00089846002013000020C4
:100F10002DE9F041002837D01C4DA0F10807E87BEF
:100F200008B1032025E0DFF868800026D8F80040EB
:100F300000F07FFA0120E87300200AE026462468CA
:100F40002178890704D0E87300F07AFA022010E0D3
:100F50005CB1BC42F2D129686268891A2960D8F86C
:100F60000010A14209D1606009E0E87300F068FA5E
:100F70000120BDE8F04100F046BE21683160E87311
:100F8000BDE8F04100F05CBABDE8F0818846002081
:100F9000F82B000810B50022064C0306084649004D
:100FA00090EA030F00D561405B00521C082AF5D37C
:100FB000084610BDB71DC1040449054A486850439E
:100FC00043F239021044486070470000D4460020C4
:100FD0006D4EC641024800210170418070470000FB
:100FE000F4450020F8B5044630F8261BFFF780FED4
:100FF000002858D194F82600002704F11E0648B3B3
:10100000082850D194F82700F0BB20882230FFF741
:1010100071FA80F8267080F82770078522880546C7
:1010200004F12A012A30121F00F050FC218805F13A
:101030002600FFF75DFE288520882880802000900C
:10104000002301223146284600F002FB2846FFF724
:101050005FFF26E0154D2878C00723D094F82700BD
:1010600090B9042205F10C01304600F023FC002861
:1010700018D0618DA88809BAB0EB114F13D1208820
:101080001A2810D1612000E00DE0211811F8331C5E
:10109000814208D1401C7328F5DBA96800208847ED
:1010A0002F700120F8BD0020F8BD0000F44500209D
:1010B00010B50E4C2078C00710D0608828B10C49BC
:1010C000097BC9070AD0401E07E0607838B1401E8E
:1010D000607000F011F80748007A608010BDA168C8
:1010E000012088470020207010BD0000F44500203A
:1010F000D4460020F82B000838B51A4DE888401C6B
:10110000E8803C20FFF7F6F9082180F8261000213E
:1011100080F8271004460185A88800BA010C618573
:10112000E88800BA010CA1856120211801F8330C70
:10113000401C7328F9DB1A2104F12600FFF7D8FDC3
:1011400020851A202080802006490090002301225B
:101150000C31204600F07CFA05462046FFF7D8FE09
:10116000284638BDF44500200B4910B50022096817
:10117000083803E00A460968002909D08142F9D1FC
:1011800006484C6803681B1B036012B108681060B6
:1011900010BD0020486010BDF82B000888460020D4
:1011A000002070477047000010B500F001F90848B2
:1011B00001213C2201600021018141810173054927
:1011C0003C3800F083FBBDE8104000F021B900007E
:1011D000D4460020BC2B00082DE9F041634881690A
:1011E00041F03D018161416941F4E0314161604973
:1011F0004A6842F420024A605E490A6822F47F622B
:101200000A600A6842F434620A605B490A685B4B10
:101210001A400A600A685A4B1A430A6059490A6818
:1012200022F0F0020A600A6842F0B0020A605649F1
:101230000A686FF30B020A600A6840F244431A43DB
:101240000A60816A41F480418162816A21F48041AF
:1012500081624E4C206840F0010020602068C00789
:10126000FCD14B4D8046C5F810804FF400414046FC
:1012700001F090FC00264FF48037002000F040FC85
:1012800010F4084F02D0761CBE42F6D3022000F0C4
:1012900037FC0646032000F033FC4FF6F07108409F
:1012A0003C4940EA064088420DD14FF440510020AD
:1012B00001F070FC0026012000F022FC800602D420
:1012C000761CBE42F7D30026102000F019FCC1079F
:1012D00002D1761CBE42F7D34FF40051296041077A
:1012E00003D5296841F400612960800703D4286888
:1012F00040F4804028604FF4826068608020A861DC
:101300002548818829640178D0F8010041EA00204D
:10131000686400F015FC2149224B002081F8008010
:101320001F4E014603F5C157491C022900D1002177
:1013300003EB0012166000EB400C07EB4C2CC2F8DC
:1013400008C003EB011C401CC2F80CC00228EBD300
:1013500023611548A061286840F00C0028604FF018
:10136000FF3060611148E061BDE8F081001002408B
:101370000000014000080140040C0140FF0F00FF85
:1013800000B0BB0000100140041401400090024076
:1013900000800240905C002013000020010000202B
:1013A00000001030780000200220100040000100F2
:1013B00010B500F03EF8154913480022D1E900436A
:1013C00023441B1F23601A60626002608281827363
:1013D000C2734A68B2F5803F06D202EB420292081D
:1013E00042604A68520805E0A2F5804242604A68BD
:1013F000A2F500428260C97A11F0060F02D041685E
:101400004908816010BD000088460020F82B0008C4
:1014100010B5FFF7A5FC00F0E7F8FFF7DBFD01F0E2
:1014200079FA00F0F1FB00F07BFABDE81040FFF71D
:10143000AFBA4FF0E0214FF00050C1F8840170477F
:101440004FF0E0214FF00050C1F804017047000058
:101450002DE9F0410446808A0D4600BA060C218829
:1014600006F10E0081424BD3A07C0421B1EB101F8A
:1014700046D1A07F00F0F000E02841D27DB1032DDD
:1014800032D000BF254905EB850001EB800104F156
:1014900022000422074600F00DFA30B124E004F1E6
:1014A0001E0000F085F958BBECE704221C493846C1
:1014B00000F000FAC0B91DBB39780E223846B2EBF5
:1014C000111F02D1FFF76CFE01E000F071F9012855
:1014D00005D02046FFF73CFC90B1E07E02E0E07EC4
:1014E000022801D011280BD104F1120000F01AF8E3
:1014F00030B9208B43F6FF7109BA10EA114F02D0C0
:101500000020BDE8F081A07C0007800E00F10E01F4
:101510006180301A20800120F3E700009846002007
:101520003A2C000801780907890EFFF7E1BB00009B
:101530002DE9F04107460078274D7F2809D0274C38
:10154000E07AC00718D02649384600F027F9A0BB3A
:101550000CE00320287104222249384600F0AAF941
:1015600008B9042028711F48BDE8F0810422FF213A
:10157000384600F0CBF900BBE07A8107184800F14B
:101580001400804604D50146384600F007F9D0B96A
:10159000E07A134E400706F1280604D53146384656
:1015A00000F0FCF898B9E17A0A2088430BD0C9B260
:1015B000142088430BD0C80703D0002028710848A6
:1015C000D2E7880703D5012028714046CCE70220E6
:1015D00028713046C8E7000028000020F82B0008DA
:1015E000984600203E2C0008014900200860704702
:1015F00028000020144810B50468002C22D0134A9B
:10160000012191736168016003212046FFF720FFEB
:10161000012812D1E07E012804D006280AD0112822
:101620000BD103E02046FFF7DDFC06E0204601F089
:10163000C7F902E0204600F03DFD2046BDE810401D
:10164000FFF766BC10BD000028000020D446002033
:101650002DE9F0470F4608990446012A05D0022AD1
:1016600003D0062A01D0112A7DD14A48012600253F
:101670008673022A02D16088262840D04520A074B3
:1016800020881430208080B200BA000CA082E3745D
:10169000414B188890FA80FC4FEA1C4C401CA4F87F
:1016A00016C01880062A39D000202083A176E27661
:1016B000A5833846FFF73CFF0146042204F11E00D3
:1016C00000F004F90422394604F1220000F0FEF88B
:1016D00004F112008146FFF725FFA0832088DFF880
:1016E000B8800E3080B208F10408208098F8041009
:1016F00005294CD2DFE801F0171C222749004620BB
:10170000A074942084F82600042084F8270084F82C
:10171000285084F8295020881830B3E74FF48040CF
:1017200000BA000CC1E72046BDE8F047FFF79CBBBC
:101730002046BDE8F047212100F0CBB92046BDE8A6
:10174000F04700F051BA274640F08040FEF7D2FE45
:1017500004000DD03A88494604F112000E3A00F018
:10176000B5F8656000E012E0D8F8000018B105E0B7
:101770002846BDE8F087C8F8004004E0416809B198
:101780000846FBE744603046F3E70120F1E700201C
:10179000EFE70000D446002024000020026808681B
:1017A00089685040084201D10120704700207047ED
:1017B000064A0168136890684B40034202D108430F
:1017C000401C01D00020704701207047984600203F
:1017D00018A086B00FC80DF1040C8CE80F0019A0FA
:1017E00000680590FFF7E0FC174A0321002001F094
:1017F0006FF8164D4FF47A76287010B1314601F02B
:1018000095F800F025F801A8FEF734FD84B22046D3
:1018100001F04EF8074601A9FEF708FD00943B468B
:10182000324605A9287801F027F96420FFF783FAEA
:10183000E7E7000048656C6C6F20576F726C64219D
:1018400000000000C0A80001AD2800080000002032
:1018500010B5154C0020617B012905D02073A073C1
:1018600000F062F9A07B10BD60730121A173217BA0
:101870000E4B41F00101217362895B7A1A4492B2E6
:101880006281B2F57A7FEBD360812089401C208190
:1018900041F00200207306496068484343F2390171
:1018A00008446060DCE70000D4460020F82B000804
:1018B0006D4EC64110B505E0835C8C5CA34201D03F
:1018C000002010BD521EF7D5012010BD10B50346F3
:1018D000002002E00C5C1C54401C9042FADB1046D5
:1018E00010BD70B504460D464FF0FF3006E022787B
:1018F00001461046FFF74EFB641C6D1E002DF6D10D
:1019000070BD521E01D48154FBE7704704E0835C34
:101910008B4201D000207047521EF8D5012070473D
:1019200010B5074A0321002000F0D2FF0549002826
:10193000087004D0BDE81040892100F0F7BF10BD49
:1019400049190008360000202DE9FF4FDFF84CB19F
:1019500081B01C469BF800100E9F81427ED1892ADF
:101960007CD1322F7AD360884FF4887109BAB0EBFA
:10197000114F73D1A1884FF0010A9AFA8AF0B1EBA6
:10198000104F6BD1E088002631BAB0EB114F65D112
:10199000208931BAB0EB114F7DD1608931BAB0EBFB
:1019A000114F78D12820FEF7A5FD054604F10D0161
:1019B0004FEA060811F8012B130111F8012BA3F5CA
:1019C0008263413A1A4300F8082008F10108B8F18F
:1019D000100FEFD300EB080111F8011C09B1202909
:1019E00002D1B8F10108F5D12D4805F80860B146DB
:1019F000C16805F11400064600F0F8F808F101028C
:101A000031462846FFF756FF01283DD107F10C0863
:101A10001FFA88F000F04CFF0646208830804FF413
:101A2000054000BA000C708099FA89F0000CB08073
:101A30009AFA8AF0000CF08099FA89F0000C308153
:101A400099FA89F0000C7081277B04F10C01BA1D12
:101A500006F10C00FFF73AFF123700E01BE0F01927
:101A600008221049FFF732FF0837F01904220E4907
:101A7000FFF72CFF1FFA88F00090334689229BF86D
:101A80000000029900F0F8FF2846FFF741FA012014
:101A900005B0BDE8F08F0020FAE700003600002016
:101AA000F82B0008422C0008984600200178427864
:101AB000090641EA02418278C07841EA02210843DE
:101AC00070470A0E02700A0C42700A0A8270C170D6
:101AD0007047002070470000084A30B413785478EB
:101AE000591C01F01F018C4205D002EB83035860A2
:101AF000117030BC704730BCFFF736BB0446002085
:101B000040F6010141EA80100649086100204FF4C7
:101B1000A0230A69D20702D0401C9842F9D3486931
:101B200080B270470080024010B5FFF733F9FFF72D
:101B300061FDFFF7BDFABDE8104000F0EDB8000010
:101B4000F0B510490020104B487001464FF000449A
:101B50004FF48C4503F16006491C042900D1002193
:101B600003EB0012146000EB400706EB4727C2E9C5
:101B7000015703EB0117401CD7600428ECD303483E
:101B8000C360F0BD0100002038000020009002403A
:101B9000F0B5124E1249357801EB0513196800298A
:101BA000FCDB9968021D21F003040188C91C890827
:101BB00003D080CA491E80C4FBD1008858601868D1
:101BC00040F0004018606D1C022D00D10025054832
:101BD00035700221416100214160F0BD010000200B
:101BE0007800002000900240002070470A78A2F19F
:101BF0006103192B00D8203A0270002A02D0401C41
:101C0000491CF3E77047FEE704480179006801EBDF
:101C100001118A000021FFF774BE00001C2C00088F
:101C20002DE9F041234E054601F10C08377934685F
:101C300017E02078022812D92988208909BAB0EB48
:101C4000114F0CD16988608909BAB0EB114F06D1E8
:101C500004224146201DFFF72DFE012808D0443400
:101C60007F1E002FE5DC687B10F0150F1FD102E00E
:101C70002046BDE8F081800719D53079346814E03A
:101C8000217802290FD16A88618912BAB1EB124F0B
:101C900009D104224146201DFFF718FE288800BA0A
:101CA000000C2081E4E7401E44340028E8DC0020DA
:101CB000DFE700001C2C0008F0B50A7B6FF003037F
:101CC00003EA9205143D25D0002240F2B4534FF4AC
:101CD000067414311CE08E5C002E1BD0012E02D045
:101CE000022E10D101E0521C12E08E187778042FDA
:101CF00009D1768876BA9E4201D91E4602E0A642F4
:101D000000D2264686818E187678002E02D0324484
:101D1000AA42E0D3F0BD00002DE9F047DFF8709251
:101D20009C4D99F80C30D80711D0002228680BE0A0
:101D3000418A09B1491E4182990703D5018A09B137
:101D4000491E01824430521C29799142F0DC00275F
:101D50003E46DFF84482FDE098F800104046491CFA
:101D6000C9B288F800102A79914201D90121017085
:101D700098F800006FF0430200EB0010296802EBB6
:101D800080000C1820780B287DD2DFE800F0E2E21A
:101D9000E2B0A3CADACACABE0600A078C00708D05B
:101DA000D4E90601884204D11121204600F048FC04
:101DB00053E0207D40B199F80C10C90704D0401EB3
:101DC00010F0FF00207518D0208AC0B1A37813F05E
:101DD000240F57D0D4E906010A1A618EA08D8142E2
:101DE00000D20846A189114481424BD8580736D504
:101DF0002046BDE8F04700F0D9BB10219CE0607898
:101E0000C0061CD5A078800706D4A07840F0420018
:101E1000A0706879A0750AE0608A002833D1A07D9F
:101E200040B1401EA075A07840F04000A070E88846
:101E30006082E2E7A07840F01000A07092E01121EB
:101E4000204600F0FDFBA078221D40F01000A0709D
:101E5000256C2389607D0221A847052192E001209D
:101E6000FEF738FF70B1A078221D40F01000A0707E
:101E7000D4F840C02389607D0421E047A07820F099
:101E80003000A07000E03FE0D4E90601884260D055
:101E9000608AC8BBA07DC8B1401EA075608EA189B4
:101EA00088420AD9A28D824200D210464008B0EB87
:101EB000410F00D84800A0866186E675A07820F022
:101EC0000800A070204600F064FB91E7204600F077
:101ED00053FBAFE7608AB8B9A069E061A07DE0B3C9
:101EE000401EA07568896082A686022124E0608A6F
:101EF00050B9A069E061A07D78B3401EA075E88864
:101F00006082A686122117E023E0608A08BB607811
:101F1000C00701D0022100E00121204600F032FC80
:101F200017E0608AA8B9A069E061A07DA8B1401E51
:101F3000A075E888608211212046BDE8F04700F0D6
:101F40007FBB608A28B9A07D38B1401EA075E888A3
:101F500060827F1C2879B84200E003E03FF6FCAEC7
:101F6000BDE8F0870421204600F06AFB221D256CA5
:101F70002389607D0321A8476078C00701D0022132
:101F800000E001212046BDE8F04700F0FBBB000067
:101F9000D44600201C2C00083000002070B50446F8
:101FA0008269C06B0D46014604E083891A4495425C
:101FB00003D040680028F8D100E030B9531C9D429E
:101FC00034D1A378DB0731D01546A561226A521BB4
:101FD00000D525628A6882B1204B1B689A1AB4F931
:101FE0002E30B2EBE3021344E38500D55242B4F93C
:101FF0003030A2EBA3021A4422860022E26340B1F1
:102000004368E363426004E008464E68FEF780FFE1
:1020100031460029F8D1A078010708D5216A691A4C
:1020200004D420F00800A070A08E608670BD608E81
:10203000A18E4FF480356B1E8842A18905D80144DA
:10204000A94200D31946618670BD494391FBF0F166
:102050000A18AA4200D31A46628670BDD4460020F0
:10206000C17D032924D317D1828D418E8A4200D2AB
:10207000114682894908B1EB420F00D85100818690
:1020800002EB420211444186C1690162817841F04C
:102090000801817000F07DBA8178090708D5418E6A
:1020A00082891144B1F5803F01D34FF6FF7141861B
:1020B000704700002DE9F84F81464188001D0F1838
:1020C00000903A7B6FF0030000EA9200142866D378
:1020D000B9F80020824262D30144101AA9F8021014
:1020E0001FFA80F809F112013846FFF799FD040044
:1020F00009F11E00834635D000220421001DFEF7A1
:1021000001FE024604215846FEF7FCFD99F81B200B
:1021100001461046FEF70AFEB9F8002001461046B7
:10212000FEF704FE0246B9F800103846FEF7EAFD55
:10213000C0430004000C32D1381DFFF7B7FC054640
:1021400007F10800FFF7B2FC064620784FF0000ABE
:10215000801E092870D2DFE800F0E1FCFBFAF9F8F4
:10216000F7F6070001466FE1787B41070AD5A06BBF
:10217000A8426FD0291A12D4E18E0844281A0ED52D
:102180001021DEE181074FEAC0600AD5002806DA97
:10219000A06B6D1CA84202D1E069B042F0D0BDE84E
:1021A000F88F0028FBDAA3690021F01A17D4E06940
:1021B000301A002813DCF889A26A00BA000C921BBE
:1021C00008D4626AB2EB050C04D4AA4207D1A28DEE
:1021D000824204D2A18DA085C4E90956411AE06962
:1021E00083422AD0206A301A00280FDCB8F1000F91
:1021F0000ED1787BC0070BD151B9E07DFF2801D209
:10220000401CE0752046FFF72BFF01E084F817A083
:1022100031462046FFF7C2FEA078C0070DD0E06926
:10222000B04204D10521204600F0ACFA14E1761C3E
:10223000B04202D105215AE192E1A07820F00201DA
:10224000A170A06BA84206D06D1CA84298D1E0896D
:10225000208295E713E141F01000A070B8F1000F63
:102260001FD0E18EE9B1810608D520F02000A070D2
:10227000221D256C2389607D0421A847BB4D434660
:1022800085F801A0B9F802100098266C0A18607D44
:102290000521B0476878002881D1A16B01EB0800C7
:1022A000A063787BC00712D0D4E9060188420ED122
:1022B000221D256C2389607D0221A847A06B112176
:1022C000401CA063204600F0BBF908210FE1A07874
:1022D000B8F1000F20F01000A0701CD06178080742
:1022E00008D5E08E404503D9A0EB0800E08601E068
:1022F000A4F836A0480708D5207D30B9E08E20B17B
:102300009B48807A401C207505E084F814A01021B9
:10231000204600F095F9E089208240E7787B41076C
:1023200001D50221E3E0C1062CD480072AD5221D65
:10233000266C2389607D0021B04718B339462046BA
:10234000FFF7BAFC06E001E1E7E0D5E0AFE080E0AE
:102350004DE01CE0FEF730FEA061E0612062F889EC
:1023600000BA000CA085681E6D1CA56360624FF664
:10237000FF70A0867F4884F817A0A4F82EA0C0881C
:1023800020865AE05946384600F0B4F9C9E7787B10
:10239000410774D4810712D5C006BED5E069B042AA
:1023A000BBD1204600F0DAF9F88900BA000CA0850C
:1023B000681E6D1CA5636062E069A06132E0C10621
:1023C00012D5E069B042A8D1A06BA842A5D12046A1
:1023D00000F0C4F9E069A061221D256C2389607DAD
:1023E0000121A8470A2182E0800796D42BE0787B60
:1023F000410744D4810726D5C00618D5E069B0420C
:102400008BD139462046FFF757FC204600F0A6F94D
:10241000E069A061F88900BA000CA085681E6D1CF7
:10242000A56360621021204600F00AF9D4E739461E
:102430002046FFF741FC6D1CA5631221204600F0E9
:10244000FFF8032153E059463846BDE8F84F00F045
:1024500051B9787B40077CD4787BC1074FEAC060D4
:1024600018D000280CDAE069B04202D0A169B1426C
:1024700096D105EB0801491CA163A06120E068E04A
:1024800005EB0800401CA0631021204600F0D8F89E
:1024900007212CE00028BFF640AFE069711C88429C
:1024A0003FF43BAFB0428ED10621A0611FE0787BA4
:1024B00041074ED4C10709D005EB0800401CA063BA
:1024C0001021204600F0BCF8092110E001077FF53B
:1024D00024AFC006FBD5E069B04291D105EB0800FE
:1024E000A0631421204600F0ABF81FE00121204634
:1024F000BDE8F84F00F046B9787B410729D4C10602
:1025000004D5E069B042B3D1A061DDE7C007C7D010
:1025100005EB0800401CA06332E6787B410718D425
:10252000C10607D5E069B042A2D1A0616078C007BA
:10253000DCD0F6E6C007B3D005EB0800401C112143
:10254000A0632046BDE8F84F00F07AB8787B4107D9
:10255000DCD5221D256C2389607D0321A847E5E792
:10256000BDE8F84F0620FFF74EBB0000300000200A
:10257000F82B00081C2C000810B50146C06B002287
:10258000CA6303E04468FEF7C3FC20460028F9D183
:1025900010BD817841F004018170C06B002102E020
:1025A0008160C18140680028FAD170472DE9F0416F
:1025B00004468069E56B04E0E98929B1A9896D6861
:1025C0000844002DF8D117E0B5B11C49A27D497926
:1025D000891A072900D90721228EB4F92E3002EB7F
:1025E000E3028A406282E1892182A17841F0800180
:1025F000A1706F6877B112E0A178C90704D0E061DB
:102600001121204600F01CF8A07820F00400A070F2
:10261000BDE8F081CA0702D121F00401A170AE89A2
:10262000A86046F400422946204600F03CF86F605E
:10263000AE81EE810020A860EAE700001C2C0008B3
:1026400070B504460E463A20FDF754FF00210546BA
:1026500001806089A8802089E880E069A860A0786E
:10266000420605D520F04000A070A868401EA86072
:10267000B00702D0E069401CE061A06BE860700721
:1026800002D5F00600D4E960E08E2882AE74E078CE
:10269000E8742175211D284600F0A8F82846BDE8F9
:1026A0007040FEF735BC0B4630B422F4004119806F
:1026B00044899C800489DC80120404D4C2699A6035
:1026C000C2691144C161816BD960C18E1982102128
:1026D000997481780A0604D521F08001817018214F
:1026E0009974C178D97400210175011D30BC184658
:1026F00000F07CB82DE9F0410546407B0F464007CD
:102700002AD43620FDF7F6FE0026044606806888A7
:1027100000BA000CA080288800BA000CE08005F107
:102720000800FFF7C3F9A060281DFFF7BFF9E060BC
:10273000687B10F0120F02D00420E66000E0142045
:10274000A0742682E6743946204600F04FF82046F1
:10275000BDE8F041FEF7DCBBBDE8F081838E8189E6
:102760004FF6FF722BB1B1F5896F06D202EA8101F3
:1027700005E002EA4102828601E001EB4101418667
:102780007047000030B4184A002301700B2920D292
:10279000DFE801F0212121150A1B1B1B1B060E007F
:1027A00011894182837514E091894182117D0FE086
:1027B000C1890182817821F0020181700375D1887D
:1027C00041825179817530BC7047D18841820121A5
:1027D00081750382F7E783704FF406718181518A16
:1027E000C18630BCFFF7C8BE1C2C0008F8B50446F3
:1027F00000F1260580880E4600BA000C2880E0888B
:1028000000BA000C6880281DA168FFF75AF905F18D
:102810000800E168FFF755F950202873A07C687321
:10282000208A00BA000CE881002028826882208873
:102830006080A07C80070DD54FF4017109BA090CA6
:10284000618719496020098A09BA090CA187287390
:10285000042020802088143020803046FEF768FE57
:1028600000220421FEF74EFA024604213046FEF70C
:1028700049FA01460620FEF759FA01462088FEF77C
:1028800055FA024621882846FEF73CFAC04380B23A
:1028900000BA000C288280200090E37C062231469A
:1028A0002046FEF7D5FEF8BD1C2C0008002070471E
:1028B00010B5010403D520F4004040F080402A30D8
:1028C000FDF718FE002802D02A2141802E3010BDCD
:1028D00070B5032904D81AB10D4D01242B6805E009
:1028E000002070BD1E7846B10C33641C2E79A642C0
:1028F000F8DA0420FFF787F9F2E701251D709D71D2
:102900005970D87000209880E0B29A6070BD0000C5
:10291000142C000804480179006801EB41018A0089
:102920000021FEF7EEBF0000142C000870B50C4625
:1029300050B316490A79824226D3096800EB400059
:102940006FF00B0202EB80000D18287801281BD1D4
:102950002CB1204600F01EF8012815D00FE00C4CD9
:102960004FF480662088401C80B22080B04200D2A4
:102970002680208800F00EF80028F3D12488AC804F
:1029800002202870012070BD002070BD142C0008AA
:1029900034000020094B10B50022196809E08C882A
:1029A000844204D10C78012C01D9012010BD0C31D6
:1029B000521C1C799442F2DC002010BD142C00083B
:1029C0002DE9F84305464188001D0C180821A08810
:1029D00000BAB1EB104F44D8264901200E6844E0FC
:1029E0003278022A3FD16388B2881BBAB2EB134F08
:1029F00039D110F0FF0734D0707805F11E08810737
:102A000022D5E08800B30022042105F12200FEF760
:102A100079F9024604214046FEF774F90146E87E42
:102A2000FEF784F9A18809BA0A0C01461046FEF7A0
:102A30007DF90246A08800BA010C2046FEF762F933
:102A4000C0430004000C0CD1288804F108030838A6
:102A500080B200902088B56800BA020C4146384622
:102A6000A847BDE8F883401C0C360A798242B7DAE1
:102A7000F7E70000142C00082DE9F8439046089D64
:102A80008946A3F12E04002B5BD061882A2958D1F6
:102A900018B13F490A79824203D22046FEF738FA3C
:102AA0004FE0096800EB40006FF00B0202EB800082
:102AB0000E184846FEF7FAFFE0B3B8F1000F3AD01F
:102AC0003078022837D1ADB34FF4B860854200D9D1
:102AD0000546B088083500BA000CE08498FA88F002
:102AE000000C208528BA000C60850020A085707835
:102AF00004F12607C0072CD04846FEF719FD002236
:102B00000421FEF7FFF8024604214846FEF7FAF8D2
:102B100001461120FEF70AF90146A8B2FEF706F9B0
:102B2000024629463846FEF7EDF8C0430004000C83
:102B30000AD00BE0FFE7B078C107AED020F001006B
:102B4000B0700020BDE8F8834FF6FF7000BA000CAB
:102B5000F880258099F8001080200E22B2EB111F1A
:102B600000D1B0790090F378112249462046FEF753
:102B70006FFD0546B078C10705D020F00100B070A8
:102B80002A20608002E02046FEF7C2F92846D9E7F5
:102B9000142C0008084A516140F6030141EA8010F4
:102BA000106100204FF4A0231169C90702D0401C16
:102BB0009842F9D37047000000800240C0A8007B13
:102BC000C0A800FEFFFFFF00C2190281C2190282E5
:102BD00000000000000000000000000000000000F5
:102BE00000000000000000000000000000000000E5
:102BF000000000000000000098240020401F00009A
:102C00000A64023903000020D84300200A96040217
:102C1000000000006444002005000000A0440020E3
:102C200005052800020014000A007800B4051C11F4
:102C300007000000000000000000FFFFFFFF7F0012
:102C40000001000493E000060000FFFFFFFFFFFF0C
:102C5000702C000800000020380000008C010008E3
:102C6000A82C000838000020104D0000A801000822
:102C70000000006D6362323330300000000000005D
:102C80000000001E306CA2455E0000000000000045
:102C90000000000000000000000000000000000034
:082CA00000000000000000002C
:04000005080001519D
:00000001FF
