:020000040800F2
:1000000098060020ED010008F5010008F70100083E
:10001000F9010008FB010008FD01000800000000D4
:10002000000000000000000000000000FF010008C8
:100030000102000800000000030200080502000899
:10004000070200080702000807020008070200086C
:10005000070200080702000807020008070200085C
:10006000070200080702000807020008070200084C
:10007000070200080702000807020008070200083C
:10008000070200080702000807020008070200082C
:10009000070200080702000807020008070200081C
:1000A000070200080702000807020008070200080C
:1000B00007020008070200080702000807020008FC
:1000C00007020008070200080702000807020008EC
:1000D00007020008070200080702000807020008DC
:1000E00007020008070200080702000800000000DD
:1000F0000000000000000000000000000000000000
:1001000000000000000000000702000807020008CD
:10011000070200080702000807020008070200089B
:10012000070200080702000807020008070200088B
:10013000070200080702000807020008070200087B
:10014000070200080702000807020008070200086B
:1001500000F002F800F03AF80AA090E8000C82449F
:100160008344AAF10107DA4501D100F02FF8AFF27C
:10017000090EBAE80F0013F0010F18BFFB1A43F085
:1001800001031847080E0000280E0000103A24BF93
:1001900078C878C1FAD8520724BF30C830C144BFEC
:1001A00004680C607047000000230024002500262E
:1001B000103A28BF78C1FBD8520728BF30C148BFCA
:1001C0000B6070471FB51FBD10B510BD00F0A7FE36
:1001D0001146FFF7F7FF00F029F800F0C5FE03B461
:1001E000FFF7F2FF03BC00F0C9FE0000094880479A
:1001F00009480047FEE7FEE7FEE7FEE7FEE7FEE709
:10020000FEE7FEE7FEE7FEE704480549054A064B20
:1002100070470000BD03000851010008980000204D
:1002200098060020980200209802002000F01EF896
:1002300000F026F83C200C4908604020486040014E
:1002400088600020C86000F07EF90121002000F0E5
:1002500097F947F6F071042000F0F3F903E001216B
:10026000002000F0B1F9FAE72800002010B50121C4
:10027000042000F0ECFD0121480700F0F5FD10BD61
:1002800008B51020ADF8000000208DF80300694685
:10029000064800F073FA08BD01B502E00098401E60
:1002A000009000980028F9D108BD00000008014026
:1002B0000CB50020019000909148006840F4803017
:1002C0008F49086000BF8E48006800F4003000903D
:1002D0000198401C0190009818B90198B0F5A06FE2
:1002E000F1D18748006810F4003F02D0012000904F
:1002F00001E000200090009801285AD18148006850
:1003000040F010007F4908600846006820F00300B4
:1003100008600846006840F00200086078484068BD
:10032000774948600846406848600846406840F49D
:10033000806048600846C06A734908407049C862D6
:100340000846C06A714908436D49C862084600689A
:1003500040F08060086000BF6948006810F0006FDE
:10036000FAD06748406820F47C1065494860084628
:10037000406840F4E81048600846006840F080702B
:10038000086000BF5E48006810F0007FFAD05C484B
:10039000406820F003005A4948600846406840F031
:1003A0000200486000BF5648406800F00C00082872
:1003B000F9D10CBD10B5FFF77BFF10BD10B550484B
:1003C000006840F001004E49086008464068504906
:1003D00008404B494860084600684E490840484973
:1003E00008600846006820F48020086008464068DD
:1003F00020F4FE0048600846006820F0A050086025
:100400004FF47F0088600020C862FFF7D3FF4FF0F1
:1004100000604149086010BDF0B5002100200023B4
:100420000024002200250026354F7F6807F00C01CC
:1004300021B1042908D008294BD10BE0374FDFF850
:10044000E0C0CCF800704AE0364FDFF8D4C0CCF8FA
:10045000007044E02A4F7F6807F47010284F7F68CF
:1004600007F48033800C0D2801D0801C00E00620AA
:1004700033B92D4F4743DFF8A8C0CCF8007027E010
:100480001F4FFF6A07F480341D4FFF6A07F00F0704
:100490007A1C44B9234FB7FBF2F74743DFF880C01B
:1004A000CCF8007014E0164FFF6AC7F303177D1CE9
:1004B000134FFF6AC7F30327BE1C1A4FB7FBF5F7AC
:1004C0007743B7FBF2F74743DFF854C0CCF800702E
:1004D00005E0124FDFF848C0CCF8007000BF00BF45
:1004E000074F7F68C7F30317DFF840C01CF80710F9
:1004F0000B4F3F68CF40DFF828C0CCF80070F0BD4C
:10050000001002400020024000F0FEFF44060100FF
:100510000000FFF0FFFFF6FE08ED00E000127A0099
:100520000000002040787D0100093D00040000200B
:1005300010B50121480700F0BEFC00214FF000502B
:1005400000F0B9FC10BD30B5002200235A4C2268DF
:1005500040F6FE748440A243D1E900452C438D68E7
:100560002C43CD6844EA050303FA00F42243524CBD
:10057000226030BD0021016041608160C160704730
:1005800039B14D4A1268012383401A434A4B1A601D
:1005900006E0494A1268012383409A43464B1A6099
:1005A000704741B1444A12684FF4805383401A4364
:1005B000414B1A6007E0404A12684FF48053834071
:1005C0009A433D4B1A60704710B551B13A4A121D1B
:1005D000126804090123A3401A43374B1B1D1A60FC
:1005E00009E0354A121D126804090123A3409A4309
:1005F000314B1B1D1A6010BD40B12F49091D096800
:1006000041F003012C4A121D116007E02A49091D1F
:10061000096821F00301284A121D1160704710B5C6
:100620003AB1254B1B6801FA00F42343224C2360A6
:1006300006E0214B1B6801FA00F4A3431E4C236023
:1006400010BD08B5002200921B4A009200F108027A
:10065000009B1A440092009A116008BD08B5002260
:100660000092154A009200F11402009B1A44009275
:10067000009A116008BD30B500240023082802D17B
:1006800042EA012401E042EA01440B4B00F120055B
:100690002B441C6030BD08B5014600200090064880
:1006A00000902C2000EB9100009A104400900098DC
:1006B000006880B208BD00000074004010B5044618
:1006C000CA48844208D10121042000F0E7FB002140
:1006D000042000F0E3FB46E0C548844208D1012134
:1006E000082000F0DBFB0021082000F0D7FB3AE0F7
:1006F000C048844208D10121102000F0CFFB002126
:10070000102000F0CBFB2EE0BB48844208D1012131
:10071000202000F0C3FB0021202000F0BFFB22E0DE
:10072000B648844208D10121402000F0B7FB0021E7
:10073000402000F0B3FB16E0B148844208D101210B
:10074000802000F0ABFB0021802000F0A7FB0AE036
:10075000AC48844207D10121801500F09FFB0021A5
:10076000A01500F09BFB10BD10B50121084600F05C
:1007700095FB0021012000F091FB10BD2DE9F04117
:10078000024600250026002000230024002791F8BF
:1007900003C00CF00F0591F803C01CF0100F03D03C
:1007A00091F802C04CEA050591F800C0BCF1000FB9
:1007B00031D0146800202BE04FF0010C0CFA00F34C
:1007C000B1F800C00CEA03069E4220D183004FF02E
:1007D0000F0C0CFA03F7BC4305FA03FC4CEA0404C3
:1007E00091F803C0BCF1280F06D14FF0010C0CFAB0
:1007F00000FCC2F814C00AE091F803C0BCF1480F35
:1008000005D14FF0010C0CFA00FCC2F810C0401CDE
:100810000828D1D31460B1F800C0BCF1FF0F34DD5B
:10082000546800202EE000F1080C4FF0010808FA8F
:100830000CF3B1F800C00CEA03069E4221D18300FC
:100840004FF00F0C0CFA03F7BC4305FA03FC4CEA1B
:10085000040491F803C0BCF1280F05D100F1080C85
:1008600008FA0CF8C2F8148091F803C0BCF1480FE4
:1008700007D100F1080C4FF0010808FA0CF8C2F893
:100880001080401C0828CED35460BDE8F0814FF69C
:10089000FF710180022181700421C17070470246FE
:1008A000002093680B4201D0012000E00020704737
:1008B0000146886880B2704702460020D3680B4228
:1008C00001D0012000E0002070470146C86880B2D6
:1008D000704701617047416170470AB1016100E0F2
:1008E00041617047C16070474FF480320A438261B2
:1008F0008161826182698269704702460020424BB1
:1009000018684FF68073184040EA021008433E4BC7
:10091000186070473D49C8617047F0B50A4600232A
:1009200000240021002500F00046B6F1004F02D15E
:10093000354EF16901E0344E7168C0F3034583B26E
:1009400000F44016B6F5401F08D121F070612E4E1C
:10095000766826F070662C4F7E6012E000F48016F8
:10096000B6F5801F06D1032606FA05F4A14341F02F
:10097000706106E0460D360103FA06F6B14341F018
:10098000706122B1460D360103FA06F6314300F0DC
:100990000046B6F1004F02D11B4EF16101E01A4E44
:1009A0007160F0BD30B500228B071C0F0F2303FAD6
:1009B00004F2154B08338C1053F824309343124C37
:1009C00008348D1044F8253023468C1053F8243019
:1009D0008C07240F00FA04F423430B4C08348D10C9
:1009E00044F8253030BD0A490860704700080140CE
:1009F000000C0140001001400014014000180140AB
:100A0000001C014000200140000001400000204285
:100A1000DC002042F948006840F00100F749086016
:100A200008464068F6490840F449486008460068AE
:100A3000F4490840F14908600846006820F4802025
:100A400008600846406820F4FE00486008460068D8
:100A500020F0A05008604FF47F0088600020C8623A
:100A60007047E649096821F48031E44A1160114673
:100A7000096821F480211160B0F5803F03D0B0F502
:100A8000802F0ED106E0DD49096841F48031DB4A50
:100A9000116007E0D949096841F4A021D74A1160E3
:100AA00000E000BF00BF704710B5014600220023E0
:100AB00000204A11012A02D1D04C236806E0022A04
:100AC00002D1CE4C236A01E0CC4C636A01F01F02D4
:100AD000012494401C4201D0012000E0002010BD00
:100AE00038B5002000900024002500BF3120FFF71A
:100AF000DBFF05460098401C00900098B0F5A06F01
:100B000001D0002DF2D03120FFF7CEFF08B1012433
:100B100000E00024204638BD01460020B74A106896
:100B200020F0F80040EAC10010607047B649086044
:100B3000704702460020B14B586820F4741042EA16
:100B400001031843AD4B58607047AF4908667047C2
:100B500002460020A94BD86AAC4B184042EA010378
:100B60001843A64BD862704701460020A34AD06ABA
:100B700020F0F0000843D0627047014600209F4AF1
:100B8000D06A20F470600843D06270479E4988663E
:100B9000704701460020994AD06A20F4704008430B
:100BA000D062704798490867704701460020934A11
:100BB000506820F003000843506070478F48406839
:100BC00000F00C007047014600208C4A506820F06D
:100BD000F00008435060704701460020874A506883
:100BE00020F4E06008435060704701460020834ACB
:100BF000506820F4605040EAC1005060704729B14D
:100C00007E4A527A02437D4B5A7204E07B4A527A02
:100C100082437A4B5A7270477D490860704701469B
:100C20000020764A506820F44040084350607047E6
:100C30007849086070477749091D086070470021AE
:100C4000754A11706D4A82F82010012802D00428DC
:100C500008D103E00121704A117004E005216E4AB9
:100C6000117000E000BF00BF70476C49086070471A
:100C70006249096A0143614A116270476749443910
:100C8000086070472DE9F041002100220025002373
:100C90000026002400278C46DFF86081D8F8048005
:100CA00008F00C0121B1042907D0082959D109E025
:100CB000DFF86C81C0F8008058E0DFF86881C0F888
:100CC000008053E0DFF83481D8F8048008F4701213
:100CD000DFF82881D8F8048008F48035920C0D2ABA
:100CE00001D0921C00E0062235B9DFF83C8102FBFE
:100CF00008F8C0F8008033E0DFF80081D8F82C80D5
:100D000008F48036DFF8F480D8F82C8008F00F085B
:100D100008F1010446B9DFF80C81B8FBF4F808FBD0
:100D200002F8C0F800801BE0DFF8D080D8F82C80F3
:100D3000C8F3031808F10107DFF8C080D8F82C8049
:100D4000C8F3032808F1020CDFF8D880B8FBF7F8E5
:100D500008FB0CF8B8FBF4F808FB02F8C0F80080B8
:100D600004E0DFF8BC80C0F8008000BF00BFDFF8FF
:100D70008C80D8F8048008F0F0010909DFF8AC8015
:100D800018F80130D0F8008028FA03F8C0F8048081
:100D9000DFF86880D8F8048008F4E061090ADFF819
:100DA0008C8018F80130D0F8048028FA03F8C0F8D5
:100DB0000880DFF84880D8F8048008F46051C90A38
:100DC000DFF8688018F80130D0F8048028FA03F8BA
:100DD000C0F80C80DFF82480D8F8048008F4404183
:100DE000890BDFF84C8018F80130D0F80C80B8FB84
:100DF000F3F8C0F81080BDE8F08100000010024058
:100E00000000FFF0FFFFF6FE00004242F0FFFEFF91
:100E1000D8004242C40542422010024080044242AF
:100E200000127A0040787D0100093D001400002086
:100E30002400002029B1354A52690243334B5A61DC
:100E400004E0324A52698243304B5A61704729B1FB
:100E50002E4A926902432D4B9A6104E02B4A926913
:100E600082432A4B9A61704729B1284AD2690243CA
:100E7000264BDA6104E0254AD2698243234BDA61CA
:100E8000704729B1214A926A0243204B9A6204E0DA
:100E90001E4A926A82431D4B9A62704729B11B4ACF
:100EA000D2680243194BDA6004E0184AD2688243E0
:100EB000164BDA60704729B1144A12690243134B8A
:100EC0001A6104E0114A12698243104B1A6170479B
:100ED0000F49086070470F49C86470470B49C871D3
:100EE00070470A48406A40F080700849486270477D
:100EF00001460020054A92680A4201D0012000E024
:100F000000207047014988727047000000100240BD
:100F100040044242000042427047704770477546A5
:100F200000F028F8AE4605006946534620F0070059
:100F3000854618B020B5FFF767F9BDE820404FF0AF
:100F400000064FF000074FF000084FF0000B21F0B3
:100F50000701AC46ACE8C009ACE8C009ACE8C00980
:100F6000ACE8C0098D4670470446AFF300802046C8
:100F7000FFF735F900487047380000200149182074
:100F8000ABBEFEE72600020070470000AC0F000871
:100F900000000020280000008C010008D40F000889
:100FA0002800002070060000A801000800A24A04E2
:100FB0000000000000000000010203040607080909
:100FC00000000000010203040102030406070809EF
:040FD0000204060809
:04000005080001519D
:00000001FF
