:020000040800F2
:1000000098060020F5010008FD010008FF01000826
:1000100001020008030200080502000800000000B9
:1000200000000000000000000000000007020008BF
:1000300009020008000000000B0200080D02000881
:100040000F0200080F0200080F0200084B0400080E
:100050000F0200080F0200080F0200080F0200083C
:100060000F0200080F0200080F0200080F0200082C
:100070000F0200080F0200080F0200080F0200081C
:100080000F0200080F0200080F0200080F0200080C
:100090000F0200080F0200080F0200080F020008FC
:1000A0000F0200080F0200080F0200080F020008EC
:1000B0000F0200080F0200080F0200080F020008DC
:1000C0000F0200080F0200080F0200080F020008CC
:1000D0000F0200080F0200080F0200080F020008BC
:1000E0000F0200080F0200080F02000800000000C5
:1000F0000000000000000000000000000000000000
:1001000000000000000000000F0200080F020008BD
:100110000F0200080F0200080F0200080F0200087B
:100120000F0200080F0200080F0200080F0200086B
:100130000F0200080F0200080F0200080F0200085B
:100140000F0200080F0200080F0200080F0200084B
:1001500000F002F800F03FF80AA090E8000C82449A
:100160008344AAF10107DA4501D100F034F8AFF277
:10017000090EBAE80F0013F0010F18BFFB1A43F085
:10018000010318470C1C00002C1C0000103A24BF6F
:1001900078C878C1FAD8520724BF30C830C144BFEC
:1001A00004680C607047000000230024002500262E
:1001B000103A28BF78C1FBD8520728BF30C148BFCA
:1001C0000B607047642901F01384002070471FB54D
:1001D0001FBD10B510BD01F073FD1146FFF7F7FF0D
:1001E00000F038F801F091FD03B4FFF7F2FF03BC13
:1001F00001F096FD0948804709480047FEE7FEE701
:10020000FEE7FEE7FEE7FEE7FEE7FEE7FEE7FEE7C6
:1002100004480549054A064B70470000510800088C
:100220005101000898000020980600209802002044
:100230009802002070B504460D4600BF80212D486D
:1002400001F088F80028F9D0A1B22A4801F014F88A
:10025000204670BD10B500F0FBFA00F099F800F0F0
:10026000A1F800F00AF900F0BEF8042000F04DFCFF
:10027000A0F52541A5390FD01FA001F0ADFB00F07E
:1002800011F925A001F0A8FB00F0A9F94AF2A55147
:10029000042000F02EFC19E07B2001F0FFF818B1DB
:1002A00023A001F099FB06E07A2001F0F7F810B1E5
:1002B00027A001F091FB2EA001F08EFB00F062FE62
:1002C0000121084600F0FAFD00F054FE01214FF034
:1002D000C05001F0C3FA012001F023FB002000F020
:1002E000EAFB802000F0EFFB01F0F5FA00F0A6F940
:1002F000002010BD003801400D0A0A20525443204E
:100300006E6F742079657420636F6E6669677572AD
:1003100065642E2E2E2E00000D0A205254432063B9
:100320006F6E666967757265642E2E2E2E00000052
:100330000D0A0A20506F776572204F6E2052657348
:100340006574206F636375727265642E2E2E2E00A5
:100350000D0A0A2045787465726E616C20526573CF
:100360006574206F636375727265642E2E2E2E0085
:100370000D0A204E6F206E65656420746F20636FD8
:100380006E666967757265205254432E2E2E2E00BC
:1003900010B50121092001F054FA0121880301F070
:1003A00050FA10BD08B50121082000F00AFD012116
:1003B000042000F006FD4020ADF8000003208DF879
:1003C000020018208DF803006946A54800F02AFCB9
:1003D0008020ADF8000004208DF803006946A04895
:1003E00000F020FC08BD1FB54FF41650009000200F
:1003F000ADF80400ADF80600ADF80800ADF80C004B
:100400000C20ADF80A006946964800F03CFE012138
:10041000944800F0C4FE1FBD1FB54FF41650009065
:100420000020ADF80400ADF80600ADF80800ADF806
:100430000C000C20ADF80A0069468B4800F023FE42
:100440000121894800F0ABFE1FBD10B5012000F06E
:10045000BDFD88B1012000F0C9FD0120834908607D
:1004600000F088FD00F04AFD8149884204D1002057
:1004700000F04DFD00F07EFD10BD08B54FF4C060EA
:1004800000F0A0FA03208DF8000001208DF8010093
:1004900000208DF8020001208DF80300684600F06E
:1004A00096FA08BD10B501214FF0C05001F0D6F901
:1004B000012001F036FA00F0F3FA012001F0B9F85A
:1004C00000BF412000F0EAFF0028FAD04FF480700E
:1004D00001F0C8F8012001F0CBF800F053FD00F066
:1004E00049FD0121084600F0E9FC00F043FD47F614
:1004F000FF7000F019FD00F03DFD10BD7CB5054614
:1005000000240020009001901BE000BF20215548EE
:1005100000F020FF0028F9D0524800F0B1FE21463B
:10052000641C4DF82100601E5DF82000302804D3C3
:10053000601E5DF82000392803D94EA001F04CFA66
:10054000641E022CE1D3019830380099303901EB58
:10055000810100EB4104AC4205D9294650A001F0CD
:100560003BFAFF207CBDE0B2FCE770B5FF26FF241C
:10057000FF25574801F030FA56A001F02DFA03E0AC
:100580001720FFF7BBFF0646FF2EF9D0314657A0D4
:1005900001F022FA57A001F01FFA03E03B20FFF719
:1005A000ADFF0446FF2CF9D0214650A001F014FA0B
:1005B00056A001F011FA03E03B20FFF79FFF05462C
:1005C000FF2DF9D0294649A001F006FA4FF46160E9
:1005D0007043C4EB041100EB8100284470BD10B5DA
:1005E00000F0C8FCFFF7C1FF044600F090FC00F0EB
:1005F000C1FC10BD2DE9F04104460025002600276E
:100600004FF46160B4FBF0F5B4FBF0F100FB114076
:100610003C21B0FBF1F64FF46160B4FBF0F100FB5C
:1006200011403C21B0FBF1F201FB12073B46324680
:1006300029463CA001F0D0F9BDE8F08140A001F0CE
:10064000CBF90BE009480068012807D100F056FCFF
:100650000446FFF7CFFF002004490860F2E70000DE
:10066000000C014000380140004400400C00002014
:10067000805101000A0D506C6561736520656E74D0
:1006800065722076616C6964206E756D626572209A
:100690006265747765656E203020616E6420390074
:1006A0000A0D506C6561736520656E746572207605
:1006B000616C6964206E756D626572206265747725
:1006C00065656E203020616E6420256400000000A6
:1006D0003C1D00080D0A2020506C65617365205395
:1006E000657420486F757273000000003A20202561
:1006F000640000000D0A2020506C65617365205372
:100700006574204D696E7574657300000D0A2020B4
:10071000506C6561736520536574205365636F6E1B
:100720006473000054696D653A2025302E32643AB6
:1007300025302E32643A25302E32640D0000000040
:100740000A0D00000CB5002001900090914800684F
:1007500040F480308F49086000BF8E48006800F484
:10076000003000900198401C0190009818B9019841
:10077000B0F5A06FF1D18748006810F4003F02D0B7
:100780000120009001E000200090009801285AD13B
:100790008148006840F010007F4908600846006802
:1007A00020F0030008600846006840F0020008607E
:1007B000784840687749486008464068486008467D
:1007C000406840F4806048600846C06A7349084049
:1007D0007049C8620846C06A714908436D49C862D9
:1007E0000846006840F08060086000BF6948006803
:1007F00010F0006FFAD06748406820F47C1065491B
:1008000048600846406840F4E810486008460068C0
:1008100040F08070086000BF5E48006810F0007F04
:10082000FAD05C48406820F003005A494860084606
:10083000406840F00200486000BF5648406800F041
:100840000C000828F9D10CBD10B5FFF77BFF10BDD7
:1008500010B55048006840F001004E490860084655
:100860004068504908404B494860084600684E4976
:100870000840484908600846006820F48020086065
:100880000846406820F4FE0048600846006820F0F2
:10089000A05008604FF47F0088600020C862FFF716
:1008A000D3FF4FF000604149086010BDF0B5002152
:1008B000002000230024002200250026354F7F68F9
:1008C00007F00C0121B1042908D008294BD10BE015
:1008D000374FDFF8E0C0CCF800704AE0364FDFF861
:1008E000D4C0CCF8007044E02A4F7F6807F4701041
:1008F000284F7F6807F48033800C0D2801D0801CBE
:1009000000E0062033B92D4F4743DFF8A8C0CCF8EC
:10091000007027E01F4FFF6A07F480341D4FFF6A05
:1009200007F00F077A1C44B9234FB7FBF2F7474390
:10093000DFF880C0CCF8007014E0164FFF6AC7F3F0
:1009400003177D1C134FFF6AC7F30327BE1C1A4F02
:10095000B7FBF5F77743B7FBF2F74743DFF854C02F
:10096000CCF8007005E0124FDFF848C0CCF80070FA
:1009700000BF00BF074F7F68C7F30317DFF840C011
:100980001CF807100B4F3F68CF40DFF828C0CCF8A9
:100990000070F0BD001002400020024000F0FEFF99
:1009A000440601000000FFF0FFFFF6FE08ED00E046
:1009B00000127A001000002040787D0100093D00FF
:1009C0001400002031490143314A1160704770B56D
:1009D000002100230F22C4780CB32D4C246804F4AA
:1009E000E064C4F5E064210AC1F10403CA4044781C
:1009F00004FA03F18478144021430901254C067858
:100A0000A155047804F01F050124AC4005786D1150
:100A10004FF0E02606EB8505C5F8004109E00478B3
:100A200004F01F050124AC401B4D0678761145F8F3
:100A3000264070BD194A0A400243154B1B1F1A601D
:100A4000704739B1124A121D12680243104B1B1D28
:100A50001A6006E00E4A121D126882430C4B1B1DE1
:100A60001A607047042808D14FF0E021096941F06D
:100A700004014FF0E022116107E04FF0E021096925
:100A800021F004014FF0E022116170470000FA05E7
:100A90000CED00E000E400E080E100E080FFFF1FDB
:100AA00010B5012000F00EFF002000F00BFF10BD7C
:100AB0002A49086070472949091F0860704727497B
:100AC00084310860704701460020254A10884FF69F
:100AD0007F4210400843224A1080704701460020A0
:100AE0001F4A10884FF68072104008431C4A10803D
:100AF000704708B500220092194A2C3A0092009AD9
:100B000002440092009A116008BD08B50146002019
:100B1000009013482C3800900098084400900098EA
:100B2000008808BD0D489C300068C0B270470C4872
:100B30000830008840F001000949083108807047FA
:100B40000648A0300068C0B27047054808300088E9
:100B500040F00200024908310880704704860D42C7
:100B60002C6C004010B50446CA48844208D10121CB
:100B7000042000F08DFE0021042000F089FE46E0F4
:100B8000C548844208D10121082000F081FE0021DF
:100B9000082000F07DFE3AE0C048844208D10121DF
:100BA000102000F075FE0021102000F071FE2EE0F4
:100BB000BB48844208D10121202000F069FE0021B9
:100BC000202000F065FE22E0B648844208D10121D1
:100BD000402000F05DFE0021402000F059FE16E0AC
:100BE000B148844208D10121802000F051FE00214B
:100BF000802000F04DFE0AE0AC48844207D101217C
:100C0000801500F045FE0021A01500F041FE10BD4A
:100C100010B50121084600F03BFE0021012000F044
:100C200037FE10BD2DE9F0410246002500260020C8
:100C300000230024002791F803C00CF00F0591F861
:100C400003C01CF0100F03D091F802C04CEA050558
:100C500091F800C0BCF1000F31D0146800202BE0E7
:100C60004FF0010C0CFA00F3B1F800C00CEA0306D7
:100C70009E4220D183004FF00F0C0CFA03F7BC43C7
:100C800005FA03FC4CEA040491F803C0BCF1280FF8
:100C900006D14FF0010C0CFA00FCC2F814C00AE0B7
:100CA00091F803C0BCF1480F05D14FF0010C0CFACC
:100CB00000FCC2F810C0401C0828D1D31460B1F861
:100CC00000C0BCF1FF0F34DD546800202EE000F1BD
:100CD000080C4FF0010808FA0CF3B1F800C00CEA58
:100CE00003069E4221D183004FF00F0C0CFA03F74C
:100CF000BC4305FA03FC4CEA040491F803C0BCF1C0
:100D0000280F05D100F1080C08FA0CF8C2F814807D
:100D100091F803C0BCF1480F07D100F1080C4FF067
:100D2000010808FA0CF8C2F81080401C0828CED33D
:100D30005460BDE8F0814FF6FF710180022181709F
:100D40000421C17070470246002093680B4201D015
:100D5000012000E0002070470146886880B270479B
:100D600002460020D3680B4201D0012000E00020A1
:100D700070470146C86880B27047016170474161A1
:100D800070470AB1016100E041617047C16070477E
:100D90004FF480320A438261816182618269826993
:100DA000704702460020424B18684FF68073184087
:100DB00040EA021008433E4B186070473D49C86145
:100DC0007047F0B50A46002300240021002500F0FA
:100DD0000046B6F1004F02D1354EF16901E0344EC4
:100DE0007168C0F3034583B200F44016B6F5401FA6
:100DF00008D121F070612E4E766826F070662C4F77
:100E00007E6012E000F48016B6F5801F06D103263E
:100E100006FA05F4A14341F0706106E0460D360183
:100E200003FA06F6B14341F0706122B1460D360176
:100E300003FA06F6314300F00046B6F1004F02D146
:100E40001B4EF16101E01A4E7160F0BD30B5002219
:100E50008B071C0F0F2303FA04F2154B08338C1079
:100E600053F824309343124C08348D1044F8253045
:100E700023468C1053F824308C07240F00FA04F416
:100E800023430B4C08348D1044F8253030BD0A49FB
:100E90000860704700080140000C0140001001404C
:100EA0000014014000180140001C014000200140D6
:100EB0000000014000002042DC00204229B14F4ADE
:100EC000128802434D4B1A8004E04C4A1288824338
:100ED0004A4B1A8070474948001D008840F01000B6
:100EE0004649091D088070474448001D00884FF698
:100EF000EF7108404149091D0880704700213F48B3
:100F00001C300188001F008841EA0040704700B58E
:100F10000246FFF7E0FF100C384918310880091D20
:100F20000A80FFF7E1FF00BD00B50246FFF7D3FFDF
:100F3000C2F30340314908310880091D0A80FFF7D8
:100F4000D3FF00BD00B50246FFF7C5FF100C2B49CB
:100F500020310880091D0A80FFF7C6FF00BD002070
:100F60002649103109880907080B244914310988DA
:100F70000843704700BF2148001D008810F0200F73
:100F8000F9D070471D48001D00884FF6F7710840E2
:100F90001A49091D088000BF1848001D008810F07C
:100FA000080FF9D0704701460020144A121D12881C
:100FB0000A4201D0012000E0002070470F49091DBE
:100FC000098881430D4A121D118070470146002097
:100FD0000A4A121D12880A40D0B2084A12880A42F0
:100FE00002D008B1012000E0002070470349091D2C
:100FF00009888143014A121D118070470028004072
:1010000010B50446FB48844209D10121880300F051
:101010003FFC00214FF4804000F03AFC32E0F648FB
:10102000844209D10121480400F03FFC00214FF423
:10103000003000F03AFC25E0F048844209D101215B
:10104000880400F032FC00214FF4802000F02DFCD9
:1010500018E0EB48844209D10121C80400F025FCC6
:1010600000214FF4002000F020FC0BE0E548844212
:1010700008D10121080500F018FC00214FF4801070
:1010800000F013FC10BD2DE9F04786B005460E4672
:101090000024A24600BFA1460027B08900B100BFCE
:1010A0002F462C8A4CF6FF700440F08804432C82B3
:1010B000AC894EF6F3100440B08831890843718939
:1010C00008430443AC81AC8A4FF6FF400440B0892A
:1010D0000443AC8201A800F0CFFAC648874202D18F
:1010E000DDF810A001E0DDF80CA0A88910F4004F95
:1010F00008D00AEBCA0000EB0A1031684900B0FBC7
:10110000F1F807E00AEBCA0000EB0A103168890029
:10111000B0FBF1F86420B8FBF0F004012009642171
:1011200001FB1089A88910F4004F08D0322000EB91
:10113000C900B0FBF1F000F00700044308E03220E2
:1011400000EB09106421B0FBF1F000F00F00044344
:101150002C8106B0BDE8F0874FF4165101600021E4
:101160008180C18001810C214181002181817047F2
:1011700010B502460020108A4FF2FF0318400B887A
:101180004C8823438C882343CC8823431843108204
:1011900010BD0021018041808180C180704721B154
:1011A000828942F40052828104E082894DF6FF7305
:1011B0001A4082817047F0B50346002400260025BE
:1011C0000020A1F510676A3F00D100BF1846C1F3A7
:1011D000421401F01F06012707FA06F5012C01D180
:1011E0000C3004E0022C01D1103000E014301AB1B0
:1011F00007682F43076002E00768AF430760F0BD50
:101200001AB1838A0B43838202E0838A8B438382F1
:101210007047028A4FF6F0731A400282028A0A432C
:101220000282704782894FF2FF731A40828182895D
:101230000A438281704721B1828942F00202828191
:1012400004E082894FF6FD731A4082817047028A5A
:101250004FF6DF731A400282028A0A430282704705
:1012600021B1028A42F48042028204E0028A4BF6F3
:10127000FF731A4002827047C1F3080282807047F0
:1012800001468888C0F308007047818941F0010158
:1012900081817047028BD2B20283028B42EA012223
:1012A00002837047028B02F47F420283028B0A435F
:1012B0000283704721B1828A42F02002828204E0D8
:1012C000828A4FF6DF731A408282704721B1828A88
:1012D00042F01002828204E0828A4FF6EF731A40D5
:1012E0008282704721B1828A42F00802828204E041
:1012F000828A4FF6F7731A408282704721B1828941
:1013000042F40042828103E08289C2F30E028281AC
:10131000704721B1828A42F40062828204E0828AAC
:101320004FF2FF731A4082827047828A4FF6FB7336
:101330001A408282828A0A438282704721B1828A5D
:1013400042F00202828204E0828A4FF6FD731A4064
:101350008282704702460020B1F5007F00D100BFB5
:1013600013880B4201D0012000E00020704701F4F7
:101370000072B2F5007F00D100BFCA4302807047FF
:1013800070B502460024002300250020A1F5106658
:101390006A3E00D100BFC1F3421501F01F030126D0
:1013A00006FA03F3012D02D19689334006E0022D9F
:1013B00002D1168A334001E0968A33400C1201268E
:1013C00006FA04F41688344013B10CB1012000E091
:1013D000002070BD10B500220023A1F510646A3C06
:1013E00000D100BF0A1201249440A3B2DC43048060
:1013F00010BD00000038014000440040004800409B
:10140000004C004000500040F948006840F00100E6
:10141000F749086008464068F6490840F4494860C2
:1014200008460068F4490840F14908600846006829
:1014300020F4802008600846406820F4FE004860E0
:101440000846006820F0A05008604FF47F008860D4
:101450000020C8627047E649096821F48031E44AF7
:1014600011601146096821F480211160B0F5803FB8
:1014700003D0B0F5802F0ED106E0DD49096841F4B4
:101480008031DB4A116007E0D949096841F4A021A5
:10149000D74A116000E000BF00BF704710B5014699
:1014A0000022002300204A11012A02D1D04C2368D7
:1014B00006E0022A02D1CE4C236A01E0CC4C636ADA
:1014C00001F01F02012494401C4201D0012000E0E1
:1014D000002010BD38B5002000900024002500BF7A
:1014E0003120FFF7DBFF05460098401C0090009874
:1014F000B0F5A06F01D0002DF2D03120FFF7CEFF64
:1015000008B1012400E00024204638BD0146002037
:10151000B74A106820F0F80040EAC1001060704738
:10152000B6490860704702460020B14B586820F465
:10153000741042EA01031843AD4B58607047AF493D
:101540000866704702460020A94BD86AAC4B184089
:1015500042EA01031843A64BD862704701460020B7
:10156000A34AD06A20F0F0000843D06270470146D9
:1015700000209F4AD06A20F470600843D062704710
:101580009E498866704701460020994AD06A20F437
:1015900070400843D0627047984908677047014619
:1015A0000020934A506820F00300084350607047C1
:1015B0008F48406800F00C007047014600208C4ABC
:1015C000506820F0F000084350607047014600204A
:1015D000874A506820F4E060084350607047014635
:1015E0000020834A506820F4605040EAC1005060F7
:1015F000704729B17E4A527A02437D4B5A7204E009
:101600007B4A527A82437A4B5A7270477D4908600E
:10161000704701460020764A506820F44040084355
:10162000506070477849086070477749091D086025
:1016300070470021754A11706D4A82F82010012808
:1016400002D0042808D103E00121704A117004E09F
:1016500005216E4A117000E000BF00BF70476C4961
:10166000086070476249096A0143614A1162704724
:1016700067494439086070472DE9F0410021002294
:10168000002500230026002400278C46DFF8608117
:10169000D8F8048008F00C0121B1042907D00829EA
:1016A00059D109E0DFF86C81C0F8008058E0DFF81C
:1016B0006881C0F8008053E0DFF83481D8F80480F6
:1016C00008F47012DFF82881D8F8048008F4803517
:1016D000920C0D2A01D0921C00E0062235B9DFF8E9
:1016E0003C8102FB08F8C0F8008033E0DFF800819D
:1016F000D8F82C8008F48036DFF8F480D8F82C80F5
:1017000008F00F0808F1010446B9DFF80C81B8FBB6
:10171000F4F808FB02F8C0F800801BE0DFF8D08086
:10172000D8F82C80C8F3031808F10107DFF8C0804F
:10173000D8F82C80C8F3032808F1020CDFF8D88011
:10174000B8FBF7F808FB0CF8B8FBF4F808FB02F854
:10175000C0F8008004E0DFF8BC80C0F8008000BF63
:1017600000BFDFF88C80D8F8048008F0F001090988
:10177000DFF8AC8018F80130D0F8008028FA03F8C0
:10178000C0F80480DFF86880D8F8048008F4E061CD
:10179000090ADFF88C8018F80130D0F8048028FAA4
:1017A00003F8C0F80880DFF84880D8F8048008F40F
:1017B0006051C90ADFF8688018F80130D0F8048059
:1017C00028FA03F8C0F80C80DFF82480D8F80480E9
:1017D00008F44041890BDFF84C8018F80130D0F84C
:1017E0000C80B8FBF3F8C0F81080BDE8F081000071
:1017F000001002400000FFF0FFFFF6FE0000424232
:10180000F0FFFEFFD8004242C405424220100240D1
:101810008004424200127A0040787D0100093D00B8
:10182000240000203400002029B1354A52690243C7
:10183000334B5A6104E0324A52698243304B5A6159
:10184000704729B12E4A926902432D4B9A6104E0F8
:101850002B4A926982432A4B9A61704729B1284AE0
:10186000D2690243264BDA6104E0254AD2698243F9
:10187000234BDA61704729B1214A926A0243204B17
:101880009A6204E01E4A926A82431D4B9A62704734
:1018900029B11B4AD2680243194BDA6004E0184AA6
:1018A000D2688243164BDA60704729B1144A126934
:1018B0000243134B1A6104E0114A12698243104B30
:1018C0001A6170470F49086070470F49C864704734
:1018D0000B49C87170470A48406A40F08070084957
:1018E0004862704701460020054A92680A4201D0CA
:1018F000012000E000207047014988727047000015
:1019000000100240400442420000424210B5012152
:101910000807FFF7CAFF00214FF08050FFF7C5FF0F
:1019200010BD294908627047274908617047014680
:101930000020264A106820F0E0000843106070473D
:1019400023490860704710B5024600201F4B1868F5
:1019500020F00300104318601E4B1B6843F0040383
:101960001C4C2360012901D130BF00E020BF194B7E
:101970001B6823F00403174C236010BD1348006854
:1019800040F00400114908600846006840F0020079
:1019900008601048006840F004000E49086000BF6D
:1019A00000BF30BF704701460020084A52680A4213
:1019B00001D0012000E0002070470449096841EA95
:1019C0008001024A1160704700000E420070004022
:1019D000A0000E4210ED00E00FB4044910B503AAB8
:1019E000029800F03FF910BC5DF814FB00000020E5
:1019F0002DE9F0410646002410687529314616A5E8
:101A000011D0AFF30080002803DAC0F1000013A565
:101A100007E031688A0701D511A502E0490704D51E
:101A200010A5012401E0AFF3008000210A2306F194
:101A3000240707E0B0FBF3F203FB120030307854C8
:101A40001046491C0028F5D123462A463046BDE8F9
:101A5000F04100F0AAB80000000000002D000000D6
:101A60002B000000200000002DE9F05F89460446AD
:101A70004FF0000ADFF828B1FB44C0F820A0204650
:101A8000E168884700287CD0252806D0D4E90121C8
:101A90009047206A401C2062F1E700255F462046FF
:101AA000E16888472028064608DB312E06D207EB7E
:101AB000060010F8200C08B10543F0E7A80701D58F
:101AC00025F00405C4F81CA00027C4F818A02A2E8D
:101AD00009D0304600F02BF938B304EB8708303ECC
:101AE000C8F8186019E059F8041B204604EB870277
:101AF0009161E1688847012F064618D1E069002806
:101B000020DA25F020051DE0D8F8180000EB800051
:101B100006EB40003038C8F818002046E1688847D6
:101B2000064600F004F90028EED1012F0AD02E2E2F
:101B300008D12046E16888477F1C0646022F45F001
:101B40002005C4DBA069002803DA404245F0010506
:101B5000A061E80701D025F0100596B1A6F141007B
:101B6000192802D8203645F400654A4631462046F9
:101B700025604D46FEF726FB60B1012807D0ED1D1C
:101B800000E009E025F0070000F1080977E705F11A
:101B9000040974E7304679E7206ABDE8F09F000049
:101BA000030300007047704770472DE9F0470D466A
:101BB00099469246044600F124080168880604D537
:101BC000E06921F01001216000E00120A84202DD5F
:101BD000A0EB050700E00027A16907EB050202EB77
:101BE0000900A1EB0000A0612078C00602D42046C5
:101BF000AFF30080002608E0D4E901211AF80600BE
:101C00009047206A401C761C20624E45F4DB207809
:101C1000C0060AD52046AFF3008006E0D4E90121D2
:101C200030209047206A401C2062381EA7F101072F
:101C3000F4DC07E0D4E9012118F805009047206A98
:101C4000401C2062281EA5F10105F3DC2046AFF3FD
:101C500000802078000602D50220BDE8F087012030
:101C6000FBE70000074B70B50D467B4400F011F810
:101C70000446284600F020F810B14FF0FF3070BD48
:101C8000204670BDC7E5FFFF01694A1C0261087864
:101C9000704700B58FB0CDE90131002105910549AC
:101CA0007944CDE9031011466846FFF7DDFE0FB019
:101CB00000BD0000E5FFFFFF007B00F080007047E3
:101CC000754600F029F8AE4605006946534620F0F7
:101CD0000700854618B020B5FEF79AFABDE8204007
:101CE0004FF000064FF000074FF000084FF0000BD8
:101CF00021F00701AC46ACE8C009ACE8C009ACE88B
:101D0000C009ACE8C0098D4670470446AFF30080B7
:101D10002046FEF769FA00000048704738000020AE
:101D200001491820ABBEFEE726000200704730389C
:101D30000A2801D201207047002070470D0A3D3D5E
:101D40003D3D3D3D3D3D3D3D3D3D3D3D54696D6528
:101D50002053657474696E67733D3D3D3D3D3D3D67
:101D60003D3D3D3D3D3D3D3D3D3D3D3D3D3D3D3DA3
:101D70003D3D3D3D3D3D3D3D3D3D3D3D3D3D000409
:101D80000000080000000000000002000100001038
:101D9000B01D000800000020380000008C01000881
:101DA000E81D00083800002060060000A8010008B7
:101DB0000000000000000000000000000000000023
:101DC00000A24A0400000000000000000102030419
:101DD00006070809000000000102030401020304D1
:081DE0000607080902040608C9
:04000005080001519D
:00000001FF
