:020000040800F2
:10000000C883002065010008AF15000865140008CA
:10001000AD15000811030008951600080000000047
:10002000000000000000000000000000D3150008E0
:100030001303000800000000D1150008D5150008C2
:100040007F0100087F0100087F0100087F01000890
:100050007F0100087F0100087F0100087F01000880
:100060007F0100087F0100087F0100087F01000870
:100070007F0100087F0100087F0100087F01000860
:100080007F0100087F0100087F0100087F01000850
:100090007F0100087F0100087F0100087F01000840
:1000A0007F0100087F0100087F0100087F01000830
:1000B0007F0100087F0100087F0100087F01000820
:1000C0007F0100087F0100087F0100087F01000810
:1000D0007F0100087F0100087F0100087F01000800
:1000E0007F0100087F0100087F0100080000000078
:1000F0000000000000000000000000000000000000
:1001000000000000000000007F0100087F010008DF
:100110007F0100087F0100087F0100087F010008BF
:100120007F0100087F0100087F0100087F010008AF
:100130007F0100087F0100087F0100087F0100089F
:100140007F0100087F0100087F0100087F0100088F
:10015000DFF80CD000F0CAF8004800472F3600083E
:10016000C88300200648804706480047FEE7FEE7B0
:10017000FEE7FEE7FEE7FEE7FEE7FEE7FEE7FEE757
:1001800041160008510100082DE9F05F05460020E6
:1001900092469B4688460646814640241BE02846F8
:1001A00041464746224600F020F853465A46C01AB8
:1001B000914110D311461846224600F087F82D1AB7
:1001C00067EB01084F4622460120002100F07EF82F
:1001D00017EB00094E41201EA4F10104DFDC484664
:1001E00031462A464346BDE8F09F202A04DB203AE8
:1001F00021FA02F00021704721FA02F3D040C2F147
:100200002002914008431946704700000649074AFA
:100210000868504343F239021044086040087047B0
:100220000149086070470000DC0000206D4EC641A7
:1002300040EA01039B0703D009E008C9121F08C068
:10024000042AFAD203E011F8013B00F8013B521EE8
:10025000F9D27047D2B201E000F8012B491EFBD25F
:1002600070470022F6E710B513460A4604461946C1
:10027000FFF7F0FF204610BD421C10F8011B0029BB
:10028000FBD1801A704730B504460020034600E0D9
:100290005B1C934203D2E05CCD5C401BF8D030BDC8
:1002A00030B50B46014600202022012409E021FA46
:1002B00002F59D4205D303FA02F5491B04FA02F543
:1002C0002844151EA2F10102F1DC30BD202A04DB16
:1002D000203A00FA02F1002070479140C2F1200359
:1002E00020FA03F31943904070470000064C074D75
:1002F00006E0E06840F0010394E8070098471034F6
:10030000AC42F6D3FFF728FFBC6A0008DC6A00089D
:10031000FEE77047064908B509684FF4FA52B1FB89
:10032000F2F14143009100BF491E0091FBD208BD8C
:100330002400002038B50446006800F5805081692B
:1003400041F480118161206800F58050806900903F
:100350000120FFF7DFFF2068009900F580508161E0
:1003600038BD00002DE9F041044621B14FF4006092
:10037000E060C000A060E0690025002861D0284648
:100380002368402619683A4A1140D4E902273A43C3
:10039000024342F400700843186020680768012097
:1003A00000F072F8206807602068466020684668A0
:1003B000012000F069F820684660206885602068A8
:1003C000C560216888694FF64172104040F0800096
:1003D000886120688669012000F056F820688661EF
:1003E0002068C5612068C569012000F04DF82068CB
:1003F000C561226802F5805290691E4908401E4975
:1004000001439161206800F580508569012000F06A
:100410003BF8206800F5805085612068174900F599
:1004200080500160206800F580500568012000F0D0
:100430002BF8206800F580500560A069012803D0E2
:1004400009E04FF480609BE7206800F58050C169A7
:100450000B4A1143C16160690A4982880A640278C3
:10046000D0F8010042EA00204864BDE8F0810000B5
:100470000F8120FF233FDEF8040020020020C1028C
:10048000400001000080024070B5044600F044FCCA
:100490000546601C02D004480078044400F03CFC8F
:1004A000401BA042FAD370BD180000202DE9F04394
:1004B00090F845400025012C0DD04FF0010C80F83C
:1004C00045C0022480F8444044F2F4574FF00049FC
:1004D0005E1E816217E00220BDE8F08301EB051487
:1004E000C4F80090C5EBC51808EB480802EB880873
:1004F000C4E90178B54204D204F11008C4F80C80B4
:1005000000E0E1606D1C9D42E8D3026802F5805274
:10051000D16080F844C0002180F845100846DBE730
:100520002DE9F043914690F845200024012A0AD095
:10053000012680F84560022280F844204FF4801C98
:100540005D1EC1621BE00220BDE8F08301EB0412D6
:10055000C2F800C0C4EBC41707EB470809EB8807D3
:100560009760C7691FB9176847F440071760AC4226
:1005700003D202F11007D76000E0D160641C9C42F6
:10058000E4D3026802F58052116180F844600021D2
:1005900080F845100846D7E710B590F845100129B6
:1005A00013D0012280F84520022180F84410816A8E
:1005B0000C680023002C27DB0C68E40518D5846B3D
:1005C000641C8463012C02D002E0022010BD016390
:1005D00041630C68C4F30D44241FC463046BA46816
:1005E0000464C96840F8281F02774377002010BDD3
:1005F0000C68A40503D58263C0E90C1302E0846B88
:10060000641C8463C968816200F8442F4370012030
:1006100010BD00002DE9F8434FF000050400A94685
:10062000009503D094F8440018B107E00120BDE81C
:10063000F88384F84550204600F0BEF859484168D8
:1006400021F4000141604168226A11434160206841
:1006500000F58050016841F00101016000F05CFB91
:1006600006464FF4FA7708E000F056FB801BB842CC
:1006700003D9032004F8440F57E0206800F58050A8
:100680000068C007F0D12068006920F01C0600F067
:1006900089FC4549454A0144914202D246F0080688
:1006A00006E0434908444349884201D246F00C061B
:1006B000206806614FF400420021204600F008FA4D
:1006C0000126A8BBFF20FFF7DFFE606888B300F0BB
:1006D00023FB804641F288376A460121204600F01C
:1006E000EFF800F019FBA0EB0800B84217D800980B
:1006F0004007F1D54FF480520021204600F0E8F980
:10070000B0B900F009FB80466A460121204600F09E
:10071000D7F800F001FBA0EB0800B8420AD901218C
:100720002046FFF71FFE04F8446F032065707EE744
:1007300024E018E000988006E6D56A46102120469D
:1007400000F0BEF8D0B90098410703D54FF400611E
:10075000E16000E0E560800701D5A56019E04FF495
:100760008040A06015E0E068A168C00840EA510040
:1007700082B20021204600F0ABF930B101212046C1
:10078000FFF7F0FD84F8446050E740F6FF70FFF794
:100790007BFE49462046FFF7E5FD84F844600020D3
:1007A00045E700000000014000D3CEFEC0E1E400B8
:1007B00040F1E9FD40787D01F0B585B0002400945A
:1007C00001940294039400683649884268D13648FF
:1007D000416941F480414161416901F480410491E2
:1007E000416941F400414161416901F400410491D2
:1007F000416941F480314161416901F480310491E2
:10080000816941F010018161816901F01001049159
:10081000816941F004018161816901F00401049161
:10082000816941F008018161816901F00801049149
:10083000816941F0200181618069022500F020007A
:10084000009503260195CDE903606946174800F03D
:100850007BF9CDE90054164F69463846029400F002
:1008600073F90420CDE9000569460396384600F087
:100870006BF94FF46050CDE90005694603960D48C9
:1008800000F062F94FF4E060CDE9000469460A48DF
:10089000029400F059F90948416841F0E46141606F
:1008A00005B0F0BD00800240001002400010014081
:1008B00000080140000C014000140140000001400C
:1008C0002DE9F047044690F84400914682281DD057
:1008D000822084F84400226810694FF6FF7500F00A
:1008E0001C03208A05EAC02018434FF4F86303EA8A
:1008F0008111014321F0020040F00105156100F073
:100900000BFA064601274FF4803810E00220BDE8BC
:10091000F08700BF00F000FA801B404505D304F8C3
:10092000447F002060700320F1E720680569E80734
:10093000F0D12068406981B2C9F8001084F8447091
:100940000020E4E7F8B5044690F84500012839D0C6
:10095000012584F84550022084F8440020680026D0
:10096000016841F008010160206800680090284695
:10097000FFF7D0FC2168009808602068016841F00A
:10098000040101602068006800900120FFF7C2FCAC
:100990002168009808602046FFF7CCFC206800F52D
:1009A0008050816941F400518161206800F58050D8
:1009B000816941F00201816184F8445084F8456006
:1009C0000020F8BD0220F8BDF0B590F845200023C6
:1009D000012A11D0012780F84570022280F84420B6
:1009E000002459B1C66A3268002A0ADA122100F8D6
:1009F000441F44700120F0BD0220F0BD00F8447F88
:100A0000F7E740F2F455A9420BD9B1FBF5FCB1FB75
:100A1000F5F205FB1C1CBCF1000F00D0521C012A92
:100A200043D1326842F040523260C26AC1F30C01D5
:100A30005160C16A0A6842F000420A60C16AC9682E
:100A4000C16234E0D6F800C02CF0405CC6F800C0AB
:100A500033B9C66AD6F800C04CF0805CC6F800C056
:100A6000C66A7560561EB34214D1C66AD6F800C075
:100A70004CF0005CC6F800C0C2F10106C6EBC61619
:100A800006EB4606D0F82CC001EB8606C6F30C0632
:100A9000CCF80460C66AD6F800C04CF0004CC6F82A
:100AA00000C0C66A5B1CF668C6629342CAD301687E
:100AB00001F580514A69520705D504224A6101684F
:100AC00001F580514C6000F8447F44700020F0BD77
:100AD0002DE9F041044690F8440042281ED04220FF
:100AE00084F84400236818694FF6FF7600F01C056F
:100AF000208A06EAC02028434FF4F86505EA8111F0
:100B0000014390B241F0030558612068056100F08F
:100B100003F9064601274FF4803810E00220BDE8B3
:100B2000F08100BF00F0F8F8801B404505D304F8C1
:100B3000447F002060700320F1E720680569E80722
:100B4000F0D184F84470EAE72DE9F84FDFF890A17E
:100B500000220AF1040B144601274FF00F090BF194
:100B6000040E00BF0B6807FA04F52B40AB4274D1AA
:100B7000DFF870C14E68A6EB0C0866452BD00DDC83
:100B8000032E34D005DC36B3012E19D0022E2FD11E
:100B90001BE0112E16D0122E2AD119E0B8F5881FAD
:100BA00019D006DCB8F5803F15D0B8F5801F1FD1ED
:100BB00011E0B8F5001F0ED0B8F5041F18D10AE0F7
:100BC000CA6815E0CA68121D12E0CA6808320FE050
:100BD000CA680C320CE08A682AB1012A4FF0080278
:100BE00003D0456104E0042202E0056100E0002238
:100BF000FF2B01D8064601E000F104064FEA840508
:100C000001D9A5F12005D6F800C009FA05F82CEAAB
:100C1000080C02FA05F54CEA050CC6F800C04D6850
:100C2000ED0057D5304DAE6946F00106AE61AD69B5
:100C300024F0030605F0010500952C4D06EB050C8C
:100C4000DCF80850A6074FEA167809FA08F6B5430B
:100C5000274EB04202D1002610E03BE0254EB042C4
:100C600001D101260AE0244EB04201D1022605E05E
:100C7000224EB04201D1032600E0042606FA08F60F
:100C80002E43CCF808604D68DAF80060ED03554655
:100C900001D51E4300E09E432E604D68DBF80060E6
:100CA000AD035D4601D51E4300E09E432E604D68B6
:100CB000DEF80060ED02754601D51E4300E09E435C
:100CC0002E604D68AD020E4D2E6801D51E4300E02A
:100CD0009E432E60641C102CFFF444AFBDE8F88FD7
:100CE000000401400000111000100240000001400B
:100CF00000080140000C01400010014000140140B8
:100D00000C0401408068084000D0012070470AB1FF
:100D1000016170470904FBE70148806870470000E3
:100D200018000020024881680278114481607047F1
:100D300018000020074810B5016841F0100101605B
:100D4000032000F067F8002000F006F800F024F817
:100D5000002010BD0020024070B50D4D04464FF438
:100D60007A712878B1FBF0F00A490968B1FBF0F01C
:100D700000F064FB48B9102C07D200222146501E17
:100D800000F028F800206C6070BD012070BD0000EC
:100D900018000020240000200C4808B5816941F0AB
:100DA00001018161816901F001010091C16941F096
:100DB0008051C161C06900F08050009004484168D2
:100DC00021F0E06141F00071416008BD0010024077
:100DD00000000140F0B40E4B1B680C46C3F3022325
:100DE000C3F10705042D00D90425191D072901D2D7
:100DF000002300E0DB1E012606FA05F1491E214012
:100E000099409E40761E16403143F0BC00F0D0BBA6
:100E10000CED00E0064900F0070208684FF6FF03FA
:100E2000184040EA0220034A10430860704700005F
:100E30000CED00E00000FA052DE9F047DFF85481E1
:100E400005460E46D8F8000000F00700B0420CD26C
:100E5000D8F8001021F007013143C8F80010D8F885
:100E6000000000F00700B0426FD128684A4C8107AB
:100E700012D5400703D5606840F4E06060602878D0
:100E8000000703D5606840F4605060606068A9683E
:100E900020F0F000084360602878C00744D06868FC
:100EA000012816D02168022816D0890700294CDABB
:100EB000616821F0030101436160FFF72DFF69685C
:100EC000074641F2883001290ED00229814618D008
:100ED00026E021688903E9E78901E7E7FFF71CFFBE
:100EE000C11B494501D918E081466068C0F3810003
:100EF0000128F3D118E000BFFFF70EFFC11B4945E1
:100F00000BD86068C0F381000228F5D10CE000BF67
:100F1000FFF702FFC11B494502D90320BDE8F08756
:100F2000606810F00C0FF3D1D8F80010404601F0C3
:100F30000701B1420BD9016821F00701314301607B
:100F4000006800F00700B04201D00120E6E72878F1
:100F5000400705D56068E96820F4E06008436060F8
:100F60002878000706D56068296920F4605040EAB7
:100F7000C100606000F01CF86168084AC1F3031109
:100F8000515CC840064908600020FFF7E5FE0020DC
:100F9000C4E700000020024000100240146900086D
:100FA0002400002001480068704700002400002051
:100FB000F0B524A289B00FCA04AC84E80F0025A1C3
:100FC0000FC98DE80F002748416801F00C02042A80
:100FD00004D0082A04D0244809B0F0BD2348FBE718
:100FE00004AAC1F38343C903D45C28D5C16AC26A89
:100FF00001F00F011DF80110D20316D5C26AC06AB4
:10100000C2F30312521CA2FB0123C0F30320801C75
:10101000A0FB0415154F0026A1FB070C05FB07C517
:1010200001FB0651FFF7B0F803E010486043B0FB46
:10103000F1F09DF81D10A142CED14008CCE70C483C
:101040006043C9E700000405060708090000000026
:10105000000D00000102030405060708090A0B0C35
:101060000D0E0F100010024000127A0040787D0132
:1010700000093D002DE9F84F04460078EA4DC0070D
:1010800048D06868C0F38100012807D06868C0F3C1
:101090008100022809D16868C00306D5286880034A
:1010A00038D5A06800286FD034E0A068B0F5803F44
:1010B0000BD010B1B0F5A02F11D0286820F48030EB
:1010C0002860286820F4802002E0286840F48030FE
:1010D0002860A06888B1FFF71FFE064609E028686F
:1010E00040F480202860F0E7FFF716FE801B64289C
:1010F00078D828688003F7D50CE0FFF70DFE064688
:1011000005E000BFFFF708FE801B6428F0D82868C0
:101110008003F7D42078C54E80074FF001094FF0C7
:1011200000073CD5686810F00C0F07D06868C0F362
:101130008100022809D16868C00306D428688007A6
:1011400015D5606901281FD111E06069B8B1C6F8F2
:101150000090FFF7E1FD804606E000BFFFF7DCFDF1
:10116000A0EB08000228C3D828688007F6D52868B5
:10117000A16920F0F80040EAC10028600FE0376064
:10118000FFF7CAFD804607E02DE100BFFFF7C4FD71
:10119000A0EB08000228ABD828688007F6D4207896
:1011A00000072ED5A248E169E9B1C0F80090FFF729
:1011B000B3FD804606E000BFFFF7AEFDA0EB0800E0
:1011C000022895D8686A8007F6D59A484FF4FA51F4
:1011D0000068B0FBF1F0009000BF0098411E009144
:1011E000FAD20EE0B0E00760FFF796FD804605E01A
:1011F000FFF792FDA0EB0800022887D8686A8007F5
:10120000F6D42078400763D5E8694FF00008C000A5
:1012100009D4E86940F08050E861E8694FF00108BE
:1012200000F08050009084480168C90512D401681C
:10123000834641F480710160FFF76EFD824605E050
:10124000FFF76AFDA0EB0A0064287DD8DBF80000F8
:10125000C005F5D5206901280AD008B1052813D0AA
:10126000286A20F001002862286A20F0040002E0C9
:10127000286A40F001002862206941F2883B98B159
:10128000FFF74AFD82460BE0286A40F0040028621E
:10129000EEE700BFFFF740FDA0EB0A01594553D828
:1012A000286A8007F6D50CE0FFF736FD824605E098
:1012B000FFF732FDA0EB0A01594545D8286A80079F
:1012C000F6D4B8F1000F03D0E86920F08050E8614F
:1012D000E06AD0B36968C90307D56968C1F38101C1
:1012E000022902D1E96AC9037DD4022808D0E86A3C
:1012F00020F48030E862B766FFF70EFD80463BE0E1
:101300002868C00005D5E86A616B00F0F0008842EB
:1013100069D1B766FFF700FD804605E0FFF7FCFCEA
:10132000A0EB0800642874D828680001F6D4E86AA5
:10133000616B20F0F0000843E862E86A216B20F45A
:1013400070600843E86201E063E018E0C6F8689066
:10135000FFF7E2FC804605E0FFF7DEFCA0EB0800AB
:10136000642856D828680001F6D508E0FFF7D4FCB9
:10137000A0EB080064284CD828680001F6D4206A45
:1013800090B36968C1F3810102294AD00228376607
:1013900003D0FFF7C1FC04463EE0FFF7BDFC074663
:1013A00005E000BFFFF7B8FCC01B022831D8286851
:1013B0008001F7D4606AB0F5803F09D1E86A6168BE
:1013C0000843E862E86AE16820F00F000843E86239
:1013D000D4E909010843696821F47411084368607D
:1013E000C6F8609001E01CE019E0FFF795FC0446A8
:1013F00005E000BFFFF790FC001B022809D8286811
:101400008001F7D50BE000BFFFF786FC001B022828
:1014100002D90320BDE8F88F28688001F4D40020A9
:10142000F8E70120F6E70000001002400000424209
:1014300080044242240000200070004010B5401E8D
:10144000B0F1807F01D3012010BD4FF0E024606136
:101450000F21601700F0ACF80020A0610720206188
:10146000002010BDFEE7000070B586B000242048C3
:101470000094019402940394816941F01001816108
:10148000816901F010010491816941F004018161D9
:10149000816901F004010491816941F008018161D1
:1014A000816901F008010491816941F020018161A5
:1014B0008069104E00F02000049000223C2130464C
:1014C000FFF725FC3C200125CDE900050220CDE9F0
:1014D000024069463046FFF737FB4FF470708DE8E5
:1014E000310069463046FFF72FFB06B070BD0000A3
:1014F0000010024000100140FEB502F089F82248B9
:10150000C025A8260570467000238370C821C170CD
:10151000011DFF240C704C708C700A1DCB7015706F
:10152000567093700126D670D0F80100A1F1100614
:1015300045EA00203060D1F801000C3944EA00206F
:101540000860D2F80100091D45EA00200860104932
:101550000E48CDE90031A2F10C030290103A111FA0
:101560000C4802F09BF90B4802F0F2F9094890F898
:101570002F004007074803D5BDE8FE4002F024BA1B
:10158000BDE8FE4002F0EAB90C0000200128000886
:10159000ED280008E000002010B5034801F0BAF97A
:1015A000BDE8104002F0DABCE0000020FEE7704722
:1015B0000907090E002806DA00F00F0000F1E0200C
:1015C00080F8141D704700F1E02080F80014704787
:1015D00070477047FFF7A6BB30B593B03821684617
:1015E000FEF73FFE14210EA8FEF73BFE0124200467
:1015F0000421CDE902010225CDE9085000940190B3
:1016000005944FF4E010CDE90A054FF4C0600C904A
:1016100040200D906846FFF72DFD0F20CDE90E0507
:101620000020A102CDE91001129002210EA8FFF7BF
:1016300003FC0248046713B030BD000000004242C2
:101640001048016841F00101016041680E4A1140F3
:10165000416001680D4A11400160016821F4802158
:101660000160416821F4FE014160016821F0A05150
:1016700001604FF47F0181600021C1620449C00311
:1016800008607047001002400000FFF0FFFFF6FE08
:1016900008ED00E0FEE700000FB4084B10B504A908
:1016A00002AA039800F01CF8044602A9002000F0EA
:1016B000C1F8204610BC5DF814FB00003518000886
:1016C00002E008C8121F08C1002AFAD1704770470B
:1016D000002001E001C1121F002AFBD17047000069
:1016E0002DE9FF4F89B09B460446002506E02528DA
:1016F0000BD05A460B999047641C6D1C207800282B
:10170000F5D10DB02846BDE8F08F0027B84601227C
:10171000474900E0074314F8013F203B02FA03F079
:101720000842F7D120782E2819D114F8010F47F07C
:1017300004072A280ED06FF02F022078A0F1300184
:1017400009290CD808EB880102EB410100EB0108E4
:10175000641CF2E70A98641C50F8048B0A90207805
:101760000028CED0642808D0692806D075281ED05D
:101770005A460B9990476D1C58E00A994FF00A0998
:1017800001C90A91002802DA40422D2102E0390500
:1017900004D52B218DF82010012103E0F90704D096
:1017A0002021F7E78A4608AE0DE00021FAE70A9902
:1017B0004FF00A0901C90A91F7E74946FEF770FDA3
:1017C000303106F8011D0028F7D1ADEB060000F11D
:1017D0002009780701D44FF00108C84502DDA8EBC5
:1017E000090000E000208046002706E008A85A46CD
:1017F000C05D0B9990476D1C7F1C5745F6DB04E0DC
:1018000030205A460B9990476D1CB8F10001A8F1A1
:101810000108F5DC05E016F8010B5A460B999047D4
:101820006D1CB9F10001A9F10109F4DC641C65E744
:10183000092801000A68531C0B60107070470000F3
:1018400010B504464068804722462068BDE8104035
:10185000014902F0B1BB00004118000800280BD07C
:10186000026A002A08D0537A082B05D10968926AC7
:10187000914201D100F076B970472DE9FC41050095
:1018800066D02C6A002C63D000232384616B4FF058
:101890003C07B1F1FF3F4FF480364FF001024FF6A5
:1018A000FF700AD01E31B1FBF7F1B14200D30146FF
:1018B0000904090C618400D16284A16BB1F1FF3F7E
:1018C0000CD01E31B1FBF7F1B14200D3014609043F
:1018D000090C218300D12283218BA183E16BB1F11B
:1018E000FF3F0CD01E31B1FBF7F1B14200D30146EE
:1018F0000904090C618300D16283618BE183228B2F
:10190000618B8A4201D301B12383E17A09B1E06A94
:1019100009E094F828107F2901D8FF2003E0C029AE
:1019200001D36FF07F400090206B019028B9A06A2E
:101930000099084040F0807001900A21204600F094
:1019400031FC01AB6A4604F12801284601F0DCFFB6
:10195000BDE8FC8170B5046A05460821204600F008
:1019600021FC002204F12801284600F007FEA07A9D
:10197000FF2801D2401CA0724FF4FA7140F2E73008
:10198000B0FBF1F0E08270BD70B5294804684CE00E
:10199000206AA0B3417A91B3418C69B1018C491C92
:1019A00089B20184428C914206D1204600F0D0FADF
:1019B000204600F027F937E0C18B19B14A1EC283D7
:1019C000012906D0818BD1B14A1E8283012917D00B
:1019D0002AE0256A2046697A012905D00A2903D020
:1019E000052901D004291FD100F0ECF9688C298C5D
:1019F000401A022818DB00EBD0704008E88313E09F
:101A0000256A2046697A012903D00A2901D00529CF
:101A10000AD100F0F1FA688B298C401A022803DB06
:101A200000EBD0704008A8832468002CB0D170BDB2
:101A30005C0000202DE9F04116460C4607000FD04F
:101A400094B100224FF49A71104601F0CBFFE06090
:101A500068B1032E12D0A07A404D58B1A8680CE0AE
:101A60006FF00F00BDE8F0816FF00500FAE74FF06E
:101A7000FF30F7E7FEF7CAFBA8602060E0680025AA
:101A8000416801202161087021694870216997F837
:101A9000280088702069C570206801F0B5FD2169B3
:101AA000082E486020690581206945812069C5604C
:101AB0000AD0042E08D0072E06D0032E07D1607A54
:101AC000052801D0042802D121697868C8602069FE
:101AD00005612069456120698561002097F828101B
:101AE000814205D9062803D2391891F8291000E05F
:101AF000002100F11C022369401C80B29954102877
:101B0000ECD3002000F12C012269401C80B2555416
:101B10004028F7D35FF0000000F16C012269401CFF
:101B200080B255548028F7D321690D48C1F8EC00E4
:101B3000A5820020226900F1F0015054401C80B2BF
:101B40004428F7D301223521204600F0DBF8314646
:101B5000204600F0E7F8002084E70000C0000020E5
:101B6000638253637CB5046A06460C21204600F06C
:101B700019FB042221463046FFF75CFF050021D106
:101B800004223221204600F0BDF8A06A01F03CFD9D
:101B90000146204600F0CEF8204600F0FDF8A08A6D
:101BA000F03081B2E06802F0F7F80D484323CDE948
:101BB00000600D480B4AE168C06804F058FE2046FA
:101BC00000F014F8A07AFF2801D2401CA07242F65F
:101BD00003104FF4FA71B0FBF1F0E08228467CBDAF
:101BE0003C6A0008406A0008C000002010B50400EC
:101BF00006D0E06808B102F059F80020E0602061EA
:101C000010BD00002DE9FC41046A06460020A062D8
:101C10000621204600F0C6FA012221463046FFF791
:101C200009FF070030D102223921204600F06AF86E
:101C3000F18C204600F09FF804223721204600F066
:101C400061F8DFF880800025204618F8051000F0C4
:101C500069F86D1CEDB2042DF6D3204600F09CF817
:101C6000A08AF03081B2E06802F096F8164843236B
:101C7000CDE900601348154A401EE168C06804F0D1
:101C8000F6FD2046FFF7B2FFA07AFF2801D2401CE4
:101C9000A072C0B2062802D20121814000E03C219E
:101CA00001EB4100C0EBC1104FF6FF7101EAC0002B
:101CB0004FF4FA7100F2F310B0FBF1F0E082384615
:101CC000BDE8FC81C10000203C6A0008406A0008B1
:101CD00070B50B48002504680EE0206A58B1C18A2F
:101CE000012903D9A1F10101C18204E003D1C58218
:101CF000204600F06BFA2468002CEED170BD000085
:101D00005C00002010B5838A04691C445B1C83823C
:101D100084F8F010818A03690B44491C818283F89E
:101D2000F02010BD828A03691344521C828283F81A
:101D3000F010704710B5828A04690B0E1444521CCF
:101D4000828284F8F030828A04690B0C1444521C9D
:101D5000828284F8F030828A04690B0A1444521C8F
:101D6000828284F8F030828A03691344521C828292
:101D700083F8F01010BD10B5828A04690B0A144470
:101D8000521C828284F8F030828A03691344521C08
:101D9000828283F8F01010BD002812D0818A036976
:101DA000FF220B44491C818283F8F020002205E0C9
:101DB00003690B44491C818283F8F020818A4429FD
:101DC000F6D370472DE9F843046A064604212046FD
:101DD00000F0E8F9032221463046FFF72BFE07000A
:101DE0002ED1022239212046FFF78CFFF18C2046AC
:101DF000FFF7C1FF042237212046FFF783FFDFF8FA
:101E000074800025204618F80510FFF78BFF6D1C25
:101E1000EDB2042DF6D32046FFF7BEFFA08AF030C6
:101E200081B2E06801F0B8FF12480096401E4323DB
:101E3000114AE168C06804F0FFFC2046FFF7D6FEB7
:101E4000A07AFF2801D2401CA072C0B20A2803D297
:101E50004FF47A71484301E042F2107080B24FF4BF
:101E6000FA7100F2F310B0FBF1F0E0823846BDE801
:101E7000F8830000C1000020406A00082DE9F84303
:101E8000046A07460321204600F08CF9032221460C
:101E90003846FFF7CFFD06003CD10222392120460B
:101EA000FFF730FF4FF410712046FFF764FF042264
:101EB00032212046FFF726FFA06A01F0A5FB01466C
:101EC0002046FFF737FF042237212046FFF71AFF8D
:101ED000DFF87480002500BF18F805102046FFF7D2
:101EE00021FF6D1CEDB2042DF6D32046FFF754FF01
:101EF000A08AF03081B2E06801F04EFF12480097EE
:101F0000401E4323114AE168C06804F095FC204656
:101F1000FFF76CFEA07AFF2801D2401CA072C0B26D
:101F20000A2803D24FF47A71484301E042F210705C
:101F300080B24FF4FA7100F2F310B0FBF1F0E082DE
:101F40003046BDE8F8830000C1000020406A000868
:101F50007CB5046A0546F4B1606A0190284600F039
:101F600029F906460021204600F01CF90020606295
:101F7000A062E0622063E063A06360636084208409
:101F8000E083A08356B1072221462846FFF752FD81
:101F9000060005D024E06FF00F007CBD00207CBD62
:101FA000042236212046FFF7ADFE019801F02CFBFC
:101FB00001462046FFF7BEFE2046FFF7EDFEA08A51
:101FC000F03081B2E06801F0E7FE09480095432354
:101FD00001AAE168C06804F02FFC2046FFF706FE66
:101FE000044B28461A46114601F08EFC30467CBD53
:101FF000C00000203C6A00082DE9F843046A064648
:102000000521204600F0CEF8032221463046FFF796
:1020100011FD07002FD1022239212046FFF772FE61
:10202000F18C2046FFF7A7FE042237212046FFF758
:1020300069FEDFF874800025204618F80510FFF7C8
:1020400071FE6D1CEDB2042DF6D32046FFF7A4FE01
:10205000A08AF03081B2E06801F09EFE124800963E
:10206000401E432304F12402E168C06804F0E4FB4D
:102070002046FFF7BBFDA07AFF2801D2401CA072CA
:10208000C0B20A2803D24FF4FA61484301E044F693
:10209000206080B24FF4FA7100F2F310B0FBF1F05F
:1020A000E0823846BDE8F883C10000202DE9FC41FC
:1020B000046A06460121204600F074F803222146F6
:1020C0003046FFF7B7FC070048D1022239212046ED
:1020D000FFF718FEF18C2046FFF74DFE0422322157
:1020E0002046FFF70FFEA06A01F08EFA0146204657
:1020F000FFF720FE042236212046FFF703FE606A28
:1021000001F082FA01462046FFF714FE042237212F
:102110002046FFF7F7FDDFF880800025204618F8FD
:102120000510FFF7FFFD6D1CEDB2042DF6D3204620
:10213000FFF732FEA08AF03081B2E06801F02CFE99
:1021400016484323CDE900601348154A401EE16854
:10215000C06804F08CFB2046FFF748FDA07AFF28FA
:1021600001D2401CA072C0B2062802D201218140D7
:1021700000E03C2101EB4100C0EBC1104FF6FF71C4
:1021800001EAC0004FF4FA7100F2F310B0FBF1F075
:10219000E0823846BDE8FC81C10000203C6A0008AE
:1021A000406A0008427A8A4203D04172002181725B
:1021B000C182704730B1006A20B1407A0A2803D04A
:1021C000052801D0002070470120704710B5026A31
:1021D0000446517A0C290FD006290DD001290FD0C1
:1021E000082919D0032923D1907A022812D2204637
:1021F000BDE81040FFF742BEBDE81040FFF702BD4A
:10220000907A0528204603D8BDE81040FFF74EBF5E
:10221000FFF79EFE2046EFE7907A0128204603D87C
:10222000BDE81040FFF796BBBDE81040FFF725BBA7
:1022300010BD826812680A6080680160704781681A
:102240000868002801D002680A60704770B50A4D1E
:102250000646002404EB440005EBC000017D29B1D3
:102260008068B04202D1204600F076F8641CE4B2E7
:102270000A2CEFD370BD0000D47E00202DE9FC5F56
:102280000A27054600208B46DFF8C8903E463946AF
:102290003C4601908646009000EB400A09EBCA03D9
:1022A0000A291A7D0AD0B2B165B1D5F800C0D3F8B9
:1022B0000480C44506D140B2BDE8FC9F002AF3D19A
:1022C00041B208E0012A14D0022A04D35A8A724586
:1022D00001D346B29646401CC0B20A28DCD35FEA5E
:1022E0008B724FF0FF30E7D40A2913D015DACCB245
:1022F00021E059F83A20002A5A8A05D0019B9A42D7
:10230000E9D344B20192E6E7009B9A42E3D347B295
:102310000092E0E75FEACB71CED00A2E01DAF4B288
:1023200006E00A2F01DAFCB202E00A2CC4DAE4B2B9
:10233000204600F011F82DB104EB440209EBC20075
:102340002968416004EB440209EBC200002141828C
:1023500060B2B1E7D47E002070B5074C00EB4005B9
:10236000002654F8350018B101F0A0FC44F835609F
:1023700004EBC500067570BDD47E00202DE9FC4736
:102380000D00074651D07C684FF480782088404586
:1023900048D12079062845D16079042842D1608847
:1023A00008283FD1D4F80E000190A169686820B1D7
:1023B000814202D10126334601E00026022304F1C6
:1023C0000802914601A9284600F0DAF9E088404564
:1023D00003D0B0F5007F25D120E01EB3022001F02C
:1023E00015F9E080D4F80E00A0616868C4F80E000A
:1023F000A068C4F81200A089E082D5F82900A06086
:10240000B5F82D00A08140F60600009004F11203FB
:102410004A463946284600F043FA03E001A9284617
:10242000FFF71CFA384601F041FCBDE8FC870000CC
:10243000FEB504460E4615462146106800F098FB8E
:1024400008B1334B3CE02868C0F303110E2922D0B9
:10245000A168636800EA01020B409A4208D080B28A
:10246000A0F57E41A93903D0E06898B304F10C05CA
:10247000284B29491A7802EB420001EBC000077D86
:10248000022F2BD32F684068874227D13146204640
:1024900000F044F8FEBD01208DF8040000208DF806
:1024A00005005E208DF80600687801AB00F07F0023
:1024B0008DF80700A8788DF80800E8788DF80900F5
:1024C0004FF40060009004F129023146204600F0EC
:1024D000E7F9FEBDFFE76FF00300FAE75FF00000E9
:1024E00000EB400201EBC202177D022F06D32F68DA
:1024F0005268974202D1C2B21A70C7E7401C40B27C
:102500000A28EDDB32462946204600F037F8E0E79E
:1025100024690008D0000020D47E00202DE9F84373
:1025200006468846144802EB420100EBC10404F160
:102530000C05207D022813D1608A0327B0F58E7F19
:1025400004D9211D304600F0D5F807E0B0F5877FAB
:1025500006D32A46211D304600F0D2F800B927756F
:102560004FF4006000902B4606F1290241463046A8
:1025700000F096F9BDE8F883D47E00202DE9FC5FD9
:102580008246293001908846086814464FF0FF368D
:10259000514600F0EDFAD0B9D8F80000C0F30311AD
:1025A0000E2914D0B8F1000F11D080B1524601218C
:1025B0004046FFF763FE07000BD4DFF8A8B007EB37
:1025C00047090BEBC905287D28B144B10EE06FF037
:1025D0000F00BDE8FC9F01202875C5F808A0414602
:1025E000504600F087F80646002CF2D0287DD846E9
:1025F00002280DD31C4805F10C03214607704FF447
:10260000006000905046019A00F04AF9064627E023
:10261000012825D12046017B01290ED00189002205
:10262000022001F0DFF9050018D0214601F0BDFAC3
:1026300058B1284601F03AFB10E000680028EAD1C2
:102640002546204601F0D2FB45B158F8390008B1C3
:1026500001F02CFB48F83950002601E04FF0FF361E
:102660003046B6E7D47E0020D00000202DE9FF4F91
:1026700081B09346DDE90F9800261F4632461C21A3
:102680000220DDF838A001F0ADF905002FD06C680C
:10269000119800F0BBFFE0803868A060B888A08186
:1026A000D9F80010C4F81210B9F80400E082DAF882
:1026B0000000C4F80E00D8F80000A0614FF480704C
:1026C000208008206080062020710420607140F680
:1026D00006000090DDE901025B46294600F0E0F8C3
:1026E000284601F0E3FA304605B0BDE8F08F4FF020
:1026F000FF30F9E7014A00F003B800002469000840
:102700007FB5064D031D0124CDE90035CDE9021446
:1027100025331946FFF7AAFF04B070BD2A690008E7
:1027200070B5164D002400BF04EB440005EBC00259
:10273000107DF0B1518A491C89B25182B1F5967F62
:102740000AD2012806D003280AD004280AD001287A
:102750000BD00EE0052908D32046FFF7FDFD08E069
:10276000042000E00220107503E0111D9068FFF7BF
:10277000C1FF641CE4B20A2CD6D370BDD47E002005
:10278000F8B51F4616460D00044634D0286888B3B5
:10279000214600F0EDF968BB2878C0F303100E283D
:1027A00029D0224639462846FFF768FD002820DB5D
:1027B00000EB40011148022300EBC1021375946045
:1027C0003368D360B38813820023538250F83150AA
:1027D00075B140F831304FF400600090334604F199
:1027E00029022946204600F05BF8284601F05EFAEF
:1027F0000020F8BDFFE76FF00F00FAE7D47E00205D
:1028000070B5044640890D460E283CD960680178B1
:102810008689CA0714D0012905D006221F49FDF771
:1028200032FD48B10CE0417851B980785E2807D17B
:10283000607B40F0100002E0607B40F008006073B5
:102840006FF00D01082E03D0B6F5C16F1BD10FE05C
:1028500095F82F00000716D560890E2813DB204657
:1028600001F062FA78B92946204600F047FA12E0F2
:1028700095F82F00000706D560890E2803DB204657
:1028800001F052FA18B1204601F010FA03E029468F
:102890002046FFF773FD002070BD0000246900088A
:1028A0002DE9F04180461E4617460D46069800F079
:1028B000ADFE04460E21284601F036FA18B16FF03D
:1028C0000100BDE8F0816868848131680160B188E9
:1028D00081803968C0F80610B98841814046294690
:1028E000D8F81820BDE8F0411047000010B573215A
:1028F00080F83010742180F8311004494161044996
:10290000816100F057FD002010BD00003124000857
:102910006135000870B5054600F0C4FD040009D01B
:102920002A6929469047002804D02046BDE8704017
:1029300001F0BCB970BD000070B5304C402120469C
:10294000FEF7E0F938B91420FDF79EFD402120463E
:10295000FEF7D8F928B180212046FEF7D3F940B11F
:102960000FE040212046FEF7CDF90028F9D00120E4
:1029700070BD1420FDF788FD80212046FEF7C2F9C6
:1029800038B14FF4807529462046FEF7BBF940B1B7
:102990000FE080212046FEF7B5F90028F9D002208B
:1029A00070BD1420FDF770FD29462046FEF7AAF9F8
:1029B00040B14FF40076314625462046FEF7A2F995
:1029C00040B110E029462046FEF79CF90028F9D0D6
:1029D000032070BD1420FDF757FD344631462846CC
:1029E000FEF790F908B1002070BD21462846FEF799
:1029F00089F90028F9D0042070BD000000100140C2
:102A00000A46032100F07AB82DE9FE4F8A463A497A
:102A10000446D1F8088098F800000007850E142DB0
:102A200065DB6089042862D36068007800285ED086
:102A300008285CD1486901F11407C0F303120E2A7B
:102A400055D08946096800F093F800284FD12089B5
:102A500008284CD305F10E010E46204601F064F91A
:102A600028B320890022284481B2022000F0BAFF56
:102A700006003CD0718905F1080081420ED32A4638
:102A800041467068FDF7D4FB6942304601F04CF9CD
:102A900020B92146304601F088F818B1304601F0DF
:102AA00005F924E0204601F001F9344604E07142C2
:102AB000204601F039F9D0B929462046666801F070
:102AC00033F9A0B960683968FF22C160D9F81010E5
:102AD00001610021317071800272418101228DE813
:102AE00006040A46FF233946204600F0E3F9204653
:102AF000BDE8FE4F01F0DAB88C4900202DE9FF4710
:102B000091468846064600222421012000F06AFFF3
:102B1000050027D06C6877681C2284F8008084F850
:102B200001904FF00008A4F80480A4F806806868BB
:102B300071680830FDF77CFBF868039003A800F08B
:102B4000E5FA60B1A4F802800122CDF80080CDE959
:102B50000120FF2303AA0021284600F0ABF92846F4
:102B600001F0A4F8BDE8FF870A460B21FFF7C6BFB6
:102B7000421C12D088B191F82F2092070BD54B68D8
:102B8000834208D0896800EA01020B409A4202D1D0
:102B90000143491C01D0002070470120704700000C
:102BA0002DE9F74F86B00546079800241427C08CFE
:102BB000A61F1438C11700EB5170C0F3CF0B686823
:102BC0000590017801F00F01052907D1C08800F0B8
:102BD0001DFDC0F30C010291800403D5304609B0FD
:102BE000BDE8F08F288914381FFA80F875E000BF1F
:102BF000B8EBCB0F01D34FEACB0080B20390002299
:102C00001421022000F0EEFE5FEA000A6CD01422CC
:102C1000DAF804000599FDF70BFBDAF804000490DC
:102C2000039E2BE06889C01B84B2A64200D23446C2
:102C300014B3052000F026FE5FEA000951D0686851
:102C40004B463844CDE9000402222146042000F01E
:102C50005DFF0090F0B3284601F0C8F82649C9E9A5
:102C600004155046009900F07AFF301B0604360C1C
:102C700006D000272D68D5E72D680027002ED1D17A
:102C8000381987B20798C08C143840450298C0F3B1
:102C90000C0001DA40F4005000F0B8FC0499C88040
:102CA0000398143080B200F0B1FC04994880049875
:102CB0000021418107985146089A43699847504638
:102CC00000F0F4FF0399A8EB01001FFA80F80298C6
:102CD000584400E00BE080B202905FEA080087D120
:102CE0007DE7504600F0E2FF4FF0FF3077E74846BF
:102CF00000F03AFAF5E700009D3300082DE9F05F97
:102D0000456806460F4628780421B1EB101F03D012
:102D1000304600F0CBFF97E000F00F004FF6FF7158
:102D200001EA8008688800F071FC04463089A042FE
:102D300003D92146304601F02FF871894145E7D388
:102D40003089A042E4D3B8F1140FE1D32969DFF848
:102D50005CA1C1F303100E28CAF81410EA68CAF87F
:102D6000102014D0DFF848B14FF001093C4600BFF5
:102D700094F82F00C00715D0616899B1DAF81400F3
:102D800088420BD02146FFF7F3FE38B90AE097F8E6
:102D90002F00C00704D0786810B13C4684B118E019
:102DA00000240DE0B9F1000F04D04FF00009DBF86A
:102DB000004000E02468BC4200D12468002CD7D138
:102DC000687A112805D105EB08004088B0F5884FD6
:102DD00038D0DAF8102062B1D14639461046FFF7F4
:102DE000C7FE002894D199F81000C0F303100E28F4
:102DF0008ED0002C8CD0E88830F0C00005D0304652
:102E000000F0BCF806001FD07568CAF80850CAE97F
:102E10000047297830460907890EAAF80C10C8F136
:102E2000000100F081FF687A01281AD0062813D02B
:102E300011280CD057462146DAF81400FFF798FE07
:102E4000A0B121E03C46D4E70020BDE8F09F394620
:102E5000304603F045FC1AE03946304601F004FCE8
:102E600015E039463046FFF7CFFD10E0387DC0F35E
:102E700003100E2808D04146304600F058FF0221CA
:102E800030467560FFF7BCFD304600F00FFF0021B3
:102E9000CAF80010CAF80410CAF80810AAF80C10F2
:102EA000CAF81010CAF81410CEE700008C490020B0
:102EB0005C000020FEB5DDE90954089E1AB109B195
:102EC0000F6807B9211D0096CDE9015400F002F802
:102ED000FEBD00002DE9F84F1F46DDE90BA8DDF827
:102EE00028B01600894605462DD0142100F01CFF9D
:102EF00018B16FF00100BDE8F88F6C68277284F894
:102F000009A0306820614520207084F801B028892C
:102F100000F07CFB174F60804FF0000AA4F806A079
:102F2000388800F073FBA0803888401C3880B9F1E5
:102F3000000F05D0D9F80000E060A4F80AA006E070
:102F40000D480068F8E768686E4600690090B8F8B8
:102F5000260040B12989814205D93246414628469A
:102F6000FFF71EFEC7E7D8F8143040463246294620
:102F70009847C0E7D20000203C6A00082DE9F05FC6
:102F800045688346287800F00F0005287ED1E88840
:102F900000F03CFBC0044FEA1049688800F036FBA3
:102FA000297801F00F01494200EB81001FFA80F8F7
:102FB000584600F0F1FD544E0746308838440A2840
:102FC00009D93946284600F093F900285ED03088A8
:102FD00038440A285AD84FF0000A74680CE0606937
:102FE000E968884207D1A0692969884203D1A0898C
:102FF000A988884203D02468002CF0D106E02CB1C7
:10300000E88800F003FBC0041DD027E0042000F096
:1030100039FC04000AD13946284600F069F9B84263
:103020006DDB042000F02EFC040068D02021FDF7A9
:1030300018F90320E077706820601422294604F113
:103040000800746008E0E08900F0E0FAC00405D0F0
:103050001422294604F10800FDF7EAF830883844C4
:103060003080A879800606D4A07F40F00100A077C8
:1030700009EB0800A0835946204600F079F80028A3
:103080003BD0A08B1430A083606800E037E0456837
:10309000142204F108012F682846FDF7C9F8A08B17
:1030A00000F0B4FA6880A5F806A0A5F80AA06FF0B1
:1030B0001309D4F8048009E0494638467D6800F0D9
:1030C00033FE3946404600F04AFD2F68002FF3D109
:1030D00071688C4205D1002105E00868A04202D049
:1030E00001460029F9D1204600F0B8F8404600F02A
:1030F00053FD3188081A30804046BDE8F09F58469D
:1031000000F0D4FD0020F8E7D400002070B504469C
:10311000134813E090F82F10CA070FD04A070DD5B7
:1031200043685BB182682568134005EA02069E4247
:1031300014D0890702D4C1688D420FD000680028DE
:10314000E8D10848006840B190F82F10CA0704D0B1
:10315000490702D54168002900D1002070BD000058
:103160005C000020600000200146052000F058BBF4
:103170002DE9F047D1F8048007460D4600240126CA
:10318000B8F8020000F042FA014698F8000000F09A
:103190000F00404201EB8009B8F8060000F036FA53
:1031A000C004020C68680021016002EB0901828002
:1031B0001FFA81F8A0F806807B681DE05968B1F815
:1031C00004C062450DD2036044B1B4F806C0624544
:1031D00035D38988884532D8256000E07D606BB1A1
:1031E00015E02CD0CB889A4229D31CB1E3886345E3
:1031F00000D000260B680C46002BDFD134B12560CF
:10320000E1888288914202D0002600E07D60B97F8B
:10321000C90712D066B1796849B14968898831B95E
:10322000016829B14968C0888A88904203D0002685
:103230003046BDE8F0870846F2E70020F9E7284667
:1032400000F0AAFC014604480288511A0180284671
:1032500000F02CFDF1E70000D4000020074B30B453
:103260000A465C680168844201D1596000E011603F
:10327000014630BC042000F0D3BA0000D400002086
:103280002DE9F04145680646884668680024818833
:1032900091B900687060142206F108016868FCF7B3
:1032A000C7FF01212846FFF75FFC284600F074FCA9
:1032B0000446284600F0FAFC75680AE068682F4664
:1032C0000568384600F068FC204484B2384600F0B7
:1032D000EDFC002DF2D141463046FFF7BFFF034819
:1032E0000188091B01802046BDE8F081D400002040
:1032F0002DE9F0471D4F894606460024002213465B
:1033000011461546786822E0D0F814C0D6F80C8033
:10331000C4450BD1D0F818C0D6F81080C44505D1EB
:10332000B0F80CC0B6F80480C44509D06D1C2AB1B1
:1033300090F81FC092F81F80C44501D80246194674
:10334000D0F800C0BCF1000F00D003466046002852
:10335000DAD11AB11046FFF793FF04444C4501DA65
:10336000012DCBDC2046BDE8F0870000D400002012
:1033700070B50948002544680BE0E07F20B1401E8D
:10338000E0772546246804E0204624682946FFF7B4
:1033900077FF002CF1D170BDD400002010B5044699
:1033A000406908B100F082FC2046BDE81040FFF7FC
:1033B000DBBE00003EB50446374D00203549009085
:1033C00029600121696029828DF8040080218DF82F
:1033D0000510E1218DF806108DF808008DF8070022
:1033E0008DF8090001A9C5E90510E8614FF4000056
:1033F00028622846FDF70EF928B994F82F0040F00E
:10340000040084F82F000423244A25492248FDF7AC
:1034100087F8234A08234032A2F1C0011E48FDF775
:1034200045F8062084F828006869007884F82900A7
:103430006869407884F82A006869807884F82B00ED
:103440006869C07884F82C006869007984F82D00D8
:103450006869407984F82E0040F2DC5024F8260F89
:10346000607A40F00A0060720B48FDF76BFA6A461A
:103470000B210948FDF724FA00980B2140F00B02BC
:1034800005480092FDF724FB6A460B210248FDF730
:1034900017FA3EBD008002404449002074310020EC
:1034A000940100202DE9F84F0020044600902B489D
:1034B000FDF772F810B10020BDE8F88F2748818F22
:1034C000D0F840900904090C2DD00322042000F00C
:1034D00089FA009038B32148009D40F2F45BD0F89F
:1034E00030806E8900270FE0A4F2F4525242FCF7BC
:1034F0009FFED8F80C008046D0F808903F1BAAF237
:10350000F456002407F2F457686806EB040ADA451B
:1035100009EB04013844E7D83246FCF789FE2D68F0
:103520003444002DDDD10D480022016B05E00B680D
:1035300043F000430B60C968521C836B9342F6D87A
:1035400000218163006800F580504269120602D5AF
:103550008022426181600098AEE70000444900206B
:103560002DE9F05F27480D46C66A002083460446D1
:10357000D6F808A031E0306800280CDB6F894FF0E6
:10358000000818E0A4F2F4525242FCF751FEF6682B
:103590003068002802DA6FF0070025E0D6F808A0AE
:1035A000A8EB040000F2F458ABEB0400A9F2F457C6
:1035B00000F2F45B002407EB040940F2F451894562
:1035C00069680AEB04004144DCD83A46FCF730FE57
:1035D0000BEB07002D683C448346002DCBD1014600
:1035E0000848FDF7F1F900200649096801F5805106
:1035F0004A69920603D520224A6100224A60BDE84A
:10360000F09F00004449002000BA704740BA70475C
:1036100010B500F031F800F00FF900F067F903F091
:103620005DF801F01FF8BDE8104000F00DBDFDF79A
:1036300081FBFDF7D1FFFDF717FFFDF75DFF4FF4AD
:103640007A7000F015FCFDF7A7FFFCE7002810D00A
:1036500008490A6890420CD34A68904209D2002275
:1036600000F8042C8A680838904200D2886000F084
:10367000C3BB70472800002010B50A480A4A20F052
:1036800003004FF4C8631060002103804180017182
:1036900000F5C861012451600C710B804B80906073
:1036A00010BD0000A749002028000020F0B5002828
:1036B00046D04FF6FC71C01C00EA01054FF4C86CFF
:1036C0000C2D01D20C2501E065453ED8204CC5F5F6
:1036D000C866A3682268981A81B234E05018077946
:1036E0007FBB07887F1A083FAF422BD3068805F1BE
:1036F000140E761A0127083E764514D30D4408357A
:10370000AEB295194FF0000E85F804E0B0F800E075
:10371000A5F800E06980068007712988614503D01B
:10372000951C4E5300E00771984208D1616801E092
:103730001B8813441D790DB18B42F9D1A360083069
:10374000F0BDFFE7515A8E42C8D80020F8E70000CC
:10375000280000202DE9F0474FF6FC72C91C1140EB
:103760004FF4C8650C2901D20C2101E0A94212D8FE
:103770002A4E3468A04210D3726890420DD2A0F154
:103780000802131B30F808CC9BB2ACEB0307083FD0
:10379000BFB2B94203D94FF00000BDE8F087FCD0BA
:1037A000B1461E4EA4444FF0000A9CF804803668CF
:1037B000B8F1000F06F1020618D001F1140CBC4557
:1037C000EBD8194408318FB2E119D9F80840A14269
:1037D00001D2C9F8081081F804A014880C804B802D
:1037E00017800988A942D8D08F53D6E719440831E9
:1037F000D9F80880BCF8007089B2E04503D104EB29
:103800000108C9F808800C4484F804A0278063806C
:1038100011802288AA42C0D09153BEE72800002020
:10382000092806D2002904D0024A52F82000FEF7E7
:1038300000BD70479C69000830B5064D002400BFEC
:1038400055F8240000F008F8641CA4B2092CF7D342
:1038500030BD00009C690008826800211160416849
:10386000C91C21F00301002207E08368521C1B6879
:103870000B60836819600388194443889342F4DC21
:1038800070470000092801D300207047024951F811
:103890002000FEF7D4BC00009C6900082DE9F0412F
:1038A000044606A890E8E00000206060A060E060A8
:1038B00084F82F002062032084F82400E5610A4D7B
:1038C000287884F83200401C28702046276100F0D8
:1038D0001BF82046B04710B10020BDE8F0816868B1
:1038E000206020466C60F8E7580000207047C90748
:1038F00009D04168002906D090F82F10090702D599
:10390000011DFEF7F7BE70472DE9F0411E46054642
:1039100017460C000FD0206868B11146284600F009
:103920004FF83146284600F026F821462846BDE8E3
:10393000F04100F025B8284600F022F83946284624
:1039400000F03EF831462846BDE8F04100F013B8DB
:1039500001498860704700005800002090F82F103F
:10396000CA0707D021F0010180F82F10090701D5FF
:10397000FEF76CBC704701B10968C1607047000078
:1039800038B50C00054601D0206801E00B480068FE
:103990000090696888420ED06946281D01F01AF926
:1039A0006946281D02F02EFF34B1206868600121AD
:1039B0002846FFF79CFF38BD0020F7E73C6A000867
:1039C00001B109688160704790F82F10CA0708D1CB
:1039D00041F0010180F82F10490702D50321FFF7BC
:1039E00086BF70472DE9F05F16460D4605285CD26C
:1039F000DFE800F0030507090900362704E0222765
:103A000002E00E2700E000274FF001094FF0000808
:103A1000F6B3012E65D0022E63D0032E45D10820C7
:103A2000FFF730FFDFF8E0B0040018D0E0191330E2
:103A3000267320F00300C4E90080FF1C27F0030078
:103A4000C0F5147041462581A84200D928466081FE
:103A50004F46A4F80E90A2462D1A88461DE08BF81A
:103A6000009022E00820FFF70DFFC8B1067380F830
:103A70000D80C0F80080A9B2CAF800004FF414729B
:103A80000181914200D31146418100F1100200E012
:103A90000EE04260C7816D1A8246002DE2DC2CE008
:103AA0008BF80070204600F001F90020BDE8F09F7F
:103AB00007F1130020F00301E81C20F00300084484
:103AC00080B2FFF7F3FD0400F0D0E019133020F0CE
:103AD0000300606025816581C4F8008084F80C8053
:103AE0000BE00720FFF7CEFE0400DFD0C4F804800F
:103AF00025816581C4F800802673A4F80E9084F8AF
:103B00000D802046D2E700006400002070B5052833
:103B1000DDE9044511D2DFE800F0030507090900DB
:103B2000362004E0222002E00E2000E00020C01C2D
:103B300020F003004618AE4201D9002070BD0025D8
:103B40001D6014B12044586000E05D60022058738D
:103B5000198159811A730120D881184670BD10B59A
:103B600000280FD000290DD004E003890C892344DC
:103B7000038110460268002AF7D102890B891A4492
:103B80000281016010BD10B50C46FFF7E8FF20462A
:103B9000BDE8104000F02AB9002102E0491C00688D
:103BA00089B20028FAD1084670472DE9F0474FF056
:103BB00000070C4605003E466FF00F0932D07CB37B
:103BC0002889218988422DD36FF0050A6889C11B95
:103BD0006089801B814201DB80B200E088B28046B0
:103BE00060684246811968683844FCF721FB07EB9E
:103BF000080087B206EB080086B26089B04201D89F
:103C0000246800266889B84202D12D68002745B192
:103C10005CB160892189884207D1206860B904E0DD
:103C200000E06CB14846BDE8F0873DB1688929895C
:103C3000884203D1286808B15046F4E7002CC5D16A
:103C40000020F0E72DE9F047164689464FF00008BE
:103C5000002806D0B9F1000F02D00027044620E06A
:103C60000020BDE8F0872BB16089984202D8181A6D
:103C700083B215E06089C01A85B2B54200D93546D5
:103C800060682A46C11809EB0700FCF7D1FA08EB77
:103C900005001FFA80F8781987B2701B86B20023DE
:103CA00024680EB1002CDED14046DAE770B500285A
:103CB0001BD00024C189491E0904090CC18113D1FC
:103CC000427B017B0568920702D50169884707E0BE
:103CD00003290BD001290CD002290AD0FFF7B6FC2A
:103CE000641CE4B22800E5D1204670BD01460820DE
:103CF00001E001460720FFF793FDF1E770B50848A2
:103D0000002505700748046806E0206F18B102F02E
:103D10007DF8256770BDE468002CF6D170BD000009
:103D20006400002080000020002200F003B801227F
:103D3000AFF3008030B541B138B1002907DA4B420A
:103D40009DB24389AB4225D302E0002030BD8DB245
:103D5000047B436834B1032C04D0022C0AD0012C1C
:103D600008D017E05A1A00F110044260A24208D2AB
:103D700043600FE000290BDA4289AA420AD35A1A9B
:103D8000426042890A444281028911440181DCE790
:103D9000002AF4D1012030BD70B502898A4224D9AD
:103DA0008A1A0D46044605E0281A85B22089104477
:103DB000208124686089A842F6D3207B68B9608995
:103DC000A8420AD0607B800707D4A088001B284443
:103DD00081B22046FFF7BEFC04466581258120683C
:103DE00008B1FFF763FF0020206070BD002802D0FB
:103DF000C189491CC181704730B5134903880A68DD
:103E00001344941C98420DD01D795DB94D68AB42A6
:103E100008D08D689D4200D188601D8805801B8870
:103E2000851A1D534388134483420BD01D79002DFE
:103E300008D18D68854200D18B6001881980008887
:103E4000991A015330BD00002800002010B50C461F
:103E50000449204600F0BDFB0349204601F0CEFE98
:103E6000002010BD6D3E00089D3E0008FFF7EEBB30
:103E700070B5044600F0E5FE05462246054900F00F
:103E8000FDF9FF21284600F063FEBDE870400249BD
:103E900000F061B93C6A00084D3E000870B586B07C
:103EA0004FF00000009014000D4601900290039026
:103EB0000490059046D02189284601F0B6FE0020E6
:103EC0006B466189626802E0165C1E54401C8142A8
:103ED000FADC9DF800001F4B313809282ED2DFE8AC
:103EE00000F005070D0F1114171A1D0001220AE03A
:103EF00001220BE01846FCF70AFF1FE0012208E050
:103F0000012209E000220421F4E700220821F1E760
:103F100000221021EEE700222021EBE7FEF70CFD46
:103F200002460DA103A8FDF7B7FB03A8FCF7A4F90F
:103F300082B2012303A9284602F08CF92046FFF73C
:103F4000B5FE00E013B1002006B070BD084600F0D9
:103F5000DFF9F9E700100140256400002DE9F04188
:103F6000124C206800281FD000F024F86168104F20
:103F7000451A387808B1FFF7C1FE2168002913D02F
:103F80004868A84210D862682D1A02446260086826
:103F90002060D1E9026080460620FFF741FC002E38
:103FA000E7D04046B047E4E7BDE8F081AC00002030
:103FB00064000020FCF7B0BE2DE9F041054616462E
:103FC0000F460620FFF75EFC040013D0FFF7F2FF58
:103FD0001C490A68002A0FD04B68A0EB030300BFFE
:103FE0004FF00000E660206005EB0300C4E9010724
:103FF00006D10C60BDE8F0814FF000034860EFE7A8
:104000005068A84203D9401B50602260F1E7104677
:1040100010E04E689E420CD94A68D21A4A6004E009
:10402000AB4202D951682944616001682160046093
:10403000E0E7084661684368CB1A636001680029BD
:10404000EED0E6E7AC00002070B5094D012400BFBA
:1040500005EBC40255F834000649FFF7ADFF641CB8
:10406000052CF5D3FFF7A6FF0349486070BD00009B
:10407000146A000841180008AC0000202DE9FC5F1C
:104080000446007D0A283DD00025DFF8C080D4F822
:104090004CB0D4F824A0D4F81090D4F88C602F46FB
:1040A00078B30D46E78A214608F1180001F02EF892
:1040B000012188F80010E06E08B101F0A7FEA06EA3
:1040C00008B101F0A3FE206F08B101F09FFE45B1D9
:1040D000208B231DCDE9007022465146584601F041
:1040E00033FE21460120FFF79BFB002E2CD002B0AF
:1040F0004846B446BDE8F04F6FF00C015DF804EBA4
:1041000060470AE0114821461C3000F0FFFF2146BD
:10411000BDE8FC5F0120FFF783BBE08A0028CAD01E
:10412000D8F81000A0420AD1C068C8F8100008E012
:10413000C168A14202D1E168C16002E008460028DE
:10414000F6D10020E060B6E7BDE8FC9F68000020E3
:104150000121FFF793BF002803D0027D012A00D17F
:104160008161704710B50846FFF7F2FF6FF00C0051
:1041700010BD00002DE9F04105460120FFF782FB4C
:104180003B4E040047D100221146F368F06906E077
:10419000046A1C1B944201D322460146C0680028D1
:1041A000F6D111B10846FFF7D3FF0120FFF76AFBF4
:1041B000040030D1092000F037FC0120FFF762FB3A
:1041C000040028D1082000F02FFC0120FFF75AFB43
:1041D000040020D129467F2D00D97F2100231A46D3
:1041E000D6F80CC0B0690BE0447D8C4207D8076A52
:1041F000ACEB07079F4202D33B4602462146C0680C
:104200000028F1D112B11046FFF7A2FF0120FFF7FD
:1042100039FB040028D09821FCF723F865754FF48A
:104220008660A4F86000400060852085FF20A072B1
:104230004FF4067060860620A4F84000E087C01F97
:1042400020860120A4F84800143400F02BFD2064DF
:10425000A06320636064F068E060B0786072054835
:10426000E0660548E067143C2046BDE8F0810000A8
:1042700068000020075C000800DD6D002DE9F041BA
:104280000C0005464FF0040300D11E4C6FF00500F2
:10429000002D10D0002C0ED0297D00290BD12AB181
:1042A000194F00BF57F82100006818E000F0CCFC5F
:1042B00002001AD1801EBDE8F081C68A96420DD157
:1042C00048B106683EB134B1D4F800C0BCF1000F6B
:1042D00001D0664502D16FF00700ECE7C068002806
:1042E000EBD1491C9942DDDB14B1206800B1286094
:1042F0000648EA820169E960056101F02BFF0020B0
:10430000D9E700003C6A0008046A00086800002041
:10431000017D012903D0817E41F0100181760121C8
:10432000AFF300802DE9FC470446007D534D4FF06C
:104330000109002791B3042801D007283ED1616FFD
:1043400019B9218DB1F5066F38D0218BE08ACDE9FE
:104350000001231D2246616AE06C01F0F5FC204655
:1043600000F0B3FEA869A04209D1C068A86108E0C6
:10437000C168A14202D1E168C16002E0084600289C
:10438000F6D1E76085F80090207D042807D03C48EE
:104390000068A0420BD101F03BFF0CE00EE00A20C8
:1043A0002075E869E060EC6101F0D4FE03E021468D
:1043B0000120FFF735FA0020BDE8FC874FF0050823
:1043C000082853D2DFE800F0041A37404052524820
:1043D000E08A002678B12869A04209D1C068286126
:1043E00008E0C168A14202D1E168C16002E008466C
:1043F0000028F6D1E7602146012019E00026214B74
:10440000012100BF53F821002246006804E0856FB7
:10441000954200D18767C0680028F8D1491C04295B
:10442000F0D316481146143000F070FE21460220E9
:10443000FFF7F6F91FE0114800262146183000F07A
:1044400065FE85F80090D6E7204601F021FD0600C4
:1044500009D184F8148006E0204601F019FD060019
:1044600001D10920207534B116B104E0002602E024
:10447000204600F05BFC30469EE70000680000200C
:10448000A8000020046A00082DE9F0470746DDF87F
:1044900020809A4691460D465FEAC87001D00426F6
:1044A00000E000260320FFF7EDF9040013D084F8A4
:1044B0000A804FF00008C4E9008528891421801B78
:1044C00020812846FFF730FC48B1204601F090FCDF
:1044D0000020BDE8F0872846FFF7E8FBF8E76068B2
:1044E0004068E060F88AFFF791F8E1680880388B4F
:1044F000FFF78CF8E16848805046FFF785F8E168DF
:104500004860B008000300F5A04040EA0900FFF74A
:104510007DF8E1688881E1682046A1F81280D8E73B
:1045200010B504460846FEF7F1FD40B1B0F926008B
:1045300028B1283880B2844200D220460446204662
:1045400010BDF8B504460027B0F862007E1E0D4687
:10455000092801D3E80718D0A80700D50127F807D4
:1045600001D0042100E0002100221046FFF73AFAB2
:1045700001000AD000972A462046A36DFFF784FF6A
:10458000010002D0A06E30B108E0A07E40F08000B3
:10459000A0763046F8BDA16604E010460268002A05
:1045A000FBD101600020A4F86400A80702D0A06D30
:1045B000401CA065E80703D0A07E40F02000A07654
:1045C0004868FFF7E9FA34F8621F084420800020A9
:1045D000F8BD002801D0C0F88C10704770B5144D9C
:1045E000A878401CA870AC691FE0617FA878814260
:1045F0001AD06077A07EC10709D040F00200A076F3
:10460000204600F093FBA07E20F00300A076E66831
:10461000606F38B100202870204600F057FF2878DE
:104620000028E0D1344600E0E468002CDDD170BD04
:10463000680000200A4910B508460B69C088421C72
:1046400092B213B18C88A04204D2CB681433185CA8
:10465000CA8010BD001BC0B2CA80185C10BD00002B
:1046600088000020704700002DE9FC5FD34E05460E
:104670004068F060688914287CD3D14F3968786924
:10468000FEF776FA002875D1387DC0F303100E28A6
:1046900070D0F0688089FEF7B9FF000B8000142805
:1046A000EAD329898142E7D3A0F1140189B271804C
:1046B0004FF0000AC6F810A06A89824205D3B18083
:1046C00041422846FFF730FB1BE06FF013012846FC
:1046D000FFF72AFB6889B0807188091A8CB24042C2
:1046E00001B22846FFF720FB28684189A142C3D3C5
:1046F00041683161614209B2FFF716FB2889001B4E
:104700002881F0680088FEF781FF0146F06801808B
:104710004088FEF77BFF0146F06841804068FEF765
:1047200073FF0146F068416071618068FEF76CFFBD
:104730000146F0688160B161C089FEF767FF0146FC
:10474000F068C1818089FEF761FF00F03F003070A2
:104750002989820700D0012211447181DFF8649217
:104760000022D7F810B0D9F80030F1681C46D7F80D
:1047700014E045E01CE100BFB4F818C0B1F80080B7
:10478000C4453BD1B4F816C0B1F80280C44535D158
:10479000D4F80480D84531D1D4F80080F0452DD12B
:1047A00032B1D4F80CC0C2F80CC0E360C9F80040C4
:1047B00044B3DFF8149257460007C9F800A02B89CC
:1047C000A9F80830C9F80450C9F80C10C6F81CA0A4
:1047D00086F801A0A6F808A003D5687B40F0010088
:1047E0006873606FF0B3204600F070FE0D3060D04B
:1047F000606FB8B3708900285BD141E02246E4685D
:10480000002CB9D17148D7E90427006811E0038B67
:104810000C88A3420CD1C38A4C88A34208D14368B8
:10482000934205D10368BB4202D101F0ADFCBFE069
:10483000C0680028EBD1664C00222068034610E0D7
:10484000B0F816C0B1F80280C44508D1D0F800C055
:10485000BC450BD0002808D0BCF1000F08D00246A0
:10486000C06800E00CE00028EAD18EE000287DD08E
:104870001AB1C168D160C360206000F0F3F897E01E
:104880002046346200F06AFC0D3072D070783546F4
:1048900000070FD5D4F88C201AB16FF00D012069F4
:1048A0001FE02146474800F031FC21460120FEF779
:1048B000B7FF5EE02A893AB1E36F23B12146206950
:1048C00098470D3055D02F816878C0060BD5A07E53
:1048D000C006E6D4D4F88C20002AE2D06FF00E0196
:1048E00020699047DDE7E86908B3A17EC90605D5D0
:1048F000FFF7DCF92046FFF72BFC3AE0D4F880C044
:10490000BCF1000F07D0D4F81080024600232146E6
:104910004046E04705E0002302462146184601F0E4
:1049200072F910F10D0F24D008B1E869606768785A
:10493000800618D5606F20B1417B41F020014173A2
:1049400011E0208DB0F5066F01D0401C2085D4F811
:1049500080C0BCF1000F06D000231A462146206912
:10496000E0470D3005D020462F6200E00DE000F05A
:10497000DDF93762F761D9F804004C46002802D00F
:10498000FFF794F96760BDE8FC9F8889FEF73EFE5B
:1049900040070DD4F0680A4B01884088CDE900013A
:1049A00071897069103301441A1DB06901F0CCF9A6
:1049B0002846BDE8FC5FFFF779B9000088000020B9
:1049C0008C49002080000020C47E0020840000204C
:1049D0007C0000203EB50446C06C401EFEF714FE6D
:1049E000034600221146204600F084FA050014D048
:1049F000201DFEF78BFB98B1002200920621CDE925
:104A00000110A37A221D21462846FEF753FA0446D8
:104A10002846FFF74BF920463EBD4FF0FF303EBD24
:104A20006FF00304F4E7000030B40D4B044600219E
:104A30000846DD689A6909E0137DA34205D1136A2F
:104A4000EB1A8B4201D319461046D268002AF3D1E3
:104A5000002803D030BC0021FFF710BB30BC7047EA
:104A6000680000207CB5364E0546307841070ED4EC
:104A7000C1060DD5F068334B01884088CDE90001AF
:104A8000718970691A1D0144B06901F05DF97CBD3E
:104A90008007FCD5687DFFF76DFB04003ED02948F8
:104AA00010384169216000696060E88AE082F0683E
:104AB000008820830320207570690146401C6062D5
:104AC000491E2165E0622869A5672061287A00F007
:104AD0000C0020721C480168E160046001F03AFBA0
:104AE0001A4901200870204600F08EFAF068211D56
:104AF000C089A4F85C00A4F85E00A4F84A00608EA7
:104B0000FFF70EFD608612212046FFF71AFD90B1D7
:104B10002046BDE87C400021FFF7B0BA002DB6D09A
:104B2000AB69002BB3D0286902B04FF0FF32BDE86B
:104B30007040002118472046BDE87C4000F0F6B8E0
:104B4000880000209C490020800000206800002090
:104B500070B50446007D08B1002070BD0220FEF74C
:104B600091FE0500F9D020692861E08AE8820120E1
:104B70002875607D6875207A2872A07AA872607A9C
:104B8000687220682860E08A88B110490869A042EC
:104B900009D1C068086108E0C168A14202D1E1689A
:104BA000C16002E008460028F6D10020E0602146FE
:104BB0000120FEF735FE0648A8610448143001685C
:104BC000E960056001F0C6FA284670BD6800002063
:104BD0006541000870B50D4604001ED0206800280D
:104BE0001BD00E4E2046B16900F01AF820463169FC
:104BF00000F016F8002D10D0286800280DD006F11E
:104C00001400026807E011682368D068994201D156
:104C1000296811600246002AF5D170BD68000020A5
:104C200070B50546084609E001682A68914204D13A
:104C3000C468FFF78DFA204600E0C0680028F3D171
:104C400070BD4020FFF796BAF0B5144D144A00230A
:104C50004FF6FF764FF440474FF4804E9088411C4A
:104C60009180B04200D197809488002055F82010A0
:104C700009680AE0B1F816C0A44505D15B1C9BB2D7
:104C80007345EBD30020F0BDC9680029F2D1401C68
:104C9000C0B20428EAD3A0B2F0BD0000046A000844
:104CA000680000200249D1E9020210448860704780
:104CB0006800002070B50546C0680C468089FEF784
:104CC000A5FC194EC00715D0204601F09FF800241E
:104CD00027E08089FEF79AFCC00707D00120FEF785
:104CE00095FC0146E8688289114381812046246849
:104CF00001F07EF8ACB1E068228973694168114423
:104D00002A891A44511AE4D52889C218E0684068F3
:104D1000121A002A05DDC01A81B229816868FFF7DE
:104D20003BF82C6070BD0000880000202DE9F05F8A
:104D300004466F480068A04202D10020BDE8F09F01
:104D4000B4F85C10B4F84800814200D208468246AC
:104D5000A07EA56E80070FD54DB1E8684068FEF7CC
:104D600053FC616C401A29890144514504D92046FD
:104D7000BDE8F05F01F053B8E66E0EB903E00646F9
:104D800030680028FBD1201DFEF7C0F95FEA00095A
:104D90006FF003010BD04FF0000B14B12068002816
:104DA00004D119F1040002D0006820608BE00846AD
:104DB000C4E7E8688089FEF729FCE06EA8B1A07E10
:104DC00010F0440F11D1A16E29B10A686AB909899E
:104DD000628E914209D2B4F8601031B1B4F8621019
:104DE000092902D210F0A00F79D0207D022807D027
:104DF0001020FEF70BFC0146E8688289114381818F
:104E00004A462146284600F0ABF820B1A17E41F089
:104E10008001A17692E72868A066207D022803D051
:104E2000A07E20F00300A076E8684068FEF7ECFB67
:104E30000746E8688089FEF7E9FB800700D001207B
:104E4000298938440844E16C091A00D5E064E8680F
:104E50008089FEF7DBFB800700D001202989C8424A
:104E60002DD0C5F800B0E06E68B1E8684068FEF784
:104E7000CBFB0746F0684068FEF7C6FB381A1BD527
:104E800004F16C0004E0E56617E000BFD8F800000C
:104E90008046006850B1C0684068FEF7B5FB074621
:104EA000E8684068FEF7B0FB381AEFD4D8F8000085
:104EB0002860C8F8005005E035602E4602E028461C
:104EC00000F096FFA56E55B1E8684068FEF79CFBC0
:104ED000616C401A2989014451457FF66AAFA06E82
:104EE00008B9A4F864B0A07E20F08000A07624E782
:104EF000A80000202DE9F041054688180F4614301F
:104F000081B2984600220120FEF76CFD060023D0F6
:104F1000E88A7468FEF77AFB2080288BFEF776FB20
:104F20006080C4F80480686AFEF76EFBA060B80871
:104F3000000300F5A04080B240F01000FEF766FBD1
:104F4000A081688DFEF762FBE081002020826082F4
:104F5000698D686A0844E8623046BDE8F081000067
:104F6000FEB50546406817460C46C089012801D0A9
:104F70000020FEBD606AFEF747FBE9688860608D2F
:104F8000FEF744FBE968C881618D606A0844E0620D
:104F9000EE68A87A1436C00709D0211D4FF40670B8
:104FA000FFF7BEFA40F00170FEF72EFB3060B4F957
:104FB00030000026002800DA2686606B38B91148D8
:104FC00000686063E8684068FEF71EFBA0636968DC
:104FD000A8898A88801A4A89121A4A8169680A89C6
:104FE000101A08816968E868221D4860E86806218F
:104FF0000682607A8DE88300A37A21466868FDF70F
:1050000059FFFEBD740000202DE9F0411A4C064600
:105010006088002818D00020E0804FF406750FE06B
:10502000FFF708FB00280FD0012809D002280DD077
:10503000FFF700FB022807D3E1880844801EE080C8
:10504000E08861888842EBD3BDE8F081FFF7F2FA8F
:105050000428F9D1E0886188801C8842F4D8FFF7E1
:10506000E9FA0702FFF7E6FA3843A84200D800B988
:1050700028467086E4E70000880000202DE9F04112
:105080001D46DDE90637089E0C46914211D2BF0746
:1050900007D49F7E7F060CD41EB19E6E0EB9DB6EC8
:1050A0003BB104F21B2121F00301914200D80A46D2
:1050B00091B20022FEF796FC002804D04189091B1A
:1050C000298004814481BDE8F08170B50446007DEB
:1050D00000281AD00A2818D0012816D0606F0025A1
:1050E00010B1FEF7E3FD6567206F00F08FFE4FF013
:1050F000FF3025672086A06E00F088FEE06E00F08D
:1051000085FEA566E566A4F8645070BD70B50C46D2
:1051100001460068A04209D1C068086008E0C16883
:10512000A14202D1E168C16002E008460028F6D140
:1051300000252046E560FFF7C8FF207D0A280AD039
:10514000012808D0A07EC10705D040F00200A0765B
:105150002046FFF7EBFD2575E58270BD2DE9FC5F6C
:10516000D44D04462878410722D5207D02280FD04F
:10517000616A686981420FD0421A08D4228D1144B5
:10518000401A002803DCA07E40F00200A0768EE1E9
:10519000E06CA9698842FAD1687840F0080068702C
:1051A000A07E20F00100A0766FF00D00BDE8FC9F0E
:1051B000800704D5207D022801D00328E3D1A07EFA
:1051C000C00602D4BC48006820624FF0000884F892
:1051D00096802046FFF718FFB84A217D02F11003A0
:1051E0000420DFF8DCA2B74FB74E891E14324FF00F
:1051F00001094FF00A0B0829C9D2DFE801F0047059
:10520000CDD1F7CDF6F52978CE06C0D5890755D58D
:10521000616CAE69491CB14250D169690A46491CAA
:1052200061626664E162E968521EC989A4F85C1093
:10523000A4F85E1022652075608E211DFFF770F9BD
:105240006086B4F85C10A4F84A1041F21C11B1EB6E
:10525000400F01D2420000E00A46B2EB800F01D9B4
:10526000810003E0B1EB400F00D24100A4F84810E8
:10527000B4F86200401EA4F86200E06EB0B10168AC
:10528000C4F86C1000F0B4FDE06E98B1A4F8308062
:1052900084F84280D4F88430002B3FF474AF0022AD
:1052A0002146206998470D3034D06CE7A06E016824
:1052B000A166E7E74FF0FF302086EBE7E86801885A
:1052C0004088CDE90001698968690144A86900F056
:1052D0003BFDA4F83080204600F01FFDE7E0297870
:1052E000CE064ED5616CAE69711A01293DD4E16CD0
:1052F000711A002939DC2075A06F40B1836933B180
:10530000002221462069984738B10D3002D020464E
:10531000FEF71EFF6FF00C0048E7204600F00CF986
:10532000B4F85C00A4F84A00288908B1401E28811E
:10533000608E41F21C11B1EB400F01D2420000E03F
:105340000A46B2EB800F01D9810003E0B1EB400FB8
:1053500000D24100A4F848106878800610D5A07EDD
:1053600040F00200A076072054E0E86801884088F9
:10537000CDE90001698968690144304600F0E4FC28
:1053800095E0880707D5606A6969401E884202D1A6
:10539000204600F06BFC8AE0204600F0CDF8DBE709
:1053A000204600F0C9F86878800628784FEAC06087
:1053B00027D5002805DAE06CA969884201D1A06EE2
:1053C00028B1A07E40F00200A076082022E0A07E56
:1053D00040F00200A0762046FFF777FE3068A0423A
:1053E0000CD1C068306048E051E02DE014E0C168A5
:1053F000A14202D1E168C1603FE008460028F6D131
:105400003BE0002853DAE06CA96988424FD1A06ED6
:10541000E0BB062020754AE0204600F08DF8687851
:10542000800644D5A07E40F00200A0762046FFF71B
:105430004CFE3068A042D4D003E0C168A142D9D06C
:1054400008460028F9D118E0204600F075F82878C1
:10545000C0062CD5E06CA969884228D1A06EA8B9F5
:105460002046FFF732FE3068A042BAD003E0C168A0
:10547000A142BFD008460028F9D18AF8009084F8EC
:1054800014B03868E0603C6000F064FE0FE0204635
:1054900000F052F82878C00609D5E06CA969884266
:1054A00005D1A06E18B9687840F01000687000202F
:1054B0007CE6000088000020740000208C49002059
:1054C0006800002084000020800000202DE9F041C9
:1054D000456F044600206E7B6067D4F880702FB162
:1054E00000232A4621462069B84705E000232A46C2
:1054F0002146184600F087FB6FF00C0730B10D30E5
:1055000018D06FF004006567BDE8F081B0060FD5D4
:10551000208DB0F5066F01D0401C2085D4F8805056
:1055200035B100231A4621462069A8470D3001D025
:105530000020E9E73846E7E72DE9F047FE4D04464D
:105540004FF000062878C0067ED52846B4F85CC027
:10555000636D276D6A69C16880690CEB0309B7EB5D
:10556000020808D4974201D11F1A04D4834214D1EF
:10557000CB89634511D9C989A4F85C10B4F85E30B1
:105580008B4201D2A4F85E10C4E91420002994F8DB
:10559000951009D009B184F89560626C811A0029D0
:1055A00034DC698941B12EE00029F6D184F8946099
:1055B000012184F89510F0E7B4F85C30616D0B447C
:1055C0004B4520D1B4F9301000291CDB82421AD19E
:1055D00094F84300411CC9B2814201D984F84310B8
:1055E00094F84300032809D9B4F84810608E0844A1
:1055F00080B2884201D9A4F848008DE002D120464B
:1056000000F05DFB88E084F8436085E0012967D401
:10561000E16C411A002963DCA17E4A0706D521F01E
:105620000401A176B4F84A10A4F8481084F8426046
:10563000E18FB4F93C2001EBE201A4F8401084F8BA
:1056400043606064207D00E0A6E0042829D3B4F81C
:105650004800B4F84A108842618E04D2014489B2ED
:10566000814207D81DE0494391FBF0F1014489B222
:10567000884216D2A4F8481013E03868E0667868CB
:10568000FEF78AFA7868FEF787FAB4F86210081A0B
:10569000A4F862003889298908442881384600F036
:1056A000A7FBE06EC0B1C0684068FDF7ADFF0746DC
:1056B000E06EC0688089FDF7A9FF800700D0012057
:1056C0003844E76E39890844A969401A0028D4DDB6
:1056D00017B12686E6761FE04FF0FF302086F9E707
:1056E000204600F09CFB17E03868A06608B9A4F8D3
:1056F00064607868FEF750FA7868FEF74DFA014664
:10570000B4F86200401AA4F8620038892989084474
:105710002881384600F06CFBA06EB8B1C0684068C4
:10572000FDF772FF0746A06EC0688089FDF76EFF27
:10573000800700D001203844A76E39890144A86948
:10574000411A03D4E16C401A0028CDDDB4F86000A2
:1057500029890844A4F86000606BE8B1A16BAA69CC
:10576000891A19D575490988081AB4F93C10A0EBB3
:10577000E10000B2014409B2A187002801DA4042E9
:1057800000B2B4F93E20A0EBA2001044E08700EB89
:10579000E100A4F8400066636B89002B7ED0207D79
:1057A00007287BD2606A6A69DFF89481811A01292F
:1057B00026D41344C31A5B1C002B21DCD8F8040048
:1057C000474642898A420ADA0289521A92B203E0B3
:1057D000028146810068C91A43898B42F8DB49423D
:1057E00009B2FEF7A1FAAA8A606A3989821A891A6F
:1057F00039816861F9684860616A401A07D5E7E154
:10580000101A04D5A07E40F00200A076E0E1218DC0
:10581000606A421869698A1A521C002AEFDC8842C1
:1058200071D1D8F80C0047468089FDF7EFFE80075C
:1058300000D001203989B946084480B26881218DA1
:10584000814232D2D9F80C004F468089FDF7DEFE46
:10585000C0070FD0F8688089FDF7D8FEC0F3440078
:105860004000FDF7D3FE0146F868828922F47C529D
:1058700011438181208D3881F8688089FDF7C6FE4B
:10588000800702D53889401E388139897868FEF74B
:1058900083FAF8688089FDF7B9FE00E09DE1800792
:1058A00000D00120398908446881206F60B3D9F89D
:1058B0000C008089FDF7AAFEC00704D107E001684B
:1058C000216700F095FA206F0028F8D166E0276F75
:1058D00024E08089FDF79AFEC0071BD0D9F80C00A0
:1058E0008089FDF793FE800714D40120FDF78EFE1A
:1058F000D9F80C108A8910438881FDF787FE80074C
:1059000003D0012102E0B7E048E00021B9F8080027
:105910000844688138463F6800F06AFAB7B3F8680F
:1059200039896B89426811446A691A44511AD0D581
:10593000686999B2421805E08800002074000020D0
:10594000C47E0020F9684968521A002A25DD091A28
:10595000A9F80810D9F80C00A8468089FDF756FE72
:10596000800704D5B9F80810491EA9F80810B9F83D
:105970000810D9F80400FEF70FFAD9F80C00808956
:10598000FDF744FE800702D0012101E005E000217F
:10599000B9F808000844A8F80A0027676889696907
:1059A00001446162218D081A2085204600F038FCF0
:1059B000D9F8041048460A890AB1E9614660D9F865
:1059C0000C008089FDF722FEC00743D0687840F0C4
:1059D000200068703EE069618089FDF717FE80074E
:1059E00001D0012100E000213A89606A1044084496
:1059F0006062F8688089FDF709FEF8688089FDF724
:105A000005FE800700D0012039890844218D081A3D
:105A10002085204600F004FC7968088930B1E869E7
:105A200010B1FEF79CF800E0E9617E60F8688089BB
:105A3000FDF7ECFDC00708D0687840F020006870E2
:105A4000207D042801D1072020753868206738465A
:105A500000F0CEF9276F27B1F868626A4168914279
:105A6000B9D0A07EC10702D020F00100C0E040F014
:105A70000100A076BDE8F087204600F0D0F9266F3F
:105A80009EB168690027F1684968814212D1B8F86F
:105A9000080031898842EDD9574800F095F900286F
:105AA000E8D097B33860314624E0534800F08CF9D1
:105AB0002067DFE717B3FA685268821A012A26D4F2
:105AC000421A521C002A22DC4B4800F07DF90400E7
:105AD000D0D0F8683989406842186969521A002A9A
