:020000040800F2
:10000000000A00206501000827130008DF1200081D
:1000100025130008DD030008791A0008000000001D
:10002000000000000000000000000000AD19000802
:10003000DF0300080000000049130008AF190008A2
:100040007F0100087F0100087F0100087F01000890
:100050007F0100087F0100087F0100087F01000880
:100060007F0100087F0100087F0100087F01000870
:100070007F0100087F0100087F0100087F01000860
:100080007F0100087F0100087F0100087F01000850
:100090007F0100087F0100087F0100087F01000840
:1000A0007F0100087F0100087F0100087F01000830
:1000B0007F0100087F0100087F0100087F01000820
:1000C0007F0100087F0100087F0100087F01000810
:1000D0007F0100087F0100087F0100087F01000800
:1000E0007F0100087F0100087F0100080000000078
:1000F0000000000000000000000000000000000000
:1001000000000000000000007F0100087F010008DF
:100110007F0100087F0100087F0100087F010008BF
:100120007F0100087F0100087F0100087F010008AF
:100130007F0100087F0100087F0100087F0100089F
:100140007F0100087F0100087F0100087F0100088F
:10015000DFF80CD000F07AF800480047953000082E
:10016000000A00200648804706480047FEE7FEE7F1
:10017000FEE7FEE7FEE7FEE7FEE7FEE7FEE7FEE757
:10018000251A0008510100082DE9F05F05460020FE
:1001900092469B4688460646814640241BE02846F8
:1001A00041464746224600F020F853465A46C01AB8
:1001B000914110D311461846224600F038F82D1A06
:1001C00067EB01084F4622460120002100F02FF87E
:1001D00017EB00094E41201EA4F10104DFDC484664
:1001E00031462A464346BDE8F09F202A04DB203AE8
:1001F00021FA02F00021704721FA02F3D040C2F147
:1002000020029140084319467047D2B201E000F83D
:10021000012B491EFBD270470022F6E710B51346AA
:100220000A4604461946FFF7F0FF204610BD202A73
:1002300004DB203A00FA02F1002070479140C2F13D
:10024000200320FA03F3194390407047064C074DF2
:1002500006E0E06840F0010394E807009847103496
:10026000AC42F6D3FFF778FF80350008A0350008D0
:1002700010B5044601F0DEF804F12C0001F065F839
:1002800021690246207E237A801C491C814001207E
:1002900098404143C4E91110104610BD002070473A
:1002A00010B501F08FF90A490120087003460021BA
:1002B0009522084601F034FA08B1012010BD002350
:1002C000FF221946012001F02BFA0028F7D110BDBA
:1002D000180000202DE9F0479146DDE90878054631
:1002E000002601243346FF223946102001F0DEF9B2
:1002F00068B914E001F006FA19EB06014FF00003AB
:100300004FF0FF024FF0110001F0D0F910B10120C1
:10031000BDE8F087FE2001F0A3F938B10124B8F15F
:100320000108E7D201F0EEF92046F1E7002404E0ED
:1003300001F07EF905F8010B641CBC42F8D33E4481
:1003400001F076F901F074F90024E8E72DE9F047AF
:100350009246DDE908890646002735E01AEB0701D9
:100360004FF000034FF0FF024FF0180001F09EF92C
:1003700010B10120BDE8F087FF2001F083F9FE20D5
:1003800001F080F9002404E0307801F07BF9641C6E
:10039000761C4445F8D3474401F04AF901F048F986
:1003A000002501F045F900F01F04052C06D00B2CA8
:1003B0000AD00D2C08D06D1C402DF2D901F038F96F
:1003C0000028FBD0052C07D00124B9F10109C5D2C2
:1003D00001F098F92046CDE70024F6E7FEE77047E4
:1003E0000421024800F0A0F9FEE7000000100140DF
:1003F0000C4A10B50346147A0120012C11D8107A4A
:1004000000241454107A02EB80004360107A431CDD
:100410001372303008703A2048702F208870CC70EA
:10042000204610BDF40500200A49024601200B7A3F
:10043000002B0DD012780B7A303AD2B2934207D308
:10044000087A002201EB8003401E087210465A60B1
:1004500070470000F405002070B5044600F06EF906
:100460000546601C02D004480078044400F066F998
:10047000401BA042FAD370BD540000202DE9F04388
:1004800000220F27DFF8C09059E0012393400B4072
:1004900054D0FF2B01D8054601E000F104054FEAD6
:1004A000820401D9A4F12004D5F800C007FA04F8A9
:1004B0002CEA080C4FF0040808FA04F84CEA080C7F
:1004C000C5F800C0C46824EA0304C46022F0030530
:1004D0004D44AC684FEA827C4FEA1C7C07FA0CF66C
:1004E00006EA0408194CA04201D100240FE0184C80
:1004F000A04201D101240AE0164CA04201D10224FD
:1005000005E0154CA04201D1032400E0042404FAC4
:100510000CF4444512D1AC68B443AC600F4C256870
:100520009D432560241D25689D432560241D256865
:100530009D432560241D25689D432560521C31FA8A
:1005400002F3A2D1BDE8F0830000014000080140A1
:10055000000C014000100140001401400004014063
:100560002DE9F84FDFF8A091002309F1040A0AF100
:10057000040B1C464FF00F080BF1040E01270A680C
:10058000A7403A40BA4272D1DFF880C14D68A5EB6E
:100590000C0665452BD00DDC032D34D005DC35B3BE
:1005A000012D19D0022D2FD11BE0112D16D0122DA7
:1005B0002AD119E0B6F5881F19D006DCB6F5803FC0
:1005C00015D0B6F5801F1FD111E0B6F5001F0ED073
:1005D000B6F5041F18D10AE0CB6815E0CB681B1DE7
:1005E00012E0CB6808330FE0CB680C330CE08B686B
:1005F0002BB1012B4FF0080303D0476104E0042323
:1006000002E0076100E00023FF2A01D8064601E06E
:1006100000F104064FEA840501D9A5F120053768E9
:1006200008FA05FC27EA0C0703FA05F547EA05076F
:1006300037604D68ED0060D5354DAE6946F0010676
:10064000AE61AD6924F0030605F001050095314D5A
:100650007719BE68A5072D0F08FA05FC26EA0C06D7
:10066000DFF8B4C0604503D14FF0000C17E044E060
:10067000DFF8A8C0604502D14FF0010C0FE0DFF8B1
:10068000A0C0604502D14FF0020C08E0DFF894C032
:10069000604502D14FF0030C01E04FF0040C0CFA5E
:1006A00005FC4CEA060CC7F808C04D68D9F8006094
:1006B000ED034D4601D5164300E096432E604D688C
:1006C000DAF80060AD03554601D5164300E09643C5
:1006D0002E604D68DBF80060ED025D4601D51643E3
:1006E00000E096432E604D68DEF80060AD0275466E
:1006F00001D5164300E096432E60641C102CFFF4D5
:100700003DAFBDE8F88F000000040140000011106B
:10071000001002400000014000080140000C0140B0
:100720000010014000140140C2684A40C260704796
:100730000AB1016170470904FBE7000001488068C5
:10074000704700005400002002488168027811447C
:100750008160704754000020074810B5016841F0DF
:1007600010010160032000F067F8002000F006F897
:1007700000F024F8002010BD0020024070B50D4D9F
:1007800004464FF47A712878B1FBF0F00A49096801
:10079000B1FBF0F000F08FFD48B9102C07D2002219
:1007A0002146501E00F028F800206C6070BD01202A
:1007B00070BD000054000020600000200C4808B507
:1007C000816941F001018161816901F001010091BC
:1007D000C16941F08051C161C069064900F0805093
:1007E0000090486820F0E06040F00070486008BD6C
:1007F0000010024000000140F0B40E4B1B68C3F330
:100800000223C3F10704042C00D904241D1D072D65
:1008100001D2002300E0DB1E012606FA04F56D1E5E
:100820000D409D409E40761E164045EA0601F0BCF4
:1008300000F07ABD0CED00E0064A00F007011068F8
:100840004FF6FF03184040EA0120034908431060B7
:10085000704700000CED00E00000FA052DE9F047BC
:10086000DFF8508104460E46D8F8000000F007007B
:10087000B0420CD2D8F8001021F007013143C8F87B
:100880000010D8F8000000F00700B0426DD12068D9
:10089000494F810712D5400703D5786840F4E060DE
:1008A00078602078000703D5786840F4605078605D
:1008B0007868A16820F0F000084378602078C007CD
:1008C00042D06068012816D03968022816D08907FE
:1008D00000294ADA796821F0030101437960FFF7C2
:1008E0002DFF0546606841F2883101280ED00228AC
:1008F000894617D024E039688903E9E78901E7E7E9
:10090000FFF71CFF411B494501D916E0894678686D
:10091000C0F381000128F3D116E0FFF70FFF411B60
:1009200049450AD87868C0F381000228F5D10BE068
:10093000FFF704FF411B494502D90320BDE8F087BA
:10094000786810F00C0FF3D1D8F80010404601F091
:100950000701B1420BD9016821F007013143016061
:10096000006800F00700B04201D00120E6E72078DF
:10097000400705D57868E16820F4E06008437860B6
:100980002078000706D57868216920F4605040EA95
:10099000C100786000F016F87968084AC1F30311C5
:1009A000515CC840064908600020FFF7E7FE0020C0
:1009B000C4E700000020024000100240C2340008DA
:1009C00060000020F0B524A089B00FC88DE80F00AA
:1009D00025A004AC0FC884E80F00274B586800F02E
:1009E0000C01042904D0082904D0244809B0F0BD22
:1009F0002348FBE7C0F38342C0031DF8024028D51B
:100A0000D86A04A900F00F00085CD96AC90316D59A
:100A1000D96AC1F30312D96A521CC1F30321891C9C
:100A2000A2FB0023A1FB0417154D0026A1FB050C1A
:100A300007FB05C501FB0651FFF7A6FB03E01049C4
:100A40006143B1FBF0F09DF80D10A142CED14008FA
:100A5000CCE70C486043C9E7000004050607080915
:100A600000000000000D0000010203040506070855
:100A7000090A0B0C0D0E0F100010024000127A0034
:100A800040787D0100093D002DE9F84F04460078CB
:100A9000E64DC00747D06868C0F38100012807D041
:100AA0006868C0F38100022809D16868C00306D5D0
:100AB0002868800337D5A06800287DD033E0A0687F
:100AC000B0F5803F0BD010B1B0F5A02F11D0286841
:100AD00020F480302860286820F4802002E0286814
:100AE00040F480302860A06888B1FFF727FE0646F2
:100AF00009E0286840F480202860F0E7FFF71EFE38
:100B0000801B642875D828688003F7D50BE0FFF7B1
:100B100015FE064604E0FFF711FE801B6428F1D89D
:100B200028688003F7D42078C14E80074FF0010A6F
:100B30004FF0000739D5686810F00C0F07D06868CF
:100B4000C0F38100022809D16868C00306D4286870
:100B5000800714D5606901282ED110E06069B0B11A
:100B6000C6F800A0FFF7EAFD804605E0FFF7E6FDC6
:100B7000A0EB08000228C5D828688007F6D52868A9
:100B8000A16920F0F80040EAC10028600DE037605C
:100B9000FFF7D4FD804605E0FFF7D0FDA0EB08008D
:100BA0000228AFD828688007F6D4207800072FD510
:100BB000A048E169F1B100E01CE1C0F800A0FFF736
:100BC000BDFD804605E0FFF7B9FDA0EB0800022857
:100BD00098D8686A8007F6D597484FF4FA510068AC
:100BE000B0FBF1F0009000BF0098411E0091FAD2D6
:100BF0000EE0B1E00760FFF7A1FD804605E0FFF7DA
:100C00009DFDA0EB0800022889D8686A8007F6D409
:100C10002078400762D5E8694FF00009C00009D488
:100C2000E86940F08050E861E8694FF0010900F0A0
:100C30008050009081480168C90512D4016883463C
:100C400041F480710160FFF779FD804605E0FFF710
:100C500075FDA0EB080064287ED8DBF80000C00515
:100C6000F5D5206901280AD008B1052813D0286AD3
:100C700020F001002862286A20F0040002E0286ABF
:100C800040F001002862206941F2883B90B1FFF7F3
:100C900055FD80460AE0286A40F004002862EEE72D
:100CA000FFF74CFDA0EB0801594555D8286A80078D
:100CB000F6D50CE0FFF742FD804605E0FFF73EFD6C
:100CC000A0EB0801594547D8286A8007F6D4B9F146
:100CD000000F03D0E86920F08050E861E06AE0B3DB
:100CE0006968C90307D56968C1F38101022902D186
:100CF000E96AC9037ED4022808D0E86A20F480306B
:100D0000E862B766FFF71AFD80463BE02868C0003E
:100D100005D5E86A616B00F0F00088426AD1B766D9
:100D2000FFF70CFD804605E0FFF708FDA0EB08008B
:100D3000642871D828680001F6D4E86A616B20F055
:100D4000F0000843E862E86A216B20F47060084311
:100D5000E862C6F868A001E05EE016E0FFF7EEFC8E
:100D6000804605E0FFF7EAFCA0EB0800642853D8B2
:100D700028680001F6D508E0FFF7E0FCA0EB0800CA
:100D8000642849D828680001F6D4206A98B36968B5
:100D9000C1F38101022947D00228376603D0FFF74B
:100DA000CDFC04463BE0FFF7C9FC074604E0FFF733
:100DB000C5FCC01B02282FD828688001F7D4606AC0
:100DC000B0F5803F09D1E86A61680843E862E86AE3
:100DD000E16820F00F000843E862D4E90901084304
:100DE000696821F4741108436860C6F860A0FFF7D1
:100DF000A5FC01E018E015E0044604E0FFF79EFCC6
:100E0000001B022808D828688001F7D50AE0FFF700
:100E100095FC001B022802D90320BDE8F88F286842
:100E20008001F4D40020F8E70120F6E7001002402A
:100E300000004242800442426000002000700040F6
:100E400010B5040011D0022084F851002068016818
:100E500021F040010160204600F04AF80020606562
:100E600084F8510084F8500010BD012010BD70B509
:100E7000040005D00025A56294F8510010B104E0EB
:100E8000012070BD204600F047F8022084F8510090
:100E90002068016821F040010160D4E901010843A4
:100EA000D4E903121143084361690843218B01F41B
:100EB00000710843E1690843216A0843A16A0843B5
:100EC00021680860A069042101EA1040616A0843B2
:100ED000216848602168E06A08612068C16921F4DE
:100EE0000061C1616565012084F85100002070BD7A
:100EF00000680649884208D10548816921F480517B
:100F00008161E0210348FFF7B9BA70470030014022
:100F1000001002400008014030B585B00024009464
:100F200001940294039400681449884223D1144820
:100F3000816941F480518161816901F4805104919A
:100F4000816941F00401816180690E4D00F0040067
:100F50000490A02000900220019003200390694695
:100F60002846FFF7FDFA4020CDE9000469462846EF
:100F70000294FFF7F5FA05B030BD000000300140E3
:100F800000100240000801402DE9F84F044690F897
:100F9000500000271E4691460D4601280DD04FF007
:100FA000010B84F850B0FFF7C9FB804694F851005C
:100FB000BA46012804D0022792E00220BDE8F88F4B
:100FC000002D79D0B9F1000F76D0032084F85100BC
:100FD000C4F854A02563A4F83490A4F83690C4F85B
:100FE00038A0A4F83CA0A4F83EA0C4F844A0C4F8DB
:100FF00040A0A068B0F5004F04D12068016841F41A
:101000008041016020680168490603D4016841F00D
:1010100040010160E068B0F5006F606804D020B363
:10102000E08E012821D039E010B1E08E012818D1DE
:10103000216835F8020BC86006E0206881688907DE
:1010400006D535F8021BC160E08E401EE08608E040
:1010500086B3701C05D0FFF771FBA0EB0800B0420F
:1010600028D2E08E0028E8D11BE0216815F8010B9A
:10107000087306E020688168890706D515F8011B0A
:101080000173E08E401EE08608E09EB1701C05D022
:10109000FFF754FBA0EB0800B0420BD2E08E002813
:1010A000E8D13346012202212046CDF8008000F02D
:1010B000B3FB10B1032713E011E04246314620464E
:1010C00000F09AFB18B101272020606508E0A068B5
:1010D00018B92068C16880680090606D00B1012770
:1010E00084F851B084F850A0384667E72DE9F84FEE
:1010F000044690F850000127DDF828809B461646EC
:101100000D464FF0000901280ED0012084F8500050
:10111000FFF714FB824694F85100616801280CD057
:10112000B1F5827F07D102E00220BDE8F88FA16807
:1011300009B9042801D00220A2E045B13EB1BBF1BB
:10114000000F04D094F85100012802D004E00120DF
:1011500096E0052084F8510000206065A663A4F89D
:101160003EB0A4F83CB02563A4F836B0A4F834B07F
:101170002064606420680168490603D4016841F076
:1011800040010160E068B0F5006F606804D0D0B342
:10119000E08E012838D063E010B1E08E01282BD119
:1011A000216835F8020BC860E08E401EE08623E01F
:1011B00067B1E08E50B120688168890706D535F89F
:1011C000021BC160E08E401EE0860027E08F50B118
:1011D00020688168C90706D0C06826F8020BE08F36
:1011E000401EE0870127B8F1FF3F05D0FFF7A6FAC0
:1011F000A0EB0A01414542D2E08E0028D8D1E08F11
:101200000028D5D132E0FFE7216815F8010B0873FB
:10121000E08E401EE08623E067B1E08E50B120688A
:101220008168890706D515F8011B0173E08E401E01
:10123000E0860027E08F50B120688168C90706D09A
:10124000C06806F8010BE08F401EE0870127B8F167
:10125000FF3F05D0FFF772FAA0EB0A0141450ED21D
:10126000E08E0028D8D1E08F0028D5D14346012256
:1012700002212046CDF800A000F0CEFA10B10320E4
:10128000814610E052464146204600F0B5FA20B1B2
:1012900020204FF00109606505E0A06818B92068BA
:1012A000C16880680090012084F85100002084F813
:1012B0005000484639E710B5401EB0F1807F01D399
:1012C000012010BD4FF0E02460610F21601700F095
:1012D0002BF80020A06107202061002010BDFEE750
:1012E0000F4810B50D4901604FF482714160002133
:1012F00002228160C0E9031201224261520282612E
:101300000822C0E90721416281620721C162FFF71B
:10131000AEFD002801D0FFF763F810BD003001409A
:10132000C4000020FEE770470907090E002806DA0E
:1013300000F00F0000F1E02080F8141D704700F16C
:10134000E02080F80014704770477FB50025044600
:1013500001262B46FF2229460A2000F0A7F988B96A
:10136000FE2000F07DF968B96E4600F061F9705515
:101370006D1C102DF9D3FF2000F084F9FF2000F040
:1013800081F9002600F0BEF9EEBB9DF80000207048
:101390009DF801000002608060889DF802100843FB
:1013A00060809DF803000006606060689DF804108E
:1013B00040EA0140606060689DF8051040EA012045
:1013C000606060689DF80610084360609DF8070043
:1013D00020729DF8080060729DF809000006E06028
:1013E000E0689DF80A1040EA0140E060E0689DF87E
:1013F0000B1040EA0120E060E0689DF80C10084303
:10140000E060217C00E012E09DF80D0041EA10113F
:1014100021740007000D6082608A9DF80E10084359
:1014200060829DF80F00400820750120607504B0AF
:10143000304670BD7FB50025044601262B46FF22AD
:101440002946092000F032F988B9FE2000F008F999
:1014500068B96E4600F0ECF870556D1C102DF9D38C
:10146000FF2000F00FF9FF2000F00CF9002600F03B
:1014700049F9002E7ED19DF8000081092170C0F34A
:101480008301617000F00300A0709DF80100E0701E
:101490009DF8020020719DF8030060719DF8040022
:1014A0000001E080E1889DF8050041EA1011E1802B
:1014B00000F00F0020729DF80600C1096172C0F3B0
:1014C0008011A172C0F34011E172C0F300112173C9
:1014D000002161738007000D206120699DF80720BD
:1014E00040EA8200206122699DF8080042EA9012D9
:1014F0002261C0F3C202227500F0070060759DF8FA
:1015000009004209A275C0F38202E2758007400F0C
:101510002076227E9DF80A0042EAD0122276C0F39D
:10152000801262768006400EA076A27E9DF80B00A7
:1015300042EAD012A27600F07F00E0769DF80C001F
:10154000C2092277C0F341126277C0F38202A27708
:101550008007000FE077E27F9DF80D0042EA9012CD
:10156000E277C0F3401284F8202084F8211000F0C4
:10157000010000E022E084F822009DF80E00C1097D
:1015800084F82310C0F3801184F82410C0F34011B4
:1015900084F82510C0F3001184F82610C0F38101EF
:1015A00084F8271000F0030084F828009DF80F004D
:1015B000400884F82900012084F82A0004B030464D
:1015C00070BD000030B5184885B0816941F0100148
:1015D0008161816901F010010491816941F040014C
:1015E000816180694FF4005400F0400004900120B4
:1015F000CDE90040029003200C4D03906946284637
:10160000FEF7AEFF00F05EF9012221462846FFF703
:101610008FF80024FF2000F035F8641CE4B2092C98
:10162000F8D905B030BD00000010024000100140A4
:101630000EB500200190401E02900748012301AA28
:101640000068009002A90548FFF750FD08B100F0BE
:101650002FF90198C0B20EBD1C0000206C000020C4
:1016600070B505464FF6FF7400E0641EFFF7E0FF1B
:10167000A84202D0002CF8D102E00CB1002070BDCD
:10168000032070BD08B501228DF8000005486946A9
:1016900003680548FFF778FC002801D000F008F93E
:1016A00008BD00001C0000206C0000207CB540F04C
:1016B00040008DF80000080E8DF80100080C8DF830
:1016C0000200080A8DF8041000248DF803008DF83C
:1016D00005201D4622464FF400510948FFF728F81F
:1016E0006E46305DFFF7CEFF641C062CF9D3802DCB
:1016F00003D02846FFF7B4FF7CBD00207CBD00006E
:101700000010014010B5012251030448FFF710F802
:10171000BDE81040FF20FFF7B5BF000000100140FA
:1017200010B50124FFF7C2FF00B90024FFF7EAFF5C
:10173000204610BD10B5064C01202070FEF7B0FD0C
:1017400018B9207820F001002070207810BD00002A
:101750000000002010B50C461049024694B00978EC
:101760000120C90702D0032014B010BD8AB1012A9C
:1017700007D04FF40071022A0AD0032A0BD00420AC
:10178000F2E76846FEF774FD1198400A206000E019
:1017900021800020E8E72160E6E70000000000204B
:1017A0001CB54FF40073CDE9003200244A022346F1
:1017B000FEF790FD00B1012420461CBD10B5064C7B
:1017C00001202070FEF76AFD18B9207820F0010092
:1017D0002070207810BD0000000000201CB54FF4E0
:1017E0000073CDE9003200244A022346FEF7AEFD25
:1017F00000B1012420461CBD38B50B4600920446BA
:101800000022802100F008F8002804D0606D40F02C
:1018100020006065032038BD2DE9F0411D461746C4
:101820000E460446DDF8188035E0681C33D02DB133
:10183000FEF784FFA0EB0800A8422CD32068416883
:1018400021F0E00141606068B0F5827F0BD1A068B3
:10185000B0F5004F02D0B0F5806F04D12068016868
:1018600021F040010160A06AB0F5005F0AD1206854
:1018700001684DF6FF72114001602068016841F473
:1018800000510160012084F85100002084F85000CC
:101890000320BDE8F0812068806836EA000004D0AB
:1018A0000020B842C1D10020F3E70120F9E7000091
:1018B00010B50348FFF7C4FABDE8104000F002B8C5
:1018C0006C00002010B5134C114820602046FFF733
:1018D000B7FA1020E061012161610020A0600221BF
:1018E00021610721C4E90A01E0604FF40071206220
:1018F000A16160624FF482706060204600F00CF8D5
:101900002046FFF7B4FA002800D0FEE710BD000023
:10191000003001406C0000202DE9F04186B0204CE1
:1019200000250295A06940F00400A061A06900F0C4
:1019300004000490A06940F00400A061A06900F0D8
:1019400004000490A06940F00100A061A06915495D
:1019500000F001000490486840F0B8504860202032
:101960000227CDE90007DFF8408003266946039689
:101970004046FEF7F5FDC020CDE90007CDE902564F
:1019800069464046FEF7ECFDA06940F48050A06136
:10199000A06900F48050049006B0BDE8F08100001A
:1019A0000010024000000140000801407047FEF7AF
:1019B000CBBE000030B593B038216846FEF72CFC52
:1019C00014210EA8FEF728FC012528040421CDE9E6
:1019D00002010224CDE908400095019005954FF4DD
:1019E000E010CDE90A044FF4C0600C9040200D9047
:1019F0006846FFF749F860B90F20CDE90E040020D2
:101A00006102CDE91001129002210EA8FEF726FF17
:101A100008B1FEF7E5FC0248056713B030BD0000D1
:101A2000000042421048016841F001010160416834
:101A30000E4A1140416001680D4A11400160016881
:101A400021F480210160416821F4FE0141600168B8
:101A500021F0A05101604FF47F0181600021C1623B
:101A60000449C00308607047001002400000FFF006
:101A7000FFFFF6FE08ED00E0FEE702E008C8121FD7
:101A800008C1002AFAD170477047002001E001C167
:101A9000121F002AFBD1704710B50446002084F8BD
:101AA0000402401EC4F82C02204601F094FB08B149
:101AB000032010BDB4F8FE01A0F52A41553901D02C
:101AC000022010BD94F83600B4F8371040EA012126
:101AD0000848B0EB012F08D094F85210B4F8532006
:101AE00041EA0221B0EB012F01D1002010BD0120FD
:101AF00010BD000000464154F0B50022184E1546B6
:101B000002EB420356F8234084B1D0F80072BC4285
:101B10000DD106EB8303D0F808725C68BC4206D195
:101B20001B89B0F80642A34204D000E00125521CF4
:101B3000022AE5D3022A01D079B904E05DB902296D
:101B400009D01220F0BD02EB420006EB8000408974
:101B5000B0F5807F01D00020F0BD1020F0BD000066
:101B6000DC05002030B50021064B0C4601EB41029C
:101B700053F82250854201D143F82240491C0229E2
:101B8000F4D330BDDC050020D0F82422D0F80002C8
:101B9000490A90F80202B1FBF0F0121D02CA19B115
:101BA000884203D3401AF8E70020704711680844C0
:101BB0007047D0F81422891E921E8A4201D8002054
:101BC0007047D0F8282290F8020201FB00207047ED
:101BD0002DE9F0410F00064606D001F084F90228F5
:101BE0000BD20120BDE8F081D6F80C521DB1D6F819
:101BF0001402A84208D8012506E0411CF2D0D6F80C
:101C000014128142EED83D462C46D6F81402641CCC
:101C1000A04202D80224022D0AD32146304601F008
:101C200062F938B1411CDDD00128DBD0AC42ECD1E7
:101C30000020D7E76FF070422146304601F0E4FA09
:101C400030B957B122463946304601F0DDFA20B1AD
:101C5000012812D001242046C4E7C6F80C42D6F869
:101C60001002411CF7D0401EC6F8100296F805027B
:101C700040F0010086F80502EDE74FF0FF34EAE797
:101C80002DE9F04789460C6800E0641C21782F2973
:101C9000FBD05C29F9D0D0F818520B22202128461D
:101CA00001F092FA0020024617464FF0080CE15D61
:101CB0007F1C202934D92F2932D05C2930D02E29FD
:101CC00001D060450AD3BCF1080F36D12E2934D19A
:101CD000082091064FF00B0C0A0EE8E7802905D387
:101CE000224B42F00302194411F8801C20A300E0AB
:101CF0005B1C1E7816B18E42FAD11EE0A1F14103A1
:101D0000192B02D842F0020207E0A1F16103192B5E
:101D100003D8203942F00102C9B22954401CC6E759
:101D20003C44C9F80040202901D8042100E00021EA
:101D300018B12878E52803D004E00620BDE8F08734
:101D400005202870BCF1080F01D19006020E02F0A8
:101D50000300012801D141F01001C2F381000128E4
:101D600001D141F00801E9720020E7E7D234000810
:101D7000222A2B2C3A3B3C3D3E3F5B5D7C7F0000A2
:101D8000401E022815D20C4B00EB400203EB8201EF
:101D90004889B0F5807F05D008B1401E80B24881E7
:101DA00010B104E00020FAE7002043F822000020F0
:101DB0007047022070470000DC0500202DE9F0414B
:101DC000B0F8067204467F1C38040E46000C37D06B
:101DD000D4F8100298B3390772D1401CC4F810022D
:101DE000D4F80C12D4F8000231B190F80222521E3D
:101DF00012EA171F05D063E0B0F80802B8421FD9F5
:101E00005EE001F070F8054601281ED9681C39D043
:101E1000D4F80002D0F81412A94248D87EB1D4F800
:101E20000C12FFF7D5FE05000DD0012D0DD0681C5A
:101E300028D0D4F8000201F0FFFA18BB07E0FFE752
:101E40000420BDE8F0810720FBE70220F9E74FF40A
:101E500000720021D4F8000201F0B6F92946D4F846
:101E60000002FFF7A6FED4F8001200264FF001088A
:101E7000C1F82C0210E080F80482D4F8000201F0CE
:101E8000DBFA08B10120DCE7D4F80002D0F82C120C
:101E9000491C761CC0F82C12D4F8000290F80212EB
:101EA000B142E8D8D0F82C12891BC0F82C12C4F823
:101EB0000C522946D4F80002FFF77BFEC4F810024A
:101EC000A4F80672D4F8000207F00F0100EB4110ED
:101ED000C4F814020020B4E770B5044601260021BE
:101EE00000F03BF8A0B90025D4F81012D4F8000295
:101EF00001F071F960B9D4F814120978E5290AD013
:101F000049B1002501212046FFF758FF0028EBD0FA
:101F1000042804D004E06D1CB54201D0F2E707208C
:101F2000050018D1D4F81012D4F8000201F053F9CA
:101F3000050010D1D4F814022022002104F5007409
:101F400001F042F9D4E905010B2201F035F92168CD
:101F5000012081F80402284670BD70B5A0F8061271
:101F6000D0F808320D460446012B40D0D4F80002C8
:101F7000D0F8141299423AD933B990F800120329D3
:101F800006D1D0F824321BB190F80202060114E009
:101F9000B0F80812A9422AD9D0F8240214E000F0BF
:101FA000A2FF0346401C20D0022B20D3D4F800020D
:101FB000D0F8140298421AD9AD1BD4F80002B542E9
:101FC0001946ECD2FFF7F5FDC4F80C3278B100EBFE
:101FD0001510C4F81002D4F8000205F00F0100EB50
:101FE0004110C4F81402002070BD012070BD022011
:101FF00070BD0000074A10B5135C00213BB90121F8
:10200000115402EB80004068006880470146084692
:1020100010BD0000F405002030B40C46044901EB6B
:102020008000114640680369204630BC1847000014
:10203000F4050020F0B40E460549154601EB80007A
:10204000294640681A4684683046A446F0BC60477A
:10205000F4050020024901EB800040684068004719
:10206000F4050020F0B40E460549154601EB80004A
:10207000294640681A46C4683046A446F0BC60470A
:10208000F405002010B5044600F063FC00280DD1D3
:10209000204601F0FEF9002808D1D4F82802FFF705
:1020A0006FFE002802D10021C4F8001210BD00000C
:1020B0002DE9F74F86B0154606A800F072FF0028FC
:1020C00003DA0B2009B0BDE8F08F0799012902D887
:1020D000691E0D4201D01320F4E7FA4951F820405F
:1020E00054B1002184F80012C0B20290FFF782FFC1
:1020F000C10703D00320E5E70C20E3E7400701D543
:102100000A20DFE703AA01210298FFF785FF0028D4
:102110007ED1039980297BD3079808B1002000E085
:102120003F208046A1EB080103917DB94FF4FA608E
:10213000B1FBF0F20020E44B00E0401C33F81050FB
:102140009542FAD8E04A163232F81050680A5FEA2F
:10215000000912D0B9F1800F01D980208146B1FB6E
:10216000F9F0012640F6F672904200D302264FF6AF
:10217000F672904203D3032620E00120EEE7032EFF
:102180001CD0012E22D04000001D00F2FF10470A93
:1021900001252020834608EB050A0AEB0700584476
:1021A00000EB09020090A2EB0800884244D801AA83
:1021B00003210298FFF730FF98B90DE040F20722A3
:1021C00002EB8000470A20250020E3E700EB4000F7
:1021D000401C4008C01CD8E7019810B1B0F5004F72
:1021E00001D90120019000990144401E491E8143FC
:1021F0000098081A0190032E11D007440398411B40
:10220000CA1BA2EB0B02B2FBF9F10091022E00E017
:10221000D4E007D0032E0BD0012E11D015E00544D9
:102220008244EBE70A4640F6F6718A4204D30CE09A
:102230004FF6F670814201D20E2043E70C200AE0EF
:10224000B0F5803F06D2012005E0B0F5803F01D215
:10225000042000E006200490079808B1F02039E03F
:102260004FF400720021204600F0AEFF04F5DF704D
:102270000121417081700022C27004990171FE2118
:102280004171039B08EB030143F6C163B1FBF3F11A
:102290003F2343EA910C019180F806C0C17103729B
:1022A00042728272C272039901730A0A42730A0C63
:1022B0008273090EC173552084F8FE01AA2084F8A8
:1022C000FF010123002221460298FFF7CBFE0028E0
:1022D00074D1F82004904FF400720021204600F0E1
:1022E00073FF0B2279A1204600F066FF0021E17206
:1022F0000220207384F80D90A573280AE073012052
:102300002074032E0BD040026074000AA07403985E
:10231000B0F5803F05D2E074000A20750CE0002083
:10232000F2E784F82000020A84F82120020C84F8E5
:102330002220000E84F82300049860753F20207648
:1023400000206076FF21A176E07684F81C804FEAB9
:10235000182060774FEA1840A0774FEA1860E077BE
:1023600000F01DFE802129220190032E27D084F841
:102370002700030A84F82830030C84F82930000E63
:1023800084F82A00A775380AE07584F8241084F8C8
:102390002620132250A104F12B0000F00DFF552040
:1023A00084F8FE01AA2084F8FF0101234246214659
:1023B0000298FFF757FE00288AD133E0A2E084F8A4
:1023C0004300030A84F84430030C84F84530000EBF
:1023D00084F8460084F82470380A84F82500380C04
:1023E00084F82600380E84F82700022084F82C0098
:1023F000002084F82D0084F82E0084F82F0001239B
:1024000084F8303084F83100062384F8323084F8C0
:10241000330084F8401084F84220132233A104F1E1
:102420004700BAE7032E06D1012308F10602214630
:102430000298FFF717FE55464FF0000A4FF400725E
:102440000021204600F0C0FE04980190032E12D017
:10245000012E0ED06FF0FF01014301912170019810
:10246000000A60700198000CA0700198000EE070E6
:1024700018E02349F0E760F0FF0001902070019818
:10248000000A60700198000CA0700198000EE070C6
:10249000FF2020716071A071E07120726072A072E3
:1024A0000F20E0722A466D1C012321460298FFF797
:1024B000D9FD38BB4FF400720021204600F084FEA5
:1024C00001202AE06800002052350008EBFE904D04
:1024D00053444F53352E30004E4F204E414D452032
:1024E0002020204641542020202020004E4F204E06
:1024F000414D4520202020464154333220202000E9
:1025000000FFFF0045E02A466D1C0123214602988A
:10251000FFF7A8FDE8BB0198401C0190B842F2D338
:102520000AF101005FEA000A88D0032E09D05F4655
:102530002A466D1C012321460298FFF793FD40BBFC
:1025400001E04F46F4E77F1EF2D1032E3CD152202A
:10255000207060706121A1704122E270722084F8C5
:10256000E40184F8E50184F8E62184F8E711009895
:10257000401E84F8E801010A84F8E911010C84F88E
:10258000EA11000E84F8EB01022084F8EC0100202F
:1025900000E021E084F8ED0184F8EE0184F8EF0119
:1025A000552084F8FE01AA2084F8FF01012308F1D8
:1025B000010221460298FFF755FD012308F10702A9
:1025C00021460298FFF74EFD002211460298FFF7C0
:1025D00023FD00283FF480AD012073E52DE9F7418C
:1025E00081B0904602980090684600F0DAFC040042
:1025F00003D50B2004B0BDE8F0810E4E002756F83D
:10260000245025B12846FFF7ADFA85F800720198ED
:10261000002801D080F8007246F8240002D0B8F1FA
:10262000010F01D00020E5E7002202A901A800F077
:10263000CFFADFE7680000202DE9F747ADF50B7D05
:1026400006000ED04FF0000802F01F0727F001022D
:102650008CA980A8C6F8008200F0BAFA040005D060
:10266000B3E009200DF50E7DBDE8F08788A88690BF
:1026700068468C9900F0D8FB859D04000BD11DB1F4
:10268000780803D0012102E0062404E00021684616
:10269000FFF732FA044617F01C0F5CD0D4B1042CBB
:1026A00013D100204B4902E0401C022805D200EB68
:1026B000400251F82220002AF6D1022804D06846B0
:1026C000FFF70AFC044600E01224859D47F0080746
:1026D00044B17AE0E87A10F0110F46D1780701D5BD
:1026E000082472E0380746D500F059FCA873010AA7
:1026F000E973010C2974000E687485F80B8085F865
:102700001C8085F81D8085F81E8085F81F8029466D
:10271000809800F0B5FC81460021284600F029FE93
:1027200080990120B9F1000F81F8040221D080982E
:102730004946D0F82CA200F0E5FD040045D180996F
:10274000A9F10100C1F80C025146809800F043FD48
:1027500004000CD039E0C4BBE87AC10601D50424DA
:1027600033E0B90703D5C00701D007242DE03807AF
:1027700001D547F020078098D0F82C02C6E98705DC
:10278000780801D0012100E00021684600F028FC13
:10279000C6F82802D8B186F8067286F8078247463E
:1027A000294606F50076809800F06AFC3061287FA3
:1027B000D5F81D1040EA0120C6E90270B7617762C2
:1027C00080983060B0F80602B08020464AE70224C4
:1027D000FBE70000DC0500202DE9F05F89460021C1
:1027E0009A4616460446196000F053FE002811D19F
:1027F00094F8070200280DD194F80602C00708D00B
:10280000D4E98210401A4FF0010B864200D90646E7
:102810009AE00720BDE8F09FD4F80812C80579D1E6
:10282000D4F8000290F80222521E02EA512212F05D
:10283000FF0514D131B1D4F8242232B12046FFF77C
:10284000A3F906E0D4F8100203E0D4F8141200F063
:102850004AFB02281FD3411C55D0C4F81402D4F8F7
:102860001412D4F80002FFF7A4F9A0B100EB050898
:10287000770A27D0D4F80002EA1990F802128A42A7
:1028800000D94F1B90F801023B4642464946FFF7EC
:10289000D1FBC0BB03E0022084F80702BAE794F83A
:1028A000060240060CD5D4F81812A1EB0800B84275
:1028B00006D209EB40204FF40072214600F07CFC68
:1028C0007D0235E0D4F81822424521D094F8060262
:1028D00040060ED5D4F800020123214690F80102EB
:1028E000FFF7C0FB78B994F8060220F0400084F8A6
:1028F0000602D4F800020123424690F80102214664
:10290000FFF798FB20B184F807B2012082E701E0CD
:10291000C4F81882B4F80802C0F30800C0F50075C6
:10292000B54200D9354601192A46484600F044FC14
:10293000D4F80802A9442844C4F80802DAF80000D0
:102940004119761BCAF80010002E7FF465AF0020F5
:1029500060E770B5044600F09CFD002811D194F8A2
:1029600006128A060DD5480612D5D4F800020123B6
:10297000214690F80102D4F81822FFF773FB08B142
:10298000012070BD94F8060220F0400084F8060291
:10299000D4F81C12D4F8000200F01DFC0028F0D17D
:1029A000D4F82052E87A40F02000E87294F80C0243
:1029B0002877B4F80C02000A6877D4F80C02000CEF
:1029C000A877D4F80C02000EE877D4F81012284645
:1029D00004F5007400F0CDFC00F0E1FAA875010ADE
:1029E000E975010C2976000E68760020A874E87459
:1029F000A07920F02000A0712168012081F8040254
:102A00002068BDE8704000F0BCBC2DE9F05F89464D
:102A100000219A4616460446196000F03AFD002847
:102A200008D194F80702002804D194F80602800720
:102A300002D40720BDE8F09FD4F808024FF0010B44
:102A40008119814278D3B1E0D4F80812C80574D155
:102A5000D4F8002292F80202401E00EA512010F041
:102A6000FF051ED131B1D4F8240240B12046FFF752
:102A70008BF809E0D4F8100240B9002101E0D4F845
:102A800014121046FFF7A4F8002855D0012839D0B9
:102A9000411C65D0C4F81402D4F8101209B9C4F866
:102AA000100294F80602400610D5D4F80002012363
:102AB000214690F80102D4F81822FFF7D3FAD0BBD0
:102AC00094F8060220F0400084F80602D4F81412AC
:102AD000D4F80002FFF76DF8A0B100EB0508770A03
:102AE0002CD0D4F80002EA1990F802128A4200D9D8
:102AF0004F1B90F801023B4642464946FFF7B2FAA7
:102B0000C8B903E0022084F8070293E7D4F818124A
:102B1000A1EB0800B8420CD209EB40214FF400723F
:102B2000204600F049FB94F8060220F0400084F8AB
:102B300006027D022EE013E03BE017E0D4F8181205
:102B4000414511D0D4E9820188420DD2D4F8000267
:102B50000123424690F801022146FFF76BFA18B1B3
:102B600084F807B2012065E7C4F81882B4F80802B7
:102B7000C0F30800C0F50075B54200D935462044C1
:102B80002A46494600F018FB94F8060240F040003F
:102B900084F80602D4F80802A9442844C4F80802BC
:102BA000DAF800004119761BCAF80010002E7FF4F5
:102BB0004BAFD4E98201884201D9C4F80C0294F8E1
:102BC000060240F0200084F80602002032E70000F0
:102BD0002DE9FF474FF000090746C0F80090164660
:102BE000084600F0DEF9050003D50B2004B0BDE86F
:102BF000F0878A4850F82540A4B13C6094F8000260
:102C000028B194F80102FFF725FAC1070CD084F827
:102C10000092E8B284F80102FFF7ECF9C10708D08E
:102C20000320E3E70C20E1E70EB1400704D40020C5
:102C3000DCE71EB1400701D50A20D7E70025294669
:102C40002046FEF729FF012822D100206E4604EB22
:102C5000001191F8C22101F5DF712AB10A7AD1F889
:102C6000091042EA012100E0002146F82010401C32
:102C70000428ECD3002756F8275025B129462046D2
:102C8000FEF70AFF00E0022040B17F1C042FF2D3C0
:102C9000032801D0E8BB01E00120A7E7B4F80B004E
:102CA000B0F5007F61D1E18A29B994F82400D4F805
:102CB000251040EA0121C4F8181294F810C084F8D5
:102CC00003C2BCF1010F02D0BCF1020F4DD1667BF3
:102CD0000CFB01FC84F80262DEB1701E064244D196
:102CE000B4F81120A4F8082210073ED1B4F813005C
:102CF00028B994F82000D4F8213040EA0320E38971
:102D00003BB103EB0C0707EB1217B8422DD3C01BE6
:102D100000E02AE0B0FBF6F038B3012640F6F67882
:102D2000404500D302264FF6F678404500D30326EF
:102D3000801C2F44C4F828722B44C4F81402C4E940
:102D40008753032E13D082B103EB0C02C4F8242264
:102D5000022E18D000F0010200EB400002EB500000
:102D600000F2FF10B1EB502F0FD20D203EE7002AEA
:102D7000FBD194F82C20D4F82D30800042EA0322B5
:102D8000C4F82422ECE74000EAE74FF0FF30C4F833
:102D90001002C4F80C02802084F80502032E30D102
:102DA000208E01282DD12046691C00F014FA40BB6A
:102DB00084F80592B4F8FE01A0F52A41553920D1D6
:102DC0002078D4F8011040EA01201549884218D132
:102DD00094F8E401D4F8E51140EA01201149884251
:102DE0000FD194F8E801D4F8E91140EA0120C4F8C1
:102DF000100294F8EC01D4F8ED1140EA0120C4F877
:102E00000C02064984F80062091F0888401C0880EB
:102E1000A4F806022046FEF7A5FE08E76800002099
:102E2000525261417272416173B50446019908784A
:102E30002F2801D05C2801D1491C01910025C4F83C
:102E4000085201980078202806D200212046FFF77A
:102E500084F8C4F814527CBD01A92046FEF710FF87
:102E60000028F8D100212046FFF777F818BBD4F8E6
:102E70001012D4F8000200F0AEF9E0B9D4F8141240
:102E80000A787AB1CA7A12070FD40B25D4F818221F
:102E900000236D1E08D311F8013B12F8016B9B1B38
:102EA000F7D002E0042006E02BB100212046FEF717
:102EB00085FF0028DBD0D4F81812C97A28B104287D
:102EC000C9D14907C7D405207CBD4907FCD4D4F833
:102ED0001412C87AC006F6D5D4F8000200F0D0F873
:102EE000C4F80802B8E72DE9F0410D46044602296E
:102EF0000BD3D4F81402A84207D994F80002012891
:102F000006D0022826D0032831D00120BDE8F08168
:102F1000D4F8200205EB550600EB5621204600F0C0
:102F20005AF960BBC6F30800761C275CD4F820026F
:102F300000EB5621204600F04EF900BBC6F3080016
:102F4000E907205C47EA002001D00009DEE7C0F372
:102F50000B00DBE7D4F8200200EB1521204600F03F
:102F60003AF960B9E8B204EB40000088CEE7D4F843
:102F7000200200EBD511204600F02DF910B14FF0E2
:102F8000FF30C3E740F2FF1000EA850020440178DB
:102F9000D0F8010041EA002020F07040B6E70020A0
:102FA000704710B503464FF0FF301C68002C13D05B
:102FB000214600E0491C0A78212A0ED33A2AF9D189
:102FC00014F8012B303A0A2A06D28C4204D1002A86
:102FD00002D1491C1046196010BD002010BD000030
:102FE000F0B50246254CD2F80052002000EB400319
:102FF00054F82360AE420BD104EB8303D2F808727D
:103000005E68BE4204D11B89B2F80662B34202D0A8
:10301000401C0228EAD302281AD1002002E0401CFA
:10302000022805D200EB400354F82330002BF6D1E0
:10303000022815D000EB400344F8235004EB83032F
:10304000D2F808525D60B2F806221A8100225A8135
:10305000002900EB400104EB8101498905D009B149
:103060000020F0BD4FF4807100E0491C00EB4002ED
:1030700004EB8202401C5181F0BD0000DC05002001
:103080000246488B92F80022032A02D1898A40EA3C
:103090000140704786B0FDF75FFBFEF78BFC002018
:1030A00000900190029003903A48816941F010012C
:1030B0008161816901F010010491816941F004018D
:1030C00081618069344D00F00400012204905103B5
:1030D0002846FDF72DFB42F2040100910121032057
:1030E000CDE90210019169462846FDF739FAFEF74D
:1030F000F7F82A492A48FDF77BF900283FD100223A
:1031000026492848FFF76AFAB8BB0022114623482F
:10311000FEF7CEFF88BB0A2223A12648FFF78CFAD0
:1031200058BB1E4B2122083B03F10C012148FFF73D
:103130006CFC1A4C0C3C20701E48FEF7A3FFE0B953
:103140006068D0B12078C0B9012217A11948FFF7F3
:1031500073FA90B9134904F10803642264391548DD
:10316000FFF73AFB2070A16839B130B91148FEF77A
:1031700089FFD4E90101814201D0FDF731F9074807
:10318000FDF752F96420FDF767F904212846FDF7A1
:10319000CBFAF7E700100240001001402C0000209D
:1031A000040000208001002053544D33322E545827
:1031B00054000000B003002003E011F8013B00F8C8
:1031C000013B521EF9D27047C9B201E000F8011B61
:1031D000521EFBD2704770B50446D0F82C020D4643
:1031E000A8420FD0204600F027F938B994F8010220
:1031F00001232A462146FEF71DFF08B1012070BDBC
:10320000C4F82C52002070BD2DE9F04716460D463B
:103210000446022903D3D4F81402A84202D802209B
:10322000BDE8F08794F8000206F0FF084FF00109AE
:10323000012807D0022837D0032846D0022084F87E
:103240000492EDE7D4F8200205EB550700EB572177
:103250002046FFF7C0FF0028F1D1C7F30800204443
:10326000E90703D0017868F31F1100E031460170CF
:1032700084F80492D4F820027F1C00EB57212046EA
:10328000FFF7A9FF0028DAD1C7F308012144EA07B4
:1032900002D0C6F3071205E00A78C6F3032302F052
:1032A000F0021A430A70CAE7D4F8200200EB152195
:1032B0002046FFF790FF0028C1D1E9B204EB41019D
:1032C000320A81F800804A70B9E7D4F8200200EB96
:1032D000D5112046FFF77FFF0028B0D140F2FF1143
:1032E00001EA850121444FF07043D1F8012003EA3F
:1032F000022232430A70130A4B70130C8B70120EA9
:10330000CA709CE72DE9F0410F460446022917D305
:10331000D4F81402B84213D9002623E039462046D7
:10332000FFF7E1FD050021D0012D09D0681C09D06F
:10333000002239462046FFF767FF060016D103E05A
:10334000022613E0012611E0D4F81002411C08D037
:10335000401CC4F8100294F8050240F0010084F803
:1033600005022F46D4F81402B842D7D83046BDE83B
:10337000F08181760A0AC2760A0C0275090E41753F
:10338000704770B5044600F057F8050052D194F824
:103390000002032846D194F80502012842D14202D6
:1033A00000212046FFF710FF552084F8FE01AA20D7
:1033B00084F8FF015220207060706122A2704120C9
:1033C000E070722184F8E41184F8E51184F8E601D4
:1033D00084F8E721D4F8100284F8E801010A84F89F
:1033E000E911010C84F8EA11000E84F8EB01D4F81D
:1033F0000C0284F8EC01010A84F8ED11010C84F848
:10340000EE11000E84F8EF01D4F81C220123521CA7
:10341000C4F82C2294F801022146FEF723FE002076
:1034200084F80502002294F801021146FEF7F4FD2B
:1034300000B10125284670BD70B5044690F804021D
:1034400028B3D4F82C6294F80102012332462146B5
:10345000FEF708FE08B1012070BD002084F80402C8
:10346000D4F82002D4F81812301A88420FD294F8F7
:1034700003520AE0D4F818020123064494F801022A
:1034800032462146FEF7EEFD6D1E022DF2D20020DF
:1034900070BD10B558B1D0F8001241B191F80022BA
:1034A0002AB1B1F80622B0F80402824201D0092004
:1034B00010BD91F80102FEF7CDFDC007F8D0032042
:1034C00010BD000000000000000001020304060718
:1034D0000809808182838485868788898A8B8C8D80
:1034E0008E8F90919293949596979899AD9B8C9D81
:1034F000AE9FA021A2A3A4A5A6A7A8A9AAABACADE4
:10350000AEAFB0B1B2B3B4B5B6B7B8B9BABBBCBD63
:10351000BEBFC0C1C2C3C4C5C6C7C8C9CACBCCCD53
:10352000CECFD0D1D2D3D4D5D6D7D8D9DADBDCDD43
:10353000DEDFC0C1C2C3C4C5C6C7C8C9CACBCCCDF3
:10354000CECFD0D1D2D3D4D5D6F7D8D9DADBDCDD03
:10355000DE9F0004000200018000400020001000F7
:10356000080004000200000000800040002000105D
:1035700000080040002000100008000400020000C5
:10358000A0350008000000206C0000007A1A000836
:103590000C3600086C000020940900008A1A00080C
:1035A0000100000035170008BD170008A11700082A
:1035B000DD1700085517000801000000E8030000AF
:1035C00000000000000000000000000000000000FB
:1035D000546869732069732053544D333220776FD8
:1035E000726B696E672077697468204661744673F0
:1035F00000000000010000001000000000000000BA
:0C36000000A24A040000000000000000CE
:04000005080001519D
:00000001FF
