:020000040800F2
:10000000B8090020650100084B150008F31400082A
:1000100049150008D90400082D1E00080000000042
:100020000000000000000000000000006D1C00083F
:10003000DB040008000000006D1500086F1C0008BC
:100040007F0100087F0100087F0100087F01000890
:100050007F0100087F0100087F0100087F01000880
:100060007F0100087F0100087F0100087F01000870
:100070007F0100087F0100087F0100087F01000860
:100080007F0100087F0100087F0100087F01000850
:100090007F0100087F0100087F0100087F01000840
:1000A0007F0100087F0100087F0100087F01000830
:1000B0007F0100087F0100087F0100087F01000820
:1000C0007F0100087F0100087F0100087F01000810
:1000D0007F0100087F0100087F0100087F01000800
:1000E0007F0100087F0100087F0100080000000078
:1000F0000000000000000000000000000000000000
:1001000000000000000000007F0100087F010008DF
:100110007F0100087F0100087F0100087F010008BF
:100120007F0100087F0100087F0100087F010008AF
:100130007F0100087F0100087F0100087F0100089F
:100140007F0100087F0100087F0100087F0100088F
:10015000DFF80CD000F07AF8004800475934000866
:10016000B80900200648804706480047FEE7FEE73A
:10017000FEE7FEE7FEE7FEE7FEE7FEE7FEE7FEE757
:10018000DD1C0008510100082DE9F05F0546002044
:1001900092469B4688460646814640241BE02846F8
:1001A00041464746224600F020F853465A46C01AB8
:1001B000914110D311461846224600F038F82D1A06
:1001C00067EB01084F4622460120002100F02FF87E
:1001D00017EB00094E41201EA4F10104DFDC484664
:1001E00031462A464346BDE8F09F202A04DB203AE8
:1001F00021FA02F00021704721FA02F3D040C2F147
:1002000020029140084319467047D2B201E000F83D
:10021000012B491EFBD270470022F6E710B51346AA
:100220000A4604461946FFF7F0FF204610BD202A73
:1002300004DB203A00FA02F1002070479140C2F13D
:10024000200320FA03F3194390407047064C074DF2
:1002500006E0E06840F0010394E807009847103496
:10026000AC42F6D3FFF778FF4C3900086C39000830
:100270002DE9F047044601F0F7F9054604F11800AE
:1002800001F075F940EA05091D48002501880120A3
:100290004202012927D02189237BC1F38B01491C0C
:1002A000CF1703F007039B1C00FA03F6A1FB0638E7
:1002B0004FEAE67C07FB068601FB0C612264667947
:1002C0003609B040A3FB0067A06301FB007003FB8D
:1002D0000501C4E90C6130460023FFF755FFE063D8
:1002E0004846BDE8F0872264A263A0688009411CEB
:1002F000C904800200F58060E063C4E90C15EFE7F3
:10030000040000203EB502200090FF2300220D21B2
:1003100001A801F0B7FB0120019C01F053FBFF2075
:1003200001F084FB14F0FF0F03D1C4F30720002871
:1003300000D001203EBD10B501F052FBBDE81040D9
:1003400001F088BA2DE9FE4F002415468946834600
:100350004FF400764FF001082746FF233246102164
:1003600001A8009401F08EFB0120DDF804A001F04B
:1003700029FBFF2001F05AFB1AF0FF0F2CD127E0D8
:100380001A48009709EB04020088012800D0304683
:100390004243FF23112101A801F074FB019810F0E2
:1003A000FF0F19D1FE2001F0DBFBA8B90BEB040015
:1003B000314601F027FB3444FF2001F037FBFF20DA
:1003C00001F034FB012001F0FDFAFF2001F02EFBCB
:1003D0006D1ED5D24FF00008012001F0F3FAFF2086
:1003E00001F024FB4046BDE8FE8F00000400002021
:1003F0002DE9FE4F002415468A4683464FF40076C9
:100400004FF00109A046FF233246102101A80094B5
:1004100001F038FB0120019F01F0D4FAFF2001F028
:1004200005FB17F0FF0F4BD146E02A48CDF80080BE
:100430000AEB04020088012800D030464243FF2323
:10044000182101A801F01EFB019810F0FF0F37D111
:10045000FF2001F0EBFAFF2001F0E8FAFE2001F0A6
:10046000E5FA0BEB0400314601F0EAFA3444FF20D0
:1004700001F0DCFAFF2001F0D9FAFF2001F0D6FAF2
:100480000746FF2001F0D2FA07F01F00052817D118
:100490000527012001F096FA002001F093FAFF20D1
:1004A00001F0C4FAFF28FAD1052F09D1012001F08B
:1004B00089FAFF2001F0BAFA6D1EB6D24FF000099A
:1004C000012001F07FFAFF2001F0B0FA4846BDE8B4
:1004D000FE8F000004000020FEE77047002200F0BD
:1004E00001B8000030B50E4B054601205C7A012CA6
:1004F00015D8587A00241C54587A03EB80004560C4
:100500005D7A03F108002A54587A421C5A7230303E
:1005100008703A2048702F208870CC70002030BDC1
:10052000AC05002070B5044600F06EF90546601C6D
:1005300002D004480078044400F066F9401BA04251
:10054000FAD370BD540000202DE9F04300220F279C
:10055000DFF8C09059E0012393400B4054D0FF2BAB
:1005600001D8054601E000F104054FEA820401D9F3
:10057000A4F12004D5F800C007FA04F82CEA080C0E
:100580004FF0040808FA04F84CEA080CC5F800C05B
:10059000C46824EA0304C46022F003054D44AC6837
:1005A0004FEA827C4FEA1C7C07FA0CF606EA040844
:1005B000194CA04201D100240FE0184CA04201D1F7
:1005C00001240AE0164CA04201D1022405E0154C9A
:1005D000A04201D1032400E0042404FA0CF44445B1
:1005E00012D1AC68B443AC600F4C25689D432560C4
:1005F000241D25689D432560241D25689D43256095
:10060000241D25689D432560521C31FA02F3A2D1B6
:10061000BDE8F0830000014000080140000C0140EB
:100620000010014000140140000401402DE9F84F82
:10063000DFF8A091002309F1040A0AF1040B1C461B
:100640004FF00F080BF1040E01270A68A7403A404B
:10065000BA4272D1DFF880C14D68A5EB0C06654542
:100660002BD00DDC032D34D005DC35B3012D19D092
:10067000022D2FD11BE0112D16D0122D2AD119E0F9
:10068000B6F5881F19D006DCB6F5803F15D0B6F553
:10069000801F1FD111E0B6F5001F0ED0B6F5041F64
:1006A00018D10AE0CB6815E0CB681B1D12E0CB68BF
:1006B00008330FE0CB680C330CE08B682BB1012BB7
:1006C0004FF0080303D0476104E0042302E0076110
:1006D00000E00023FF2A01D8064601E000F10406ED
:1006E0004FEA840501D9A5F12005376808FA05FC11
:1006F00027EA0C0703FA05F547EA050737604D6856
:10070000ED0060D5354DAE6946F00106AE61AD69CC
:1007100024F0030605F001050095314D7719BE68F8
:10072000A5072D0F08FA05FC26EA0C06DFF8B4C071
:10073000604503D14FF0000C17E044E0DFF8A8C09B
:10074000604502D14FF0010C0FE0DFF8A0C060451A
:1007500002D14FF0020C08E0DFF894C0604502D1EE
:100760004FF0030C01E04FF0040C0CFA05FC4CEACE
:10077000060CC7F808C04D68D9F80060ED034D4677
:1007800001D5164300E096432E604D68DAF800600C
:10079000AD03554601D5164300E096432E604D68E3
:1007A000DBF80060ED025D4601D5164300E096439C
:1007B0002E604D68DEF80060AD02754601D5164327
:1007C00000E096432E60641C102CFFF43DAFBDE8A2
:1007D000F88F0000000401400000111000100240DA
:1007E0000000014000080140000C014000100140E1
:1007F00000140140C2684A40C26070470AB10161FA
:1008000070470904FBE7000001488068704700005A
:1008100054000020024881680278114481607047CA
:1008200054000020074810B5016841F01001016034
:10083000032000F067F8002000F006F800F024F82C
:10084000002010BD0020024070B50D4D04464FF44D
:100850007A712878B1FBF0F00A490968B1FBF0F031
:1008600000F033FE48B9102C07D200222146501E5A
:1008700000F028F800206C6070BD012070BD000001
:1008800054000020600000200C4808B5816941F048
:1008900001018161816901F001010091C16941F0AB
:1008A0008051C161C069064900F0805000904868DD
:1008B00020F0E06040F00070486008BD0010024089
:1008C00000000140F0B40E4B1B68C3F30223C3F1D8
:1008D0000704042C00D904241D1D072D01D2002378
:1008E00000E0DB1E012606FA04F56D1E0D409D405A
:1008F0009E40761E164045EA0601F0BC00F026BE7A
:100900000CED00E0064A00F0070110684FF6FF0307
:10091000184040EA01200349084310607047000076
:100920000CED00E00000FA052DE9F047DFF85081FA
:1009300004460E46D8F8000000F00700B0420CD282
:10094000D8F8001021F007013143C8F80010D8F89A
:10095000000000F00700B0426DD12068494F8107C8
:1009600012D5400703D5786840F4E06078602078BD
:10097000000703D5786840F4605078607868A16813
:1009800020F0F000084378602078C00742D060680B
:10099000012816D03968022816D0890700294ADABA
:1009A000796821F0030101437960FFF72DFF0546C7
:1009B000606841F2883101280ED00228894617D09C
:1009C00024E039688903E9E78901E7E7FFF71CFFBD
:1009D000411B494501D916E089467868C0F381007A
:1009E0000128F3D116E0FFF70FFF411B49450AD854
:1009F0007868C0F381000228F5D10BE0FFF704FF0F
:100A0000411B494502D90320BDE8F087786810F002
:100A10000C0FF3D1D8F80010404601F00701B142A5
:100A20000BD9016821F0070131430160006800F033
:100A30000700B04201D00120E6E72078400705D545
:100A40007868E16820F4E060084378602078000767
:100A500006D57868216920F4605040EAC1007860CA
:100A600000F016F87968084AC1F30311515CC840D8
:100A7000064908600020FFF7E7FE0020C4E70000F9
:100A800000200240001002408D3800086000002065
:100A9000F0B524A089B00FC88DE80F0025A004ACE4
:100AA0000FC884E80F00274B586800F00C01042998
:100AB00004D0082904D0244809B0F0BD2348FBE73E
:100AC000C0F38342C0031DF8024028D5D86A04A9A8
:100AD00000F00F00085CD96AC90316D5D96AC1F3C2
:100AE0000312D96A521CC1F30321891CA2FB002303
:100AF000A1FB0417154D0026A1FB050C07FB05C53E
:100B000001FB0651FFF740FB03E010496143B1FBD5
:100B1000F0F09DF80D10A142CED14008CCE70C4872
:100B20006043C9E70000040506070809000000004B
:100B3000000D00000102030405060708090A0B0C5A
:100B40000D0E0F100010024000127A0040787D0157
:100B500000093D002DE9F84F04460078E64DC00736
:100B600047D06868C0F38100012807D06868C0F3E7
:100B70008100022809D16868C00306D5286880036F
:100B800037D5A06800287DD033E0A068B0F5803F5D
:100B90000BD010B1B0F5A02F11D0286820F4803010
:100BA0002860286820F4802002E0286840F4803023
:100BB0002860A06888B1FFF727FE064609E028688C
:100BC00040F480202860F0E7FFF71EFE801B6428B9
:100BD00075D828688003F7D50BE0FFF715FE0646A9
:100BE00004E0FFF711FE801B6428F1D82868800319
:100BF000F7D42078C14E80074FF0010A4FF000076C
:100C000039D5686810F00C0F07D06868C0F3810010
:100C1000022809D16868C00306D42868800714D563
:100C2000606901282ED110E06069B0B1C6F800A05B
:100C3000FFF7EAFD804605E0FFF7E6FDA0EB0800C0
:100C40000228C5D828688007F6D52868A16920F051
:100C5000F80040EAC10028600DE03760FFF7D4FDDE
:100C6000804605E0FFF7D0FDA0EB08000228AFD8D2
:100C700028688007F6D4207800072FD5A048E169BE
:100C8000F1B100E01CE1C0F800A0FFF7BDFD804617
:100C900005E0FFF7B9FDA0EB0800022898D8686AC4
:100CA0008007F6D597484FF4FA510068B0FBF1F091
:100CB000009000BF0098411E0091FAD20EE0B1E012
:100CC0000760FFF7A1FD804605E0FFF79DFDA0EB63
:100CD0000800022889D8686A8007F6D4207840077F
:100CE00062D5E8694FF00009C00009D4E86940F016
:100CF0008050E861E8694FF0010900F080500090F1
:100D000081480168C90512D40168834641F48071A5
:100D10000160FFF779FD804605E0FFF775FDA0EB68
:100D2000080064287ED8DBF80000C005F5D52069EE
:100D300001280AD008B1052813D0286A20F0010044
:100D40002862286A20F0040002E0286A40F00100CE
:100D50002862206941F2883B90B1FFF755FD80463B
:100D60000AE0286A40F004002862EEE7FFF74CFD35
:100D7000A0EB0801594555D8286A8007F6D50CE044
:100D8000FFF742FD804605E0FFF73EFDA0EB0801BE
:100D9000594547D8286A8007F6D4B9F1000F03D027
:100DA000E86920F08050E861E06AE0B36968C9034F
:100DB00007D56968C1F38101022902D1E96AC90333
:100DC0007ED4022808D0E86A20F48030E862B76652
:100DD000FFF71AFD80463BE02868C00005D5E86AA9
:100DE000616B00F0F00088426AD1B766FFF70CFD36
:100DF000804605E0FFF708FDA0EB0800642871D8E5
:100E000028680001F6D4E86A616B20F0F00008431E
:100E1000E862E86A216B20F470600843E862C6F873
:100E200068A001E05EE016E0FFF7EEFC804605E01A
:100E3000FFF7EAFCA0EB0800642853D828680001FB
:100E4000F6D508E0FFF7E0FCA0EB0800642849D8DD
:100E500028680001F6D4206A98B36968C1F381015B
:100E6000022947D00228376603D0FFF7CDFC04469D
:100E70003BE0FFF7C9FC074604E0FFF7C5FCC01BD9
:100E800002282FD828688001F7D4606AB0F5803F27
:100E900009D1E86A61680843E862E86AE16820F01D
:100EA0000F000843E862D4E909010843696821F4A6
:100EB000741108436860C6F860A0FFF7A5FC01E064
:100EC00018E015E0044604E0FFF79EFC001B022832
:100ED00008D828688001F7D50AE0FFF795FC001BC9
:100EE000022802D90320BDE8F88F28688001F4D4D5
:100EF0000020F8E70120F6E700100240000042421F
:100F000080044242600000200070004010B50400E0
:100F100011D0022084F851002068016821F04001BE
:100F20000160204600F04AF80020606584F8510016
:100F300084F8500010BD012010BD70B5040005D02C
:100F40000025A56294F8510010B104E0012070BDA5
:100F5000204600F047F8022084F85100206801681C
:100F600021F040010160D4E901010843D4E90312F2
:100F70001143084361690843218B01F40071084360
:100F8000E1690843216A0843A16A084321680860AF
:100F9000A069042101EA1040616A084321684860A1
:100FA0002168E06A08612068C16921F40061C161BB
:100FB0006565012084F85100002070BD0068064975
:100FC000884208D10548816921F480518161E0217E
:100FD0000348FFF7B9BA70470030014000100240E3
:100FE0000008014030B585B00024009401940294BB
:100FF000039400681449884223D11448816941F45C
:1010000080518161816901F480510491816941F0CD
:101010000401816180690E4D00F004000490A0205D
:101020000090022001900320039069462846FFF7B4
:10103000FDFA4020CDE90004694628460294FFF7F6
:10104000F5FA05B030BD000000300140001002404C
:10105000000801402DE9F84F0446406800271E466D
:1010600091460D464FF0040AB0F5827F01D1A06889
:1010700088B194F85000012817D0012084F850005E
:10108000FFF7C2FB804694F851004FF0000B012897
:101090000DD002277BE084F851A0009313460A4646
:1010A000204600F02DF9BDE8F88F0220FBE7002D67
:1010B0006CD0B9F1000F69D084F851A0C4F854B0D5
:1010C000A563A4F83C90A4F83E90C4F830B0A4F80E
:1010D00034B0A4F836B0C4F840B0C4F844B0A06846
:1010E0004FF40049484504D12068016821F480414B
:1010F000016020680168490603D4016841F040019D
:101100000160E068A0B12DE020688168C90706D0C1
:10111000007B05F8010BE08F401EE08708E0FEB180
:10112000701C05D0FFF770FBA0EB0800B04217D28F
:10113000E08F0028E8D118E020688168C90706D050
:10114000C06825F8020BE08F401EE0870AE03EB140
:10115000701C07D0FFF758FBA0EB0800B04201D38A
:10116000032714E0E08F0028E6D16068B0F5827FA5
:101170000AD1A068484502D0B0F5806F04D120683C
:10118000016821F040010160606D00B1012701207C
:1011900084F8510084F850B0384684E72DE9F84FC0
:1011A000044690F8500000271E4691460D4601283F
:1011B0000DD04FF0010B84F850B0FFF725FB8046AF
:1011C00094F85100BA46012804D0022792E0022088
:1011D000BDE8F88F002D79D0B9F1000F76D003204B
:1011E00084F85100C4F854A02563A4F83490A4F8FE
:1011F0003690C4F838A0A4F83CA0A4F83EA0C4F8E7
:1012000044A0C4F840A0A068B0F5004F04D1206805
:10121000016841F48041016020680168490603D4F7
:10122000016841F040010160E068B0F5006F60685E
:1012300004D020B3E08E012821D039E010B1E08E37
:10124000012818D1216835F8020BC86006E0206833
:101250008168890706D535F8021BC160E08E401E03
:10126000E08608E086B3701C05D0FFF7CDFAA0EB4E
:101270000800B04228D2E08E0028E8D11BE02168A7
:1012800015F8010B087306E020688168890706D508
:1012900015F8011B0173E08E401EE08608E09EB148
:1012A000701C05D0FFF7B0FAA0EB0800B0420BD2DB
:1012B000E08E0028E8D13346012202212046CDF8F5
:1012C000008000F070FC10B1032713E011E04246EB
:1012D0003146204600F057FC18B1012720206065F8
:1012E00008E0A06818B92068C16880680090606D47
:1012F00000B1012784F851B084F850A0384667E760
:101300002DE9F84F044690F850000127DDF82880B9
:101310009B4616460D464FF0000901280ED00120CD
:1013200084F85000FFF770FA824694F85100616823
:1013300001280CD0B1F5827F07D102E00220BDE880
:10134000F88FA16809B9042801D00220A2E045B1B4
:101350003EB1BBF1000F04D094F85100012802D037
:1013600004E0012096E0052084F85100002060652B
:10137000A663A4F83EB0A4F83CB02563A4F836B048
:10138000A4F834B02064606420680168490603D47E
:10139000016841F040010160E068B0F5006F6068ED
:1013A00004D0D0B3E08E012838D063E010B1E08ED5
:1013B00001282BD1216835F8020BC860E08E401E51
:1013C000E08623E067B1E08E50B12068816889072C
:1013D00006D535F8021BC160E08E401EE08600276E
:1013E000E08F50B120688168C90706D0C06826F830
:1013F000020BE08F401EE0870127B8F1FF3F05D0C8
:10140000FFF702FAA0EB0A01414542D2E08E002824
:10141000D8D1E08F0028D5D132E0FFE7216815F858
:10142000010B0873E08E401EE08623E067B1E08E7A
:1014300050B120688168890706D515F8011B017332
:10144000E08E401EE0860027E08F50B12068816862
:10145000C90706D0C06806F8010BE08F401EE08780
:101460000127B8F1FF3F05D0FFF7CEF9A0EB0A0145
:1014700041450ED2E08E0028D8D1E08F0028D5D18A
:101480004346012202212046CDF800A000F08BFB4C
:1014900010B10320814610E052464146204600F03C
:1014A00072FB20B120204FF00109606505E0A068C3
:1014B00018B92068C16880680090012084F8510044
:1014C000002084F85000484639E710B5401EB0F1BE
:1014D000807F01D3012010BD4FF0E02460610F2117
:1014E000601700F033F80020A06107202061002081
:1014F00010BDFEE710B504490448FEF7EFFF0249AE
:10150000491E087010BD00004D000020380000206A
:101510000C480B49022201604FF4827141600021A6
:101520008160C0E9031201224261520282611022ED
:10153000C0E90721416281620A21C162FFF7FDBC57
:10154000003001407C000020FEE770470907090ECB
:10155000002806DA00F00F0000F1E02080F8141DEA
:10156000704700F1E02080F800147047704770B5B4
:1015700088B0002504460126FF232A460A2105A833
:10158000009500F07FFA059810F0FF0F63D1FE2060
:1015900000F0E6FA00285ED101AEFF2000F046FA26
:1015A00070556D1C102DF8D3FF2000F03FFAFF207E
:1015B00000F03CFA9DF8040020709DF80500000240
:1015C000608060889DF80610084360809DF80700E1
:1015D0000006606060689DF8081040EA01406060A5
:1015E00060689DF8091040EA0120606060689DF81D
:1015F0000A10084360609DF80B0020729DF80C00F3
:1016000060729DF80D000006E060E0689DF80E1025
:1016100040EA0140E060E0689DF80F1040EA0120D8
:10162000E060E0689DF810100843E060217C9DF8C0
:10163000110041EA101121740007000D6082608AD8
:101640009DF81210084360829DF813004008207531
:10165000012060750026012000F0B4F9FF2000F0A1
:10166000E5F908B0304670BDFEB5002504460126F8
:10167000FF232A46092101A8009500F003FA0198EA
:1016800010F0FF0F7ED1FE2000F06AFA0028F9D199
:101690006E4EFF2000F0CAF970556D1CADB2102DD2
:1016A000F7D3FF2000F0C2F9FF2000F0BFF9307837
:1016B0008109207861F301002070317861F387009F
:1016C000207070786070B078A070F078E070307939
:1016D0007179000140EA1111A08861F30B00A0802C
:1016E0007079617960F307116171B079C109A079EE
:1016F00061F30000A071B179890961F34100A07123
:10170000B179490961F38200A071B179090961F3E6
:10171000C300A0714E4800880028B07968D0F179E4
:10172000800040EA9111207A61F305002072307A3E
:101730000102F07901EB0040717A0144A06861F385
:101740009B10A060E07A20F01000E072B07A217C5B
:10175000820962F300014200F07A42EAD01262F399
:1017600047012174617C60F30601307BC20962F39A
:10177000C7116174A17C420962F30101820862F31E
:10178000840100E02CE0A1748100707B41EA90129A
:10179000E17C62F30301420962F30411E174217DEB
:1017A00060F30401B07BC20962F34511820962F360
:1017B0008611420962F3C7112175617D020962F346
:1017C0000001820862F3420160F3C4016175F07B9D
:1017D000A17D420862F3060160F3C711A1750026DE
:1017E000012000F0EFF8FF2000F020F93046FEBDA8
:1017F0008108207A61F301002072B079F1798002CA
:1018000040EA8100317A40EA9111208961F38D002C
:101810002081307AC108A07A61F30200A072317A87
:1018200061F3C500A072707A4109E07A61F30200A9
:10183000E072717A890861F3C500E072707AB17A5A
:101840008007400F40EAD11020737FE76C00002032
:10185000040000202DE9FF4100258DF804509DF87B
:101860000400401C8DF8040000229523114602A8B4
:10187000009500F007F90120029C00F0A3F8FF207A
:1018800000F0D4F89DF8040064287DD2E0B201286D
:10189000E5D10520009087234FF4D572082101A8D7
:1018A00000F0F0F80120019C00F08CF8FF2000F01F
:1018B000BDF8E0B2424E41071FD5FF230022372179
:1018C00001A8009500F0DEF8012000F07BF8FF2071
:1018D00000F0ACF8FF230022292101A8009500F0B8
:1018E000D1F80120019C00F06DF8FF2000F09EF877
:1018F000E0B20128E1D0358060E0012856D18707A9
:10190000FF230022372101A8009500F0BBF8012039
:1019100000F058F8FF2000F089F8FF233A4629210B
:1019200001A8009500F0AEF80120019C00F04AF8F3
:10193000FF2000F07BF8E0B20128E1D0600721D55C
:10194000FF230022372101A8009500F09BF8012019
:10195000019C00F037F8FF2000F068F8E0B20128A1
:1019600024D1FF230022292101A8009500F08AF844
:101970000120019C00F026F8FF2000F057F8E0B2AB
:101980000128DDD0032000E010E00090FF230022BA
:101990003A2101A800F076F80120019C00F012F82D
:1019A000FF2000F043F814F0FF0F03D0012004B033
:1019B000BDE8F081200AC0F3801030800020F6E7F7
:1019C00004000020054B4FF40051012803D00022F1
:1019D0001846FEF713BF0122FAE70000001001408D
:1019E00010B5012251030648FEF708FF0024FF202E
:1019F00000F01CF8641CE4B2092CF8D910BD0000FA
:101A0000001001400A460146064810B50368064822
:101A1000FFF720FB002804D0BDE810400248FFF784
:101A200075BA10BD000000207C00002001B582B016
:101A30000122694602A800F001F99DF800000EBDE0
:101A40000A460146064810B503680648FFF7A6FB9C
:101A5000002804D0BDE810400248FFF757BA10BD77
:101A6000000000207C00002000F0E8B810B5082439
:101A7000FF20FFF7DBFF641EE4B2FF2801D1002C3A
:101A8000F6D110BD2DE9FF4107463448D0E90045A5
:101A900041F040000A9E8DF80000100E8DF8010004
:101AA000100C8DF80200100A8DF803008DF8042048
:101AB00043F001008DF805000020FFF783FF0722A7
:101AC00002A96846FFF7D0FF062E43D2DFE806F0F2
:101AD0000308202A422AFFF7C9FF60F3070439E010
:101AE000FFF7C4FF60F30704FF20FFF79FFF60F3D9
:101AF0000F240120FFF766FF0120FEF713FD0020F1
:101B0000FFF760FFFF20FFF791FFFF28FAD121E0E8
:101B1000FFF7ACFF60F30704FF20FFF787FF60F3D8
:101B20000F2417E0FFF7A2FF60F30704FF20FFF781
:101B30007DFF60F30F24FF20FFF778FF60F3174469
:101B4000FF20FFF773FF60F31F64FF20FFF76EFFB6
:101B500060F307053C603D71BDE8FF8188380008EF
:101B600070B505464FF6FF74FF20FFF75FFF641E58
:101B7000A4B2A84202D0002CF6D102E00CB10020A1
:101B800070BD022070BD38B50B460092044600229D
:101B9000802100F008F8002804D0606D40F020009B
:101BA0006065032038BD2DE9F0411D4617460E46FD
:101BB0000446DDF8188035E0681C33D02DB1FEF7FF
:101BC00023FEA0EB0800A8422CD32068416821F036
:101BD000E00141606068B0F5827F0BD1A068B0F58C
:101BE000004F02D0B0F5806F04D12068016821F069
:101BF00040010160A06AB0F5005F0AD12068016869
:101C00004DF6FF72114001602068016841F40051F7
:101C10000160012084F85100002084F85000032066
:101C2000BDE8F0812068806836EA000004D000201A
:101C3000B842C1D10020F3E70120F9E738B50C46DE
:101C40000849134622460968009101460648FFF7F5
:101C500057FB002804D0BDE838400348FFF756B9C9
:101C600038BD0000000000207C0000207047FEF717
:101C7000D1BD000030B593B038216846FEF7CCFAEC
:101C800014210EA8FEF7C8FA012420040421CDE98E
:101C900002010225CDE908500094019005944FF40B
:101CA000E010CDE90A054FF4C0600C9040200D9083
:101CB0006846FEF74FFF0F20CDE90E050020A10278
:101CC000CDE91001129002210EA8FEF72DFE024868
:101CD000046713B030BD00000000424210480168A4
:101CE00041F00101016041680E4A11404160016804
:101CF0000D4A11400160016821F4802101604168B2
:101D000021F4FE014160016821F0A05101604FF40F
:101D10007F0181600021C1620449C00308607047EF
:101D2000001002400000FFF0FFFFF6FE08ED00E0AB
:101D300010B5064C01202070FEF7FDFA18B9207886
:101D400020F001002070207810BD00003500002038
:101D500010B50F4892B014460078C00702D0032097
:101D600012B010BD39B1012907D002290AD00329C8
:101D700008D00420F4E70020F2E76846FEF778FA7E
:101D80000F9803E06846FEF773FA10982060F2E7B8
:101D9000350000202DE9F0411E4617460846012572
:101DA0004FF47A74094B32463946FEF7CBFA28B124
:101DB00009E0641E02D20120BDE8F081FEF7A2FA1C
:101DC0000028F6D100252846F6E7000000E1F505D9
:101DD00010B5064C01202070FEF794FA18B920784F
:101DE00020F001002070207810BD00003500002098
:101DF0002DE9F0411E46174608460125094C0A4BBD
:101E000032463946FEF7F4FA28B109E0641E02D2E0
:101E10000120BDE8F081FEF775FA0028F6D1002513
:101E20002846F6E7A086010000E1F505FEE702E09E
:101E300008C8121F08C1002AFAD170477047002055
:101E400001E001C1121F002AFBD1704710B5044602
:101E5000002084F80402401EC4F82C02204601F041
:101E60009CFB08B1032010BDB4F8FE01A0F52A4187
:101E7000553901D0022010BD94F83600B4F837105F
:101E800040EA01210848B0EB012F08D094F8521025
:101E9000B4F8532041EA0221B0EB012F01D1002018
:101EA00010BD012010BD000000464154F0B50022D5
:101EB000184E154602EB420356F8234084B1D0F881
:101EC0000072BC420DD106EB8303D0F808725C6847
:101ED000BC4206D11B89B0F80642A34204D000E000
:101EE0000125521C022AE5D3022A01D079B904E067
:101EF0005DB9022909D01220F0BD02EB420006EBC9
:101F000080004089B0F5807F01D00020F0BD102016
:101F1000F0BD00009405002030B50021064B0C46B2
:101F200001EB410253F82250854201D143F822408F
:101F3000491C0229F4D330BD94050020D0F8242296
:101F4000D0F80002490A90F80202B1FBF0F0121D2D
:101F500002CA19B1884203D3401AF8E7002070473B
:101F6000116808447047D0F81422891E921E8A42D4
:101F700001D800207047D0F8282290F8020201FB17
:101F8000002070472DE9F0410F00064606D001F011
:101F900088F902280BD20120BDE8F081D6F80C5256
:101FA0001DB1D6F81402A84208D8012506E0411C4C
:101FB000F2D0D6F814128142EED83D462C46D6F81F
:101FC0001402641CA04202D80224022D0AD3214626
:101FD000304601F066F938B1411CDDD00128DBD074
:101FE000AC42ECD10020D7E76FF07042214630467A
:101FF00001F0EEFA30B957B122463946304601F0C9
:10200000E7FA20B1012812D001242046C4E7C6F81F
:102010000C42D6F81002411CF7D0401EC6F8100240
:1020200096F8050240F0010086F80502EDE74FF052
:10203000FF34EAE72DE9F04789460C6800E0641CAC
:1020400021782F29FBD05C29F9D0D0F818520B2227
:102050002021284601F09AFA0020024617464FF048
:10206000080CE15D7F1C202934D92F2932D05C294E
:1020700030D02E2901D060450AD3BCF1080F36D1EB
:102080002E2934D1082091064FF00B0C0A0EE8E7F8
:10209000802905D3224B42F00302194411F8801C19
:1020A00020A300E05B1C1E7816B18E42FAD11EE020
:1020B000A1F14103192B02D842F0020207E0A1F17D
:1020C0006103192B03D8203942F00102C9B2295407
:1020D000401CC6E73C44C9F80040202901D804212F
:1020E00000E0002118B12878E52803D004E006209C
:1020F000BDE8F08705202870BCF1080F01D19006DB
:10210000020E02F00300012801D141F01001C2F3D8
:102110008100012801D141F00801E9720020E7E7C0
:102120009E380008222A2B2C3A3B3C3D3E3F5B5D0B
:102130007C7F0000401E022815D20C4B00EB4002B1
:1021400003EB82014889B0F5807F05D008B1401EBD
:1021500080B2488110B104E00020FAE7002043F883
:1021600022000020704702207047000094050020E4
:102170002DE9F041B0F8067204467F1C38040E4683
:10218000000C37D0D4F8100298B3390772D1401C34
:10219000C4F81002D4F80C12D4F8000231B190F84F
:1021A0000222521E12EA171F05D063E0B0F808029F
:1021B000B8421FD95EE001F074F8054601281ED927
:1021C000681C39D0D4F80002D0F81412A94248D8BB
:1021D0007EB1D4F80C12FFF7D5FE05000DD0012D0D
:1021E0000DD0681C28D0D4F8000201F007FB18BB02
:1021F00007E0FFE70420BDE8F0810720FBE70220AD
:10220000F9E74FF400720021D4F8000201F0BEF9A2
:102210002946D4F80002FFF7A6FED4F800120026E3
:102220004FF00108C1F82C0210E080F80482D4F8C5
:10223000000201F0E3FA08B10120DCE7D4F8000263
:10224000D0F82C12491C761CC0F82C12D4F80002CD
:1022500090F80212B142E8D8D0F82C12891BC0F8CD
:102260002C12C4F80C522946D4F80002FFF77BFE6A
:10227000C4F81002A4F80672D4F8000207F00F01A7
:1022800000EB4110C4F814020020B4E770B5044616
:102290000126002100F03BF8A0B90025D4F8101267
:1022A000D4F8000201F079F960B9D4F81412097871
:1022B000E5290AD049B1002501212046FFF758FF42
:1022C0000028EBD0042804D004E06D1CB54201D0F6
:1022D000F2E70720050018D1D4F81012D4F8000254
:1022E00001F05BF9050010D1D4F81402202200217E
:1022F00004F5007401F04AF9D4E905010B2201F05C
:102300003DF92168012081F80402284670BD70B5AE
:10231000A0F80612D0F808320D460446012B40D032
:10232000D4F80002D0F8141299423AD933B990F88F
:102330000012032906D1D0F824321BB190F8020212
:10234000060114E0B0F80812A9422AD9D0F82402F4
:1023500014E000F0A6FF0346401C20D0022B20D33F
:10236000D4F80002D0F8140298421AD9AD1BD4F860
:102370000002B5421946ECD2FFF7F5FDC4F80C3265
:1023800078B100EB1510C4F81002D4F8000205F083
:102390000F0100EB4110C4F81402002070BD0120B1
:1023A00070BD022070BD0000084A10B5135C00210A
:1023B00053B901211154111802EB8000097A4068C9
:1023C0000268084690470146084610BDAC0500204B
:1023D00030B4054B1C1803EB8000247A4068036975
:1023E000204630BC18470000AC05002030B4054C36
:1023F000251804EB80002D7A406884682846A4469E
:1024000030BC6047AC05002004490A1801EB80008D
:10241000127A40684168104608470000AC05002069
:1024200030B4054C251804EB80002D7A4068C46850
:102430002846A44630BC6047AC05002010B50446D1
:1024400000F065FC00280DD1204601F007FA0028B5
:1024500008D1D4F82802FFF76DFE002802D1002130
:10246000C4F8001210BD00002DE9F74F86B01746E2
:102470000798012803D9132009B0BDE8F08F06A8FA
:1024800000F072FF002801DA0B20F5E7FD4951F852
:10249000204054B1002184F80012C0B20290FFF72E
:1024A00083FFC10703D00320E6E70C20E4E74007E1
:1024B00001D50A20E0E703AA01210298FFF788FF6F
:1024C00000287CD10398802879D3079909B100218D
:1024D00000E03F218946A0EB0901781E07420391E5
:1024E00000D17FB94FF4FA60B1FBF0F20020E64B67
:1024F00000E0401C33F810509542FAD8E24A1632F8
:1025000032F81070B7F5007F00D37F0A87B1802FB3
:1025100000D98027B1FBF7F0012640F6F672904211
:1025200000D302264FF6F672904203D3032620E032
:102530000127EFE7032E1CD0012E23D04000001D01
:1025400000F2FF104FEA502801252020834609EBB6
:10255000050A0AEB08005844C2190090A2EB0900D2
:10256000884245D801AA03210298FFF731FFA0B99C
:102570000EE040F2072202EB80004FEA50282025AF
:102580000020E3E700EB4000401C4008C01CD7E7F8
:10259000019810B1B0F5004F01D9012001900099C8
:1025A0000144401E491E81430098081A0190032EE1
:1025B00012D080440398421BA2EB080200E0DAE04C
:1025C000A2EB0B01B1FBF7F10091022E07D0032E15
:1025D0000AD0012E10D014E005448244EAE740F608
:1025E000F672914204D30CE04FF6F670814201D2AC
:1025F0000E2041E70C200AE0B0F5803F06D2012012
:1026000005E0B0F5803F01D2042000E006200490F0
:10261000079808B1F02039E04FF4007200212046FD
:1026200000F0B4FF04F5DF700121417081700022D9
:10263000C27004990171FE214171039B09EB0301F2
:1026400043F6C163B1FBF3F13F2343EA910C0191DF
:1026500080F806C0C171037242728272C27203991D
:1026600001730A0A42730A0C8273090EC173552062
:1026700084F8FE01AA2084F8FF01012300222146EC
:102680000298FFF7CDFE002875D1F82004904FF492
:1026900000720021204600F079FF0B227BA120462A
:1026A00000F06CFF0021E172022020736773A573B4
:1026B000280AE07301202074032E0BD040026074BE
:1026C000000AA0740398B0F5803F05D2E074000AB8
:1026D00020750CE00020F2E784F82000020A84F85C
:1026E0002120020C84F82220000E84F82300049894
:1026F00060753F20207600206076FF21A176E0768D
:1027000084F81C904FEA192060774FEA1940A077AF
:102710004FEA1960E07700F025FE80212922019020
:10272000032E29D084F82700030A84F82830030CEC
:1027300084F82930000E84F82A0084F816804FEAC5
:102740001820E07584F8241084F82620132252A162
:1027500004F12B0000F012FF552084F8FE01AA209E
:1027600084F8FF0101234A4621460298FFF758FEEC
:10277000002889D136E0A5E084F84300030A84F8F4
:102780004430030C84F84530000E84F8460084F889
:1027900024804FEA182084F825004FEA184084F876
:1027A00026004FEA186084F82700022084F82C00E5
:1027B000002084F82D0084F82E0084F82F000123D7
:1027C00084F8303084F83100062384F8323084F8FD
:1027D000330084F8401084F84220132233A104F11E
:1027E0004700B7E7032E06D1012309F1060221466F
:1027F0000298FFF715FE55464FF0000A4FF400729D
:102800000021204600F0C2FE04980190032E12D051
:10281000012E0ED06FF0FF0101430191217001984C
:10282000000A60700198000CA0700198000EE07022
:1028300018E02349F0E760F0FF0001902070019854
:10284000000A60700198000CA0700198000EE07002
:10285000FF2020716071A071E07120726072A0721F
:102860000F20E0722A466D1C012321460298FFF7D3
:10287000D7FD38BB4FF400720021204600F086FEE1
:1028800001202AE0680000201E390008EBFE904D70
:1028900053444F53352E30004E4F204E414D45206E
:1028A0002020204641542020202020004E4F204E42
:1028B000414D452020202046415433322020200025
:1028C00000FFFF0046E02A466D1C012321460298C6
:1028D000FFF7A6FDF0BB0198401C01904045F2D3E4
:1028E0000AF101005FEA000A88D0032E00D05F469B
:1028F0002A466D1C012321460298FFF791FD48BB33
:102900007F1EF5D1032E3CD15220207060706121D2
:10291000A1704122E270722084F8E40184F8E5019C
:1029200084F8E62184F8E7110098401E84F8E80155
:10293000010A84F8E911010C84F8EA11000E84F808
:10294000EB01022084F8EC01002084F8ED0184F80A
:10295000EE0100E01DE084F8EF01552084F8FE014F
:10296000AA2084F8FF01012309F1010221460298FF
:10297000FFF756FD012309F1070221460298FFF7F0
:102980004FFD002211460298FFF722FD00283FF478
:102990007CAD012070E500002DE9F74181B0904643
:1029A00002980090684600F0DFFC040003D50B207D
:1029B00004B0BDE8F0810E4E002756F8245025B132
:1029C0002846FFF7A9FA85F800720198002801D07F
:1029D00080F8007246F8240002D0B8F1010F01D04F
:1029E0000020E5E7002202A901A800F0CFFADFE706
:1029F000680000202DE9F747ADF50B7D06000ED0ED
:102A00004FF0000802F01F0727F001028CA980A8F0
:102A1000C6F8008200F0BAFA040005D0B3E009203D
:102A20000DF50E7DBDE8F08788A8869068468C99E4
:102A300000F0D8FB859D04000BD11DB1780803D0B0
:102A4000012102E0062404E000216846FFF72EFA87
:102A5000044617F01C0F5CD0D4B1042C13D1002015
:102A60004B4902E0401C022805D200EB400251F81D
:102A70002220002AF6D1022804D06846FFF706FC7F
:102A8000044600E01224859D47F0080744B17AE02F
:102A9000E87A10F0110F46D1780701D5082472E0CA
:102AA000380746D500F05EFCA873010AE973010CF3
:102AB0002974000E687485F80B8085F81C8085F8F1
:102AC0001D8085F81E8085F81F802946809800F0BB
:102AD000B9FC81460021284600F02DFE8099012096
:102AE000B9F1000F81F8040221D080984946D0F84E
:102AF0002CA200F0E9FD040045D18099A9F1010064
:102B0000C1F80C025146809800F047FD04000CD03B
:102B100039E0C4BBE87AC10601D5042433E0B90723
:102B200003D5C00701D007242DE0380701D547F0B1
:102B300020078098D0F82C02C6E98705780801D0D4
:102B4000012100E00021684600F02CFCC6F82802B4
:102B5000D8B186F8067286F807824746294606F5F8
:102B60000076809800F06EFC3061287FD5F81D104B
:102B700040EA0120C6E90270B76177628098306050
:102B8000B0F80602B08020464AE70224FBE70000C6
:102B9000940500202DE9F05F894600219A461646EB
:102BA0000446196000F05AFE002811D194F807027B
:102BB00000280DD194F80602C00708D0D4E982108D
:102BC000401A4FF0010B864200D906469AE00720D2
:102BD000BDE8F09FD4F80812C80579D1D4F80002F6
:102BE00090F80222521E02EA512212F0FF0514D17F
:102BF00031B1D4F8242232B12046FFF79FF906E024
:102C0000D4F8100203E0D4F8141200F04AFB0228B2
:102C10001FD3411C55D0C4F81402D4F81412D4F8B0
:102C20000002FFF7A0F9A0B100EB0508770A27D052
:102C3000D4F80002EA1990F802128A4200D94F1B18
:102C400090F801023B4642464946FFF7CFFBC0BB26
:102C500003E0022084F80702BAE794F8060240066F
:102C60000CD5D4F81812A1EB0800B84206D209EB33
:102C700040204FF40072214600F080FC7D0235E0D8
:102C8000D4F81822424521D094F8060240060ED509
:102C9000D4F800020123214690F80102FFF7C0FB9F
:102CA00078B994F8060220F0400084F80602D4F8BF
:102CB00000020123424690F801022146FFF796FBED
:102CC00020B184F807B2012082E701E0C4F818823D
:102CD000B4F80802C0F30800C0F50075B54200D989
:102CE000354601192A46484600F048FCD4F8080247
:102CF000A9442844C4F80802DAF800004119761BF8
:102D0000CAF80010002E7FF465AF002060E770B5B0
:102D1000044600F0A3FD002811D194F806128A069B
:102D20000DD5480612D5D4F800020123214690F8AB
:102D30000102D4F81822FFF773FB08B1012070BD1F
:102D400094F8060220F0400084F80602D4F81C1221
:102D5000D4F8000200F021FC0028F0D1D4F8205271
:102D6000E87A40F02000E87294F80C022877B4F872
:102D70000C02000A6877D4F80C02000CA877D4F88B
:102D80000C02000EE877D4F81012284604F50074FF
:102D900000F0D1FC00F0E6FAA875010AE975010C13
:102DA0002976000E68760020A874E874A07920F0D7
:102DB0002000A0712168012081F804022068BDE88C
:102DC000704000F0C0BC2DE9F05F894600219A46B2
:102DD00016460446196000F041FD002808D194F819
:102DE0000702002804D194F80602800702D40720C5
:102DF000BDE8F09FD4F808024FF0010B8119814221
:102E000078D3B1E0D4F80812C80574D1D4F8002200
:102E100092F80202401E00EA512010F0FF051ED178
:102E200031B1D4F8240240B12046FFF787F809E019
:102E3000D4F8100240B9002101E0D4F81412104671
:102E4000FFF7A0F8002855D0012839D0411C65D0E3
:102E5000C4F81402D4F8101209B9C4F8100294F896
:102E60000602400610D5D4F800020123214690F84E
:102E70000102D4F81822FFF7D3FAD0BB94F8060267
:102E800020F0400084F80602D4F81412D4F80002AE
:102E9000FFF769F8A0B100EB0508770A2CD0D4F849
:102EA0000002EA1990F802128A4200D94F1B90F8EA
:102EB00001023B4642464946FFF7B2FAC8B903E071
:102EC000022084F8070293E7D4F81812A1EB080057
:102ED000B8420CD209EB40214FF40072204600F0BA
:102EE0004DFB94F8060220F0400084F806027D02B3
:102EF0002EE013E03BE017E0D4F81812414511D062
:102F0000D4E9820188420DD2D4F80002012342465E
:102F100090F801022146FFF769FA18B184F807B268
:102F2000012065E7C4F81882B4F80802C0F308006D
:102F3000C0F50075B54200D9354620442A464946B9
:102F400000F01CFB94F8060240F0400084F80602F2
:102F5000D4F80802A9442844C4F80802DAF80000AA
:102F60004119761BCAF80010002E7FF44BAFD4E94C
:102F70008201884201D9C4F80C0294F8060240F09C
:102F8000200084F80602002032E700002DE9FF4708
:102F90004FF000090746C0F800901646084600F0BA
:102FA000E3F9050003D50B2004B0BDE8F0878A489B
:102FB00050F82540A4B13C6094F8000228B194F880
:102FC0000102FFF721FAC1070CD084F80092E8B2A1
:102FD00084F80102FFF7E8F9C10708D00320E3E70E
:102FE0000C20E1E70EB1400704D40020DCE71EB15D
:102FF000400701D50A20D7E7002529462046FEF7DD
:1030000025FF012822D100206E4604EB001191F823
:10301000C22101F5DF712AB10A7AD1F8091042EA1A
:10302000012100E0002146F82010401C0428ECD3C8
:10303000002756F8275025B129462046FEF706FFFF
:1030400000E0022040B17F1C042FF2D3032801D0FE
:10305000E8BB01E00120A7E7B4F80B00B0F5007F62
:1030600061D1E18A29B994F82400D4F8251040EA06
:103070000121C4F8181294F810C084F803C2BCF1FE
:10308000010F02D0BCF1020F4DD1667B0CFB01FC9D
:1030900084F80262DEB1701E064244D1B4F81120F9
:1030A000A4F8082210073ED1B4F8130028B994F808
:1030B0002000D4F8213040EA0320E3893BB103EB40
:1030C0000C0707EB1217B8422DD3C01B00E02AE013
:1030D000B0FBF6F038B3012640F6F678404500D351
:1030E00002264FF6F678404500D30326801C2F4475
:1030F000C4F828722B44C4F81402C4E98753032E81
:1031000013D082B103EB0C02C4F82422022E18D093
:1031100000F0010200EB400002EB500000F2FF1053
:10312000B1EB502F0FD20D203EE7002AFBD194F8CF
:103130002C20D4F82D30800042EA0322C4F8242247
:10314000ECE74000EAE74FF0FF30C4F81002C4F8A3
:103150000C02802084F80502032E30D1208E012835
:103160002DD12046691C00F018FA40BB84F8059266
:10317000B4F8FE01A0F52A41553920D12078D4F8C1
:10318000011040EA01201549884218D194F8E40161
:10319000D4F8E51140EA0120114988420FD194F892
:1031A000E801D4F8E91140EA0120C4F8100294F8CB
:1031B000EC01D4F8ED1140EA0120C4F80C020649F4
:1031C00084F80062091F0888401C0880A4F80602E1
:1031D0002046FEF7A1FE08E7680000205252614138
:1031E0007272416173B50446019908782F2801D0A5
:1031F0005C2801D1491C01910025C4F808520198AE
:103200000078202806D200212046FFF780F8C4F875
:1032100014527CBD01A92046FEF70CFF0028F8D10E
:1032200000212046FFF773F818BBD4F81012D4F829
:10323000000200F0B2F9E0B9D4F814120A787AB1B9
:10324000CA7A12070FD40B25D4F8182200236D1E5A
:1032500008D311F8013B12F8016B9B1BF7D002E079
:10326000042006E02BB100212046FEF781FF002854
:10327000DBD0D4F81812C97A28B10428C9D149077B
:10328000C7D405207CBD4907FCD4D4F81412C87AF1
:10329000C006F6D5D4F8000200F0D4F8C4F808024D
:1032A000B8E72DE9F0410D46044602290DD3D4F8C4
:1032B0001402A84209D994F800024FF0FF36012801
:1032C00007D002282AD0032836D001263046BDE890
:1032D000F081D4F8200205EB550700EB572120467A
:1032E00000F05BF90028F1D1C7F308007F1C14F847
:1032F0000080D4F8200200EB5721204600F04DF961
:103300000028E3D1C7F30800215C48EA0120E9075F
:1033100001D00609DAE7C0F30B06D7E7D4F820029C
:1033200000EB1521204600F038F90028CED1E8B294
:1033300004EB40000688C9E7D4F8200200EBD51161
:10334000204600F02AF90028C0D140F2FF1000EA20
:10335000850020440178D0F8010041EA002020F0E7
:103360007046B3E70020704710B503464FF0FF30BA
:103370001C68002C13D0214600E0491C0A78212A41
:103380000ED33A2AF9D114F8012B303A0A2A06D280
:103390008C4204D1002A02D1491C1046196010BD8C
:1033A000002010BDF0B50246254CD2F80052002096
:1033B00000EB400354F82360AE420BD104EB8303CF
:1033C000D2F808725E68BE4204D11B89B2F8066268
:1033D000B34202D0401C0228EAD302281AD10020AE
:1033E00002E0401C022805D200EB400354F82330D1
:1033F000002BF6D1022815D000EB400344F82350EF
:1034000004EB8303D2F808525D60B2F806221A81F9
:1034100000225A81002900EB400104EB8101498917
:1034200005D009B10020F0BD4FF4807100E0491CC7
:1034300000EB400204EB8202401C5181F0BD000011
:10344000940500200246488B92F80022032A02D1FC
:10345000898A40EA0140704786B0FDF7E3F9FEF73C
:1034600009FC00243B480094019402940394816970
:1034700041F010018161816901F0100104918169BD
:1034800041F0040181618069334D00F0040042F293
:1034900004060490002231462846FDF7AFF90120CA
:1034A0000096CDE901040220039069462846FDF705
:1034B000BDF8FEF71FF8FEF72BF800222749284831
:1034C000FFF76AFA00B1FEE7002211462348FEF733
:1034D000CBFF00B1FEE70A2222A12548FFF78AFAB6
:1034E00000B1FEE7234B212203F108012048FFF73A
:1034F0006AFC204C241F20701D48FEF79FFF00B17E
:10350000FEE7606808B1207800B1FEE7012215A14E
:103510001748FFF76FFA00B1FEE7164B64221B1D38
:1035200015491348FFF736FB2070A16801B100B1BF
:10353000FEE70F48FEF782FFD4E90101814200D087
:10354000FEE76420FCF7EEFF04212846FDF752F960
:10355000F7E7000000100240001001404D0000207D
:103560003801002053544D33322E5458540000007B
:10357000680300200C000020D400002003E011F8B4
:10358000013B00F8013B521EF9D27047C9B201E07D
:1035900000F8011B521EFBD2704770B50646D0F8EA
:1035A0002C020D460024A84210D0304600F026F927
:1035B00004000BD196F8010201232A463146FEF79A
:1035C00015FF08B1651E0124C6F82C52204670BDB7
:1035D0002DE9F04716460D460446022903D3D4F8D8
:1035E0001402A84202D80220BDE8F08794F8000235
:1035F00006F0FF084FF00109012820D0022850D022
:103600000328F0D1D4F8200200EBD5112046FFF7B3
:10361000C4FF0028E8D140F2FF1101EA85012144EE
:103620004FF07043D1F8012003EA022232430A70BE
:10363000130A4B70130C8B70120ECA7041E0D4F851
:10364000200205EB550700EB57212046FFF7A5FFA9
:103650000028C9D1C7F308007F1C2044E90703D024
:10366000017868F31F1100E03146017084F804927C
:10367000D4F8200200EB57212046FFF78EFF0028E8
:10368000B2D1C7F308012144EA0702D0C6F30712FA
:1036900005E00A78C6F3032302F0F0021A430A7029
:1036A0000FE0D4F8200200EB15212046FFF775FF4C
:1036B000002899D1E9B204EB4101320A81F8008077
:1036C0004A7084F804928FE72DE9F0410F460446D2
:1036D000022917D3D4F81402B84213D9002623E0E4
:1036E00039462046FFF7DDFD050021D0012D09D028
:1036F000681C09D0002239462046FFF769FF060002
:1037000016D103E0022613E0012611E0D4F81002DE
:10371000411C08D0401CC4F8100294F8050240F087
:10372000010084F805022F46D4F81402B842D7D815
:103730003046BDE8F08181760A0AC2760A0C02752D
:10374000090E4175704770B5044600F057F8050042
:1037500052D194F80002032846D194F805020128BA
:1037600042D1420200212046FFF710FF552084F885
:10377000FE01AA2084F8FF015220207060706122AF
:10378000A2704120E070722184F8E41184F8E51100
:1037900084F8E60184F8E721D4F8100284F8E801FF
:1037A000010A84F8E911010C84F8EA11000E84F88A
:1037B000EB01D4F80C0284F8EC01010A84F8ED1155
:1037C000010C84F8EE11000E84F8EF01D4F81C22ED
:1037D0000123521CC4F82C2294F801022146FEF762
:1037E0001FFE002084F80502002294F80102114611
:1037F000FEF7EEFD00B10125284670BD2DE9F04130
:10380000044690F80402002728B3D4F82C6294F8F8
:103810000102012332462146FEF702FE08B10127CC
:1038200019E0002084F80402D4F82002D4F8181219
:10383000301A88420FD294F803520AE0D4F81802E2
:103840000123064494F8010232462146FEF7E8FDC2
:103850006D1E022DF2D23846BDE8F08110B588B158
:10386000D0F8001271B191F800225AB1B1F80622D5
:10387000B0F80402824205D191F80102FEF7C4FDBE
:10388000C00700D0092010BDFFFFFFFFFF000000B0
:103890000000000000010203040607080900809AE6
:1038A00090B68EB78F80D2D3D4D8D7DE8E8F909239
:1038B00092E299E3EAEB59999A9D9C9D9E9FB5D619
:1038C000E0E9A5A5A6A7A8A9AAABAC21AEAFB0B167
:1038D000B2B3B4B5B6B7B8B9BABBBCBDBEBFC0C150
:1038E000C2C3C4C5C7C7C8C9CACBCCCDCECFD0D13F
:1038F000D2D3D4D5D6D7D8D9DADBDCDDDEDFE0E130
:10390000E2E3E5E5E6E7E7E9EAEBEDEDEEEFF0F11E
:10391000F2F3F4F5F6F7F8F9FAFBFCFDFEFF00040C
:103920000002000180004000200010000800040098
:10393000020000000080004000200010000800404D
:103940000020001000080004000200006C3900088C
:10395000000000206C0000002E1E0008D83900086E
:103960006C0000204C0900003E1E0008E803000027
:103970000000000000000000000000000000000047
:10398000546869732069732053544D333220776F24
:10399000726B696E6720776974682046617446733C
:1039A00000010000311D0008D11D0008951D000810
:1039B000F11D0008511D000800000000000000007B
:1039C00001000000100000000000000000A24A04F6
:0839D0000000000000000000EF
:04000005080001519D
:00000001FF
