:020000040800F2
:1000000098060020FD01000805020008070200080C
:10001000090200080B0200080D02000800000000A1
:100020000000000000000000000000000F020008B7
:10003000110200080000000013020008510500082A
:10004000170200081702000817020008170200082C
:10005000170200081702000817020008170200081C
:10006000170200081702000817020008170200080C
:1000700017020008170200081702000817020008FC
:1000800017020008170200081702000817020008EC
:1000900017020008170200081702000817020008DC
:1000A00017020008170200081702000817020008CC
:1000B00017020008170200081702000817020008BC
:1000C00017020008170200081702000817020008AC
:1000D000170200081702000817020008170200089C
:1000E00017020008170200081702000800000000AD
:1000F0000000000000000000000000000000000000
:1001000000000000000000001702000817020008AD
:10011000170200081702000817020008170200085B
:10012000170200081702000817020008170200084B
:10013000170200081702000817020008170200083B
:10014000170200081702000817020008170200082B
:1001500000F002F800F042F80AA090E8000C824497
:100160008344AAF10107DA4501D100F037F8AFF274
:10017000090EBAE80F0013F0010F18BFFB1A43F085
:10018000010318471C1A00003C1A0000103A24BF53
:1001900078C878C1FAD8520724BF30C830C144BFEC
:1001A00004680C607047000000230024002500262E
:1001B000103A28BF78C1FBD8520728BF30C148BFCA
:1001C0000B607047642901F0D783632901F07684BE
:1001D000002070471FB51FBD10B510BD01F0A8FC71
:1001E0001146FFF7F7FF00F044F801F0C6FC03B436
:1001F000FFF7F2FF03BC01F0CBFC00000948804789
:1002000009480047FEE7FEE7FEE7FEE7FEE7FEE7F8
:10021000FEE7FEE7FEE7FEE704480549054A064B10
:10022000704700007906000851010008980000207E
:1002300098060020980200209802002070B504461D
:100240000D4600BF8021194800F0A2FE0028F9D019
:10025000A1B2164800F02EFE00BF8021144800F025
:1002600097FE0028F9D0A1B2114800F023FE2046E5
:1002700070BD00F03FF800F04FF800F085F800F096
:100280009CF800F0B3F800F023F90AA001F00AFB93
:100290000BE000F0F4F80446B02221460EA001F075
:1002A00001FB4FF4C87000F040F9F2E7003801405C
:1002B000004400404E616D696E69632053544D33B4
:1002C00032206576616C756174696F6E20626F6152
:1002D00072640A0A0A00000054656D7065726174E8
:1002E000757265206973203A202564202563430ACE
:1002F0000D00000010B50121092001F0C0F8012116
:10030000880301F0BCF80121212001F0B8F8012197
:10031000480401F0C1F810BD08B50121082001F022
:1003200044FA0121042001F040FA4020ADF8000019
:1003300003208DF8020018208DF8030069465E48FE
:1003400001F062F98020ADF8000004208DF8030070
:100350006946594801F058F92020ADF80000032003
:100360008DF8020018208DF803006946534801F00B
:100370004BF94020ADF8000004208DF803006946D9
:100380004E4801F041F908BD1FB54FF416500090DA
:100390000020ADF80400ADF80600ADF80800ADF897
:1003A0000C000C20ADF80A006946454800F089FCB5
:1003B0000121434800F011FD1FBD1FB54FF4165039
:1003C00000900020ADF80400ADF80600ADF808007C
:1003D000ADF80C000C20ADF80A006946394800F071
:1003E00070FC0121374800F0F8FC1FBD00B587B054
:1003F00001214FF4047001F042F802208DF806004C
:1004000000208DF807000120ADF8040001A92E4856
:1004100001F0FAF84FF4004000F01AFF0121480201
:1004200001F02DF8294800F0E1F9002002908DF844
:100430000C008DF80D004FF4602004900020059012
:1004400001208DF8180002A9204800F0F6F90121DA
:100450001E4800F01EFA1D4800F03DFA00BF1B4880
:1004600000F03EFA0028FAD1184800F043FA00BF25
:10047000164800F044FA0028FAD107B000BD70B564
:10048000002301220A21114800F06FFA01210F48D0
:1004900000F03FFA00BF02210C4800F0ABFB00283F
:1004A000F9D00A4800F0C8FA05460C24B5FBF4F070
:1004B0004408A41E204670BD000C014000140140F9
:1004C0000038014000440040001001400024014079
:1004D00030B5214800684FF47A72B0FBF2F1481E43
:1004E000B0F1807F01D301201BE0481E4FF0E022D5
:1004F000506150170F22002807DA13071D0E174B03
:1005000000F00F04241F1D5503E013071C0E144BAD
:100510001C5400BF00204FF0E022906107201061C2
:10052000002008B100BFFEE730BD01B50D490098BD
:10053000086000BF0B4800680028FBD108BD0948CF
:10054000006820B107480068401E064908607047EF
:1005500000B5FFF7F4FF00BD1000002018ED00E02B
:1005600000E400E00C0000200CB500200190009099
:100570009248006840F480309049086000BF8F487E
:10058000006800F4003000900198401C0190009831
:1005900018B90198B0F5A06FF1D18848006800F44F
:1005A000003010B10120009001E000200090009880
:1005B00001285CD18248006840F010008049086042
:1005C0000846006820F0030008600846006840F014
:1005D00002000860794840687849486008464068E9
:1005E00048600846406840F4806048600846C06A39
:1005F000744908407149C8620846C06A7249084394
:100600006E49C8620846006840F08060086000BF1C
:100610006A48006800F000600028F9D06748406828
:1006200020F47C10654948600846406840F4E810B2
:1006300048600846006840F08070086000BF5F486E
:10064000006800F000700028F9D05C48406820F095
:1006500003005A4948600846406840F0020048607C
:1006600000BF5648406800F00C000828F9D10CBDC6
:1006700010B5FFF779FF10BD10B55048006840F085
:1006800001004E49086008464068504908404B49FF
:100690004860084600684E490840484908600846D6
:1006A000006820F4802008600846406820F4FE00BE
:1006B00048600846006820F0A05008604FF47F00B2
:1006C00088600020C862FFF7D3FF4FF00060414907
:1006D000086010BDF0B50021002000230024002296
:1006E00000250026354F7F6807F00C0121B1042951
:1006F00008D008294BD10BE0374FDFF8E0C0CCF829
:1007000000704AE0364FDFF8D4C0CCF8007044E007
:100710002A4F7F6807F47010284F7F6807F48033F2
:10072000800C0D2801D0801C00E0062033B92D4F2D
:100730004743DFF8A8C0CCF8007027E01F4FFF6ADE
:1007400007F480341D4FFF6A07F00F077A1C44B985
:10075000234FB7FBF2F74743DFF880C0CCF80070B7
:1007600014E0164FFF6AC7F303177D1C134FFF6A8F
:10077000C7F30327BE1C1A4FB7FBF5F77743B7FB48
:10078000F2F74743DFF854C0CCF8007005E0124F91
:10079000DFF848C0CCF8007000BF00BF074F7F688B
:1007A000C7F30317DFF840C01CF807100B4F3F6872
:1007B000CF40DFF828C0CCF80070F0BD0010024038
:1007C0000020024000F0FEFF440601000000FFF0A0
:1007D000FFFFF6FE08ED00E000127A001000002096
:1007E00040787D0100093D001400002010B504464A
:1007F000FA48844208D10121401500F067FE00212B
:10080000601500F063FE17E0F548844208D101212D
:10081000001500F05BFE0021201500F057FE0BE0F4
:10082000F048844208D10121C80300F04FFE0021A6
:100830004FF4004000F04AFE10BD30B502460020E3
:1008400000235068E84C20400D790C6844EA0524E8
:10085000204350609068E54C2040D1E902542C437D
:100860004D7944EA450420439060D06A20F470003A
:100870000C7C641EE4B2234340EA0350D06230BDD6
:1008800000210160017141718160C1600121017429
:10089000704721B1826842F00102826003E0826801
:1008A00022F001028260704721B1826842F48072B6
:1008B000826003E0826822F480728260704710B523
:1008C0000023CBB21AB144681C43446002E0446880
:1008D0009C43446010BD816841F00801816070470D
:1008E000014600208A6802F008020AB1012000E0F7
:1008F00000207047816841F0040181607047014623
:1009000000208A6802F004020AB1012000E0002001
:10091000704721B1826842F4A002826003E08268DD
:1009200022F4A00282607047014600208A6802F427
:1009300080020AB1012000E00020704710B50A468D
:1009400000210023416821F46041531E41EA4331F4
:10095000416010BD21B1426842F40062426003E090
:10096000426822F4006242607047F0B504460D46CA
:1009700000200021092D11DDE068A5F10A0606EB33
:100980004607072606FA07F18843A5F10A0606EB93
:10099000460603FA06F10843E0600CE0206905EB27
:1009A0004507072606FA07F1884305EB450603FAD3
:1009B00006F108432061072A0FDA606B561E06EB2A
:1009C00086071F2606FA07F18843561E06EB8606A1
:1009D00005FA06F10843606322E00D2A0FDA206B66
:1009E000D61F06EB86071F2606FA07F18843D61F97
:1009F00006EB860605FA06F10843206310E0E06A7C
:100A0000A2F10D0606EB86071F2606FA07F18843BA
:100A1000A2F10D0606EB860605FA06F10843E06230
:100A2000F0BD21B1826842F48012826003E08268E6
:100A300022F48012826070470146C86C80B2704711
:100A400066484C300068704721B1426842F48062C9
:100A5000426003E0426822F480624260704721B144
:100A6000426842F48052426003E0426822F48052BD
:100A7000426070470A460021816821F4E041114339
:100A80008160704721B1826842F40042826003E0D5
:100A9000826822F400428260704721B1826842F489
:100AA0000212826003E0826822F4021282607047C0
:100AB000014600208A6802F400120AB1012000E019
:100AC00000207047F0B5044615460020002200269D
:100AD000092911DDE068A1F10A0707EB470C072798
:100AE00007FA0CF29043A1F10A0707EB470703FA54
:100AF00007F21043E0600CE0206901EB410C07278E
:100B000007FA0CF2904301EB410703FA07F2104396
:100B10002061A06BC0F30156EF1C06F1010CA7EB9E
:100B20000C0707EB870C1F2707FA0CF29043EF1C0A
:100B300006F1010CA7EB0C0707EB870701FA07F298
:100B40001043A063F0BD10B50A4600210023816B5D
:100B500021F44011531E41EA0351816310BD08B5D1
:100B6000002300930090009B0B440093009B1A60AD
:100B700008BD08B5024600200090009201F128004F
:100B8000009B184400900098006880B208BD0A4697
:100B900000214168164B1940114341607047416282
:100BA000826270470A460021416821F01F0111430B
:100BB0004160704740B109490831096841F40001BA
:100BC000064A0832116007E004490831096821F437
:100BD0000001024A08321160704700000024014001
:100BE00000280140003C0140FFFEF0FFFDF7F1FF4F
:100BF000FFFD3FFF0246002013680B400BB10120B0
:100C000000E000207047CA430260704770B502469A
:100C10000020002300240B125568CEB205EA06041A
:100C200015681D4015B10CB1012000E0002070BD19
:100C300000220A12D34303607047000010B5044637
:100C4000FB48844209D10121880300F03FFC0021C8
:100C50004FF4804000F03AFC32E0F648844209D17B
:100C60000121480400F03FFC00214FF4003000F067
:100C70003AFC25E0F048844209D10121880400F0C3
:100C800032FC00214FF4802000F02DFC18E0EB48EE
:100C9000844209D10121C80400F025FC00214FF451
:100CA000002000F020FC0BE0E548844208D101213F
:100CB000080500F018FC00214FF4801000F013FC30
:100CC00010BD2DE9F04786B005460E460024A24629
:100CD00000BFA1460027B08900B100BF2F462C8A73
:100CE0004CF6FF700440F08804432C82AC894EF629
:100CF000F3100440B08831890843718908430443E4
:100D0000AC81AC8A4FF6FF400440B0890443AC820A
:100D100001A800F0D3FAC648874202D1DDF810A03E
:100D200001E0DDF80CA0A88900F4004040B10AEB16
:100D3000CA0000EB0A1031684900B0FBF1F807E087
:100D40000AEBCA0000EB0A1031688900B0FBF1F829
:100D50006420B8FBF0F004012009642101FB108934
:100D6000A88900F4004040B1322000EBC900B0FB7C
:100D7000F1F000F00700044308E0322000EB091016
:100D80006421B0FBF1F000F00F0004432C8106B0A9
:100D9000BDE8F0874FF41651016000218180C180C9
:100DA00001810C21418100218181704710B50246EB
:100DB0000020108A4FF2FF0318400B884C88234311
:100DC0008C882343CC8823431843108210BD002114
:100DD000018041808180C180704721B1828942F4C5
:100DE0000052828104E082894DF6FF731A408281AD
:100DF0007047F0B50346002400260025002040F689
:100E00006A17B94200D100BF1846C1F3421401F07D
:100E10001F06012707FA06F5012C01D10C3004E06A
:100E2000022C01D1103000E014301AB107682F43B2
:100E3000076002E00768AF430760F0BD1AB1838A1C
:100E40000B43838202E0838A8B4383827047028A4A
:100E50004FF6F0731A400282028A0A4302827047F8
:100E600082894FF2FF731A40828182890A4382810C
:100E7000704721B1828942F00202828104E08289B6
:100E80004FF6FD731A4082817047028A4FF6DF7376
:100E90001A400282028A0A430282704721B1028A02
:100EA00042F48042028204E0028A4BF6FF731A4049
:100EB00002827047C1F30802828070470146888829
:100EC000C0F308007047818941F0010181817047BA
:100ED000028BD2B20283028B42EA01220283704764
:100EE000028B02F47F420283028B0A430283704723
:100EF00021B1828A42F02002828204E0828A4FF687
:100F0000DF731A408282704721B1828A42F0100258
:100F1000828204E0828A4FF6EF731A408282704721
:100F200021B1828A42F00802828204E0828A4FF66E
:100F3000F7731A408282704721B1828942F40042DD
:100F4000828103E08289C2F30E028281704721B15F
:100F5000828A42F40062828204E0828A4FF2FF7346
:100F60001A4082827047828A4FF6FB731A4082824F
:100F7000828A0A438282704721B1828A42F0020249
:100F8000828204E0828A4FF6FD731A4082827047A3
:100F900002460020B1F5007F00D100BF13880B404E
:100FA0000BB1012000E00020704701F40072B2F59F
:100FB000007F00D100BFCA430280704770B502466F
:100FC000002400230025002040F66A16B14200D11B
:100FD00000BFC1F3421501F01F03012606FA03F317
:100FE000012D02D19689334006E0022D02D1168AE6
:100FF000334001E0968A33400C12012606FA04F4CD
:101000001688344013B10CB1012000E0002070BDFF
:1010100010B50022002340F66A14A14200D100BF9F
:101020000A1201249440A3B2DC43048010BD0000E6
:10103000003801400044004000480040004C00409F
:1010400000500040FB48006840F00100F94908608A
:1010500008464068F8490840F64948600846006874
:10106000F6490840F34908600846006820F48020EB
:1010700008600846406820F4FE00486008460068A2
:1010800020F0A05008604FF47F0088600020C86204
:101090007047E849096821F48031E64A1160114639
:1010A000096821F480211160B0F5803F03D0B0F5CC
:1010B000802F0ED106E0DF49096841F48031DD4A16
:1010C000116007E0DB49096841F4A021D94A1160A9
:1010D00000E000BF00BF704710B5014600220023AA
:1010E00000204A11012A02D1D24C236806E0022ACC
:1010F00002D1D04C236A01E0CE4C636A01F01F029A
:10110000012494401C400CB1012000E0002010BDDF
:1011100038B5002000900024002500BF3120FFF7E3
:10112000DBFF05460098401C00900098B0F5A06FCA
:1011300001D0002DF2D03120FFF7CEFF08B10124FD
:1011400000E00024204638BD01460020B94A10685E
:1011500020F0F80040EAC10010607047B84908600C
:10116000704702460020B34B586820F4741042EADE
:1011700001031843AF4B58607047B1490866704788
:1011800002460020AB4BD86AAE4B184042EA01033E
:101190001843A84BD862704701460020A54AD06A80
:1011A00020F0F0000843D062704701460020A14AB9
:1011B000D06A20F470600843D0627047A049886606
:1011C0007047014600209B4AD06A20F470400843D3
:1011D000D06270479A490867704701460020954AD7
:1011E000506820F003000843506070479148406801
:1011F00000F00C007047014600208E4A506820F035
:10120000F00008435060704701460020894A50684A
:1012100020F4E06008435060704701460020854A92
:10122000506820F4605040EAC1005060704729B116
:10123000804A527A02437F4B5A7204E07D4A527AC6
:1012400082437C4B5A7270477D49D83108607047A1
:1012500001460020774A506820F44040084350601F
:1012600070477949086070477749091D08607047E1
:101270000021704A203211706E4A82F82010012835
:1012800002D004280AD104E001216A4A20321170F8
:1012900005E00521674A2032117000E000BF00BF61
:1012A00070476A49086070476249096A0143614AA8
:1012B0001162704765494439086070472DE9F04173
:1012C00000210022002500230026002400278C4650
:1012D000DFF86081D8F8048008F00C0121B10429FE
:1012E00007D0082959D109E0DFF86481C0F80080EF
:1012F00058E0DFF86081C0F8008053E0DFF8348107
:10130000D8F8048008F47012DFF82881D8F8048037
:1013100008F48035920C0D2A01D0921C00E00622C0
:1013200035B9DFF8348102FB08F8C0F8008033E0FB
:10133000DFF80081D8F82C8008F48036DFF8F480DC
:10134000D8F82C8008F00F0808F1010446B9DFF83E
:101350000481B8FBF4F808FB02F8C0F800801BE039
:10136000DFF8D080D8F82C80C8F3031808F1010703
:10137000DFF8C080D8F82C80C8F3032808F1020CED
:10138000DFF8D080B8FBF7F808FB0CF8B8FBF4F8EE
:1013900008FB02F8C0F8008004E0DFF8B480C0F871
:1013A000008000BF00BFDFF88C80D8F8048008F010
:1013B000F0010909DFF8A48018F80130D0F80080A6
:1013C00028FA03F8C0F80480DFF86880D8F80480B1
:1013D00008F4E061090ADFF8848018F80130D0F8D9
:1013E000048028FA03F8C0F80880DFF84880D8F8AD
:1013F000048008F46051C90ADFF8608018F80130F1
:10140000D0F8048028FA03F8C0F80C80DFF82480B4
:10141000D8F8048008F44041890BDFF8448018F8BC
:101420000130D0F80C80B8FBF3F8C0F81080BDE8AC
:10143000F0810000001002400000FFF0FFFFF6FE08
:1014400000004242F0FFFEFFC405424280044242D7
:1014500000127A0040787D0100093D002400002040
:101460003400002029B1354A52690243334B5A6196
:1014700004E0324A52698243304B5A61704729B1C5
:101480002E4A926902432D4B9A6104E02B4A9269DD
:1014900082432A4B9A61704729B1284AD269024394
:1014A000264BDA6104E0254AD2698243234BDA6194
:1014B000704729B1214A926A0243204B9A6204E0A4
:1014C0001E4A926A82431D4B9A62704729B11B4A99
:1014D000D2680243194BDA6004E0184AD2688243AA
:1014E000164BDA60704729B1144A12690243134B54
:1014F0001A6104E0114A12698243104B1A61704765
:101500000F49086070470F49C86470470B49C8719C
:1015100070470A48406A40F0807008494862704746
:1015200001460020054A92680A400AB1012000E005
:101530000020704701498872704700000010024087
:10154000400442420000424210B50446CC48844266
:1015500008D101210420FFF7B9FF00210420FFF783
:10156000B5FF46E0C748844208D101210820FFF7B3
:10157000ADFF00210820FFF7A9FF3AE0C2488442EE
:1015800008D101211020FFF7A1FF00211020FFF753
:101590009DFF2EE0BD48844208D101212020FFF7A5
:1015A00095FF00212020FFF791FF22E0B8488442F8
:1015B00008D101214020FFF789FF00214020FFF7DB
:1015C00085FF16E0B348844208D101218020FFF74F
:1015D0007DFF00218020FFF779FF0AE0AE488442BA
:1015E00007D101218015FFF771FF0021A015FFF73A
:1015F0006DFF10BD10B501210846FFF767FF002100
:101600000120FFF763FF10BD2DE9F04102460025E0
:101610000026002000230024002791F803C00CF0CE
:101620000F0591F803C00CF0100CBCF1000F03D0B3
:1016300091F802C04CEA050591F800C0BCF1000F1A
:1016400031D0146800202BE04FF0010C0CFA00F3AD
:10165000B1F800C00CEA03069E4220D183004FF08F
:101660000F0C0CFA03F7BC4305FA03FC4CEA040424
:1016700091F803C0BCF1280F06D14FF0010C0CFA11
:1016800000FCC2F814C00AE091F803C0BCF1480F96
:1016900005D14FF0010C0CFA00FCC2F810C0401C40
:1016A0000828D1D31460B1F800C0BCF1FF0F34DDBD
:1016B000546800202EE000F1080C4FF0010808FAF1
:1016C0000CF3B1F800C00CEA03069E4221D183005E
:1016D0004FF00F0C0CFA03F7BC4305FA03FC4CEA7D
:1016E000040491F803C0BCF1280F05D100F1080CE7
:1016F00008FA0CF8C2F8148091F803C0BCF1480F46
:1017000007D100F1080C4FF0010808FA0CF8C2F8F4
:101710001080401C0828CED35460BDE8F0814FF6FD
:10172000FF710180022181700421C170704702465F
:10173000002093680B400BB1012000E000207047AF
:101740000146886880B2704702460020D3680B408B
:101750000BB1012000E0002070470146C86880B24C
:10176000704701617047416170470AB1016100E053
:1017700041617047C16070474FF480320A43826113
:101780008161826182698269704702460020434B11
:1017900018684FF68073184040EA021008433F4B28
:1017A000186070473E49C8617047F0B50A4600238B
:1017B00000240021002500F00046B6F1004F02D1C0
:1017C000364EF16901E0354E7168C0F3034583B2CE
:1017D00000F44016B6F5401F08D121F070612F4E7D
:1017E000766826F070662D4F7E6012E000F4801659
:1017F000B6F5801F06D1032606FA05F4A14341F091
:10180000706106E0460D360103FA06F6B14341F079
:10181000706122B1460D360103FA06F6314300F03D
:101820000046B6F1004F02D11C4EF16101E01B4EA3
:101830007160F0BD30B500228B071C0F0F2303FA37
:1018400004F2164B08338C1053F824309343134C96
:1018500008348D1044F8253023468C1053F824307A
:101860008C07240F00FA04F423430C4C08348D1029
:1018700044F8253030BD0A49DC310860704700006B
:1018800000080140000C014000100140001401401C
:1018900000180140001C01400020014000000140F0
:1018A000000020420FB4044910B503AA029800F0CA
:1018B00011F910BC5DF814FB000000202DE9F04187
:1018C0000E460446002020622046E168884730B377
:1018D000252805D0D4E901219047206A401CF2E771
:1018E000E168204600278847050018D0A5F141008F
:1018F000192802D820354FF4006732462946204681
:101900002760FEF75FFC40B1012804D0F61D26F0E9
:1019100007060836D8E7361DD6E72846DAE7206AF4
:10192000BDE8F08170B50C460546012A05D028783F
:10193000800600D5EA69002302E0012305E05B1C74
:10194000934202D2E05C0028F9D1A869E618C01AD7
:10195000A861286A184428622846AFF3008004E092
:10196000D5E9012114F8010B9047B442F8D3284679
:10197000AFF3008070BD00002DE9F0410646002461
:1019800010687529314616A510D0AFF300800028E5
:1019900002DA404213A507E031688A0701D512A593
:1019A00002E0490704D511A5012401E0AFF300804E
:1019B00000210A2206F1240709E0B0FBF2FCB0FB8B
:1019C000F2F302FB1C00303078541846491C002802
:1019D000F3D123462A463046BDE8F04100F00BB86B
:1019E000000000002D0000002B000000200000007F
:1019F0007047704770472DE9F0470D46994692466B
:101A0000044600F124080168880604D5E06921F045
:101A10001001216000E00120A84201DD471B00E029
:101A20000027A1697A1902EB0900081AA061207841
:101A3000C00602D42046AFF30080002608E0D4E9B7
:101A400001211AF806009047206A401C761C20628B
:101A50004E45F4DB2078C0060AD52046AFF300805F
:101A600006E0D4E9012130209047206A401C206222
:101A7000381EA7F10107F4DC07E0D4E9012118F8CA
:101A800005009047206A401C2062281EA5F1010530
:101A9000F3DC2046AFF300802078000602D5022058
:101AA000BDE8F0870120FBE710B5436913B1AFF340
:101AB000008001E0FFF736FF012010BD127800F131
:101AC00024010A7000224A700122EDE711684FF0EC
:101AD000FF32E9E7074B70B50D467B4400F011F883
:101AE0000446284600F020F810B14FF0FF3070BDDA
:101AF000204670BD5FE7FFFF01694A1C026108785C
:101B0000704700B58FB0CDE901310021059105493D
:101B10007944CDE9031011466846FFF7CFFE0FB0B8
:101B200000BD0000E5FFFFFF007B00F08000704774
:101B3000754600F029F8AE4605006946534620F088
:101B40000700854618B020B5FEF766FBBDE82040CB
:101B50004FF000064FF000074FF000084FF0000B69
:101B600021F00701AC46ACE8C009ACE8C009ACE81C
:101B7000C009ACE8C0098D4670470446AFF3008049
:101B80002046FEF734FB0000004870473800002074
:101B900001491820ABBEFEE7260002007047000096
:101BA000C01B000800000020380000008C01000865
:101BB000F81B00083800002060060000A80100089B
:101BC0000000000000000000000000000000000015
:101BD00000A24A040000000000000000010203040B
:101BE00006070809000000000102030401020304C3
:081BF0000607080902040608BB
:04000005080001519D
:00000001FF
